:100000000C94EC020C9414030C9414030C9414033D
:100010000C9414030C9414030C9414030C94140304
:100020000C9414030C9414030C9414030C941403F4
:100030000C9414030C9414030C9414030C941403E4
:100040000C947A170C9414030C9414030C9414035A
:100050000C9414030C9414030C9414030C941403C4
:100060000C94C4170C94140305A84CCDB2D44EB90B
:100070003836A9020C50B9918688083CA6AAAA2A4B
:10008000BE000000803F00000000003E5B4F5B3E72
:100090003E6B4F6B3E1C3E7C3E1C183C7E3C181C4D
:1000A000577D571C1C5E7F5E1C00183C1800FFE744
:1000B000C3E7FF0018241800FFE7DBE7FF30483AEA
:1000C000060E2629792926407F050507407F05254C
:1000D0003F5A3CE73C5A7F3E1C1C08081C1C3E7FD4
:1000E00014227F22145F5F005F5F06097F017F009B
:1000F0006689956A606060606094A2FFA2940804BB
:100100007E040810207E201008082A1C08081C2ADB
:1001100008081E101010100C1E0C1E0C30383E3833
:1001200030060E3E0E06000000000000005F0000DA
:100130000007000700147F147F14242A7F2A12234B
:100140001308646236495620500008070300001C5B
:100150002241000041221C002A1C7F1C2A08083E64
:100160000808008070300008080808080000606077
:100170000020100804023E5149453E00427F4000E5
:1001800072494949462141494D331814127F1027BD
:10019000454545393C4A494931412111090736490C
:1001A000494936464949291E0000140000004034E0
:1001B00000000008142241141414141400412214E5
:1001C0000802015909063E415D594E7C1211127C0C
:1001D0007F494949363E414141227F4141413E7F6D
:1001E000494949417F090909013E414151737F084D
:1001F00008087F00417F41002040413F017F0814F3
:1002000022417F404040407F021C027F7F04081053
:100210007F3E4141413E7F090909063E4151215E31
:100220007F09192946264949493203017F01033FC5
:100230004040403F1F2040201F3F4038403F631454
:1002400008146303047804036159494D43007F4156
:1002500041410204081020004141417F0402010293
:1002600004404040404000030708002054547840B8
:100270007F284444383844444428384444287F384C
:100280005454541800087E090218A4A49C787F08CE
:1002900004047800447D40002040403D007F102849
:1002A000440000417F40007C047804787C0804040A
:1002B000783844444438FC1824241818242418FCA2
:1002C0007C08040408485454542404043F44243C47
:1002D0004040207C1C2040201C3C4030403C4428B6
:1002E0001028444C9090907C4464544C4400083650
:1002F00041000000770000004136080002010204BE
:10030000023C2623263C1EA1A161123A4040207ADD
:100310003854545559215555794122545478422125
:100320005554784020545579400C1E52721239555C
:100330005555593954545459395554545800004559
:100340007C410002457D420001457C407D12111236
:100350007DF0282528F07C545545002054547C54C9
:100360007C0A097F4932494949323A4444443A3285
:100370004A4848303A4141217A3A42402078009D2B
:10038000A0A07D3D4242423D3D4040403D3C24FFD7
:100390002424487E4943662B2FFC2F2BFF0929F686
:1003A00020C0887E090320545479410000447D41D7
:1003B0003048484A32384040227A007A0A0A727D30
:1003C0000D19317D2629292F28262929292630484B
:1003D0004D4020380808080808080808382F10C8B9
:1003E000ACBA2F102834FA00007B000008142A143D
:1003F0002222142A14085500550055AA55AA55AAB8
:10040000FF55FF55FF000000FF00101010FF001403
:100410001414FF001010FF00FF1010F010F014145F
:1004200014FC001414F700FF0000FF00FF1414F484
:1004300004FC141417101F10101F101F1414141F85
:1004400000101010F0000000001F101010101F10FE
:10045000101010F010000000FF10101010101010FD
:100460001010FF10000000FF140000FF00FF00004C
:100470001F10170000FC04F414141710171414F4C0
:1004800004F40000FF00F714141414141414F700FB
:10049000F7141414171410101F101F141414F4144C
:1004A0001010F010F000001F101F0000001F1400BB
:1004B0000000FC140000F010F01010FF10FF1414E6
:1004C00014FF141010101F00000000F010FFFFFFB9
:1004D000FFFFF0F0F0F0F0FFFFFF0000000000FF72
:1004E000FF0F0F0F0F0F3844443844FC4A4A4A3478
:1004F0007E02020606027E027E026355494163388F
:1005000044443C04407E201E2006027E020299A53F
:10051000E7A5991C2A492A1C4C7201724C304A4D9D
:100520004D303048784830BC625A463D3E494949D2
:10053000007E0101017E2A2A2A2A2A44445F44447B
:1005400040514A444040444A51400000FF0103E00A
:1005500080FF000008086B6B083612362436000650
:10056000090906000018180000001010003040FFB4
:100570000101001F01011E00191D1712003C3C3C27
:100580003C00000000000000000800020100000321
:10059000040700000000000000000000000025002B
:1005A00028002B0000000000240027002A0004047B
:1005B000040404040404020202020202030303030B
:1005C00003030102040810204080010204081020E7
:1005D000010204081020DF1811241FBECFEFD8E05D
:1005E000DEBFCDBF11E0A0E0B1E0E0E2F8E402C080
:1005F00005900D92AA3FB107D9F722E0AAEFB1E02A
:1006000001C01D92AA38B207E1F712E0CCEED2E0A9
:1006100004C02197FE010E94D61FCB3ED107C9F727
:100620000E9456190C940E240C940000AF92BF92B5
:10063000CF92DF92EF92FF920F931F93CF93DF93AE
:10064000EC016B015A01E881F9810484F585E02D04
:100650000995E881F9810488F589E02D80EEE82E7E
:10066000FF24FA940DE910E095014DE950E0B60140
:10067000CE010995E881F9810688F789E02DCE0140
:10068000DF91CF911F910F91FF90EF90DF90CF906E
:10069000BF90AF90099490E0FC01EE53FA4F249183
:1006A00082559A4FFC018491882399F090E0880F3D
:1006B000991FFC01EC55FA4FA591B491FC01E65647
:1006C000FA4F859194918FB7F894EC91E22BEC93CB
:1006D0008FBF0895AF92BF92CF92DF92EF92FF92B9
:1006E0000F931F93CF93DF936C017B018B01040F5A
:1006F000151FEB015E01AE18BF08C017D10759F0F6
:100700006991D601ED91FC910190F081E02DC60137
:100710000995892B79F7C501DF91CF911F910F9131
:10072000FF90EF90DF90CF90BF90AF90089590E052
:10073000FC01EA57FA4F2491FC01EE53FA4F349131
:10074000FC01E255FA4FE491EE23C9F0222339F07F
:10075000233001F1A8F4213019F1223029F1F0E021
:10076000EE0FFF1FE656FA4FA591B4918FB7F8949C
:10077000EC91611126C030953E233C938FBF0895C4
:100780002730A9F02830C9F0243049F78091800043
:100790008F7D03C0809180008F7780938000DFCFB2
:1007A00084B58F7784BDDBCF84B58F7DFBCF8091FF
:1007B000B0008F778093B000D2CF8091B0008F7D52
:1007C000F9CF3E2BDACF3FB7F89480917502909124
:1007D0007602A0917702B091780226B5A89B05C059
:1007E0002F3F19F00196A11DB11D3FBFBA2FA92FB0
:1007F000982F8827BC01CD01620F711D811D911DAD
:1008000042E0660F771F881F991F4A95D1F7089518
:100810008F929F92AF92BF92CF92DF92EF92FF9210
:100820006B017C010E94E3034B015C01C114D10404
:10083000E104F104B9F00E94E303681979098A0917
:100840009B09683E73408105910580F321E0C21A3F
:10085000D108E108F10888EE880E83E0981EA11CFB
:10086000B11CE4CFFF90EF90DF90CF90BF90AF909E
:100870009F908F90089520912602260F3327331FD3
:1008800021323105ECF420914A02FC0190E080E035
:10089000243069F082E00895A09126022191AC01F4
:1008A0004A5F5D4FA40FB52FB11D2C93019686179B
:1008B00098F380912602680F6093260280E00895E5
:1008C00081E0089508958FEF9FEF08958FEF9FEFD8
:1008D00008958091FF0190E0919581959109089587
:1008E000CF93DF93CB01EA01642F0E943B04CE013A
:1008F000DF91CF910895CF93DF931F92CDB7DEB7ED
:10090000698361E0CE0101960E943B0481E090E0A2
:100910000F90DF91CF910895EF92FF920F931F9365
:10092000CF93DF93EC017A018EA99FA986179707D1
:1009300029F48AAD9BAD82179307B1F07FAB6EAB04
:100940003BAF2AAF8CA59DA54CA9460F572F511D33
:1009500021503109240F351FDC01ED91FC91008CF1
:10096000F18DE02D6AE2099588AD99AD8E159F0550
:1009700029F48CAD9DAD80179107B9F0F9AEE8AEC2
:100980001DAF0CAF8CA59DA54DA94E0D5F2D511D22
:10099000015011099801240F351FDC01ED91FC91E4
:1009A000008CF18DE02D6BE209958CA59DA5DC01F5
:1009B000ED91FC910680F781E02D6CE2DF91CF9103
:1009C0001F910F91FF90EF900994FC0180858F3F5C
:1009D00031F0A485B5859C918089892B8C930895ED
:1009E000FC018385882331F09091790280917A020D
:1009F0009CBD8DBDA685B7858C919289892B8C93E2
:100A000080858F3F31F0A485B5858C9191898923AC
:100A10008C9308958EBD00000DB407FEFDCF8EB5FA
:100A20000895CF92DF92EF92FF921F93CF93DF93BF
:100A300069017A01EB0181E0C81AD108E108F108E7
:100A40008FEFC816D806E806F80669F01881898184
:100A500022961093FB018093FC010E940A05812FCE
:100A60000E940A05E8CFDF91CF911F91FF90EF9090
:100A7000DF90CF900895CF92DF92EF92FF92CF93C5
:100A8000DF9369017A01EB0181E0C81AD108E1081E
:100A9000F1088FEFC816D806E806F80621F089910C
:100AA0000E940A05F1CFDF91CF91FF90EF90DF9088
:100AB000CF900895CF92DF92EF92FF92CF93DF9382
:100AC000EB0169017A016093FB01D093FC0181E0A5
:100AD000C81AD108E108F1088FEFC816D806E80651
:100AE000F80639F08D2F0E940A058C2F0E940A0506
:100AF000EECFDF91CF91FF90EF90DF90CF900895F0
:100B0000CF93C62F872F6093FB017093FC010E9447
:100B10000A058C2FCF910C940A05862F0C940A0598
:100B2000CF92DF92EF92FF920F931F93CF93DF93B9
:100B3000EC0169017A01EE85FF8580819B8989231B
:100B400080838B0181E0C81AD108E108F108EFEF3A
:100B5000CE16DE06EE06FE0631F0F80181918F0119
:100B60000E940A05EFCFEE85FF8580819A89892B47
:100B70008083DF91CF911F910F91FF90EF90DF90D5
:100B8000CF9008951F93CF93DF93EC01162F872FFB
:100B9000EE85FF8590812B89922390836093FB01E2
:100BA0007093FC010E940A05812F0E940A05EE85C0
:100BB000FF8580819A89892B8083DF91CF911F9156
:100BC0000895CF93DF93EC01862FEE85FF8590810A
:100BD0002B89922390830E940A05EE85FF858081F0
:100BE0009A89892B8083DF91CF910895DC019C96AF
:100BF0008D919C91DC01ED91FC910684F785E02DAF
:100C00000994DC019C968D919C91DC01ED91FC9105
:100C10000480F581E02D0994AF92BF92CF92DF92CC
:100C2000EF92FF920F931F93CF93DF93EC01590143
:100C3000E881F98102A0F3A1E02D09959501D80181
:100C40000E94DC1F9B01AC01E881F98104A0F5A1A1
:100C5000E02DB701CE01DF91CF911F910F91FF9051
:100C6000EF90DF90CF90BF90AF900994EF92FF92FA
:100C70000F931F93CF93DF9357FD38C0DC011A9673
:100C8000ED91FC91E417F5078CF12115310571F117
:100C900037FF07C0F90131966E0F7F1F31952195FF
:100CA0003109DC011896ED91FC91E617F707F4F095
:100CB000EB01C20FD31FDE011197B7FD17C077FFFD
:100CC00003C09E0170E060E0EA17FB072CF49F016F
:100CD000261B370B2F5F3F4FDC01ED91FC91068403
:100CE000F785E02D780101E010E00995DF91CF91C3
:100CF0001F910F91FF90EF900895EF92FF920F9345
:100D00001F93CF93DF9377FD39C0DC011896ED91E7
:100D1000FC91E617F70794F12115310579F137FFBA
:100D200007C0F90131964E0F5F1F319521953109AA
:100D3000DC011A96ED91FC91E417F507FCF0EA014D
:100D4000C20FD31FDE011197B7FD18C057FF03C0B4
:100D50009E0150E040E0EA17FB072CF49F01241BA2
:100D6000350B2F5F3F4FDC01ED91FC910684F78539
:100D7000E02D7801890121E030E00995DF91CF91E4
:100D80001F910F91FF90EF900895DC019C968D913B
:100D90009C91DC01ED91FC91028CF38DE02D099486
:100DA000EF92FF920F931F93CF93DF93EC017901A2
:100DB000E881F98102A0F3A1E02D01E010E021E03B
:100DC00030E009958CA59DA5DC01ED91FC91068490
:100DD000F785E02DB701DF91CF911F910F91FF9023
:100DE000EF900994DC019C968D919C91DC01ED9132
:100DF000FC910280F381E02D0994EF92FF920F9312
:100E00001F93CF93DF93EC014D3F8FEF5807680797
:100E10007807A9F5E881F98100A4F1A5E02DCE01BC
:100E20000995E881F981008CF18DE02D6F8DCE015F
:100E300009950E811F81EC80FD80E881F981048491
:100E4000F585E02DCE010995E881F98102A0F3A195
:100E5000E02D970150E040E070E060E0CE010995A0
:100E6000E881F9810688F789E02DCE01099581E0B6
:100E7000DF91CF911F910F91FF90EF9008952EADCC
:100E80008CA59DA5DC01ED91FC910190F081E02DF8
:100E90002F3F29F009958111BDCF80E0E9CF2FEFD9
:100EA000F9CFFC0116AE0C94FD060895FC016770A5
:100EB000678F85A196A123A134A1633019F0D0F4E6
:100EC0006130E1F4958384833783268324813581DF
:100ED0002150310931872087868197810197938737
:100EE00082871586148617861686318B208B938B06
:100EF000828B0895653031F3673021F33583248385
:100F000097838683E3CFCF93DF93EC010E9456074C
:100F1000EF8DE150E73078F5F0E0EF56F84F0C94A4
:100F2000D61F9807A907AD07B107B507B707B907D7
:100F300089A98CAB8AA98DAB8FEF9FEF9FAB8EAB4E
:100F400099AF88AF9BAF8AAF9DAF8CAFDF91CF9148
:100F500008958AA98CAB8BA9EECF8BA98CAB88A9FD
:100F6000EACF8AA98CAB89A9E6CF8BA9E2CF88A961
:100F7000F1CF89A9F3CF88A9F5CF1F93CF93DF9342
:100F8000EC010E948307EF8DE15018E4E33020F478
:100F9000F0E0EA5FFE4F10818CA59DA5DC01ED918C
:100FA000FC910280F381E02D09958CA59DA5DC01C3
:100FB000ED91FC910088F189E02D412F66E30995C0
:100FC0008CA59DA5DC01ED91FC910480F581E02DBF
:100FD000DF91CF911F91099408956F927F928F9224
:100FE0009F92AF92BF92CF92DF92EF92FF920F93B8
:100FF0001F93CF93DF936C015B014901EA013A0132
:10100000600E711EC615D70574F4D601ED91FC91E2
:101010000288F389E02D87019401AE01B501C60174
:1010200009952196EFCFDF91CF911F910F91FF90FE
:10103000EF90DF90CF90BF90AF909F908F907F9078
:101040006F9008956F927F928F929F92AF92BF920E
:10105000CF92DF92EF92FF920F931F93CF93DF9384
:1010600057012115310509F457C00115110509F47F
:1010700053C037FF07C0F90131966E0F7F1F3195BE
:1010800021953109EC01A885B985A617B7070CF49D
:1010900043C017FF07C0F80131964E0F5F1F11952F
:1010A00001951109EC01EA85FB85E417F507A4F128
:1010B0006B01C20ED31E3601D1E06D1A710877FCA8
:1010C0002BC07A01E00EF11E4701C1E08C1A910895
:1010D00097FC22C077FF03C0960170E060E057FFE5
:1010E00003C0870150E040E0A615B7052CF49D0130
:1010F000261B370B2F5F3F4FE815F9052CF48F01A6
:10110000041B150B0F5F1F4FDC01ED91FC91068452
:10111000F785E02D75010995DF91CF911F910F9112
:10112000FF90EF90DF90CF90BF90AF909F908F9007
:101130007F906F9008952F923F924F925F926F929F
:101140007F928F929F92AF92BF92CF92DF92EF9257
:10115000FF920F931F93CF93DF93CDB7DEB72E97F8
:101160000FB6F894DEBF0FBECDBF9E878D877A87FE
:101170006987DC01ED91FC910484F585E02D0995EA
:1011800069857A8560517109AD85BE85ED91FC91C7
:1011900011970288F389E02D05E51DEA21E230E090
:1011A00043EB50E0CD01099520E033EE4FEF5FEFC8
:1011B00029833A834B835C831D821E821F8218869B
:1011C000812C912C540180E1482E512C612C712CE2
:1011D00089819A81AB81BC81B7FF22C09FEF891AB8
:1011E000990AA90AB90AD501C40112E0880F991F0A
:1011F000AA1FBB1F1A95D1F70296A11DB11DBA2FC8
:10120000A92F982F882729813A814B815C81280F4B
:10121000391F4A1F5B1F29833A834B835C83D8CFD6
:101220001201220C331C3FEF231A330A49855A85D9
:10123000441955095C874B8751E0451A51086108EC
:10124000710864018D819E81C81AD90AE5E5EE2EE8
:10125000EDEAFE2E8601910143EB50E04819590951
:101260006B857C858D859E850E9422084D815E81DF
:101270004C545F4F91016B857C858D859E850E94C6
:101280002208D301C201FAE0880F991FAA1FBB1FD1
:10129000FA95D1F729813A814B815C81281B390B62
:1012A0004A0B5B0B29833A834B835C8348145904B4
:1012B0006A047B042CF08D829E82AF82B88688CF30
:1012C000C12C53EED52EEE24EA94FE2C60E1462E7E
:1012D000512C612C712C812C912C5401F7FE1AC0D9
:1012E0003FEF831A930AA30AB30AD501C40132E07F
:1012F000880F991FAA1FBB1F3A95D1F70296A11D0F
:10130000B11DBA2FA92F982F8827C80ED91EEA1E03
:10131000FB1EE4CF5E824D8241E0441A5108610811
:1013200071081401220C331C5FEF251A350A43EBB8
:1013300050E08D819E81481B590BAD85BE85ED9196
:10134000FC9111970288F389E02D05E51DEA9101D2
:1013500089859A85881999099A838983BC01CD0169
:1013600009954D815E814D545F4FAD85BE85ED91F0
:10137000FC9111970288F389E02D910169817A81AE
:10138000CD010995D301C2012AE0880F991FAA1F38
:10139000BB1F2A95D1F7C81AD90AEA0AFB0A4814D2
:1013A00059046A047B040CF099CFAD85BE85ED919C
:1013B000FC9111970688F789E02DCD012E960FB686
:1013C000F894DEBF0FBECDBFDF91CF911F910F917B
:1013D000FF90EF90DF90CF90BF90AF909F908F9055
:1013E0007F906F905F904F903F902F900994CF9394
:1013F000DF93DC0157FD38C01A968D919C911B97A5
:10140000841795078CF197968C919797882319F1FB
:10141000CA01880F991F9896CD91DC919997C80FB2
:10142000D91FE881F9816E177F07F4F09A96ED9144
:10143000FC919B97E80FF91F808191818617970790
:101440009CF0ED91FC9111970284F385E02DCD0184
:10145000DF91CF91099477FD07C018968D919C91EB
:101460001997861797076CF7DF91CF9108952F9200
:101470003F924F925F926F927F928F929F92AF9224
:10148000BF92CF92DF92EF92FF920F931F93CF9371
:10149000DF93CDB7DEB72C970FB6F894DEBF0FBE43
:1014A000CDBF9C878B877A8369831A01D22E1C83D8
:1014B0000B833701DC0191960D911C9192975C96FC
:1014C0004C915C975D963C915D97432E512C5096C4
:1014D0008D919C910115110509F46EC1F8013496A6
:1014E00024913297A590B490D21AB7E0DB9EA00C5D
:1014F000B11C1124F801659174917A876987F5010F
:10150000C590D490F501329674917D833196A49163
:10151000AE8331962491085F1F4FF8010491F501C5
:1015200035965491588766E0A60EB11CF501A4903B
:1015300069817A81861797070CF416C3802F90E093
:10154000880F991F63E070E00E94A01F649DC00196
:10155000659D900D749D900D11242101481A590A22
:10156000AB85BC8552968D919C91841595050CF4A4
:10157000FBC28D80821608F4822E849E40011124C5
:1015800049815A81480D591DEB85FC8584859585D7
:10159000841795070CF0E8C2039F80011124910184
:1015A000200F311F86859785821793070CF0DCC2C8
:1015B0000190F081E02D0484F585E02D8B859C85DC
:1015C00009952B813C816216730671F1AB85BC8550
:1015D00050962D913C9189819A81880D991D019792
:1015E000281739078CF0EB85FC8522893389C801DF
:1015F000840D951D0197281739076CF4EB85FC8540
:10160000858D081B1109F3CFAB85BC855C968C9149
:10161000881A9108E0CF73019401A20169817A814F
:101620008B859C850E942208F8858F2EFF0F9908D4
:10163000EA2C0A2C000CFF08AB85BC855D962C912A
:101640005D975C968C91813009F045C0213009F09E
:1016500042C0E20CF31C870180E0512C902F9E19B0
:10166000BE819B1708F054C1EB85FC852289338924
:10167000201731076CF1A980BA80A80CB91C3D80F5
:10168000380E831529F144244394480E877041F4A1
:10169000C6010196E985FA85EC0DFD1D54906C019B
:1016A000AB85BC8550968D919C9151978A159B0571
:1016B0004CF057FE07C02B813C81A801B501CD013C
:1016C0000E94F709BFEFAB1ABB0A550C842DD9CF86
:1016D0000F5F1F4FC3CF3A2D320350011124A20CCC
:1016E000B31C80E0512C412C4E81441609F410C1EA
:1016F000AB85BC855D962C915D972A0D3B2D311DE8
:101700002150310952964D915C91539742175307DE
:101710000CF44AC05C962C913885320340011124A8
:1017200049815A81840E951E2D80280E821509F458
:101730003BC033243394380E877041F4C6010196C0
:10174000E985FA85EC0DFD1D54906C01AB85BC85D7
:101750005C962C915C9730E0C901880D991D01972A
:1017600050964D915C91519748175907ACF057FE30
:1017700013C05E968C915E9790E05D960C915D979C
:1017800010E0081B190B281B390BEB80FC80A5010E
:10179000B401CD010E942208EB85FC85848D880E62
:1017A000911C550C832DC2CF4394AB85BC855D96AF
:1017B0009C91A90EB11C98CFE981FA818E179F07E1
:1017C0000CF4D2C1AB85BC8552968D919C9182154B
:1017D00093050CF4C9C19F01B6E04B9F200D311D4C
:1017E0001124EB85FC8584859585821793070CF081
:1017F000BBC153E0440C551C5A95E1F7420C531CF5
:1018000086859785841595050CF0AEC10190F08111
:10181000E02D0484F585E02D8B859C850995AB85AD
:10182000BC855C962C91B5E0DB9EC0011124213073
:1018300009F09EC0EB85FC85258D213009F098C00C
:10184000F12CE12C9C012A573F4F4901510138E00E
:10185000A30EB11CC980DA80CE0CDF1CF401EE0DA2
:10186000FF1D5490AB85BC8550968D919C918C1535
:101870009D05ECF08101EB85FC85828993898017B9
:1018800091077CF00190F081E02D50FE63C002844E
:10189000F385E02D2B813C81A801B6018B859C85C9
:1018A00009950F5F1F4F56940A151B0521F73FEF4F
:1018B000E31AF30A45E0E416F10461F66B817C81DA
:1018C0006616770629F169817A816B5F7F4FAB8558
:1018D000BC8550968D919C91519786179707C4F0BF
:1018E00052962D913C91C101069682179307ECF117
:1018F000221933092F5F3F4FAB85BC85ED91FC91D9
:1019000011970088F189E02D8301A101CD0109958E
:10191000AB85BC85ED91FC9111970688F789E02D88
:10192000CD012C960FB6F894DEBF0FBECDBFDF9170
:10193000CF911F910F91FF90EF90DF90CF90BF90CC
:10194000AF909F908F907F906F905F904F903F905F
:101950002F9009942B813C816216730609F4A1CF64
:101960000284F385E02D930197CF28E030E0C4CFC7
:10197000C980DA80512C412CFC01EA57FF4FFF83CC
:10198000EE83AB85BC855C968C915C978C0D9D2D10
:10199000911D019750962D913C91281739070CF411
:1019A00087C0EE81FF81E40DF51DB491BD83510127
:1019B000912C812CEB85FC85858D90E09C012A0D76
:1019C0003B1D2150310942895389421753070CF4BA
:1019D0005EC0248D30E0FD81F0FFB7C0AB85BC85D3
:1019E0005E964C915E97442309F4AAC050E08C01A6
:1019F000041B150B241B350B889DA001899D500DE0
:101A0000989D500D1124420D531DEB81FC816E16E3
:101A10007F0609F490C07F01B601CD010E94220823
:101A2000AB85BC855D960C915D9710E05E962C9120
:101A30005E9730E0089DA001099D500D189D500D46
:101A40001124420D531D5C966C915C976C0D7D2D9D
:101A5000711D621B730B7301CD010E942208EB857F
:101A6000FC85068D10E0248D30E0201B310B658D48
:101A7000C4010196689FA001699F500D1124420D79
:101A8000531D401B510BB601CF010E9422085D81FE
:101A900056955D83AB85BC855D968C91A80EB11C77
:101AA000BFEF8B1A9B0AE8E08E16910409F082CFF3
:101AB000AB85BC855C968C91282F30E0C20ED31E7E
:101AC000BFEF4B1A5B0AE5E04E16510409F059CFFF
:101AD0004B815C816416750609F41ACF69817A819D
:101AE00055E0859F600D711D1124C901860F971F58
:101AF0000197AB85BC8550964D915C9151974817E5
:101B000059070CF405CF5D968C915D9790E08C01A0
:101B100043E0000F111F4A95E1F752964D915C91F9
:101B2000F1013197DF01A00FB11F4A175B07ACF439
:101B3000081B190BF7CF7301B6018B859C85A5CFC8
:101B4000EB80FC808C01A501F7CF4B815C81641692
:101B5000750609F49CCF7301F5CF7301A1018B8544
:101B60009C850E942208D4CE2C960FB6F894DEBF36
:101B70000FBECDBFDF91CF911F910F91FF90EF90DE
:101B8000DF90CF90BF90AF909F908F907F906F909D
:101B90005F904F903F902F900895DF92EF92FF92C9
:101BA0000F931F93CF93DF93EC01262F89A19AA166
:101BB000009709F47DC06A30D1F42C853D853D8BBA
:101BC0002C8BFC013896E4912D8D8E899F89E29FA4
:101BD000800D911D11249F8B8E8B81E090E0DF9111
:101BE000CF911F910F91FF90EF90DF9008956D308E
:101BF000A1F3FC01349645915491FC013696A591D0
:101C0000B49170E06417750740F3A617B70728F37F
:101C1000FC013296A591B491362F341B47E0349FD6
:101C2000A00DB11D1124FD01329644913296D4903D
:101C300038A1332341F115963C9150E0430F511DDB
:101C400037FD5A953C8D349FB001359F700D11249E
:101C50004C895D89460F571F415051096889798920
:101C60006417750784F44E895F896C857D857D8B4B
:101C70006C8B0896FC0184919D8D899F400D511DB0
:101C800011245F8B4E8BEA8CFB8C088D198D4E894D
:101C90005F896C897D89CE010E94370A2C8D8C89E1
:101CA0009D89D29E800D911D11249D8B8C8B95CF8B
:101CB0006A3071F48C859D859D8B8C8B8D8DF8E0C1
:101CC0008F9F900111248E899F89820F931F83CF4C
:101CD0006D3009F482CF88A18823E9F03C8D8C898E
:101CE0009D8946E0349F800D911D112401974889FC
:101CF0005989481759077CF44E895F898C859D85E1
:101D00009D8B8C8B8D8DE8E08E9FC0011124840FFC
:101D1000951F9F8B8E8BEA8CFB8C088D198D4E89BD
:101D20005F896C897D89CE010E94370A2C8D8C8950
:101D30009D89F6E02F9F800D911D1124B6CFAF92A3
:101D4000BF92CF92DF92EF92FF920F931F93CF93A8
:101D5000DF936C015A01EB017B01E20EF31ECE15FD
:101D6000DF0544F49801A501BE01C6010E94F709F0
:101D70002196F5CFDF91CF911F910F91FF90EF90BA
:101D8000DF90CF90BF90AF900895AF92BF92CF9267
:101D9000DF92EF92FF920F931F93CF93DF936C012B
:101DA0005B01EA017A01E20EF31ECE15DF0544F471
:101DB0009801AE01B501C6010E94F7092196F5CF41
:101DC000DF91CF911F910F91FF90EF90DF90CF9017
:101DD000BF90AF90089508952F923F924F925F92D7
:101DE0006F927F928F929F92AF92BF92CF92DF922B
:101DF000EF92FF920F931F93CF93DF9300D000D009
:101E000000D0CDB7DEB74C016B015E834D83590125
:101E100062177307A9F50417150734F49D818E81A5
:101E20001E830D83092F182F2D813E81021B130B5A
:101E300098012F5F3F4FD401ED91FC910088F1890B
:101E4000E02D87014D815E81B601C401099526967A
:101E50000FB6F894DEBF0FBECDBFDF91CF911F91BB
:101E60000F91FF90EF90DF90CF90BF90AF909F9039
:101E70008F907F906F905F904F903F902F9008953C
:101E80002D813E812017310799F4A616B70624F458
:101E90008D2D6501A62EB82E95012C193D092F5FB9
:101EA0003F4FD401ED91FC910288F389E02DC9CF19
:101EB0002D813E811801221A330A2017310724F0A0
:101EC0002D803E80201A310A25014C185D08CA1465
:101ED000DB041CF026014A185B08421453045CF42E
:101EE0009A2D8B2D5801092F182F9C2D8D2DCD80CB
:101EF000DE809D838E83AC14BD045CF49D818E8155
:101F00001E830D83092F182F9C2D8D2D6501A92E61
:101F1000B82EC5018C199D099A838983AD81BE8134
:101F2000A017B107ACF598012A1B3B0B3C832B8310
:101F300069807A8075946794AD81BE81A017B107DE
:101F400074F10FEF1FEFAC14BD040CF480CF9701B8
:101F5000A6016D817E81421453041CF04D815E8187
:101F6000B601C4010E94F7092B813C81621A730AF1
:101F700077FE0AC089819A81680E791EAD81BE8183
:101F8000A00FB11FBE83AD83BFEFCB1ADB0ADBCF3F
:101F90008D819E81801B910B9C838B83C9CF01E037
:101FA00010E0D1CF089590E080E008951F93CF9383
:101FB000DF93EC01162FE881F9810280F381E02D97
:101FC0000995E881F9810680F781E02D612FCE0126
:101FD0000995E881F9810480F581E02DCE01DF913A
:101FE000CF911F91099460E1FC0184A595A50E9401
:101FF000D60F66E970E080E090E00C94080461E19F
:10200000FC0184A595A50E94D60F66E970E080E0EA
:1020100090E00C940804FC0184A595A527A526133F
:1020200003C060E20C94D60F61E2FCCFEF92FF9206
:102030000F931F93CF93DF93EC018A017901E8811D
:10204000F9810680F781E02D09950093FD01109339
:10205000FE01E881F9810484F585E02D612FCE0130
:1020600009950DEF11E0E881F9810484F585E02DF3
:10207000D8016C91CE010995E092FD01F092FE012C
:10208000E881F9810484F585E02D6F2DCE01099555
:10209000E881F9810484F585E02DD8016C91CE01A9
:1020A000DF91CF911F910F91FF90EF900994EF92E4
:1020B000FF920F931F93CF93DF93EC017A01890175
:1020C000E881F9810680F781E02D0995E881F981A1
:1020D0000684F785E02DB701CE010995E881F981E5
:1020E0000684F785E02DB801CE01DF91CF911F91D5
:1020F0000F91FF90EF9009940F931F93CF93DF936D
:10210000EC018A01E881F9810084F185E02D0995CF
:10211000E881F9810684F785E02DB801CE01DF91D1
:10212000CF911F910F9109940F931F93CF93DF933A
:10213000EC018A01E881F9810680F781E02D09959B
:10214000E881F9810684F785E02DB801CE01DF91A1
:10215000CF911F910F9109941F93CF93DF93EC01BF
:10216000142FE881F9810680F781E02D0995E88137
:10217000F9810484F585E02D612FCE01DF91CF91A7
:102180001F9109942F923F924F925F926F927F928C
:102190008F929F92AF92BF92CF92DF92EF92FF9277
:1021A0000F931F93CF93DF93CDB7DEB7C254D109FE
:1021B0000FB6F894DEBF0FBECDBF9E878D877EAF72
:1021C0006DAF5A83498319012701380121969FAECB
:1021D0008EAE21974217530724F0832D1A012983CD
:1021E0008A83A6019501C301B2010E949F1C9B0135
:1021F000AC015F772D833E834F83588720E030E02A
:1022000044EB53E4C301B2010E94D01D2B013C01F9
:1022100020E030E044EB53E4C601B5010E94D01D3C
:102220006B017C0120E030E0A901C301B2010E94F2
:102230000C1D87FF0AC020E030E044EB53E4C301EB
:10224000B2010E94A01C2B013C0120E030E0A9015A
:10225000C701B6010E940C1D87FF0AC020E030E0D4
:1022600044EB53E4C701B6010E94A01C6B017C0142
:1022700020E030E040E054E36D817E818F819885DD
:102280000E940C1D87FD18C0A7019601C301B20171
:102290000E949F1C9F7727E137EB41ED58E30E9496
:1022A0000C1D18164CF0C12CD12C84EBE82E83E4C5
:1022B000F82E412C512C3201AD85BE85ED91FC915B
:1022C00011970484F585E02DCD01099520E030E0DB
:1022D00044EB52E4C301B2010E940C1D8823F1F0CB
:1022E00020E030E044E353E4C301B2010E940C1D3E
:1022F0008823A1F020E030E047E853E4C301B201B5
:102300000E940C1D882351F020E030E044EB53E4A0
:10231000C301B2010E940C1D81110AC02DEC3CECDE
:102320004CEC5DE3C301B2010E949F1C2B013C01F8
:1023300020E030E044EB52E4C701B6010E940C1DDE
:102340008823F1F020E030E044E353E4C701B60114
:102350000E940C1D8823A1F020E030E047E853E400
:10236000C701B6010E940C1D882351F020E030E027
:1023700044EB53E4C701B6010E940C1D81110AC051
:102380002DEC3CEC4CEC5DE3C701B6010E949F1CB8
:102390006B017C0125E33AEF4EE85CE3C301B20137
:1023A0000E94E01E4B015C010E94111D6D837E8323
:1023B0008F83988725E33AEF4EE85CE3C701B601C7
:1023C0000E94E01E6F87788B898B9A8B0E94111D6B
:1023D00069877A878B879C87C501B4010E944D1F4E
:1023E0009B01AC016D817E818F8198850E94161DB5
:1023F0006CA37DA38EA39FA36F85788989899A8911
:102400000E944D1F9B01AC0169857A858B859C8557
:102410000E94161D68A779A78AA79BA72D813E81D8
:102420004F81588560E070E080E09FE30E94161DB8
:102430006CA77DA78EA79FA729853A854B855C85CC
:1024400060E070E080E09FEB0E94161D68AB79AB06
:102450008AAB9BAB29813A812150310949815A814C
:10246000249FC001259F900D349F900D11249C0145
:10247000990F440B550B2B8B3C8B4D8B5E8B810145
:102480000F5F1F4F029DC001039D900D129D900D87
:1024900011249C01990F440B550B2F87388B498BC6
:1024A0005A8B20E030E044E353E4C301B2010E94C0
:1024B0000C1D881F8827881F91E089278CAB20E09E
:1024C00030E044E353E4C701B6010E940C1D881FAD
:1024D0008827881F8BA38824992482189308092CA5
:1024E000000CAA08BB08C101330CAA0BBB0B8F8FD1
:1024F00098A3A9A3BAA39801110F440B550B2D83E0
:102500003E834F83588720E030E044E353E4C30127
:10251000B2010E94A01C9B01AC01C701B6010E9440
:10252000DB1E18160CF4DFC0A7019601C301B2012F
:102530000E94DB1E181684F420E030E044E353E4EC
:10254000C701B6010E94A01C9B01AC01C301B201EE
:102550000E940C1D87FDC7C020E030E047E853E42F
:10256000C701B6010E94DB1E87FF0AC020E030E0F1
:1025700044EB52E4C701B6010E940C1D87FF14C052
:1025800020E030E047E853E4C301B2010E94DB1EC3
:1025900087FF96C020E030E044EB52E4C301B20173
:1025A0000E940C1D87FD8CC020E030E047E853E41A
:1025B000C701B6010E940C1D87FF87C020E030E0F4
:1025C00044EB52E4C701B6010E94DB1E87FD7DC0CB
:1025D00020E030E047E853E4C301B2010E940C1D43
:1025E00087FF73C020E030E044EB52E4C301B20146
:1025F0000E94DB1E89829A82AB82BC8287FF6AC0FE
:1026000020E030E044E353E4C701B6010E94DB1E42
:1026100087FD0AC020E030E044E353E4C301B20187
:102620000E94DB1E87FF66C020E030E044E353E4F5
:10263000C701B6010E940C1D312C87FF0BC020E0A2
:1026400030E044E353E4C301B2010E940C1D312C7D
:1026500087FD56C0A5019401C501B4010E94901FD9
:102660006F8B788F898F9A8F29813A814B815C811A
:10267000412C512C3201211531054105510509F438
:1026800057C029013A01A3019201C301B2010E947E
:10269000901F2F89388D498D5A8D620F731F841FAB
:1026A000951F2F85388949895A89621773078407CE
:1026B000950754F13FEF431A530A630A730AE3CFB5
:1026C00019821A821B821C829BCF89829A82AB82DA
:1026D000BC8296CF81E090E0A0E0B0E08D839E8345
:1026E000AF83B8878DCF89829A82AB82BC82332434
:1026F0003394B0CF312C1F8E18A219A21AA2AACFE0
:10270000812C912C5401A6CF8D819E81AF81B885FB
:102710000197A105B10561F021E030E040E050E013
:1027200024193509460957092D833E834F8358875D
:10273000C501B4010E948A1D6B017C01AC019B01A3
:102740006CA57DA58EA59FA50E94A01C2CA13DA1D6
:102750004EA15FA10E94E01E6DAB7EAB8FAB98AF28
:10276000A701960168A979A98AA99BA90E94A01C22
:1027700028A539A54AA55BA50E94E01E69AF7AAFDE
:102780008BAF9CAFC12CD12C7601A40143565F4F77
:1027900023965FAF4EAF2397A3019201C301B2010D
:1027A0000E94901F2F89388D498D5A8D260F371F13
:1027B000481F591F29873A874B875C878B899C89DB
:1027C000AD89BE89281739074A075B074CF1C30159
:1027D000B2010E948A1D6B8F7C8F8D8F9E8F11E0BE
:1027E0009B01AC0169AD7AAD8BAD9CAD0E94DB1E47
:1027F00087FD10E001E02B8D3C8D4D8D5E8D6DA928
:102800007EA98FA998AD0E94DB1E87FD00E09CA9E0
:10281000901709F448C0ABA1A1134CC031104AC0B5
:10282000C114D104E104F104C9F06DAD7EAD640DB5
:10283000751D6C197D09AD85BE85ED91FC911197D3
:102840000288F389E02D21960EAD1FAD21979601E8
:1028500023964EAD5FAD2397CD0109952F8538891D
:1028600049895A8989859A85AB85BC8582179307E2
:10287000A407B5070CF04AC077FE11C02B893C892C
:102880004D895E8982179307A407B50744F47094B5
:10289000609450944094411C511C611C711CC12CCB
:1028A000D12C760124C0332009F4BACFBBA1B117D3
:1028B00009F4B6CF2D813E814F81588542165306CB
:1028C0006406750609F4ACCF8F859889A989BA8901
:1028D00029853A854B855C85281739074A075B07A8
:1028E0000CF046C03FEFC31AD30AE30AF30A3FEFE6
:1028F000431A530A630A730A8D819E81AF81B8859A
:1029000084159505A605B7050CF046CF9FEF891AEB
:10291000990AA90AB90A2F8D38A149A15AA12815E7
:1029200039054A055B050CF095CEAD85BE85ED9168
:10293000FC9111970688F789E02DCD01CE5BDF4F22
:102940000FB6F894DEBF0FBECDBFDF91CF911F91C0
:102950000F91FF90EF90DF90CF90BF90AF909F903E
:102960008F907F906F905F904F903F902F90099441
:10297000C114D104E104F10449F257CF0E943E2171
:10298000FB0101900020E9F73197AF01461B570B7F
:10299000DC01ED91FC910280F381E02D09948F928E
:1029A0009F92AF92BF92EF92FF920F931F93CF939C
:1029B000DF93CDB7DEB7A1970FB6F894DEBF0FBE99
:1029C000CDBF7C019B01770F440B550B19A28E01E3
:1029D0000F5D1F4F8AE0882E912CA12CB12CCA01CB
:1029E000B901A50194010E94B41F605DF8016293D2
:1029F0008F01211531054105510589F790E080E0EF
:102A0000309721F0C701BF010E94C014A1960FB6F4
:102A1000F894DEBF0FBECDBFDF91CF911F910F9114
:102A2000FF90EF90BF90AF909F908F9008950C947F
:102A3000C0141F93CF93DF9385ED8093BC008091EA
:102A4000020290910302A0910402B0910502079640
:102A5000A11DB11D23E0B695A795979587952A9559
:102A6000D1F72091BC0024FD03C010924A0252C04D
:102A7000409102025091030260910402709105029C
:102A8000452B462B472B69F30097A105B10541F073
:102A900025E32A95F1F700000197A109B109E1CFDB
:102AA00080910102C1E0C0930002882399F1D09186
:102AB000B8001091BA008091BC008A7B8093BC0062
:102AC00060E082E10E94970360E083E10E94970347
:102AD00010924A02C0934C0210924B0261E082E1D4
:102AE0000E94970361E083E10E9497038091B900FF
:102AF0008E7F8093B9008091B9008D7F8093B9005B
:102B000088E48093B80085E48093BC001093BA00F9
:102B1000D093B800DF91CF911F9108954F925F92AB
:102B20006F927F928F929F92AF92BF92CF92DF92DD
:102B3000EF92FF920F931F93CF93DF936C01DC0111
:102B40009E968C918F3F09F454C00E944B0361E024
:102B5000E6018EA50E94970364E670E080E090E0B5
:102B60000E94080460E08EA50E94970366E970E069
:102B700080E090E00E94080461E08EA50E94970327
:102B800066E970E080E090E00E940804D6019C961F
:102B90000D911C91F601EF5BFF4F40805180329701
:102BA000E080F180D0E0C0E023EAA22E21E0B22E46
:102BB000C415D50508F0D1C0F701EC0FFD1FE08169
:102BC0004E01BFEF8B1A9B0AED3008F0A8C0F0E071
:102BD000E451FA4E0C94D61F3B16461620164B169F
:102BE00012169E166516001644166A1648167D16AD
:102BF000841661E0F60184A595A50E94D60FC0CF8A
:102C000080E077247394780ED701A80DB91DE801F0
:102C1000E881F9810680F781E02D6C91C801099562
:102C2000E40102C077247394219647018C0E9D1E07
:102C3000672C6A94FFEF6F1284C0C70DD11DB8CF07
:102C4000712CF701E80DF91D80818093FE01229619
:102C5000F701EC0FFD1F80818093FD016091FD0164
:102C60007091FE01D801ED91FC910084F185E02D79
:102C7000C8010995D9CFD801ED91FC910280F3816B
:102C8000E02DC80109951FC081E0BBCF712CBCCFDE
:102C900092E0792ED6CFF701E80DF91D7080272D2F
:102CA00030E050E040E0BE016E5F7F4F6E0D7F1D53
:102CB000E801E881F9810284F385E02DC8010995D6
:102CC000E401C70DD11D712CAFCFF701E80DF91D3F
:102CD0007080A6CFD701A80DB91DF8018081918120
:102CE000FC01268137816C91C801F9010995229672
:102CF000F701EC0FFD1F708097CFD801ED91FC918B
:102D00000480F581E02DBDCFF701E80DF91D60814C
:102D100070E090E080E00E940804E401D4CF1F92AC
:102D2000EF93DF93CF93BF92AF920E9443210F9016
:102D30000F900F900F900F900F90C5CF82E0782EDC
:102D400073CFD4016D914D01D801ED91FC910484B4
:102D5000F585E02DC80109956CCFE601E881F98180
:102D6000028CF38DE02D60E0C601DF91CF911F91C1
:102D70000F91FF90EF90DF90CF90BF90AF909F901A
:102D80008F907F906F905F904F9009940F931F9357
:102D9000CF93DF93EC014F3F8FEF58076807780719
:102DA00021F440E052E16AE770E04A835B836C8380
:102DB0007D832E838F810E944B0361E08F810E946F
:102DC000970388858F3F31F00E944B0361E088852F
:102DD0000E9497038F81082E000C990BFC01E2558D
:102DE000FA4FE491F0E0EE0FFF1FE656FA4F2591FF
:102DF00034913F872E87FC01EE53FA4FE491EA8B22
:102E0000E095EB8B88858F3FA9F0082E000C990B7D
:102E1000FC01E255FA4FE491F0E0EE0FFF1FE65699
:102E2000FA4F259134913D872C87FC01EE53FA4FE0
:102E3000E491E88B88898095898B1FB7F8948091FD
:102E4000FA01811124C0E8EBF5E08491ECECF5E0A7
:102E50009491E82FF0E0EE0FFF1FEC55FA4FA5918B
:102E6000B491EC91E92321F461E08AE00E94970398
:102E70008AE00E944B038CB580618CBD8CB5806468
:102E80008CBD8DE00E944B038BE00E944B03809130
:102E9000FA018F5F8093FA011FBF8E818F3F11F47B
:102EA00088E08E839E810A811B812C813D8140E0D8
:102EB00052E16AE770E080E004171507260737073C
:102EC00040F476956795579547958F5F8630A1F7C3
:102ED00087E09C709065282F2695922B909379021D
:102EE0008095817080937A0281E0DF91CF911F916C
:102EF0000F9108951F920F920FB60F9211242F93E6
:102F00003F938F939F93AF93BF9380917102909162
:102F10007202A0917302B09174023091700223E0AA
:102F2000230F2D3758F50196A11DB11D2093700276
:102F30008093710290937202A0937302B093740213
:102F40008091750290917602A0917702B0917802FB
:102F50000196A11DB11D8093750290937602A093F6
:102F60007702B0937802BF91AF919F918F913F917B
:102F70002F910F900FBE0F901F90189526E8230FEA
:102F80000296A11DB11DD2CF1F920F920FB60F92C4
:102F900011242F933F934F935F936F937F938F935E
:102FA0009F93AF93BF93EF93FF938091B900887F76
:102FB000803609F44AC0F0F5883209F4A5C018F546
:102FC000803109F499C0B8F4882309F4F5C0883039
:102FD00009F492C0FF91EF91BF91AF919F918F91B2
:102FE0007F916F915F914F913F912F910F900FBE05
:102FF0000F901F901895883109F486C0803251F7E0
:103000008093490214C0803409F49BC040F480339B
:10301000B9F38833F9F68093490285ECAEC0803568
:1030200009F483C0883509F494C0883499F60E9465
:103030001915D0CF883909F48AC038F5883729F0B6
:1030400050F4883611F0803729F683E080934A02E5
:103050001092480255C0883809F479C0803919F0B7
:10306000803809F0B7CF80914802803208F06FC0F5
:10307000E091480281E08E0F809348028091BB006E
:10308000F0E0E85DFD4F80833BC0803B39F0D0F439
:10309000803A09F477C0883A09F09CCF84E08093A5
:1030A0004A021092270210922602F0E0E0E0099511
:1030B0008091260281110FC081E080932602109238
:1030C000060209C0803C09F4A8CF883C09F4A5CFCA
:1030D000883B09F07FCFE091270281E08E0F80933B
:1030E0002702F0E0EA5FFD4F80818093BB00909162
:1030F00027028091260229C080916F028093BB0035
:1031000085EC8093BC0066CF90916E0280916D0239
:10311000981758F5E0916E0281E08E0F80936E0251
:10312000F0E0E35BFD4F8081E9CFE0916E0281E04A
:103130008E0F80936E028091BB00F0E0E35BFD4F49
:10314000808390916E0280916D029817C8F285E895
:10315000D8CFE0916E0281E08E0F80936E02809155
:10316000BB00F0E0E35BFD4F808380914C02811156
:103170005ECF81E080934B0284EA8093BC00109282
:103180004A0228CF85EC8093BC0010924A028091BD
:103190004802803230F4E0914802F0E0E85DFD4FF3
:1031A00010826091480270E088E292E0F0E0E0E096
:1031B0000995109248020ECF1092490238CF1F9302
:1031C000CF93DF93E9E7F2E080E58083118284E129
:1031D00090E00E941920EC018BE391E099838883B1
:1031E00088E08F8389E088878BE792E09A878987D8
:1031F00011E01B87D0937F02C0937E0283E490E0AE
:103200000E941920FC011382128220EF30E034A3C7
:1032100023A380E491E096A385A317A2358324839A
:10322000978386832FEE30E0318720878FE391E00C
:10323000938782871586148617861686318B208B96
:10324000938B828B158A148A178A168A8FEF9FEFC9
:10325000918F808F938F828F148F158F168E178E7C
:1032600010A312A211A2D5A7C4A787E086A717A60C
:1032700010AA11AA12AA13AA8FEF86AF8DE091E0CF
:1032800091838083DF01DF968BE591E011969C931B
:103290008E93129688E490E08D939C93F0937D0238
:1032A000E0937C02DF91CF911F910895789484B5CB
:1032B000826084BD84B5816084BD85B5826085BD32
:1032C00085B5816085BD80916E00816080936E00C0
:1032D00010928100809181008260809381008091B2
:1032E0008100816080938100809180008160809363
:1032F00080008091B10084608093B1008091B00023
:1033000081608093B00080917A00846080937A001D
:1033100080917A00826080937A0080917A00816047
:1033200080937A0080917A00806880937A0010926E
:10333000C10080917C0290917D02DC01ED91FC91B5
:103340000084F185E02D4FEF5FEFBA010995809180
:103350007C0290917D02DC01ED91FC91008CF18D5D
:10336000E02D61E00995C0917C02D0917D020E8133
:103370001F816C807D80E881F9810484F585E02DD2
:10338000CE010995F12CE12C930150E040E070E072
:1033900060E0CE010E942208E881F9810688F78961
:1033A000E02DCE010995E0917C02F0917D02CFEFF6
:1033B000DFEFD38FC28FD18FC08F168E82E0382E71
:1033C000348E358E86E390E0958B848B83E090E09D
:1033D000978B868B63EC71E0CF010E94171580916B
:1033E0007C0290917D022AE030E0FC01358B248B39
:1033F00029E130E0378B268B66ED71E00E941715CE
:1034000080917C0290917D022FE030E0DC015596A6
:103410003C932E93549722E330E057963C932E939F
:1034200056976DED71E00E94171590E1892E94E892
:10343000992EA12CB12C27E8C22E23E4D22EE12C08
:10344000F12C04E313E42BE430E045E550E064E6BE
:1034500070E080917C0290917D020E94C210812CCC
:1034600048EF942EA12C50E8B52E5AE4C52E53E413
:10347000D52E21E430E04BE450E064E670E080912A
:103480007C0290917D020E94C21060EE862E9924EB
:103490009A94A12CB12C71E6C72E73E4D72EE12C9F
:1034A00010E8F12E0AE413E421E430E04BE450E0AC
:1034B00064E670E080917C0290917D020E94C210CF
:1034C000F0EE8F2EF7E09F2EA12CA0E8BA2EA7E7F2
:1034D000CA2EA3E4DA2EE12CF12C01E613E421E458
:1034E00030E04BE450E064E670E080917C02909123
:1034F0007D020E94C2101FE1812E912CA12CB12CC3
:1035000007E8C02E03E4D02EE12C10E8F12E07E7E7
:1035100013E421E430E04BE450E064E670E0809195
:103520007C0290917D020E94C210E0917C02F09199
:103530007D02D38FC28FD18FC08F168E2224239409
:10354000248E258E82E190E0958B848B98E9492E1C
:10355000512C578A468A70E060E0CF010E94CF1458
:1035600080917C0290917D0224E230E0FC01358B59
:10357000248B21E630E0378B268B62E370E00E94DB
:10358000CF1480917C0290917D0229E530E0DC012E
:1035900055963C932E93549729E430E057963C93EC
:1035A0002E93569764E670E00E94CF14E0917C025F
:1035B000F0917D02D38FC28FD18FC08F168E348E43
:1035C000358E80E590E0958B848B2DEA622E712CF0
:1035D000778A668A63EE71E0CF010E94171530E1A9
:1035E000832E34E8932EA12CB12C44EBC42E43E45B
:1035F000D42EE12CF12C04E313E429E530E043E67A
:1036000050E06DEC70E080917C0290917D020E9410
:10361000C2106FE1862E912CA12CB12C71E6C72E21
:1036200073E4D72E2FE430E049E550E06DEC70E014
:1036300080917C0290917D020E94C210E0EE8E2E5D
:10364000E7E09E2EA12CB12CF7E8CF2EF3E4DF2E7D
:10365000E12CF12C01E613E42FE430E049E550E0E1
:103660006DEC70E080917C0290917D020E94C2100E
:10367000B0EE8B2E99249A94A12C10E8B12E1DE95E
:10368000C12E13E4D12EE12CF12C07E813E42FE432
:1036900030E049E550E06DEC70E080917C02909163
:1036A0007D020E94C210812C98EF992EA12CB12C82
:1036B00024EBC22E23E4D22EE12C10E8F12E0DE9EA
:1036C00013E42FE430E049E550E06DEC70E08091C8
:1036D0007C0290917D020E94C210E0917C02F091E8
:1036E0007D02D38FC28FD18FC08F168E248E258EF0
:1036F0008CE690E0958B848B578A468A70E060E078
:10370000CF010E94CF1480917C0290917D0222E82B
:1037100030E0FC01358B248B27E530E0378B268B9E
:103720006EE170E00E94CF1480917C0290917D0246
:1037300027EC30E0DC0155963C932E9354972BE315
:1037400030E057963C932E9356976CE370E00E94BE
:10375000CF1480917C0290917D022DE031E0FC013C
:10376000358B248B25E530E0378B268B6AE570E0BE
:103770000E94CF1480917C0290917D022EE131E075
:10378000DC0155963C932E93549757965C924E923B
:10379000569768E770E00E94CF14E0917C02F091A8
:1037A0007D02D38FC28FD18FC08F168E348E358E0F
:1037B00081EE90E0958B848B778A668A66EE71E065
:1037C000CF010E94171545E250E064E670E0809159
:1037D0007C0290917D020E94160340E850E06DEC5F
:1037E00070E080917C0290917D020E941603E0912E
:1037F0007C02F0917D02D38FC28FD18FC08F168E45
:10380000348E358E08E210E0158B048B778A668A39
:1038100068EE71E0CF010E941715E0917C02F091F3
:103820007D02D38FC28FD18FC08F168E348E358E8E
:1038300089EB90E0958B848B778A668A68EE71E0DD
:10384000CF010E94171560E970E080917C02909191
:103850007D020E949B08E0917C02F0917D02168E11
:10386000348E358ED38FC28FD18FC08F8BE890E08E
:10387000958B848B778A668A6CEE71E0CF010E940B
:1038800017156EE071E080917C0290917D020E949C
:103890009B08E0917C02F0917D02168E348E358E6D
:1038A000D38FC28FD18FC08F8AE091E0958B848BAC
:1038B000778A668A68EF71E0CF010E941715E09160
:1038C0007C02F0917D02D38FC28FD18FC08F158B78
:1038D000048B0CED10E0178B068B6EEE71E0CF01C0
:1038E0000E941715E0917C02F0917D02D38FC28F68
:1038F000D18FC08F8CE890E0958B848B178B068BD3
:1039000061EF71E0CF010E941715E0917C02F09108
:103910007D02D38FC28FD18FC08F80EF90E0958BC7
:10392000848B178B068B66EF71E0CF010E94171511
:10393000C0E0D0E02097F1F30E940000FBCF505888
:10394000BB27AA270E94B71C0C948D1E0E94541EF0
:1039500038F00E945B1E20F039F49F3F19F426F4E2
:103960000C94511E0EF4E095E7FB0C943D1EE92FDC
:103970000E94B21E58F3BA176207730784079507AF
:1039800020F079F4A6F50C94D41E0EF4E0950B2EDD
:10399000BA2FA02D0B01B90190010C01CA01A001A1
:1039A0001124FF27591B99F0593F50F4503E68F1FC
:1039B0001A16F040A22F232F342F4427585FF3CF3D
:1039C000469537952795A795F0405395C9F77EF40E
:1039D0001F16BA0B620B730B840BBAF09150A1F057
:1039E000FF0FBB1F661F771F881FC2F70EC0BA0FDD
:1039F000621F731F841F48F4879577956795B79565
:103A0000F7959E3F08F0B0CF9395880F08F099275F
:103A1000EE0F9795879508950E94191E08F481E08E
:103A200008950E94641EE3950C949E1E0E942A1D18
:103A30000C948D1E0E945B1E58F00E94541E40F094
:103A400029F45F3F29F00C943D1E51110C94D51EB2
:103A50000C94511E0E94B21E68F39923B1F35523B2
:103A600091F3951B550BBB27AA2762177307840791
:103A700038F09F5F5F4F220F331F441FAA1FA9F327
:103A800035D00E2E3AF0E0E832D091505040E69515
:103A9000001CCAF72BD0FE2F29D0660F771F881F76
:103AA000BB1F261737074807AB07B0E809F0BB0B69
:103AB000802DBF01FF2793585F4F3AF09E3F51057D
:103AC00078F00C943D1E0C94D51E5F3FE4F3983EB5
:103AD000D4F3869577956795B795F7959F5FC9F766
:103AE000880F911D9695879597F90895E1E0660FE7
:103AF000771F881FBB1F621773078407BA0720F060
:103B0000621B730B840BBA0BEE1F88F7E0950895C8
:103B1000E89409C097FB3EF4909580957095619567
:103B20007F4F8F4F9F4F9923A9F0F92F96E9BB271D
:103B30009395F695879577956795B795F111F8CF99
:103B4000FAF4BB0F11F460FF1BC06F5F7F4F8F4F04
:103B50009F4F16C0882311F096E911C0772321F0FA
:103B60009EE8872F762F05C0662371F096E8862F92
:103B700070E060E02AF09A95660F771F881FDAF7E9
:103B8000880F9695879597F908950E94541E20F006
:103B900019F00E945B1E50F40C94511E0C94D51E1B
:103BA000E92F0E94B21E88F35523B1F3E7FB621799
:103BB000730784079507A8F189F3E92FFF27882366
:103BC0002AF03197660F771F881FDAF7952F552750
:103BD000442332F091505040220F331F441FD2F73C
:103BE000BB27E91BF50B621B730B840BB109B1F208
:103BF00022F4620F731F841FB11D31972AF0660FE4
:103C0000771F881FBB1FEFCF9150504062F041F0EB
:103C1000882332F0660F771F881F91505040C1F7FC
:103C200093950C94431E8695779567959F5FD9F77A
:103C3000F7CF990F0008550FAA0BE0E8FEEF161614
:103C40001706E807F907C0F012161306E407F50790
:103C500098F0621B730B840B950B39F40A2661F004
:103C6000232B242B252B21F408950A2609F4A140A7
:103C7000A6958FEF811D811D089597F99F6780E8B4
:103C800070E060E008959F3F31F0915020F48795F7
:103C900077956795B795880F911D9695879597F9B4
:103CA00008959FEF80EC089500240A9416161706D5
:103CB00018060906089500240A941216130614061D
:103CC000050608950C94511E0E94BA1ED8F3E8947C
:103CD000E0E0BB279F57F0F02AED3FE049EC06C03B
:103CE000EE0FBB0F661F771F881F28F0B23A6207DE
:103CF0007307840728F0B25A620B730B840BE395A9
:103D00009A9572F7803830F49A95BB0F661F771F2B
:103D1000881FD2F790480C94451E092E0394000C7E
:103D200011F4882352F0BB0F40F4BF2B11F460FF55
:103D300004C06F5F7F4F8F4F9F4F0895EF93E0FF59
:103D400007C0A2EA2AED3FE049EC5FEB0E94B71CF6
:103D50000E948D1E0F90039401FC9058E8E6F0E05D
:103D60000C94551F57FD9058440F551F59F05F3F55
:103D700071F04795880F97FB991F61F09F3F79F08D
:103D800087950895121613061406551FF2CF46950F
:103D9000F1DF08C0161617061806991FF1CF869591
:103DA0007105610508940895E894BB276627772775
:103DB000CB0197F908950E94191E08F48FEF08951A
:103DC0000E94F31E0C948D1E0E94541E38F00E9417
:103DD0005B1E20F0952311F00C943D1E0C94511E97
:103DE00011240C94D51E0E94B21E70F3959FC1F34E
:103DF000950F50E0551F629FF001729FBB27F00D99
:103E0000B11D639FAA27F00DB11DAA1F649F6627ED
:103E1000B00DA11D661F829F2227B00DA11D621F3C
:103E2000739FB00DA11D621F839FA00D611D221FF6
:103E3000749F3327A00D611D231F849F600D211DDA
:103E4000822F762F6A2F11249F5750409AF0F1F05D
:103E500088234AF0EE0FFF1FBB1F661F771F881FC6
:103E600091505040A9F79E3F510580F00C943D1EA3
:103E70000C94D51E5F3FE4F3983ED4F38695779576
:103E80006795B795F795E7959F5FC1F7FE2B880F6C
:103E9000911D9695879597F908959F930E94641EAA
:103EA0000F9007FCEE5F0C949E1E9F938F937F9361
:103EB0006F93FF93EF939B01AC010E94E01EEF9183
:103EC000FF910E94691F2F913F914F915F910C9438
:103ED000E01EDF93CF931F930F93FF92EF92DF9239
:103EE0007B018C01689406C0DA2EEF010E94F31E5C
:103EF000FE01E894A5912591359145915591A6F340
:103F0000EF010E94B71CFE019701A801DA9469F73E
:103F1000DF90EF90FF900F911F91CF91DF91089567
:103F2000DB018F939F930E94FA1FBF91AF91A29FD5
:103F3000800D911DA39F900DB29F900D11240895A7
:103F400097FB072E16F4009407D077FD09D00E9446
:103F5000052007FC05D03EF4909581959F4F08956C
:103F6000709561957F4F0895A1E21A2EAA1BBB1B85
:103F7000FD010DC0AA1FBB1FEE1FFF1FA217B30735
:103F8000E407F50720F0A21BB30BE40BF50B661F4B
:103F9000771F881F991F1A9469F76095709580950F
:103FA00090959B01AC01BD01CF010895EE0FFF1F5D
:103FB0000590F491E02D09940E94E41F332312F43C
:103FC0008A1B9B0B0C94F51FA29FB001B39FC001ED
:103FD000A39F700D811D1124911DB29F700D811D35
:103FE0001124911D08950E94E41FB7FF0895821BBC
:103FF000930B08950E94E41FA59F900DB49F900D10
:10400000A49F800D911D11240895AA1BBB1B51E193
:1040100007C0AA1FBB1FA617B70710F0A61BB70B38
:10402000881F991F5A95A9F780959095BC01CD01DD
:1040300008950F931F93CF93DF938230910510F46F
:1040400082E090E0E0918202F091830230E020E093
:10405000B0E0A0E0309799F42115310509F44AC089
:10406000281B390B24303105D8F58A819B816115D5
:10407000710589F1FB0193838283FE0111C04081A8
:1040800051810281138148175907E0F048175907F9
:1040900099F4109761F012960C93129713961C9353
:1040A0003296CF01DF91CF911F910F910895009328
:1040B000820210938302F4CF2115310551F042178B
:1040C000530738F0A901DB019A01BD01DF01F801B6
:1040D000C1CFEF01F9CF9093830280938202CDCFBD
:1040E000FE01E20FF31F819391932250310939832E
:1040F0002883D7CF2091800230918102232B41F475
:1041000020910201309103013093810220938002BB
:1041100020910001309101012115310541F42DB7A5
:104120003EB74091040150910501241B350BE091ED
:104130008002F0918102E217F307A0F42E1B3F0BDF
:104140002817390778F0AC014E5F5F4F2417350709
:1041500048F04E0F5F1F509381024093800281937D
:1041600091939FCFF0E0E0E09CCFCF93DF93009757
:10417000E9F0FC01329713821282A0918202B09181
:104180008302ED0130E020E01097A1F4208131811D
:10419000820F931F209180023091810228173907E6
:1041A00009F061C0F0938102E0938002DF91CF912A
:1041B0000895EA01CE17DF07E8F54A815B819E0189
:1041C00041155105B1F7E901FB83EA834991599102
:1041D000C40FD51FEC17FD0761F480819181029611
:1041E000840F951FE90199838883828193819B8342
:1041F0008A83F0E0E0E012968D919C9113970097EE
:10420000B9F52D913C911197CD010296820F931F24
:1042100020918002309181022817390739F63097B2
:1042200051F51092830210928202B0938102A09302
:104230008002BCCFD383C28340815181840F951FFC
:10424000C817D90761F44E5F5F4F88819981480F85
:10425000591F518340838A819B81938382832115D7
:10426000310509F0B0CFF0938302E09382029ECF34
:10427000FD01DC01C0CF13821282D7CF81E090E034
:10428000F8940C940E24B0E0A0E0E9E4F1E20C9480
:10429000E723AE014B5F5F4FFA0161917191AF016E
:1042A00080918602909187020E945921E2E00C944D
:1042B0000324ABE0B0E0EFE5F1E20C94D7237C01FE
:1042C0003B018A01FC0117821682838181FFC8C1EC
:1042D000CE0101965C01F7019381F30193FD859175
:1042E00093FF81913F01882309F453C1853239F44A
:1042F00093FD859193FF81913F01853229F4B701A8
:1043000090E00E944923E7CF912C212C312CFFE132
:10431000F31538F08B3211F190F4803209F18332C9
:1043200029F137FC3CC020ED280F2A3050F536FE2D
:1043300020C08AE0989E200D1124922E06C08D3256
:1043400091F0803371F7689430F8F30193FD859113
:1043500093FF81913F018111DACF21C0689431F838
:10436000689432F8F2CF689433F8EFCF689434F859
:10437000ECCFEAE02E9E200D1124222E689435F811
:10438000E4CF8E3229F436FC04C1689436F8DDCFD0
:104390008C3619F4689437F8D8CF8836B1F2982F54
:1043A0009F7D95549330E0F08336A1F18337C1F1BE
:1043B000833509F063C02801F2E04F0E511CF8016B
:1043C000C080D180692D70E036FC02C06FEF7FEFB6
:1043D000C6010E9433234C01689437F882010AC059
:1043E0000C5F1F4FFFE3F98388248394912C6501B0
:1043F000E89437F833FE2DC0522C8114910471F5E6
:10440000552009F468CFB70180E290E00E9449236B
:104410005A94F6CFF801808189830E5F1F4FE4CF55
:104420002801F2E04F0E511CF801C080D180692DA7
:1044300070E036FC02C06FEF7FEFC6010E943E23A2
:104440004C018201D5CFB70180E290E00E94492360
:104450002A942814190409F0B0F7CECFF60137FCDE
:10446000859137FE81916F01B70190E00E94492349
:1044700051105A94F1E08F1A9108BFCF843619F089
:10448000893609F077C0F80137FE6BC06081718111
:10449000828193810C5F1F4FF32DFF763F2E97FF94
:1044A00009C090958095709561957F4F8F4F9F4F74
:1044B000689437F82AE030E0A5010E947923C82EDD
:1044C000CA188C2C432C36FE0CC0E89440F8C91452
:1044D00040F434FE05C032FC03C0F32DFE7E4F2EA7
:1044E000892C44FE95C0FE01EC0DF11D80818033C6
:1044F00009F087C0242D297E422E842D8870582EE5
:1045000043FC95C040FE8FC09C2C821418F42C0CE8
:10451000922C981844FE91C0B70180E390E00E946D
:10452000492342FE09C088E790E041FE02C088E5C9
:1045300090E0B7010E944923C91408F48AC0CA94C4
:10454000D12C9FEFC91AD90ACA0CDB1CF601829143
:104550006F01B70190E00E944923AC14BD04B1F78C
:104560004FCF60817181072E000C880B990B0E5F75
:104570001F4F92CFD32CE894D4F82AE030E085374F
:1045800039F1232D297FD22E8F3601F148F4883559
:10459000A9F0F701868197812B96E2E10C94F32331
:1045A000803749F08837A9F7D4FE02C06894D2F862
:1045B00020E130E00DC06894D4F8F6CF34FE03C09B
:1045C000822F8660D82E20E132E002C028E030E061
:1045D000F801D7FE0FC060817181828193810C5FE9
:1045E0001F4FA5010E947923C82ECA183D2CE894BC
:1045F00037F867CF6081718190E080E00E5F1F4FD8
:10460000F0CF42FC02C0839478CF8394839475CF1B
:10461000842D867809F471CFF6CFB70180E290E05F
:104620000E94492383948214C0F3512C73CF522CDF
:104630005818821408F46ECFF8CF842D867809F4C8
:104640007BCF8BE241FE80E247FC8DE2B70190E038
:1046500071CFB70180E390E00E9449239A946CCF18
:104660008FEF9FEF99CFFC010590615070400110D2
:10467000D8F7809590958E0F9F1F0895FC0161508B
:10468000704001900110D8F7809590958E0F9F1F74
:1046900008950F931F93CF93DF93182F092FEB01EA
:1046A0008B8181FD09C01FEF0FEF812F902FDF91CC
:1046B000CF911F910F91089582FF14C02E813F81E9
:1046C0008C819D81281739073CF4E881F981CF015D
:1046D00001969983888310838E819F8101969F83A1
:1046E0008E83E3CFE885F985812F0995892BA1F386
:1046F000DACFFA01AA27283051F1203181F1E8946C
:104700006F936E7F6E5F7F4F8F4F9F4FAF4FB1E0C4
:104710003ED0B4E03CD0670F781F891F9A1FA11DBF
:10472000680F791F8A1F911DA11D6A0F711D811DC0
:10473000911DA11D20D009F468943F912AE0269F85
:1047400011243019305D3193DEF6CF010895462FE4
:104750004770405D4193B3E00FD0C9F7F6CF462FC5
:104760004F70405D4A3318F0495D31FD405241932E
:1047700002D0A9F7EACFB4E0A695979587957795EB
:104780006795BA95C9F700976105710508959B0172
:10479000AC010A2E06945795479537952795BA95FB
:1047A000C9F7620F731F841F951FA01D08952F92D4
:1047B0003F924F925F926F927F928F929F92AF92B1
:1047C000BF92CF92DF92EF92FF920F931F93CF93FE
:1047D000DF93CDB7DEB7CA1BDB0B0FB6F894DEBF95
:1047E0000FBECDBF09942A88398848885F846E84BB
:1047F0007D848C849B84AA84B984C884DF80EE8005
:10480000FD800C811B81AA81B981CE0FD11D0FB60D
:10481000F894DEBF0FBECDBFED010895F894FFCF31
:1048200000008A0280002888E800000000CD0D6AA0
:1048300003D30FD20F5107D006F2060C067D0636C1
:1048400006EC0E0106BD070B10FF0FF30F55078C8A
:1048500004C506F6058E1500000000C616F004E536
:1048600004E105C20590058D058005AC107C10940F
:1048700010571016105A053B0511050009CF03000B
:10488000C13009ED046403128109E8038500780949
:10489000CB05392C00340207F72008EA000007C0D6
:1048A0001007C10008C5303007C7B7073A5508B12F
:1048B000001A09B60308822707F200072601011132
:1048C00001290B556E6B6E6F776E206F706572618C
:1048D00074696F6E2069642061742025643A202514
:1048E000640A003C5361756E61204275726F76698F
:1048F00063686F6B3E003C54494D453E0030303A92
:1049000030300048750043003030300048004F4ED2
:0A491000004155544F004F46460089
:00000001FF
