:100000000C9447040C9478040C9478040C947804B1
:100010000C9478040C9478040C9478040C94780470
:100020000C9478040C9478040C9478040C94780460
:100030000C9478040C9478040C9478040C94780450
:100040000C9478040C9478040C9478040C94780440
:100050000C9478040C9478040C9478040C94B822D2
:100060000C9478040C9482220C9458220C947804FA
:100070000C9478040C9478040C9478040C94780410
:100080000C9478040C9478040C9478040C94780400
:100090000C9478040C9478040C9478040C94022347
:1000A0000C9478040C9478040C9478040C947804E0
:1000B0000C9478040C9478040C9478040C947804D0
:1000C0000C9478040C9478040C9478040C947804C0
:1000D0000C9478040C9478040C9478040C947804B0
:1000E0000C94780405A84CCDB2D44EB93836A90288
:1000F0000C50B9918688083CA6AAAA2ABE00000026
:10010000803F0C947C0A0C94020C0C9479060C949D
:10011000AB0C0C948D060C946B060C949E0A0C94FC
:1001200036170C94200E0C94F20C0C941E170C94A1
:100130009D210C94CF0B0C948F150C9467060C9496
:1001400063200C94C60D0C9456060C9474160C94F3
:1001500087060C94300E0C945A060C9413050C94DC
:1001600083060C94D20A0C9412210C94280E0C9441
:10017000A50A0C94450D0C948B0A0C94340E0C9427
:1001800075060C9498040C943C210C9427050C944F
:100190001F210C94240E0C94B8160C94650B0C942F
:1001A00099040C9491060C9422210C946D050C94E6
:1001B00075160C9440060C94D7200C9454210C9482
:1001C0003B060C947B0A0C942C0E0C943A0D0C9468
:1001D000560C0C94A1160C9452060C941D210C94F0
:1001E0002E0E0C94CA0D0C94BA050C9471060C9446
:1001F00070140C94670D0C94D7040C94E9200C94A3
:100200005E060C947F060C9462240C945A0B0C949A
:10021000010B0C9404050C94860B0C9475210C9422
:100220005B210C94F9160C94760C0C9435050C9407
:10023000AD160C94810C0C9486300C94370C0C94F5
:1002400061060C94050C0C941B210C94B00B0C94BF
:100250000F0E0C9495160C9441210C944E170C948F
:10026000F7200C94F50B0C946B0C00000000003E82
:100270005B4F5B3E3E6B4F6B3E1C3E7C3E1C183C16
:100280007E3C181C577D571C1C5E7F5E1C00183C72
:100290001800FFE7C3E7FF0018241800FFE7DBE7BB
:1002A000FF30483A060E2629792926407F050507A2
:1002B000407F05253F5A3CE73C5A7F3E1C1C0808FE
:1002C0001C1C3E7F14227F22145F5F005F5F0609C3
:1002D0007F017F006689956A606060606094A2FF1C
:1002E000A29408047E040810207E201008082A1C0E
:1002F00008081C2A08081E101010100C1E0C1E0CDA
:1003000030383E3830060E3E0E0600000000000079
:10031000005F00000007000700147F147F14242AE8
:100320007F2A1223130864623649562050000807BA
:100330000300001C2241000041221C002A1C7F1CDB
:100340002A08083E080800807030000808080808DD
:10035000000060600020100804023E5149453E0044
:10036000427F400072494949462141494D331814A2
:10037000127F1027454545393C4A494931412111F1
:1003800009073649494936464949291E00001400E3
:100390000000403400000008142241141414141406
:1003A000004122140802015909063E415D594E7C64
:1003B0001211127C7F494949363E414141227F4119
:1003C00041413E7F494949417F090909013E414177
:1003D00051737F0808087F00417F41002040413F62
:1003E000017F081422417F404040407F021C027F71
:1003F0007F0408107F3E4141413E7F090909063EC6
:100400004151215E7F091929462649494932030194
:100410007F01033F4040403F1F2040201F3F4038A6
:10042000403F631408146303047804036159494D81
:1004300043007F4141410204081020004141417FB7
:10044000040201020440404040400003070800202D
:10045000545478407F28444438384444442838442D
:1004600044287F385454541800087E090218A4A464
:100470009C787F0804047800447D40002040403D83
:10048000007F1028440000417F40007C04780478FD
:100490007C080404783844444438FC182424181890
:1004A000242418FC7C0804040848545454240404EC
:1004B0003F44243C4040207C1C2040201C3C4030D9
:1004C000403C44281028444C9090907C4464544C08
:1004D0004400083641000000770000004136080063
:1004E00002010204023C2623263C1EA1A161123A0D
:1004F0004040207A38545455592155557941225459
:10050000547842215554784020545579400C1E525D
:100510007212395555555939545454593955545402
:10052000580000457C410002457D420001457C4069
:100530007D1211127DF0282528F07C5455450020AD
:1005400054547C547C0A097F4932494949323A441F
:1005500044443A324A4848303A4141217A3A42408A
:100560002078009DA0A07D3D4242423D3D4040405C
:100570003D3C24FF2424487E4943662B2FFC2F2B2F
:10058000FF0929F620C0887E0903205454794100D0
:1005900000447D413048484A32384040227A007A4F
:1005A0000A0A727D0D19317D2629292F282629292D
:1005B000292630484D40203808080808080808084F
:1005C000382F10C8ACBA2F102834FA00007B000076
:1005D00008142A142222142A14085500550055AA7A
:1005E00055AA55AAFF55FF55FF000000FF00101047
:1005F00010FF00141414FF001010FF00FF1010F083
:1006000010F0141414FC001414F700FF0000FF0095
:10061000FF1414F404FC141417101F10101F101FE3
:100620001414141F00101010F0000000001F101010
:1006300010101F10101010F010000000FF1010100C
:10064000101010101010FF10000000FF140000FF29
:1006500000FF00001F10170000FC04F41414171012
:10066000171414F404F40000FF00F7141414141405
:100670001414F700F7141414171410101F101F147B
:100680001414F4141010F010F000001F101F0000DC
:10069000001F14000000FC140000F010F01010FF08
:1006A00010FF141414FF141010101F00000000F0AD
:1006B00010FFFFFFFFFFF0F0F0F0F0FFFFFF000082
:1006C000000000FFFF0F0F0F0F0F3844443844FCA9
:1006D0004A4A4A347E02020606027E027E026355C0
:1006E0004941633844443C04407E201E2006027E7B
:1006F000020299A5E7A5991C2A492A1C4C7201728D
:100700004C304A4D4D303048784830BC625A463DF6
:100710003E494949007E0101017E2A2A2A2A2A44AB
:10072000445F444440514A444040444A51400000E0
:10073000FF0103E080FF000008086B6B08361236EB
:1007400024360006090906000018180000001010E1
:10075000003040FF0101001F01011E00191D17128A
:10076000003C3C3C3C000000000000002100240054
:1007700027002A002D003000330001010000040191
:1007800007010A0100002200250028002B002E008E
:100790003100340002010000050108010B010000D6
:1007A0000A0B02090C0D0E080703040100000000EB
:1007B0000000000000000000000000000000000039
:1007C00000000000000000000000121110000000F6
:1007D0000000000000000000000000000000000019
:1007E0000000000001021020200808102040102006
:1007F00040800201020108040201010204081020E5
:1008000040808040201008040201800402018040E2
:10081000201008040201080402010102040810204B
:1008200040800102040810204080000020002300C6
:10083000260029002C002F003200000100000301D7
:100840000601090105050505070508080808020253
:1008500002020A0A0808040404040101010101015A
:1008600001010303030303030303040707070C0C3D
:100870000C0C0C0C0C0C0202020206060606060604
:1008800006060B0B0B0B0B0B0B0B62248630112493
:100890001FBECFEFD1E2DEBFCDBF00E00CBF26E030
:1008A000AEE5B4E001C01D92A033B207E1F714E059
:1008B000A0E0B2E0ECE9F2E700E00BBF02C0079075
:1008C0000D92AE35B107D9F714E0C6E4D4E000E0EC
:1008D00006C021970109802FFE010E943334C534E0
:1008E000D10780E00807A9F70E94EA250C943C395B
:1008F0000C940000FC019081909528E030E081E3A9
:1009000097FF03C0990F982701C0990F2150310913
:10091000B9F78181892728E030E091E387FF03C0A0
:10092000880F892701C0880F21503109B9F7089530
:10093000089508958F929F92AF92BF92CF92DF92C7
:10094000EF92FF920F931F93CF93DF93EC016B0114
:100950005A014901E881F9810484F585E02D199552
:10096000E881F9810488F589E02D780184019501F9
:100970004DE950E0B601CE011995E881F98106886C
:10098000F789E02DCE01DF91CF911F910F91FF905C
:10099000EF90DF90CF90BF90AF909F908F90199481
:1009A000DC01ED91FC910190F081E02D1994AF9262
:1009B000BF92CF92DF92EF92FF920F931F93CF934C
:1009C000DF936C017B018B01040F151FEB015E01AE
:1009D000AE18BF08C017D10759F06991D601ED9143
:1009E000FC910190F081E02DC6011995892B79F7D2
:1009F000C501DF91CF911F910F91FF90EF90DF9094
:100A0000CF90BF90AF900895FC01538D448D252F5A
:100A100030E0842F90E0821B930B541710F0CF9698
:100A2000089501970895FC01918D828D981761F0CA
:100A3000A28DAE0FBF2FB11D5D968C91928D9F5FE1
:100A40009F73928F90E008958FEF9FEF0895FC01C0
:100A5000918D828D981731F0828DE80FF11D858D73
:100A600090E008958FEF9FEF0895FC01918D228D06
:100A7000892F90E0805C9F4F821B91098F7399278B
:100A8000089581E495E00E94350521E0892B09F461
:100A900020E0822F0895FC01A48DA80FB92FB11D6D
:100AA000A35ABF4F2C91848D90E001968F739927A4
:100AB000848FA689B7892C93A089B1898C91837082
:100AC00080648C93938D848D981306C00288F3897B
:100AD000E02D80818F7D80830895EF92FF920F93A8
:100AE0001F93CF93DF93EC0181E0888F9B8D8C8DDA
:100AF00098131AC0E889F989808185FF15C09FB7CE
:100B0000F894EE89FF896083E889F9898081837090
:100B1000806480839FBF81E090E0DF91CF911F913F
:100B20000F91FF90EF900895F62E0B8D10E00F5F60
:100B30001F4F0F731127E02E8C8D8E110CC00FB636
:100B400007FCFACFE889F989808185FFF5CFCE01CE
:100B50000E944B05F1CFEB8DEC0FFD2FF11DE35AF9
:100B6000FF4FF0829FB7F8940B8FEA89FB89808151
:100B70008062CFCFCF93DF93EC01888D8823B9F0CB
:100B8000AA89BB89E889F9898C9185FD03C0808198
:100B900086FD0DC00FB607FCF7CF8C9185FFF2CF15
:100BA000808185FFEDCFCE010E944B05E9CFDF911B
:100BB000CF91089580E090E0892B29F00E944105B3
:100BC00081110E94000080E090E0892B49F080E0D4
:100BD00090E0892B29F00E94000081110E94000002
:100BE00080E090E0892B49F080E090E0892B29F0AB
:100BF0000E94000081110E94000080E090E0892B9B
:100C000049F080E090E0892B29F00E9400008111DA
:100C10000C9400000895282F30E0F901E256F84FB7
:100C20009491F901EC51F84F44912C5B374FF90145
:100C30002491222309F435C0992311F19150923166
:100C4000F8F4E92FF0E08827E75DF94F8F4F0C9417
:100C500033345A065E063B065206560640066106C7
:100C600067066B067106750679067F0683064006E1
:100C700087068D069106809180008F778093800093
:100C8000E22FF0E0EE0FFF1FEC57F84FA591B49163
:100C90008FB7F894EC91611148C040954E234C9366
:100CA0008FBF0895809180008F7DE8CF8091800074
:100CB000877FE4CF84B58F7784BDE2CF84B58F7D05
:100CC000FBCF8091B0008F778093B000D9CF809117
:100CD000B0008F7DF9CF809190008F778093900046
:100CE000CFCF809190008F7DF9CF80919000877F4A
:100CF000F5CF8091A0008F778093A000C1CF809125
:100D0000A0008F7DF9CF8091A000877FF5CF8091E3
:100D100020018F7780932001B3CF809120018F7DB8
:100D2000F9CF80912001877FF5CF4E2BB8CFCF939D
:100D3000DF9390E0FC01EC51F84F24918C5B974FCE
:100D4000FC0184918823D1F090E0880F991FFC0169
:100D5000E659F84FA591B491FC01EC57F84FC591B5
:100D6000D491623071F49FB7F8943C91822F8095B2
:100D700083238C93E8812E2B28839FBFDF91CF9113
:100D800008958FB7F894EC912E2B2C938FBFF6CF4C
:100D90003FB7F8948091AC049091AD04A091AE045B
:100DA000B091AF0426B5A89B05C02F3F19F001965E
:100DB000A11DB11D3FBFBA2FA92F982F8827BC01B5
:100DC000CD01620F711D811D911D42E0660F771FDD
:100DD000881F991F4A95D1F708958F929F92AF92DD
:100DE000BF92CF92DF92EF92FF926B017C010E9443
:100DF000C8064B015C01C114D104E104F104B9F04F
:100E00000E94C806681979098A099B09683E7340DF
:100E10008105910580F321E0C21AD108E108F108AB
:100E200088EE880E83E0981EA11CB11CE4CFFF90D1
:100E3000EF90DF90CF90BF90AF909F908F900895EC
:100E40002FB7F8946091A8047091A9048091AA0426
:100E50009091AB042FBF0895CF92DF92EF92FF9253
:100E60000F931F93CF93DF930E942007AB01BC0128
:100E7000E091EE05F090FF05E4FBFF27F0F9E4FFB9
:100E800079C00091F3051091F4052091F50530919A
:100E9000F605E7FB882780F9F11010C0809107065E
:100EA00090910806DC019C9180910906982381E0CD
:100EB00009F480E09091EF059170892780930006F6
:100EC000DB01CA01801B910BA20BB30B8C019D01AE
:100ED000B09100069091ED0591FB882780F9BB2326
:100EE00009F424C181111AC001351105210531050C
:100EF000A8F04093F3055093F4056093F5057093C3
:100F0000F605997E926190689093ED058091EF05CA
:100F100080628093EF0500E010E098018091EF057A
:100F20009091ED0584FF12C00D32A1E01A07210552
:100F3000310560F092FD05C083FDAFC082608093F3
:100F4000EF058091EF058F7E8093EF0591FF12C032
:100F50000D3B12402105310568F092FD0BC0BB230B
:100F600009F49DC091609093ED058091EF058F7D10
:100F70008093EF05FF2009F49FC0E6FB992790F9C5
:100F8000C92FA0E0DA2FCC0FDD1FE5FB882780F901
:100F90008C2B2091F105281709F472C01092F205EC
:100FA0009091EF0596FFB8C0833009F0A1C09F7BF8
:100FB0009093EF05213009F497C091E0223009F4B5
:100FC00094C0E3FD03C0833009F49DC02091F20575
:100FD000222309F446C09091ED0598609093ED05A9
:100FE000233040F49091EF0597FF04C093E0921BEB
:100FF0009093F20590910006911122C00091F7059F
:101000001091F8052091F9053091FA056A017B01EC
:10101000C01AD10AE20AF30A0091F00510E030E0AC
:1010200020E0C016D106E206F30650F42091F20546
:10103000213009F074C02091EE0522602093EE0566
:101040004093F7055093F8056093F9057093FA05FE
:10105000FF2339F0992329F09091F2059E5F909338
:10106000F2058093F1058091ED0584608093ED0594
:101070004093F3055093F4056093F5057093F605DE
:10108000DF91CF911F910F91FF90EF90DF90CF9064
:1010900008958091EF0588603CCF846050CF9D7F9C
:1010A0009E7F9093ED054093F3055093F405609374
:1010B000F5057093F6055ECFA0910106B09102068A
:1010C0009C9180910306982321E009F420E0A091EF
:1010D0000406B09105069C9180910606982382E053
:1010E00009F480E0822B55CF92E09093F20569CF0E
:1010F000E3FD4DC081116ACF9F7B9093EF052130B6
:1011000041F0223031F09091EF0590649093EF051B
:101110005DCF2093F205F7CF8823A9F352CF223079
:1011200009F08ECF2091EE05216088CF882309F445
:10113000F5CE013511052105310508F4EFCE92FDFC
:1011400005C090FD03C090629093ED050D3B1240E9
:101150002105310528F08091ED0580648093ED052F
:101160008091ED054093F3055093F4056093F505E8
:101170007093F6058D7F8E7F8093ED058091EF054E
:1011800085FF87CF84FD85CF8061877FC2CE88238E
:1011900009F4B9CF66CF20918404260F3327331F7B
:1011A00021323105ECF420911705FC0190E080E03C
:1011B000243069F082E00895A09184042191AC016B
:1011C0004C595B4FA40FB52FB11D2C930196861778
:1011D00098F380918404680F6093840480E00895FC
:1011E00081E008951092170581E080931605109212
:1011F000F10461E084E10E940B0661E085E10E9458
:101200000B06E9EBF0E080818E7F808380818D7F0B
:10121000808388E48093B80085E48093BC000895BF
:101220001092D0041092CF0410921E051092400527
:101230000E94F20888E994E09093CC048093CB0458
:1012400089E994E09093CA048093C9040895CF93E8
:10125000DF9391E0909363048823B9F0C091B800C4
:10126000D091BA008091BC008A7B8093BC0060E082
:1012700084E10E940B0660E085E10E940B060E945B
:10128000F208D093BA00C093B800DF91CF910895CF
:101290008F929F92AF92BF92CF92DF92EF92FF9286
:1012A0000F931F93CF93DF93D0914005D13208F075
:1012B000D7C0182FC0913F050E94C8066B017C0162
:1012C0008091170581116BC082E080931705109300
:1012D00016058FEF8093150510921405D093130512
:1012E000AFE1B5E0E3EFF4E080E0D81391C01092F5
:1012F000F2048091F204CC0FC82BC093F2048091C9
:10130000F104813009F088C01092F1040E94C806EF
:101310006B017C018091F2048093BB0080911905E0
:1013200090911A05A0911B05B0911C05892B8A2B61
:101330008B2BA1F00E94C8060091190510911A0587
:1013400020911B0530911C056C197D098E099F09A0
:10135000061717072807390708F442C08091BC0018
:1013600083FDD8CF85EC8093BC000E94C8066B013A
:101370007C0180911705823009F450C080911505D9
:101380008F3F09F46FC080911505803209F46CC05D
:1013900080911505803309F469C084E026C08091EE
:1013A000190590911A05A0911B05B0911C05892B78
:1013B0008A2B8B2B09F484CF0E94C80680901905D4
:1013C00090901A05A0901B05B0901C056C197D0922
:1013D0008E099F0986169706A806B90608F070CFF1
:1013E000809118050E94270985E010921E05109231
:1013F000400510921D05DF91CF911F910F91FF9035
:10140000EF90DF90CF90BF90AF909F908F90089516
:101410009D9191938F5F69CF85EEA5CF809119053E
:1014200090911A05A0911B05B0911C05892B8A2B60
:101430008B2B09F49ECF0E94C806009119051091CC
:101440001A0520911B0530911C056C197D098E0928
:101450009F09061717072807390708F08ACFC0CF5A
:1014600081E0C3CF80E0C1CF82E0BFCF83E0BDCFBA
:101470001F93CF93DF93EA01122FDC0111968D9118
:101480009C91DC01ED91FC910280F381E02D199596
:10149000C817D90729F4812F0E94480991E08111CA
:1014A00090E0892FDF91CF911F910895CF93DF9323
:1014B000EC018B818823A1F0888191E090931D0538
:1014C00080933F0510921E051092400581E00E9416
:1014D000480991E0811190E0892FDF91CF91089523
:1014E0000E94100981E08B83CE010E94560A982F3A
:1014F0008111E2CFF1CF0895E091D0048091CF0423
:10150000E81730F4F0E0EF52FB4F808190E008954F
:101510008FEF9FEF08959091D0048091CF042FEF2B
:101520003FEF981748F4E92FF0E0EF52FB4F20818E
:1015300030E09F5F9093D004C90108958091CF045B
:101540009091D004891B990B0895CF92DF92EF926E
:10155000FF920F931F93CF93DF937C01CB018A01FE
:1015600020911D05222389F0EB016B01C40ED51ECD
:10157000CC15DD0569F06991D701ED91FC910190E1
:10158000F081E02DC7011995F3CF642F0E94CB089D
:10159000C801DF91CF911F910F91FF90EF90DF90E5
:1015A000CF900895CF93DF931F92CDB7DEB76983B5
:1015B00020911D052223F9F020914005203258F09A
:1015C00021E030E0FC013383228390E080E00F9043
:1015D000DF91CF91089580911E05E82FF0E0E15E44
:1015E000FA4F998190838F5F80931E058093400509
:1015F00081E090E0ECCF61E0CE0101960E94CB0843
:10160000F7CFEF92FF920F931F93CF93DF93EC01ED
:101610007A018EA99FA98617970729F48AAD9BADF9
:1016200082179307B1F07FAB6EAB3BAF2AAF8CA5AF
:101630009DA54CA9460F572F511D21503109240F4C
:10164000351FDC01ED91FC91008CF18DE02D6AE2FB
:10165000199588AD99AD8E159F0529F48CAD9DAD7A
:1016600080179107B9F0F9AEE8AE1DAF0CAF8CA5AD
:101670009DA54DA94E0D5F2D511D015011099801D9
:10168000240F351FDC01ED91FC91008CF18DE02DD4
:101690006BE219958CA59DA5DC01ED91FC9106806E
:1016A000F781E02D6CE2DF91CF911F910F91FF90B8
:1016B000EF901994FC0180858F3F31F0A485B585AA
:1016C0009C918089892B8C930895FC0183858823C4
:1016D00031F09091DE058091DF059CBD8DBDA68522
:1016E000B7858C919289892B8C9380858F3F31F0BF
:1016F000A485B5858C91918989238C9308958EBD9D
:1017000000000DB407FEFDCF8EB50895CF92DF9295
:10171000EF92FF921F93CF93DF9369017A01EB0160
:1017200081E0C81AD108E108F1088FEFC816D80681
:10173000E806F80669F018818981229610935F0403
:10174000809360040E947F0B812F0E947F0BE8CF63
:10175000DF91CF911F91FF90EF90DF90CF90089590
:10176000CF92DF92EF92FF92CF93DF9369017A01DC
:10177000EB0181E0C81AD108E108F1088FEFC81623
:10178000D806E806F80621F089910E947F0BF1CF78
:10179000DF91CF91FF90EF90DF90CF900895CF929F
:1017A000DF92EF92FF92CF93DF93EB0169017A0111
:1017B00060935F04D093600481E0C81AD108E10807
:1017C000F1088FEFC816D806E806F80639F08D2F15
:1017D0000E947F0B8C2F0E947F0BEECFDF91CF9169
:1017E000FF90EF90DF90CF900895CF93C62F872F73
:1017F00060935F04709360040E947F0B8C2FCF91E5
:101800000C947F0B862F0C947F0BCF92DF92EF927C
:10181000FF920F931F93CF93DF93EC0169017A013D
:10182000EE85FF8580819B89892380838B0181E000
:10183000C81AD108E108F108EFEFCE16DE06EE0671
:10184000FE0631F0F80181918F010E947F0BEFCFEE
:10185000EE85FF8580819A89892B8083DF91CF91E6
:101860001F910F91FF90EF90DF90CF9008951F93FD
:10187000CF93DF93EC01162F872FEE85FF859081A4
:101880002B899223908360935F04709360040E947D
:101890007F0B812F0E947F0BEE85FF8580819A89C7
:1018A000892B8083DF91CF911F910895CF93DF9390
:1018B000EC01862FEE85FF8590812B899223908302
:1018C0000E947F0BEE85FF8580819A89892B80831A
:1018D000DF91CF910895DC019C968D919C91DC0164
:1018E000ED91FC910684F785E02D1994DC019C961E
:1018F0008D919C91DC01ED91FC910480F581E02DAE
:101900001994AF92BF92CF92DF92EF92FF920F9312
:101910001F93CF93DF93EC015901E881F98102A075
:10192000F3A1E02D19959501D8010E943B349B014C
:10193000AC01E881F98104A0F5A1E02DB701CE0149
:10194000DF91CF911F910F91FF90EF90DF90CF909B
:10195000BF90AF901994EF92FF920F931F93CF9384
:10196000DF9357FD38C0DC011A96ED91FC91E41726
:10197000F5078CF12115310571F137FF07C0F90129
:1019800031966E0F7F1F319521953109DC01189634
:10199000ED91FC91E617F707F4F0EB01C20FD31FAE
:1019A000DE011197B7FD17C077FF03C09E0170E0FD
:1019B00060E0EA17FB072CF49F01261B370B2F5F13
:1019C0003F4FDC01ED91FC910684F785E02D780115
:1019D00001E010E01995DF91CF911F910F91FF90D9
:1019E000EF900895EF92FF920F931F93CF93DF93A1
:1019F00077FD39C0DC011896ED91FC91E617F707E9
:101A000094F12115310579F137FF07C0F9013196BD
:101A10004E0F5F1F319521953109DC011A96ED912A
:101A2000FC91E417F507FCF0EA01C20FD31FDE01B9
:101A30001197B7FD18C057FF03C09E0150E040E06A
:101A4000EA17FB072CF49F01241B350B2F5F3F4F38
:101A5000DC01ED91FC910684F785E02D7801890188
:101A600021E030E01995DF91CF911F910F91FF9008
:101A7000EF900895DC019C968D919C91DC01ED9195
:101A8000FC91028CF38DE02D1994EF92FF920F934D
:101A90001F93CF93DF93EC017901E881F98102A0D4
:101AA000F3A1E02D01E010E021E030E019958CA5D4
:101AB0009DA5DC01ED91FC910684F785E02DB70131
:101AC000DF91CF911F910F91FF90EF901994DC015E
:101AD0009C968D919C91DC01ED91FC910280F381AB
:101AE000E02D1994EF92FF920F931F93CF93DF9302
:101AF000EC014D3F8FEF580768077807A9F5E8819B
:101B0000F98100A4F1A5E02DCE011995E881F981B4
:101B1000008CF18DE02D6F8DCE0119950E811F8106
:101B2000EC80FD80E881F9810484F585E02DCE010B
:101B30001995E881F98102A0F3A1E02D970150E009
:101B400040E070E060E0CE011995E881F9810688F7
:101B5000F789E02DCE01199581E0DF91CF911F919A
:101B60000F91FF90EF9008952EAD8CA59DA5DC01FF
:101B7000ED91FC910190F081E02D2F3F29F0199516
:101B80008111BDCF80E0E9CF2FEFF9CFFC0116AE78
:101B90000C94720D0895FC016770678F85A196A162
:101BA00023A134A1633019F0D0F46130E1F49583BE
:101BB00084833783268324813581215031093187FD
:101BC000208786819781019793878287158614865F
:101BD00017861686318B208B938B828B0895653008
:101BE00031F3673021F33583248397838683E3CFF2
:101BF000CF93DF93EC010E94CB0DEF8DE150E730E6
:101C000088F5F0E08827E85FF14F8F4F0C9433346C
:101C10000F0E200E240E280E2C0E2E0E300E89A92B
:101C20008CAB8AA98DAB8FEF9FEF9FAB8EAB99AF3B
:101C300088AF9BAF8AAF9DAF8CAFDF91CF910895F6
:101C40008AA98CAB8BA9EECF8BA98CAB88A9EACFE4
:101C50008AA98CAB89A9E6CF8BA9E2CF88A9F1CF5D
:101C600089A9F3CF88A9F5CF1F93CF93DF93EC0118
:101C70000E94F80DEF8DE15018E4E33020F4F0E01D
:101C8000EE5EFD4F10818CA59DA5DC01ED91FC91D0
:101C90000280F381E02D19958CA59DA5DC01ED91C5
:101CA000FC910088F189E02D412F66E319958CA500
:101CB0009DA5DC01ED91FC910480F581E02DDF9183
:101CC000CF911F91199408956F927F928F929F9256
:101CD000AF92BF92CF92DF92EF92FF920F931F933A
:101CE000CF93DF936C015B014901EA013A01600E79
:101CF000711EC615D70574F4D601ED91FC910288CA
:101D0000F389E02D87019401AE01B501C601199553
:101D10002196EFCFDF91CF911F910F91FF90EF9020
:101D2000DF90CF90BF90AF909F908F907F906F90FB
:101D300008956F927F928F929F92AF92BF92CF92AF
:101D4000DF92EF92FF920F931F93CF93DF93570190
:101D50002115310509F457C00115110509F453C0C7
:101D600037FF07C0F90131966E0F7F1F319521951E
:101D70003109EC01A885B985A617B7070CF443C053
:101D800017FF07C0F80131964E0F5F1F119501959F
:101D90001109EC01EA85FB85E417F507A4F16B0155
:101DA000C20ED31E3601D1E06D1A710877FC2BC02C
:101DB0007A01E00EF11E4701C1E08C1A910897FCF0
:101DC00022C077FF03C0960170E060E057FF03C0B8
:101DD000870150E040E0A615B7052CF49D01261BB5
:101DE000370B2F5F3F4FE815F9052CF48F01041BCB
:101DF000150B0F5F1F4FDC01ED91FC910684F785F9
:101E0000E02D75011995DF91CF911F910F91FF90F2
:101E1000EF90DF90CF90BF90AF909F908F907F908A
:101E20006F900895CF92DF92EF92FF920F931F93DE
:101E3000CF93DF93EC010E811F81CC80DD80E881A0
:101E4000F9810484F585E02D1995F12CE12C96019A
:101E500050E040E070E060E0CE010E94990EE88121
:101E6000F9810688F789E02DCE01DF91CF911F918E
:101E70000F91FF90EF90DF90CF9019942F923F92A7
:101E80004F925F926F927F928F929F92AF92BF928A
:101E9000CF92DF92EF92FF920F931F93CF93DF9336
:101EA000CDB7DEB72E970FB6F894DEBF0FBECDBF0D
:101EB0009E878D877A876987DC01ED91FC91048488
:101EC000F585E02D199569857A8560517109AD8593
:101ED000BE85ED91FC9111970288F389E02D05E50F
:101EE0001DEA21E230E043EB50E0CD01199520E0FE
:101EF00033EE4FEF5FEF29833A834B835C831D8280
:101F00001E821F821886812C912C540180E1482E5C
:101F1000512C612C712C89819A81AB81BC81B7FFD6
:101F200022C09FEF891A990AA90AB90AD501C401EA
:101F300012E0880F991FAA1FBB1F1A95D1F70296AE
:101F4000A11DB11DBA2FA92F982F882729813A8169
:101F50004B815C81280F391F4A1F5B1F29833A83FD
:101F60004B835C83D8CF1201220C331C3FEF231A22
:101F7000330A49855A85441955095C874B8751E0D6
:101F8000451A51086108710864018D819E81C81A43
:101F9000D90AE5E5EE2EEDEAFE2E8601910143EB2E
:101FA00050E0481959096B857C858D859E850E9476
:101FB000990E4D815E814C545F4F91016B857C85FC
:101FC0008D859E850E94990ED301C201FAE0880F8B
:101FD000991FAA1FBB1FFA95D1F729813A814B811E
:101FE0005C81281B390B4A0B5B0B29833A834B839B
:101FF0005C83481459046A047B042CF08D829E8211
:10200000AF82B88688CFC12C53EED52EEE24EA9449
:10201000FE2C60E1462E512C612C712C812C912CD0
:102020005401F7FE1AC03FEF831A930AA30AB30ABA
:10203000D501C40132E0880F991FAA1FBB1F3A9532
:10204000D1F70296A11DB11DBA2FA92F982F88276D
:10205000C80ED91EEA1EFB1EE4CF5E824D8241E00F
:10206000441A5108610871081401220C331C5FEFF7
:10207000251A350A43EB50E08D819E81481B590B90
:10208000AD85BE85ED91FC9111970288F389E02D15
:1020900005E51DEA910189859A85881999099A8330
:1020A0008983BC01CD0119954D815E814D545F4FEF
:1020B000AD85BE85ED91FC9111970288F389E02DE5
:1020C000910169817A81CD011995D301C2012AE07C
:1020D000880F991FAA1FBB1F2A95D1F7C81AD90AC2
:1020E000EA0AFB0A481459046A047B040CF099CFED
:1020F000AD85BE85ED91FC9111970688F789E02D9D
:10210000CD012E960FB6F894DEBF0FBECDBFDF9186
:10211000CF911F910F91FF90EF90DF90CF90BF90E4
:10212000AF909F908F907F906F905F904F903F9077
:102130002F901994CF93DF93DC0157FD38C01A9686
:102140008D919C911B97841795078CF197968C9194
:102150009797882319F1CA01880F991F9896CD91F6
:10216000DC919997C80FD91FE881F9816E177F0715
:10217000F4F09A96ED91FC919B97E80FF91F8081FE
:102180009181861797079CF0ED91FC91119702843D
:10219000F385E02DCD01DF91CF91199477FD07C034
:1021A00018968D919C911997861797076CF7DF9178
:1021B000CF9108952F923F924F925F926F927F92AC
:1021C0008F929F92AF92BF92CF92DF92EF92FF9247
:1021D0000F931F93CF93DF93CDB7DEB72C970FB636
:1021E000F894DEBF0FBECDBF9C878B877A8369834F
:1021F0001A01D22E1C830B833701DC0191960D91BD
:102200001C9192975C964C915C975D963C915D9782
:10221000432E512C50968D919C910115110509F476
:102220006EC1F801349624913297A590B490D21AD9
:10223000B7E0DB9EA00CB11C1124F80165917491EC
:102240007A876987F501C590D490F501329674912B
:102250007D833196A491AE8331962491085F1F4F00
:10226000F8010491F50135965491588766E0A60E61
:10227000B11CF501A49069817A81861797070CF447
:1022800016C3802F90E0880F991F63E070E00E94D2
:10229000FD33649DC001659D900D749D900D1124CA
:1022A0002101481A590AAB85BC8552968D919C91A3
:1022B000841595050CF4FBC28D80821608F4822EDD
:1022C000849E4001112449815A81480D591DEB8596
:1022D000FC8584859585841795070CF0E8C2039FDB
:1022E000800111249101200F311F86859785821767
:1022F00093070CF0DCC20190F081E02D0484F58599
:10230000E02D8B859C8519952B813C816216730687
:1023100071F1AB85BC8550962D913C9189819A8154
:10232000880D991D0197281739078CF0EB85FC85DE
:1023300022893389C801840D951D01972817390713
:102340006CF4EB85FC85858D081B1109F3CFAB85FB
:10235000BC855C968C91881A9108E0CF730194013A
:10236000A20169817A818B859C850E94990EF885EE
:102370008F2EFF0F9908EA2C0A2C000CFF08AB8562
:10238000BC855D962C915D975C968C91813009F0AF
:1023900045C0213009F042C0E20CF31C870180E007
:1023A000512C902F9E19BE819B1708F054C1EB85CC
:1023B000FC8522893389201731076CF1A980BA8006
:1023C000A80CB91C3D80380E831529F14424439490
:1023D000480E877041F4C6010196E985FA85EC0D37
:1023E000FD1D54906C01AB85BC8550968D919C91E0
:1023F00051978A159B054CF057FE07C02B813C81F5
:10240000A801B501CD010E949A10BFEFAB1ABB0A1B
:10241000550C842DD9CF0F5F1F4FC3CF3A2D3203F8
:1024200050011124A20CB31C80E0512C412C4E8190
:10243000441609F410C1AB85BC855D962C915D975F
:102440002A0D3B2D311D2150310952964D915C9141
:102450005397421753070CF44AC05C962C91388569
:1024600032034001112449815A81840E951E2D802A
:10247000280E821509F43BC033243394380E87703C
:1024800041F4C6010196E985FA85EC0DFD1D5490D5
:102490006C01AB85BC855C962C915C9730E0C901E2
:1024A000880D991D019750964D915C915197481751
:1024B0005907ACF057FE13C05E968C915E9790E082
:1024C0005D960C915D9710E0081B190B281B390BCA
:1024D000EB80FC80A501B401CD010E94990EEB8533
:1024E000FC85848D880E911C550C832DC2CF43949E
:1024F000AB85BC855D969C91A90EB11C98CFE981F6
:10250000FA818E179F070CF4D2C1AB85BC85529619
:102510008D919C91821593050CF4C9C19F01B6E081
:102520004B9F200D311D1124EB85FC8584859585FD
:10253000821793070CF0BBC153E0440C551C5A950D
:10254000E1F7420C531C86859785841595050CF0A0
:10255000AEC10190F081E02D0484F585E02D8B85DE
:102560009C851995AB85BC855C962C91B5E0DB9E6E
:10257000C0011124213009F09EC0EB85FC85258D1A
:10258000213009F098C0F12CE12C9C0126593D4FD7
:102590004901510138E0A30EB11CC980DA80CE0C8C
:1025A000DF1CF401EE0DFF1D5490AB85BC855096E9
:1025B0008D919C918C159D05ECF08101EB85FC853E
:1025C00082899389801791077CF00190F081E02D3A
:1025D00050FE63C00284F385E02D2B813C81A8016D
:1025E000B6018B859C8519950F5F1F4F56940A1570
:1025F0001B0521F73FEFE31AF30A45E0E416F10467
:1026000061F66B817C816616770629F169817A8192
:102610006B5F7F4FAB85BC8550968D919C91519798
:1026200086179707C4F052962D913C91C1010696EA
:1026300082179307ECF1221933092F5F3F4FAB85C7
:10264000BC85ED91FC9111970088F189E02D830103
:10265000A101CD011995AB85BC85ED91FC91119738
:102660000688F789E02DCD012C960FB6F894DEBFD1
:102670000FBECDBFDF91CF911F910F91FF90EF90D3
:10268000DF90CF90BF90AF909F908F907F906F9092
:102690005F904F903F902F9019942B813C81621650
:1026A000730609F4A1CF0284F385E02D930197CF3F
:1026B00028E030E0C4CFC980DA80512C412CFC01E5
:1026C000E659FD4FFF83EE83AB85BC855C968C910C
:1026D0005C978C0D9D2D911D019750962D913C91ED
:1026E000281739070CF487C0EE81FF81E40DF51D32
:1026F000B491BD835101912C812CEB85FC85858D96
:1027000090E09C012A0D3B1D2150310942895389DB
:10271000421753070CF45EC0248D30E0FD81F0FFBA
:10272000B7C0AB85BC855E964C915E97442309F497
:10273000AAC050E08C01041B150B241B350B889D8F
:10274000A001899D500D989D500D1124420D531DDF
:10275000EB81FC816E167F0609F490C07F01B60103
:10276000CD010E94990EAB85BC855D960C915D975D
:1027700010E05E962C915E9730E0089DA001099DC7
:10278000500D189D500D1124420D531D5C966C91F7
:102790005C976C0D7D2D711D621B730B7301CD0158
:1027A0000E94990EEB85FC85068D10E0248D30E0AB
:1027B000201B310B658DC4010196689FA001699FA4
:1027C000500D1124420D531D401B510BB601CF017A
:1027D0000E94990E5D8156955D83AB85BC855D96A3
:1027E0008C91A80EB11CBFEF8B1A9B0AE8E08E16E5
:1027F000910409F082CFAB85BC855C968C91282F23
:1028000030E0C20ED31EBFEF4B1A5B0AE5E04E1656
:10281000510409F059CF4B815C816416750609F4A7
:102820001ACF69817A8155E0859F600D711D112451
:10283000C901860F971F0197AB85BC8550964D91B6
:102840005C915197481759070CF405CF5D968C9110
:102850005D9790E08C0143E0000F111F4A95E1F76E
:1028600052964D915C91F1013197DF01A00FB11F9C
:102870004A175B07ACF4081B190BF7CF7301B601BD
:102880008B859C85A5CFEB80FC808C01A501F7CFC3
:102890004B815C816416750609F49CCF7301F5CFFA
:1028A0007301A1018B859C850E94990ED4CE2C9634
:1028B0000FB6F894DEBF0FBECDBFDF91CF911F9151
:1028C0000F91FF90EF90DF90CF90BF90AF909F90CF
:1028D0008F907F906F905F904F903F902F900895D2
:1028E000DF92EF92FF920F931F93CF93DF93EC0150
:1028F000262F89A19AA1009709F47DC06A30D1F4EE
:102900002C853D853D8B2C8BFC013896E4912D8DDB
:102910008E899F89E29F800D911D11249F8B8E8B44
:1029200081E090E0DF91CF911F910F91FF90EF90A8
:10293000DF9008956D30A1F3FC01349645915491D8
:10294000FC013696A591B49170E06417750740F3C9
:10295000A617B70728F3FC013296A591B491362F3C
:10296000341B47E0349FA00DB11D1124FD013296A8
:1029700044913296D49038A1332341F115963C917D
:1029800050E0430F511D37FD5A953C8D349FB001E7
:10299000359F700D11244C895D89460F571F41509A
:1029A0005109688979896417750784F44E895F89AC
:1029B0006C857D857D8B6C8B0896FC0184919D8D4B
:1029C000899F400D511D11245F8B4E8BEA8CFB8C2F
:1029D000088D198D4E895F896C897D89CE010E9491
:1029E000DA102C8D8C899D89D29E800D911D112429
:1029F0009D8B8C8B95CF6A3071F48C859D859D8BDA
:102A00008C8B8D8DF8E08F9F900111248E899F898A
:102A1000820F931F83CF6D3009F482CF88A1882362
:102A2000E9F03C8D8C899D8946E0349F800D911D95
:102A30001124019748895989481759077CF44E8910
:102A40005F898C859D859D8B8C8B8D8DE8E08E9F1D
:102A5000C0011124840F951F9F8B8E8BEA8CFB8CF9
:102A6000088D198D4E895F896C897D89CE010E9400
:102A7000DA102C8D8C899D89F6E02F9F800D911D99
:102A80001124B6CFAF92BF92CF92DF92EF92FF9216
:102A90000F931F93CF93DF936C015A01EB017B01DE
:102AA000E20EF31ECE15DF0544F49801A501BE0128
:102AB000C6010E949A102196F5CFDF91CF911F9108
:102AC0000F91FF90EF90DF90CF90BF90AF9008955F
:102AD000AF92BF92CF92DF92EF92FF920F931F932C
:102AE000CF93DF936C015B01EA017A01E20EF31EE2
:102AF000CE15DF0544F49801AE01B501C6010E9470
:102B00009A102196F5CFDF91CF911F910F91FF90F1
:102B1000EF90DF90CF90BF90AF90089508952F92DF
:102B20003F924F925F926F927F928F929F92AF925D
:102B3000BF92CF92DF92EF92FF920F931F93CF93AA
:102B4000DF9300D000D0CDB7DEB74C016B015E83C0
:102B50004D83590162177307A9F50417150734F45B
:102B60009D818E811E830D83092F182F2D813E811B
:102B7000021B130B98012F5F3F4FD401ED91FC9185
:102B80000088F189E02D87014D815E81B601C40185
:102B9000199526960FB6F894DEBF0FBECDBFDF9114
:102BA000CF911F910F91FF90EF90DF90CF90BF904A
:102BB000AF909F908F907F906F905F904F903F90DD
:102BC0002F9008952D813E812017310799F4A61684
:102BD000B70624F48D2D6501A62EB82E95012C196B
:102BE0003D092F5F3F4FD401ED91FC910288F3899D
:102BF000E02DC9CF2D813E811801221A330A2017FA
:102C0000310724F02D803E80201A310A25014C180E
:102C10005D08CA14DB041CF026014A185B08421444
:102C200053045CF49A2D8B2D5801092F182F9C2DDD
:102C30008D2DCD80DE809D838E83AC14BD045CF42D
:102C40009D818E811E830D83092F182F9C2D8D2D24
:102C50006501A92EB82EC5018C199D099A83898317
:102C6000AD81BE81A017B107ACF598012A1B3B0BC3
:102C70003C832B8369807A8075946794AD81BE8193
:102C8000A017B10774F10FEF1FEFAC14BD040CF4E3
:102C900080CF9701A6016D817E81421453041CF000
:102CA0004D815E81B601C4010E949A102B813C8146
:102CB000621A730A77FE0AC089819A81680E791EAA
:102CC000AD81BE81A00FB11FBE83AD83BFEFCB1A14
:102CD000DB0ADBCF8D819E81801B910B9C838B83D4
:102CE000C9CF01E010E0D1CF089590E080E00895D1
:102CF0001F93CF93DF93EC01162FE881F9810280B7
:102D0000F381E02D1995E881F9810680F781E02DA6
:102D1000612FCE011995E881F9810480F581E02DBC
:102D2000CE01DF91CF911F91199460E1FC0184A540
:102D300095A50E94781666E970E080E090E00C941A
:102D4000ED0661E1FC0184A595A50E94781666E96F
:102D500070E080E090E00C94ED06FC0184A595A560
:102D600027A5261303C060E20C94781661E2FCCF1D
:102D7000EF92FF920F931F93CF93DF93EC018A01A1
:102D80007901E881F9810680F781E02D199500939A
:102D9000610410936204E881F9810484F585E02DD3
:102DA000612FCE01199501E614E0E881F9810484D0
:102DB000F585E02DD8016C91CE011995E092610462
:102DC000F0926204E881F9810484F585E02D6F2D8D
:102DD000CE011995E881F9810484F585E02DD801AB
:102DE0006C91CE01DF91CF911F910F91FF90EF90E9
:102DF0001994EF92FF920F931F93CF93DF93EC01FF
:102E00007A018901E881F9810680F781E02D199521
:102E1000E881F9810684F785E02DB701CE01199587
:102E2000E881F9810684F785E02DB801CE01DF91B4
:102E3000CF911F910F91FF90EF9019940F931F93D3
:102E4000CF93DF93EC018A01E881F9810084F18559
:102E5000E02D1995E881F9810684F785E02DB80108
:102E6000CE01DF91CF911F910F9119940F931F9372
:102E7000CF93DF93EC018A01E881F9810680F78125
:102E8000E02D1995E881F9810684F785E02DB801D8
:102E9000CE01DF91CF911F910F9119941F93CF9382
:102EA000DF93EC01142FE881F9810680F781E02D92
:102EB0001995E881F9810484F585E02D612FCE0113
:102EC000DF91CF911F9119942F923F924F925F9271
:102ED0006F927F928F929F92AF92BF92CF92DF922A
:102EE000EF92FF920F931F93CF93DF935C011B012F
:102EF0006A01F12CE12CD50114968D919C918601EB
:102F00000E191F098017910708F48C01F501D08173
:102F10000E94C8062B013C0180911705811172C0E7
:102F2000C02F013208F0C0E2F1E0F093170521E074
:102F3000C601801B910BE816F90608F420E02093E7
:102F400016058FEF80931505109214058C0F809352
:102F50001305A1E0A093F2048091F204DD0FD82BB9
:102F6000D093F2048091F104813009F090C0109266
:102F7000F1040E94C8062B013C018091F204809369
:102F8000BB008091190590911A05A0911B05B09185
:102F90001C05892B8A2B8B2BA1F00E94C80620913F
:102FA000190530911A0540911B0550911C056419B3
:102FB000750986099709261737074807590708F43E
:102FC00042C08091BC0083FDD8CFB5ECB093BC006B
:102FD0000E94C8062B013C0180911705813009F43D
:102FE0005AC0809114058C1710F4C0911405A3EFFA
:102FF000B4E0E1EDF4E080E08C1751F19D91919304
:103000008F5FFACF8091190590911A05A0911B0549
:10301000B0911C05892B8A2B8B2B09F47DCF0E9444
:10302000C8062091190530911A0540911B05509151
:103030001C0564197509860997092617370748077B
:10304000590708F069CF809118050E942709C0E050
:103050001092D004C093CF04C017110609F057C0D6
:1030600041018E0C9F1CE401CE018819990980173B
:10307000910798F5D50111968D919C91DC01ED9108
:10308000FC910284F385E02D19958993EDCFE5EE4F
:10309000E093BC009DCF8091190590911A05A091F5
:1030A0001B05B0911C05892B8A2B8B2B09F494CF1F
:1030B0000E94C8062091190530911A0540911B0500
:1030C00050911C0564197509860997092617370759
:1030D0004807590708F080CFB6CFE00EF11EEC1478
:1030E000FD0408F408CF81E0DF91CF911F910F918B
:1030F000FF90EF90DF90CF90BF90AF909F908F9018
:103100007F906F905F904F903F902F90089580E058
:10311000EBCF0F931F93CF93DF9300D000D0CDB7A9
:10312000DEB764E170E080E090E00E94ED0646E0EA
:1031300050E0BE016F5F7F4F809120069091210685
:103140000E946417182F882309F452C00B81CE0106
:1031500001960E947A04081357C00E81CE0104968E
:103160000E947A04081350C029813A81322723270C
:103170003227A7E1B1E10E94D6312EE095958795DF
:10318000779567952A95D1F764597141810991091D
:103190000E94A63020E030E048EC52E40E94573212
:1031A00060931A0670931B0680931C0690931D066D
:1031B0002C813D81322723273227A1E7B2E00E94EC
:1031C000D6313CE096958795779567953A95D1F7F6
:1031D0000E94A43020E030E048EC52E40E945732D4
:1031E000609316067093170680931806909319063D
:1031F000812F26960FB6F894DEBF0FBECDBFDF91AC
:10320000CF911F910F91089510E0F2CFCF93DF93EC
:103210001F921F92CDB7DEB799838A8380912006D3
:1032200090912106FC012481358122303105B8F0CE
:10323000208131E030931D0520933F0510921E053B
:103240001092400521E042E050E0BE016F5F7F4FE9
:103250000E94380A0F900F90DF91CF91089580E07F
:10326000F9CFEF92FF920F931F93CF93DF9300D08C
:1032700000D01F92CDB7DEB78C011982E090CD044B
:10328000F090CE04D70114968D919C911597892BBF
:10329000E9F08C9191E090931D0580933F05109289
:1032A0001E051092400520E041E050E0BE016F5F36
:1032B0007F4FC7010E94380A882341F047E050E061
:1032C000BE016F5F7F4FC7010E946417E981EF77EE
:1032D000FA81FB805D814E814F778F81282F30E00E
:1032E00094E0359527959A95E1F7922F990F990FCC
:1032F000291B220F280FD8012C93842F90E024E063
:10330000959587952A95E1F7982F990F990F891B25
:10331000880F840F11968C931197652F70E034E01D
:10332000759567953A95E1F7862F880F880F681B8A
:10333000660F650F12966C9312974F2D50E064E064
:10334000559547956A95E1F7842F880F880F481B9C
:10335000440F4F0D13964C9313972F2F30E074E0CA
:10336000359527957A95E1F7822F880F880F281BCE
:10337000220F2F0F14962C9314978E2F90E0F4E0C9
:1033800095958795FA95E1F7982F990F990F891BD5
:10339000880F8E0F15968C93C80127960FB6F89458
:1033A000DEBF0FBECDBFDF91CF911F910F91FF9078
:1033B000EF9008952F923F924F925F926F927F927B
:1033C0008F929F92AF92BF92CF92DF92EF92FF9235
:1033D0000F931F93CF93DF93CDB7DEB7C254D109BC
:1033E0000FB6F894DEBF0FBECDBF9E878D877EAF30
:1033F0006DAF5A83498319012701380121969FAE89
:103400008EAE21974217530724F0832D1A0129838A
:103410008A83A6019501C301B2010E94E5319B0197
:10342000AC015F772D833E834F83588720E030E0E7
:1034300044EB53E4C301B2010E940A332B013C0167
:1034400020E030E044EB53E4C601B5010E940A33AA
:103450006B017C0120E030E0A901C301B2010E94B0
:103460009F3087FF0AC020E030E044EB53E4C30103
:10347000B2010E94E6312B013C0120E030E0A901BD
:10348000C701B6010E949F3087FF0AC020E030E0EC
:1034900044EB53E4C701B6010E94E6316B017C01A5
:1034A00020E030E040E054E36D817E818F8198859B
:1034B0000E949F3087FD18C0A7019601C301B20189
:1034C0000E94E5319F7727E137EB41ED58E30E94F9
:1034D0009F3018164CF0C12CD12C84EBE82E83E4DD
:1034E000F82E412C512C3201AD85BE85ED91FC9119
:1034F00011970484F585E02DCD01199520E030E089
:1035000044EB52E4C301B2010E949F308823F1F0E2
:1035100020E030E044E353E4C301B2010E949F3055
:103520008823A1F020E030E047E853E4C301B20172
:103530000E949F30882351F020E030E044EB53E4B8
:10354000C301B2010E949F3081110AC02DEC3CECF6
:103550004CEC5DE3C301B2010E94E5312B013C015B
:1035600020E030E044EB52E4C701B6010E949F30F6
:103570008823F1F020E030E044E353E4C701B601D2
:103580000E949F308823A1F020E030E047E853E418
:10359000C701B6010E949F30882351F020E030E03F
:1035A00044EB53E4C701B6010E949F3081110AC069
:1035B0002DEC3CEC4CEC5DE3C701B6010E94E5311B
:1035C0006B017C0125E33AEF4EE85CE3C301B201F5
:1035D0000E9405314B015C010E9452326D837E8353
:1035E0008F83988725E33AEF4EE85CE3C701B60185
:1035F0000E9405316F87788B898B9A8B0E9452329B
:1036000069877A878B879C87C501B4010E94A5339F
:103610009B01AC016D817E818F8198850E9457321C
:103620006CA37DA38EA39FA36F85788989899A89CE
:103630000E94A5339B01AC0169857A858B859C85A9
:103640000E94573268A779A78AA79BA72D813E8140
:103650004F81588560E070E080E09FE30E94573220
:103660006CA77DA78EA79FA729853A854B855C858A
:1036700060E070E080E09FEB0E94573268AB79AB6E
:103680008AAB9BAB29813A812150310949815A810A
:10369000249FC001259F900D349F900D11249C0103
:1036A000990F440B550B2B8B3C8B4D8B5E8B810103
:1036B0000F5F1F4F029DC001039D900D129D900D45
:1036C00011249C01990F440B550B2F87388B498B84
:1036D0005A8B20E030E044E353E4C301B2010E947E
:1036E0009F30881F8827881F91E089278CAB20E0B6
:1036F00030E044E353E4C701B6010E949F30881FC5
:103700008827881F8BA38824992482189308092C62
:10371000000CAA08BB08C101330CAA0BBB0B8F8F8E
:1037200098A3A9A3BAA39801110F440B550B2D839D
:103730003E834F83588720E030E044E353E4C301E5
:10374000B2010E94E6319B01AC01C701B6010E94A3
:10375000A03318160CF4DFC0A7019601C301B20113
:103760000E94A033181684F420E030E044E353E4D0
:10377000C701B6010E94E6319B01AC01C301B20151
:103780000E949F3087FDC7C020E030E047E853E447
:10379000C701B6010E94A03387FF0AC020E030E0D5
:1037A00044EB52E4C701B6010E949F3087FF14C06A
:1037B00020E030E047E853E4C301B2010E94A033A7
:1037C00087FF96C020E030E044EB52E4C301B20131
:1037D0000E949F3087FD8CC020E030E047E853E432
:1037E000C701B6010E949F3087FF87C020E030E00C
:1037F00044EB52E4C701B6010E94A03387FD7DC0AF
:1038000020E030E047E853E4C301B2010E949F305A
:1038100087FF73C020E030E044EB52E4C301B20103
:103820000E94A03389829A82AB82BC8287FF6AC0E1
:1038300020E030E044E353E4C701B6010E94A03326
:1038400087FD0AC020E030E044E353E4C301B20145
:103850000E94A03387FF66C020E030E044E353E4D9
:10386000C701B6010E949F30312C87FF0BC020E0BA
:1038700030E044E353E4C301B2010E949F30312C95
:1038800087FD56C0A5019401C501B4010E94ED3326
:103890006F8B788F898F9A8F29813A814B815C81D8
:1038A000412C512C3201211531054105510509F4F6
:1038B00057C029013A01A3019201C301B2010E943C
:1038C000ED332F89388D498D5A8D620F731F841FF8
:1038D000951F2F85388949895A896217730784078C
:1038E000950754F13FEF431A530A630A730AE3CF73
:1038F00019821A821B821C829BCF89829A82AB8298
:10390000BC8296CF81E090E0A0E0B0E08D839E8302
:10391000AF83B8878DCF89829A82AB82BC823324F1
:103920003394B0CF312C1F8E18A219A21AA2AACF9D
:10393000812C912C5401A6CF8D819E81AF81B885B9
:103940000197A105B10561F021E030E040E050E0D1
:1039500024193509460957092D833E834F8358871B
:10396000C501B4010E94A6306B017C01AC019B0132
:103970006CA57DA58EA59FA50E94E6312CA13DA139
:103980004EA15FA10E9405316DAB7EAB8FAB98AFAE
:10399000A701960168A979A98AA99BA90E94E63185
:1039A00028A539A54AA55BA50E94053169AF7AAF64
:1039B0008BAF9CAFC12CD12C7601A40143565F4F35
:1039C00023965FAF4EAF2397A3019201C301B201CB
:1039D0000E94ED332F89388D498D5A8D260F371F60
:1039E000481F591F29873A874B875C878B899C8999
:1039F000AD89BE89281739074A075B074CF1C30117
:103A0000B2010E94A6306B8F7C8F8D8F9E8F11E04C
:103A10009B01AC0169AD7AAD8BAD9CAD0E94A0332A
:103A200087FD10E001E02B8D3C8D4D8D5E8D6DA9E5
:103A30007EA98FA998AD0E94A03387FD00E09CA9C4
:103A4000901709F448C0ABA1A1134CC031104AC073
:103A5000C114D104E104F104C9F06DAD7EAD640D73
:103A6000751D6C197D09AD85BE85ED91FC91119791
:103A70000288F389E02D21960EAD1FAD21979601A6
:103A800023964EAD5FAD2397CD0119952F853889CB
:103A900049895A8989859A85AB85BC8582179307A0
:103AA000A407B5070CF04AC077FE11C02B893C89EA
:103AB0004D895E8982179307A407B50744F4709473
:103AC000609450944094411C511C611C711CC12C89
:103AD000D12C760124C0332009F4BACFBBA1B11791
:103AE00009F4B6CF2D813E814F8158854216530689
:103AF0006406750609F4ACCF8F859889A989BA89BF
:103B000029853A854B855C85281739074A075B0765
:103B10000CF046C03FEFC31AD30AE30AF30A3FEFA3
:103B2000431A530A630A730A8D819E81AF81B88557
:103B300084159505A605B7050CF046CF9FEF891AA9
:103B4000990AA90AB90A2F8D38A149A15AA12815A5
:103B500039054A055B050CF095CEAD85BE85ED9126
:103B6000FC9111970688F789E02DCD01CE5BDF4FE0
:103B70000FB6F894DEBF0FBECDBFDF91CF911F917E
:103B80000F91FF90EF90DF90CF90BF90AF909F90FC
:103B90008F907F906F905F904F903F902F901994EF
:103BA000C114D104E104F10449F257CF0E946436F4
:103BB000FB0101900020E9F73197AF01461B570B3D
:103BC000DC01ED91FC910280F381E02D19948F923C
:103BD0009F92AF92BF92EF92FF920F931F93CF935A
:103BE000DF93CDB7DEB7A1970FB6F894DEBF0FBE57
:103BF000CDBF7C01FA01CB0119A2223008F42AE0E2
:103C00008E010F5D1F4F822E912CB12CA12CBF0174
:103C1000A50194010E941134F901CA016A300CF522
:103C2000605DD8016E938D01232B242B252B79F712
:103C300090E080E0109721F0BD01C7010E94D81DDF
:103C4000A1960FB6F894DEBF0FBECDBFDF91CF9126
:103C50001F910F91FF90EF90BF90AF909F908F902A
:103C60000895695CDECF462F50E070E060E02AE006
:103C70000C94E71DCF92DF92EF92FF920F931F9368
:103C8000CF93DF936B01770FEE08FF08F7FE1BC0A1
:103C9000EC016DE20E94D0048C0144275527BA0143
:103CA0004C195D096E097F092AE0CE010E94E71DCB
:103CB000800F911FDF91CF911F910F91FF90EF9097
:103CC000DF90CF9008952AE0B701A601DF91CF9150
:103CD0001F910F91FF90EF90DF90CF900C94E71D14
:103CE0000C94D81D0F931F93CF93DF93C82FD62F1B
:103CF00084E1C89F80011124085D1F4F8091220636
:103D00009091230624E130E0FC01358B248B178B46
:103D1000068B138E128E118E108EC33009F446C09E
:103D200040F5C13079F1C230D1F1809122069091F5
:103D3000230620EE3FEFD11102C02FEF3FEFFC0131
:103D4000338F228F318F208F24E130E0358B248B0D
:103D5000178B068BC33009F45AC0B0F5C13009F493
:103D60003FC0C23009F44CC0DF91CF911F910F9139
:103D70000895C43011F1C530C1F66BEF72E00E94B6
:103D8000701ED3CF63ED72E00E94701E6091B30489
:103D900080912206909123060E94331EC6CF6DEDBE
:103DA00072E00E94701E6091B204F2CF67EE72E082
:103DB0000E94701E6091B104EBCF61EF72E00E942F
:103DC000701E6091B004E4CFC43041F1C53061F69B
:103DD0006BEF72E0DF91CF911F910F910C94701EE9
:103DE00063ED72E00E94701E6091B3048091220620
:103DF00090912306DF91CF911F910F910C94331E68
:103E00006DED72E00E94701E6091B204EFCF67EE1C
:103E100072E00E94701E6091B104E8CF61EF72E021
:103E20000E94701E6091B004E1CF0F931F93CF9357
:103E3000DF93C82FD62F84E1C89F80011124085D2D
:103E40001F4F809122069091230624E130E0FC016F
:103E5000358B248B178B068B138E128E118E108E42
:103E6000C330B9F148F5C13089F165E173E0C23082
:103E700051F1809122069091230620EE3FEFD1115F
:103E800002C02FEF3FEFFC01338F228F318F208F45
:103E900024E130E0358B248B178B068BC33009F47B
:103EA00064C000F5C13069F1C23009F44CC0DF9143
:103EB000CF911F910F910895C53089F068F06BEF95
:103EC00072E0C630B1F60E94701ED3CF60E073E09E
:103ED000FACF6AE273E0F7CF6FE373E0F4CF64E503
:103EE00073E0F1CFC53009F455C008F450C06BEF52
:103EF00072E0C630E1F6DF91CF911F910F910C94E3
:103F0000701E60E073E00E94701E80912206909106
:103F100023062FEF3FEFFC01338F228F318F208F4D
:103F200060E673E00E94701E6DE573E080912206EA
:103F3000909123060E94701E60E673E08091220635
:103F400090912306D8CF65E173E00E94701E8091A6
:103F50002206909123062FEF3FEFFC01338F228F33
:103F6000318F208F6FE573E0C6CF6AE273E00E9465
:103F7000701E80912206909123062FEF3FEFFC01E7
:103F8000338F228F318F208F60E673E0B4CF6FE3E1
:103F900073E0EDCF64E573E0AECF0F931F93CF9343
:103FA000DF93EC0188819981009759F02A813B8148
:103FB0002617370730F081E0DF91CF911F910F91E5
:103FC00008958B016F5F7F4F0E948335009759F0F2
:103FD000998388831B830A832C813D81232B59F786
:103FE000FC011082E8CF80E0E7CFEF92FF920F93C1
:103FF0001F93CF93DF93EC017B01FB010190002025
:10400000E9F731978F01061B170BB8010E94CD1FEE
:1040100028813981811113C02115310519F0C90199
:104020000E94FA34198218821D821C821B821A8215
:10403000DF91CF911F910F91FF90EF9008951D8315
:104040000C83B701C901DF91CF911F910F91FF90B0
:10405000EF900C947B3685ED8093BC008091190520
:1040600090911A05A0911B05B0911C050796A11D02
:10407000B11D23E0B695A795979587952A95D1F719
:104080002091BC0024FD03C01092170508954091B3
:10409000190550911A0560911B0570911C05452B5F
:1040A000462B472B69F30097A105B10541F025E3A5
:1040B0002A95F1F700000197A109B109E1CF80919C
:1040C00018050C9427094F925F926F927F928F92FE
:1040D0009F92AF92BF92CF92DF92EF92FF920F9397
:1040E0001F93CF93DF936C01DC019E968C9161E06E
:1040F0008F3F09F456C00E94970661E0E6018EA545
:104100000E940B0664E670E080E090E00E94ED06FD
:1041100060E08EA50E940B0666E970E080E090E00A
:104120000E94ED0661E08EA50E940B0666E970E034
:1041300080E090E00E94ED06D6019C960D911C91C6
:10414000F601EF5BFF4F408051803297E080F180B5
:10415000D0E0C0E023E6A22E23E0B22EC415D505A0
:1041600008F0D2C0F701EC0FFD1FE0814E01BFEF58
:104170008B1A9B0AED3008F0A9C0F0E08827EC53B9
:10418000FF4D8F4F0C94333412211D21F720222133
:10419000E92075213C21D7201B2141211F215421D9
:1041A0005B21F60184A595A50E947816BFCF80E01B
:1041B00077247394780ED701A80DB91DE801E88122
:1041C000F9810680F781E02D6C91C8011995E40111
:1041D00002C077247394219647018C0E9D1E672C94
:1041E0006A94FFEF6F1284C0C70DD11DB7CF712C39
:1041F000F701E80DF91D8081809362042296F70192
:10420000EC0FFD1F808180936104609161047091C7
:104210006204D801ED91FC910084F185E02DC80184
:104220001995D9CFD801ED91FC910280F381E02D51
:10423000C80119951FC081E0BBCF712CBCCF92E0A3
:10424000792ED6CFF701E80DF91D7080272D30E0CB
:1042500050E040E0BE016E5F7F4F6E0D7F1DE801B4
:10426000E881F9810284F385E02DC8011995E40104
:10427000C70DD11D712CAFCFF701E80DF91D70806E
:10428000A6CFD701A80DB91DF80180819181FC014D
:10429000268137816C91C801F90119952296F701A1
:1042A000EC0FFD1F708097CFD801ED91FC91048039
:1042B000F581E02DBDCFF701E80DF91D608170E0BB
:1042C00090E080E00E94ED06E401D4CF1F92EF93CE
:1042D000DF93CF93BF92AF920E9482360F900F90E0
:1042E0000F900F900F900F90C5CF82E0782E73CF74
:1042F000D4016D914D01D801ED91FC910484F585B7
:10430000E02DC80119956CCFE601E881F981028C96
:10431000F38DE02D60E0C601DF91CF911F910F91E9
:10432000FF90EF90DF90CF90BF90AF909F908F90D5
:104330007F906F905F904F9019940F931F93CF933E
:10434000DF93EC014F3F8FEF58076807780721F4A0
:1043500040E052E16AE770E04A835B836C837D83CF
:104360002E8361E08F810E94970661E08F810E9419
:104370000B0688858F3F39F061E00E94970661E067
:1043800088850E940B068F81082E000C990BFC017A
:10439000EC5BF74FE491F0E0EE0FFF1FEC57F84FA6
:1043A000259134913F872E87FC01EC51F84FE49121
:1043B000EA8BE095EB8B88858F3FA9F0082E000CE7
:1043C000990BFC01EC5BF74FE491F0E0EE0FFF1F5F
:1043D000EC57F84F259134913D872C87FC01EC5127
:1043E000F84FE491E88B88898095898B1FB7F89402
:1043F00080915E04811127C0E9E7F8E08491E9E14A
:10440000F8E09491E82FF0E0EE0FFF1FE659F84F27
:10441000A591B491EC91E92321F461E085E30E9438
:104420000B0661E085E30E9497068CB580618CBD28
:104430008CB580648CBD61E084E30E94970661E0E6
:1044400083E30E94970680915E048F5F80935E04F1
:104450001FBF8E818F3F11F488E08E839E810A8179
:104460001B812C813D8140E052E16AE770E080E0F1
:10447000041715072607370740F476956795579573
:1044800047958F5F8630A1F787E09C709065282F55
:104490002695922B9093DE05809581708093DF05A1
:1044A00081E0DF91CF911F910F9108950C94C3315A
:1044B0001F920F920FB60F9211240BB60F922F93EB
:1044C0003F934F935F936F937F938F939F93AF939C
:1044D000BF93EF93FF9381E495E00E944B05FF911A
:1044E000EF91BF91AF919F918F917F916F915F916C
:1044F0004F913F912F910F900BBE0F900FBE0F90D9
:104500001F9018951F920F920FB60F9211240BB6A1
:104510000F922F938F939F93EF93FF93E091510509
:10452000F09152058081E0915705F091580582FD88
:104530001DC0908180915A058F5F8F7320915B051C
:10454000821741F0E0915A05F0E0EF5BFA4F958F4A
:1045500080935A05FF91EF919F918F912F910F902A
:104560000BBE0F900FBE0F901F9018958081F2CF59
:104570001F920F920FB60F9211242F933F938F9398
:104580009F93AF93BF938091A8049091A904A091A9
:10459000AA04B091AB043091A70423E0230F2D3778
:1045A00058F50196A11DB11D2093A7048093A8047E
:1045B0009093A904A093AA04B093AB048091AC0497
:1045C0009091AD04A091AE04B091AF040196A11DED
:1045D000B11D8093AC049093AD04A093AE04B0934E
:1045E000AF04BF91AF919F918F913F912F910F9009
:1045F0000FBE0F901F90189526E8230F0296A11D5D
:10460000B11DD2CF1F920F920FB60F9211240BB68D
:104610000F922F933F934F935F936F937F938F935B
:104620009F93AF93BF93EF93FF938091B900887FDF
:10463000803609F44DC008F040C0883209F4A9C0A2
:1046400028F5803109F49DC0C8F4882309F4FBC023
:10465000883009F496C0FF91EF91BF91AF919F917F
:104660008F917F916F915F914F913F912F910F901B
:104670000BBE0F900FBE0F901F901895883109F454
:1046800088C0803241F78093150514C0803409F446
:104690009DC040F48033B9F38833E9F68093150563
:1046A00085ECB0C0803509F485C0883509F496C022
:1046B000883489F60E942B20CECF883909F48CC02B
:1046C00038F5883729F050F4883611F0803719F61C
:1046D00083E0809317051092A60457C0883809F428
:1046E0007BC0803919F0803809F0B5CF8091A604DD
:1046F000803208F071C0E091A60481E08E0F8093B3
:10470000A6048091BB00F0E0EA57FB4F80833DC0D8
:10471000803B39F0E0F4803A09F479C0883A09F036
:104720009ACF84E080931705109285041092840438
:10473000E091CB04F091CC0419958091840481110F
:104740000FC081E0809384041092640409C0803C0F
:1047500009F4A6CF883C09F4A3CF883B09F07BCFAE
:10476000E091850481E08E0F80938504F0E0EC59A0
:10477000FB4F80818093BB009091850480918404DD
:1047800029C08091F2048093BB0085EC8093BC002B
:1047900062CF9091140580911305981758F5E09118
:1047A000140581E08E0F80931405F0E0ED50FB4F6F
:1047B0008081E9CFE091140581E08E0F809314058C
:1047C0008091BB00F0E0ED50FB4F80839091140589
:1047D000809113059817C8F285E8D8CFE0911405A9
:1047E00081E08E0F809314058091BB00F0E0ED50C6
:1047F000FB4F80838091160581115CCF81E080930F
:10480000F10484EA8093BC001092170524CF85EC54
:104810008093BC00109217058091A604803230F47A
:10482000E091A604F0E0EA57FB4F10826091A604E5
:1048300070E0E091C904F091CA0486E894E019950B
:104840001092A60408CF1092150534CFEF92FF9274
:104850000F931F93CF93DF93EC017B011982188292
:104860001B821A821D821C82FB0101900020E9F745
:1048700031978F01061B170BB8010E94CD1F2881AD
:104880003981811113C02115310519F0C9010E9428
:10489000FA34198218821D821C821B821A82DF91CF
:1048A000CF911F910F91FF90EF9008951D830C837E
:1048B000B701C901DF91CF911F910F91FF90EF9048
:1048C0000C947B361F93CF93DF9310924405109284
:1048D000430588EE93E0A0E0B0E080934505909317
:1048E0004605A0934705B093480529E132E030938F
:1048F00042052093410525EC30E030934E0520938E
:104900004D0524EC30E03093500520934F0520EC0A
:1049100030E0309352052093510521EC30E0309384
:1049200054052093530522EC30E030935605209334
:10493000550526EC30E0309358052093570510922A
:104940005A0510925B0510925C0510925D0510925D
:104950000D0610920C0680930E0690930F06A093FE
:104960001006B09311068BE292E090930B068093B1
:104970000A0680E58093DE051092DF0584E190E071
:104980000E945E34EC018BE692E09983888380E399
:104990008F8385E3888780EE95E09A87898711E089
:1049A0001B87D0932506C093240683E490E00E94E1
:1049B0005E34FC011382128220EF30E034A323A383
:1049C00080E491E096A385A317A23583248397837F
:1049D00086832FEE30E0318720878FE391E0938745
:1049E00082871586148617861686318B208B938BCB
:1049F000828B158A148A178A168A8FEF9FEF918F00
:104A0000808F938F828F148F158F168E178E10A321
:104A100012A211A2D5A7C4A781E386A717A610AA40
:104A200011AA12AA13AA8FEF86AF8DE392E09183A9
:104A30008083DF01DF968BE892E011969C938E9342
:104A4000129688E490E08D939C93F0932306E09374
:104A5000220610922106109220068AE096E090939A
:104A60001F0680931E0680E090E0A0ECBFE78093D5
:104A7000160690931706A0931806B0931906809314
:104A80001A0690931B06A0931C06B0931D0682E3A2
:104A90008093F0051092F1051092F2051092F30543
:104AA0001092F4051092F5051092F6051092F70594
:104AB0001092F8051092F9051092FA051092FE0571
:104AC0001092FF051092000684E28093FB0586E2B7
:104AD0008093FC0588E28093FD058091EE0580615E
:104AE000877F8093EE05E8E6F8E0E491F0E0EE0FD2
:104AF000FF1FE65DF74F8591949190930206809396
:104B00000106E8E0F8E0E491E0930306EAE6F8E065
:104B1000E491F0E0EE0FFF1FE65DF74F8591949171
:104B20009093050680930406EAE0F8E0E491E093B0
:104B30000606ECE6F8E0E491F0E0EE0FFF1FE65D1C
:104B4000F74F859194919093080680930706ECE0C7
:104B5000F8E0E491E093090662E084E20E9497069F
:104B600062E08091FC050E9497068091EE0584FF2B
:104B700005C062E08091FD050E9497068091EF05D7
:104B800081608093EF05E0910106F091020690812B
:104B900080910306982381E009F480E0E091040607
:104BA000F0910506908120910606922309F092E08B
:104BB000892B8093F10563E873E087EE95E00E940E
:104BC000262468E873E081EE95E0DF91CF911F9194
:104BD0000C942624CF93DF9300D000D000D01F92F6
:104BE000CDB7DEB7789484B5826084BD84B581602A
:104BF00084BD85B5826085BD85B5816085BD8091A8
:104C00006E00816080936E0010928100809181001F
:104C10008260809381008091810081608093810017
:104C2000809180008160809380008091B1008460D9
:104C30008093B1008091B00081608093B00080913A
:104C400091008260809391008091910081608093B7
:104C50009100809190008160809390008091A100EC
:104C600082608093A1008091A10081608093A10067
:104C70008091A00081608093A000809121018260DA
:104C80008093210180912101816080932101809195
:104C9000200181608093200180917A00846080935C
:104CA0007A0080917A00826080937A0080917A0005
:104CB000816080937A0080917A00806880937A0086
:104CC0001092C100E0915105F091520582E080837D
:104CD000E0914D05F0914E051082E0914F05F09165
:104CE00050058FEC808310925905E0915505F091A5
:104CF000560586E08083E0915305F091540580814C
:104D000080618083E0915305F09154058081886033
:104D10008083E0915305F091540580818068808301
:104D2000E0915305F091540580818F7D80838091BF
:104D3000220690912306DC01ED91FC910084F1851F
:104D4000E02D4FEF5FEFBA01199580912206909107
:104D50002306DC01ED91FC91008CF18DE02D63E0E8
:104D600019950E94100980912006909121060097C4
:104D700011F00E94FA3486E090E00E945E348C01CB
:104D800080911E0690911F0624E4F80120839283EF
:104D90008183138280E290E09583848310932106BF
:104DA000009320060E94100981E0D80113968C938D
:104DB000C8010E94560A8823C9F082EA90E30E9443
:104DC00006196AE070E080E090E00E94ED068DE256
:104DD00093EF0E94061943E050E0BE016F5F7F4FE2
:104DE00080912006909121060E9464178091CD0445
:104DF0009091CE04009711F00E94FA3486E090E082
:104E00000E945E348C0188E6F80180838AE096E097
:104E100092838183138280E290E095838483109350
:104E2000CE040093CD040E94100981E0D8011396AE
:104E30008C93C8010E94560A61E087E20E9497069F
:104E400061E087E20E940B068091EE058860809306
:104E5000EE0590E080E00E94562262E973E08F3612
:104E600041F063E873E0813621F0863631F465E97C
:104E700073E087EE95E00E94F51F81E090E00E94CC
:104E8000562290ED980F9A3030F48053990B9093FE
:104E9000B5048093B40482E090E00E94562290ED25
:104EA000980F9A3030F48053990B909301028093BD
:104EB000000283E090E00E9456228093B30484E0D5
:104EC00090E00E9456228093B20485E090E00E9418
:104ED00056228093B10486E090E00E94562280938F
:104EE000B00480912206909123060E94120FE09157
:104EF0002206F0912306168E81E0848F858F80EE46
:104F000097E0938F828F918F808F0AE010E0158B4E
:104F1000048B84E190E0978B868B69E973E0CF0185
:104F20000E94701E68EE73E080E090E00E94ED0643
:104F30008091220690912306FC01158B048B28E2B8
:104F400030E0378B268B69EA73E00E94701ECE0139
:104F500001960E9431196C8180912206909123065E
:104F60000E94331E6DE573E0809122069091230626
:104F70000E94701E8D818A3040F461E673E080915A
:104F80002206909123060E94701E6D818091220658
:104F9000909123060E94331E68EE73E080E090E05B
:104FA0000E94ED0680912206909123062AE030E0CF
:104FB000DC0155963C932E9354972CE330E05796A2
:104FC0003C932E93569760EB73E00E94701E009105
:104FD00022061091230680E094E20E9406198111B6
:104FE00014C16EEB73E0C8010E94D81D68EE73E037
:104FF00080E090E00E94ED068091220690912306C9
:105000000AE010E0FC01158B048B20E530E0378BC3
:10501000268B6AEC73E00E94701E6091B40470915C
:10502000B50480912206909123060E943A1E68EEF4
:1050300073E080E090E00E94ED068091220690915E
:105040002306DC0155961C930E93549724E630E01A
:1050500057963C932E9356976EED73E00E94701E08
:1050600060910002709101028091220690912306C6
:105070000E943A1E68EE73E080E090E00E94ED0628
:105080008091220690912306FC01158B048B28E762
:1050900030E0378B268B64EF73E00E94701E8091A6
:1050A000220690912306DC0155961C930E9354978B
:1050B0002CE830E057963C932E93569766E074E0C8
:1050C0000E94701E6091B304809122069091230685
:1050D0000E94331E8091220690912306FC01158BBD
:1050E000048B20EA30E0378B268B69E074E00E9465
:1050F000701E6091B20480912206909123060E9456
:10510000331E8091220690912306DC0155961C9354
:105110000E93549724EB30E057963C932E9356977A
:105120006CE074E00E94701E6091B10480912206D0
:10513000909123060E94331E8091220690912306AF
:10514000FC01158B048B28EC30E0378B268B6FE04D
:1051500074E00E94701E6091B004809122069091CC
:1051600023060E94331E68E873E180E090E00E940D
:10517000ED0680912206909123060E94120F66246C
:105180006A94762C55245394E2E32E2E312C0E94FF
:105190002C078091E5059091E605892B09F4AFC5B0
:1051A0000091E1051091E20568E873E0C8010E94F2
:1051B0007236892B09F0C2C58091EE0582FD0E94EE
:1051C0002C078091ED0580FFC9C087FFC7C08F778E
:1051D0008093ED0580912206909123060E94120F84
:1051E00062E174E081EE95E00E94F51F1092C80420
:1051F0001092C7040E9420076093C3047093C404F4
:105200008093C5049093C6047AC50E9489188823A8
:1052100009F4E7CEC0901A06D0901B06E0901C0659
:10522000F0901D06A7019601C701B6010E94AD339B
:105230008111D7CE46015701E894B7F82FEF3FEF21
:105240004FE75FE7C501B4010E94AD3381110DC086
:105250002FEF3FEF4FE75FE7C501B4010E949F309A
:1052600018161CF462EC73E0BECE2FEF3FEF4FE751
:105270005FE4C701B6010E94A03318161CF466EC67
:1052800073E0B1CE2FEF3FEF4FE75FECC701B60100
:105290000E949F3087FDF3CF20E030E0A901C701D5
:1052A000B6010E949F3087FF08C06DE2C8010E94CE
:1052B000D004F7FAF094F7F8F0942AE037ED43EAD7
:1052C0005BE3C701B6010E94E6314B015C010E941D
:1052D000D0326B017C010E94A4309B01AC01C5015E
:1052E000B4010E94E5314B015C012AE0B701A6013F
:1052F000C8010E94E71D6EE2C8010E94D00420E0B0
:1053000030E040E251E4C501B4010E9405314B0197
:105310005C010E94D0326B01F12CE12C2AE0B70134
:10532000A601C8010E94E71DC701B6010E94A43072
:105330009B01AC01C501B4010E94E53120E030E0E1
:1053400040E251E40E9405310E94D032AB0170E08E
:1053500060E02AE0C8010E94E71D48CE8091C804A1
:10536000811112C2E0912206F0912306738E628EA3
:10537000718E608E168E42E0442E448E458E86E3FA
:1053800090E0958B848B81E090E0978B868B6BE12E
:1053900074E0CF010E94701E809122069091230636
:1053A000EAE0F0E0DC015596FC93EE93549729E196
:1053B00030E057963C932E9356976EE274E00E942D
:1053C000701E50E1852E54E8952EA12CB12C67E873
:1053D000C62E63E4D62EE12CF12C04E313E42CE476
:1053E00030E048E550E064E670E08091220690915C
:1053F00023060E94DA19812CE8EF9E2EA12CB12CF5
:10540000FAE4CF2EF3E4DF2E21E430E04BE450E069
:1054100064E670E080912206909123060E94DA19DA
:10542000A0EE8A2E99249A94A12CB12CB0E6CB2E12
:10543000B3E4DB2EE12CF12C0CE413E421E430E0A6
:105440004BE450E064E670E08091220690912306E0
:105450000E94DA1990EE892E97E0992EA12CB12C9A
:1054600026E7C22E23E4D22EE12CF12C02E613E42F
:1054700021E430E04BE450E064E670E080912206E5
:10548000909123060E94DA194FE1842E912CA12CD1
:10549000B12C57E8C52E53E4D52EE12CF12C08E7AA
:1054A00013E421E430E04BE450E064E670E08091E6
:1054B0002206909123060E94DA19E0912206F091CB
:1054C0002306738E628E718E608E168E548E558E6C
:1054D00082E190E0958B848B28E930E0378B268B36
:1054E00070E060E0CF010E943A1E80912206909108
:1054F000230624E230E0DC0155963C932E9354972A
:1055000021E630E057963C932E93569762E370E085
:105510000E943A1E809122069091230629E530E0F0
:10552000FC01358B248B29E430E0378B268B64E635
:1055300070E00E943A1EE0912206F091230680E579
:1055400090E0958B848B2DEA30E0378B268B168E7E
:10555000448E458E65E374E0CF010E94701E70E1B9
:10556000872E74E8972EA12CB12CE4EBCE2EE3E429
:10557000DE2EE12CF12C04E313E42AE530E046E6CC
:1055800050E06DEC70E080912206909123060E941D
:10559000DA19AFE18A2E912CA12CB12CB0E6CB2EDA
:1055A000B3E4DB2E2FE430E049E550E06DEC70E031
:1055B00080912206909123060E94DA1910EE812E26
:1055C00017E0912EA12C00E8B02E06E8C02E03E4CF
:1055D000D02EE12CF12C02E613E42FE430E049E573
:1055E00050E06DEC70E080912206909123060E94BD
:1055F000DA1990EE892E99249A94A12CB12C2DE9D8
:10560000C22E23E4D22EE12C10E8F12E07E813E499
:105610002FE430E049E550E06DEC70E08091220627
:10562000909123060E94DA19812C48EF942EA12C28
:10563000B12C54EBC52E53E4D52EE12CF12C0EE900
:1056400013E42FE430E049E550E06DEC70E0809128
:105650002206909123060E94DA19E0912206F09129
:105660002306738E628E718E608E168E548E558ECA
:105670008CE690E0958B848B88E990E0978B868B05
:1056800070E060E0CF010E943A1E80912206909166
:10569000230622E830E0DC0155963C932E93549784
:1056A00027E530E057963C932E9356976EE170E0D5
:1056B0000E943A1E809122069091230627EC30E04A
:1056C000FC01358B248B2BE330E0378B268B6CE38E
:1056D00070E00E943A1E80912206909123062DE0F0
:1056E00031E0DC0155963C932E935497E5E5F0E0CC
:1056F0005796FC93EE9356976AE570E00E943A1E27
:1057000080912206909123062FE131E0DC0155962D
:105710003C932E935497E8E9F0E05796FC93EE9370
:10572000569768E770E00E943A1EE0912206F091D9
:105730002306738E628E718E608E168E448E458E19
:105740008DED90E0958B848B2DEA30E0378B268BA6
:1057500068EFCF010E94D004809122069091230629
:1057600029EE30E0DC0155963C932E935497EDEAF8
:10577000F0E05796FC93EE93569768E374E00E942E
:10578000701EF1E0F093C804CE0101960E94311919
:10579000EC80F12C0D8110E0E0912206F0912306BF
:1057A000738E628E718E608E2FE030E0358B248B8D
:1057B000378A268A3AE0E316F1042CF461E673E0B6
:1057C000CF010E94701EB70180912206909123069E
:1057D0000E943A1E8091080290910902E816F9068B
:1057E00009F441C0E0912206F0912306138E128E37
:1057F000118E108EAFE0B0E0B58BA48B378A268A6D
:105800000A972CF461E673E0CF010E94701E60914C
:1058100008027091090280912206909123060E944D
:105820003A1EE0912206F0912306738E628E718EED
:10583000608E2FE030E0358B248B378A268A3AE061
:10584000E316F1042CF461E673E0CF010E94701EB0
:10585000B70180912206909123060E943A1EF09291
:105860000902E0920802E0912206F0912306738E6D
:10587000628E718E608E86E290E0958B848B378A83
:10588000268A6DE573E0CF010E94701EE09122062A
:10589000F0912306738E628E718E608E358A248A13
:1058A000378A268A0A3011052CF461E673E0CF01AD
:1058B0000E94701EB80180912206909123060E94DA
:1058C0003A1E809106029091070208171907E1F12C
:1058D000E0912206F0912306138E128E118E108E07
:1058E000358A248A378A268A0A972CF461E673E07F
:1058F000CF010E94701E6091060270910702809194
:105900002206909123060E943A1EE0912206F09111
:105910002306738E628E718E608E358A248A378A52
:10592000268A0A3011052CF461E673E0CF010E944B
:10593000701EB80180912206909123060E943A1EA3
:10594000109307020093060200EE1FEF2DE930E0EE
:1059500045E250E064E670E08091220690912306D3
:105960000E949A0480E094E20E9406198111CAC143
:1059700060E070E080EC9FE70E94C9324B01E0914B
:105980002206F0912306738E628E718E608EA8E2DD
:10599000B0E0B58BA48B0DEA10E0178B068BCF011E
:1059A0000E943A1E609104027091050286169706C5
:1059B00039F1E0912206F0912306138E128E118E9A
:1059C000108E28E230E0358B248B178B068BCF01AD
:1059D0000E943A1EE0912206F0912306738E628E99
:1059E000718E608E88E290E0958B848B178B068B8E
:1059F000B401CF010E943A1E9092050280920402E7
:105A000080E094E20E94061981118AC160E070E092
:105A100080EC9FE70E94C9324B01E0912206F09191
:105A20002306738E628E718E608E39EBE32EF12C1D
:105A3000F58AE48A0DEA10E0178B068BCF010E94ED
:105A40003A1E60910202709103028616970609F4CD
:105A5000BEC0E0912206F0912306138E128E118EA5
:105A6000108EF58AE48A178B068BCF010E943A1EAE
:105A7000E0912206F0912306738E628E718E608E05
:105A8000F58AE48A178B068BB401CF010E943A1E77
:105A90006091020270910302072E000C880B990B93
:105AA0000E94A63020E030E040EC5FE30E94053128
:105AB00020E030E047E853E40E94E63125E33AEF86
:105AC0004EE85CE30E9405316B017C010E94A53326
:105AD0006F83788789879A87C701B6010E945232FF
