:100000000C9447040C9478040C9478040C947804B1
:100010000C9478040C9478040C9478040C94780470
:100020000C9478040C9478040C9478040C94780460
:100030000C9478040C9478040C9478040C94780450
:100040000C9478040C9478040C9478040C94780440
:100050000C9478040C9478040C9478040C94B722D3
:100060000C9478040C9481220C9457220C947804FC
:100070000C9478040C9478040C9478040C94780410
:100080000C9478040C9478040C9478040C94780400
:100090000C9478040C9478040C9478040C94012348
:1000A0000C9478040C9478040C9478040C947804E0
:1000B0000C9478040C9478040C9478040C947804D0
:1000C0000C9478040C9478040C9478040C947804C0
:1000D0000C9478040C9478040C9478040C947804B0
:1000E0000C94780405A84CCDB2D44EB93836A90288
:1000F0000C50B9918688083CA6AAAA2ABE00000026
:10010000803F0C94C90D0C94360C0C9455060C943D
:100110005D060C94440D0C946F140C9434050C94EF
:10012000800C0C94E8200C94D6040C947E060C945D
:10013000F40B0C9421210C941E210C94010C0C94B2
:10014000D6200C94AF0B0C94040C0C9474160C94E5
:1001500070060C94AA0C0C9474060C9478060C94FB
:1001600012050C94750C0C946A0C0C9498040C9465
:100170003F060C948E150C94000B0C9499040C946F
:1001800086060C94F8160C948A0A0C949C210C9404
:1001900094160C9426050C942F0E0C94A40A0C941F
:1001A0008C060C94D10A0C947B0A0C94F10C0C94E0
:1001B0001D170C9474210C941C210C94AC160C94F7
:1001C000330E0C946C050C9411210C9460060C9465
:1001D0004D170C94590B0C94270E0C9440210C9441
:1001E00059060C9490060C9473160C9435170C94C5
:1001F00051060C943B210C94390D0C943A060C9446
:10020000F6200C9461240C94850B0C949D0A0C949C
:100210000E0E0C94550C0C94B9050C941A210C94E8
:100220005A210C946A060C941F0E0C942B0E0C94FD
:100230002D0E0C94D02E0C94640B0C9462200C9414
:1002400066060C94660D0C947A0A0C94A0160C9415
:10025000CE0B0C94B7160C94230E0C9453210C94D3
:10026000C50D0C9403050C94820600000000003EAE
:100270005B4F5B3E3E6B4F6B3E1C3E7C3E1C183C16
:100280007E3C181C577D571C1C5E7F5E1C00183C72
:100290001800FFE7C3E7FF0018241800FFE7DBE7BB
:1002A000FF30483A060E2629792926407F050507A2
:1002B000407F05253F5A3CE73C5A7F3E1C1C0808FE
:1002C0001C1C3E7F14227F22145F5F005F5F0609C3
:1002D0007F017F006689956A606060606094A2FF1C
:1002E000A29408047E040810207E201008082A1C0E
:1002F00008081C2A08081E101010100C1E0C1E0CDA
:1003000030383E3830060E3E0E0600000000000079
:10031000005F00000007000700147F147F14242AE8
:100320007F2A1223130864623649562050000807BA
:100330000300001C2241000041221C002A1C7F1CDB
:100340002A08083E080800807030000808080808DD
:10035000000060600020100804023E5149453E0044
:10036000427F400072494949462141494D331814A2
:10037000127F1027454545393C4A494931412111F1
:1003800009073649494936464949291E00001400E3
:100390000000403400000008142241141414141406
:1003A000004122140802015909063E415D594E7C64
:1003B0001211127C7F494949363E414141227F4119
:1003C00041413E7F494949417F090909013E414177
:1003D00051737F0808087F00417F41002040413F62
:1003E000017F081422417F404040407F021C027F71
:1003F0007F0408107F3E4141413E7F090909063EC6
:100400004151215E7F091929462649494932030194
:100410007F01033F4040403F1F2040201F3F4038A6
:10042000403F631408146303047804036159494D81
:1004300043007F4141410204081020004141417FB7
:10044000040201020440404040400003070800202D
:10045000545478407F28444438384444442838442D
:1004600044287F385454541800087E090218A4A464
:100470009C787F0804047800447D40002040403D83
:10048000007F1028440000417F40007C04780478FD
:100490007C080404783844444438FC182424181890
:1004A000242418FC7C0804040848545454240404EC
:1004B0003F44243C4040207C1C2040201C3C4030D9
:1004C000403C44281028444C9090907C4464544C08
:1004D0004400083641000000770000004136080063
:1004E00002010204023C2623263C1EA1A161123A0D
:1004F0004040207A38545455592155557941225459
:10050000547842215554784020545579400C1E525D
:100510007212395555555939545454593955545402
:10052000580000457C410002457D420001457C4069
:100530007D1211127DF0282528F07C5455450020AD
:1005400054547C547C0A097F4932494949323A441F
:1005500044443A324A4848303A4141217A3A42408A
:100560002078009DA0A07D3D4242423D3D4040405C
:100570003D3C24FF2424487E4943662B2FFC2F2B2F
:10058000FF0929F620C0887E0903205454794100D0
:1005900000447D413048484A32384040227A007A4F
:1005A0000A0A727D0D19317D2629292F282629292D
:1005B000292630484D40203808080808080808084F
:1005C000382F10C8ACBA2F102834FA00007B000076
:1005D00008142A142222142A14085500550055AA7A
:1005E00055AA55AAFF55FF55FF000000FF00101047
:1005F00010FF00141414FF001010FF00FF1010F083
:1006000010F0141414FC001414F700FF0000FF0095
:10061000FF1414F404FC141417101F10101F101FE3
:100620001414141F00101010F0000000001F101010
:1006300010101F10101010F010000000FF1010100C
:10064000101010101010FF10000000FF140000FF29
:1006500000FF00001F10170000FC04F41414171012
:10066000171414F404F40000FF00F7141414141405
:100670001414F700F7141414171410101F101F147B
:100680001414F4141010F010F000001F101F0000DC
:10069000001F14000000FC140000F010F01010FF08
:1006A00010FF141414FF141010101F00000000F0AD
:1006B00010FFFFFFFFFFF0F0F0F0F0FFFFFF000082
:1006C000000000FFFF0F0F0F0F0F3844443844FCA9
:1006D0004A4A4A347E02020606027E027E026355C0
:1006E0004941633844443C04407E201E2006027E7B
:1006F000020299A5E7A5991C2A492A1C4C7201728D
:100700004C304A4D4D303048784830BC625A463DF6
:100710003E494949007E0101017E2A2A2A2A2A44AB
:10072000445F444440514A444040444A51400000E0
:10073000FF0103E080FF000008086B6B08361236EB
:1007400024360006090906000018180000001010E1
:10075000003040FF0101001F01011E00191D17128A
:10076000003C3C3C3C000000000000002100240054
:1007700027002A002D003000330001010000040191
:1007800007010A0100002200250028002B002E008E
:100790003100340002010000050108010B010000D6
:1007A0000A0B02090C0D0E080703040100000000EB
:1007B0000000000000000000000000000000000039
:1007C00000000000000000000000121110000000F6
:1007D0000000000000000000000000000000000019
:1007E0000000000001021020200808102040102006
:1007F00040800201020108040201010204081020E5
:1008000040808040201008040201800402018040E2
:10081000201008040201080402010102040810204B
:1008200040800102040810204080000020002300C6
:10083000260029002C002F003200000100000301D7
:100840000601090105050505070508080808020253
:1008500002020A0A0808040404040101010101015A
:1008600001010303030303030303040707070C0C3D
:100870000C0C0C0C0C0C0202020206060606060604
:1008800006060B0B0B0B0B0B0B0B6124D02E11244C
:100890001FBECFEFD1E2DEBFCDBF00E00CBF26E030
:1008A000A6E5B4E001C01D92A832B207E1F714E05A
:1008B000A0E0B2E0E0E3FFE600E00BBF02C007907B
:1008C0000D92A635B107D9F714E0C6E4D4E000E0F4
:1008D00006C021970109802FFE010E947D32C53498
:1008E000D10780E00807A9F70E94E9250C94863714
:1008F0000C940000FC019081909528E030E081E3A9
:1009000097FF03C0990F982701C0990F2150310913
:10091000B9F78181892728E030E091E387FF03C0A0
:10092000880F892701C0880F21503109B9F7089530
:1009300008950895AF92BF92CF92DF92EF92FF9207
:100940000F931F93CF93DF93EC016B015A01E88162
:10095000F9810484F585E02D1995E881F9810488F1
:10096000F589E02D80EEE82EFF24FA940DE910E0E1
:1009700095014DE950E0B601CE011995E881F98164
:100980000688F789E02DCE01DF91CF911F910F915D
:10099000FF90EF90DF90CF90BF90AF901994DC0163
:1009A000ED91FC910190F081E02D1994AF92BF92EE
:1009B000CF92DF92EF92FF920F931F93CF93DF932B
:1009C0006C017B018B01040F151FEB015E01AE185A
:1009D000BF08C017D10759F06991D601ED91FC917C
:1009E0000190F081E02DC6011995892B79F7C50199
:1009F000DF91CF911F910F91FF90EF90DF90CF90FB
:100A0000BF90AF900895FC01538D448D252F30E0A9
:100A1000842F90E0821B930B541710F0CF9608950B
:100A200001970895FC01918D828D981761F0A28D38
:100A3000AE0FBF2FB11D5D968C91928D9F5F9F73FE
:100A4000928F90E008958FEF9FEF0895FC01918DB4
:100A5000828D981731F0828DE80FF11D858D90E021
:100A600008958FEF9FEF0895FC01918D228D892FBE
:100A700090E0805C9F4F821B91098F7399270895A6
:100A800089E395E00E94340521E0892B09F420E0F8
:100A9000822F0895FC01A48DA80FB92FB11DA35A70
:100AA000BF4F2C91848D90E001968F739927848F8E
:100AB000A689B7892C93A089B1898C9183708064B1
:100AC0008C93938D848D981306C00288F389E02D52
:100AD00080818F7D80830895EF92FF920F931F9303
:100AE000CF93DF93EC0181E0888F9B8D8C8D9813E1
:100AF0001AC0E889F989808185FF15C09FB7F894ED
:100B0000EE89FF896083E889F98980818370806438
:100B100080839FBF81E090E0DF91CF911F910F9183
:100B2000FF90EF900895F62E0B8D10E00F5F1F4F92
:100B30000F731127E02E8C8D8E110CC00FB607FCA1
:100B4000FACFE889F989808185FFF5CFCE010E942F
:100B50004A05F1CFEB8DEC0FFD2FF11DE35AFF4F4E
:100B6000F0829FB7F8940B8FEA89FB8980818062BD
:100B7000CFCFCF93DF93EC01888D8823B9F0AA897A
:100B8000BB89E889F9898C9185FD03C0808186FD48
:100B90000DC00FB607FCF7CF8C9185FFF2CF808197
:100BA00085FFEDCFCE010E944A05E9CFDF91CF91BD
:100BB000089580E090E0892B29F00E944005811182
:100BC0000E94000080E090E0892B49F080E090E0F6
:100BD000892B29F00E94000081110E94000080E012
:100BE00090E0892B49F080E090E0892B29F00E9469
:100BF000000081110E94000080E090E0892B49F004
:100C000080E090E0892B29F00E94000081110C9473
:100C100000000895282F30E0F901E256F84F949132
:100C2000F901EC51F84F44912C5B374FF9012491B5
:100C3000222309F435C0992311F191509231F8F42F
:100C4000E92FF0E08827E85DF94F8F4F0C947D3253
:100C500059065D063A06510655063F0660066606C9
:100C60006A067006740678067E0682063F068606C9
:100C70008C069006809180008F7780938000E22F11
:100C8000F0E0EE0FFF1FEC57F84FA591B4918FB72E
:100C9000F894EC91611148C040954E234C938FBF5E
:100CA0000895809180008F7DE8CF80918000877FBC
:100CB000E4CF84B58F7784BDE2CF84B58F7DFBCF41
:100CC0008091B0008F778093B000D9CF8091B00031
:100CD0008F7DF9CF809190008F7780939000CFCF58
:100CE000809190008F7DF9CF80919000877FF5CF24
:100CF0008091A0008F778093A000C1CF8091A00049
:100D00008F7DF9CF8091A000877FF5CF8091200162
:100D10008F7780932001B3CF809120018F7DF9CF11
:100D200080912001877FF5CF4E2BB8CFCF93DF93F3
:100D300090E0FC01EC51F84F24918C5B974FFC0143
:100D400084918823D1F090E0880F991FFC01E65927
:100D5000F84FA591B491FC01EC57F84FC591D4918F
:100D6000623071F49FB7F8943C91822F8095832371
:100D70008C93E8812E2B28839FBFDF91CF9108951C
:100D80008FB7F894EC912E2B2C938FBFF6CF3FB7F3
:100D9000F8948091A4049091A504A091A604B09128
:100DA000A70426B5A89B05C02F3F19F00196A11DE9
:100DB000B11D3FBFBA2FA92F982F8827BC01CD01A5
:100DC000620F711D811D911D42E0660F771F881F04
:100DD000991F4A95D1F708958F929F92AF92BF9233
:100DE000CF92DF92EF92FF926B017C010E94C706C7
:100DF0004B015C01C114D104E104F104B9F00E947B
:100E0000C706681979098A099B09683E73408105FC
:100E1000910580F321E0C21AD108E108F10888EEBB
:100E2000880E83E0981EA11CB11CE4CFFF90EF90C8
:100E3000DF90CF90BF90AF909F908F9008952FB785
:100E4000F8946091A0047091A1048091A204909103
:100E5000A3042FBF0895CF92DF92EF92FF920F93DA
:100E60001F93CF93DF930E941F07AB01BC01E0915A
:100E7000E605F090F705E4FBFF27F0F9E4FF79C001
:100E80000091EB051091EC052091ED053091EE05F8
:100E9000E7FB882780F9F11010C08091FF05909141
:100EA0000006DC019C9180910106982381E009F401
:100EB00080E09091E705917089278093F805DB0128
:100EC000CA01801B910BA20BB30B8C019D01B09149
:100ED000F8059091E50591FB882780F9BB2309F47B
:100EE00024C181111AC00135110521053105A8F071
:100EF0004093EB055093EC056093ED057093EE0580
:100F0000997E926190689093E5058091E7058062F3
:100F10008093E70500E010E098018091E70590914B
:100F2000E50584FF12C00D32A1E01A072105310545
:100F300060F092FD05C083FDAFC082608093E7053D
:100F40008091E7058F7E8093E70591FF12C00D3BEE
:100F500012402105310568F092FD0BC0BB2309F456
:100F60009DC091609093E5058091E7058F7D80930A
:100F7000E705FF2009F49FC0E6FB992790F9C92FE8
:100F8000A0E0DA2FCC0FDD1FE5FB882780F98C2B42
:100F90002091E905281709F472C01092EA05909192
:100FA000E70596FFB8C0833009F0A1C09F7B9093FE
:100FB000E705213009F497C091E0223009F494C08C
:100FC000E3FD03C0833009F49DC02091EA0522238C
:100FD00009F446C09091E50598609093E5052330AB
:100FE00040F49091E70597FF04C093E0921B909323
:100FF000EA059091F805911122C00091EF0510913A
:10100000F0052091F1053091F2056A017B01C01ACB
:10101000D10AE20AF30A0091E80510E030E020E08E
:10102000C016D106E206F30650F42091EA052130FD
:1010300009F074C02091E60522602093E6054093F4
:10104000EF055093F0056093F1057093F205FF23CF
:1010500039F0992329F09091EA059E5F9093EA0573
:101060008093E9058091E50584608093E5054093D0
:10107000EB055093EC056093ED057093EE05DF9161
:10108000CF911F910F91FF90EF90DF90CF90089537
:101090008091E70588603CCF846050CF9D7F9E7F24
:1010A0009093E5054093EB055093EC056093ED05B7
:1010B0007093EE055ECFA091F905B091FA059C9171
:1010C0008091FB05982321E009F420E0A091FC0524
:1010D000B091FD059C918091FE05982382E009F472
:1010E00080E0822B55CF92E09093EA0569CFE3FD33
:1010F0004DC081116ACF9F7B9093E705213041F06D
:10110000223031F09091E70590649093E7055DCF30
:101110002093EA05F7CF8823A9F352CF223009F0B4
:101120008ECF2091E605216088CF882309F4F5CE83
:10113000013511052105310508F4EFCE92FD05C0FA
:1011400090FD03C090629093E5050D3B1240210590
:10115000310528F08091E50580648093E505809154
:10116000E5054093EB055093EC056093ED05709316
:10117000EE058D7F8E7F8093E5058091E70585FFE5
:1011800087CF84FD85CF8061877FC2CE882309F415
:10119000B9CF66CF20917C04260F3327331F21322D
:1011A0003105ECF420910F05FC0190E080E0243043
:1011B00069F082E00895A0917C042191AC01445A29
:1011C0005B4FA40FB52FB11D2C930196861798F392
:1011D00080917C04680F60937C0480E0089581E036
:1011E000089510920F0581E080930E051092E90496
:1011F00061E084E10E940A0661E085E10E940A063E
:10120000E9EBF0E080818E7F808380818D7F808319
:1012100088E48093B80085E48093BC000895109220
:10122000C8041092C70410921605109238050E9447
:10123000F10888E994E09093C4048093C30489E999
:1012400094E09093C2048093C1040895CF93DF93F8
:1012500091E090935B048823B9F0C091B800D091DD
:10126000BA008091BC008A7B8093BC0060E084E17E
:101270000E940A0660E085E10E940A060E94F108C9
:10128000D093BA00C093B800DF91CF9108958F92A8
:101290009F92AF92BF92CF92DF92EF92FF920F9305
:1012A0001F93CF93DF93D0913805D13208F0D7C088
:1012B000182FC09137050E94C7066B017C018091F1
:1012C0000F0581116BC082E080930F0510930E050E
:1012D0008FEF80930D0510920C05D0930B05A7E1BD
:1012E000B5E0EBEEF4E080E0D81391C01092EA0490
:1012F0008091EA04CC0FC82BC093EA048091E904E2
:10130000813009F088C01092E9040E94C7066B0181
:101310007C018091EA048093BB008091110590913B
:101320001205A0911305B0911405892B8A2B8B2BE4
:10133000A1F00E94C706009111051091120520919D
:101340001305309114056C197D098E099F09061744
:1013500017072807390708F442C08091BC0083FDB5
:10136000D8CF85EC8093BC000E94C7066B017C013E
:1013700080910F05823009F450C080910D058F3F98
:1013800009F46FC080910D05803209F46CC0809122
:101390000D05803309F469C084E026C080911105F1
:1013A00090911205A0911305B0911405892B8A2BF9
:1013B0008B2B09F484CF0E94C70680901105909072
:1013C0001205A0901305B09014056C197D098E09C3
:1013D0009F0986169706A806B90608F070CF809177
:1013E00010050E94260985E0109216051092380516
:1013F00010921505DF91CF911F910F91FF90EF9003
:10140000DF90CF90BF90AF909F908F9008959D9167
:1014100091938F5F69CF85EEA5CF80911105909153
:101420001205A0911305B0911405892B8A2B8B2BE3
:1014300009F49ECF0E94C706009111051091120574
:1014400020911305309114056C197D098E099F09AF
:10145000061717072807390708F08ACFC0CF81E0A1
:10146000C3CF80E0C1CF82E0BFCF83E0BDCF1F9369
:10147000CF93DF93EA01122FDC0111968D919C919D
:10148000DC01ED91FC910280F381E02D1995C817E4
:10149000D90729F4812F0E94470991E0811190E03A
:1014A000892FDF91CF911F910895CF93DF93EC01A6
:1014B0008B818823A1F0888191E09093150580931A
:1014C0003705109216051092380581E00E944709F1
:1014D00091E0811190E0892FDF91CF9108950E94D2
:1014E0000F0981E08B83CE010E94550A982F81114C
:1014F000E2CFF1CF0895E091C8048091C704E817C6
:1015000030F4F0E0E753FB4F808190E008958FEFD7
:101510009FEF08959091C8048091C7042FEF3FEF8B
:10152000981748F4E92FF0E0E753FB4F208130E0B3
:101530009F5F9093C804C90108958091C70490915A
:10154000C804891B990B0895CF92DF92EF92FF9206
:101550000F931F93CF93DF937C01CB018A012091DE
:101560001505222389F0EB016B01C40ED51ECC15A5
:10157000DD0569F06991D701ED91FC910190F08151
:10158000E02DC7011995F3CF642F0E94CA08C80146
:10159000DF91CF911F910F91FF90EF90DF90CF904F
:1015A0000895CF93DF931F92CDB7DEB76983209163
:1015B00015052223F9F020913805203258F021E05A
:1015C00030E0FC013383228390E080E00F90DF91D4
:1015D000CF91089580911605E82FF0E0E95EFA4F6B
:1015E000998190838F5F809316058093380581E001
:1015F00090E0ECCF61E0CE0101960E94CA08F7CFDF
:10160000EF92FF920F931F93CF93DF93EC017A0138
:101610008EA99FA98617970729F48AAD9BAD8217DB
:101620009307B1F07FAB6EAB3BAF2AAF8CA59DA506
:101630004CA9460F572F511D21503109240F351F3A
:10164000DC01ED91FC91008CF18DE02D6AE21995A1
:1016500088AD99AD8E159F0529F48CAD9DAD801791
:101660009107B9F0F9AEE8AE1DAF0CAF8CA59DA502
:101670004DA94E0D5F2D511D015011099801240FE8
:10168000351FDC01ED91FC91008CF18DE02D6BE2BA
:1016900019958CA59DA5DC01ED91FC910680F78143
:1016A000E02D6CE2DF91CF911F910F91FF90EF90B1
:1016B0001994FC0180858F3F31F0A485B5859C91FC
:1016C0008089892B8C930895FC018385882331F0D0
:1016D0009091D6058091D7059CBD8DBDA685B78517
:1016E0008C919289892B8C9380858F3F31F0A485D2
:1016F000B5858C91918989238C9308958EBD0000C6
:101700000DB407FEFDCF8EB50895CF92DF92EF9214
:10171000FF921F93CF93DF9369017A01EB0181E080
:10172000C81AD108E108F1088FEFC816D806E806F4
:10173000F80669F0188189812296109357048093E6
:1017400058040E947E0B812F0E947E0BE8CFDF9110
:10175000CF911F91FF90EF90DF90CF900895CF929F
:10176000DF92EF92FF92CF93DF9369017A01EB0151
:1017700081E0C81AD108E108F1088FEFC816D80631
:10178000E806F80621F089910E947E0BF1CFDF91E7
:10179000CF91FF90EF90DF90CF900895CF92DF929E
:1017A000EF92FF92CF93DF93EB0169017A0160938F
:1017B0005704D093580481E0C81AD108E108F10811
:1017C0008FEFC816D806E806F80639F08D2F0E946C
:1017D0007E0B8C2F0E947E0BEECFDF91CF91FF907E
:1017E000EF90DF90CF900895CF93C62F872F60930F
:1017F0005704709358040E947E0B8C2FCF910C9449
:101800007E0B862F0C947E0BCF92DF92EF92FF928D
:101810000F931F93CF93DF93EC0169017A01EE855B
:10182000FF8580819B89892380838B0181E0C81A91
:10183000D108E108F108EFEFCE16DE06EE06FE064F
:1018400031F0F80181918F010E947E0BEFCFEE8580
:10185000FF8580819A89892B8083DF91CF911F91A9
:101860000F91FF90EF90DF90CF9008951F93CF934B
:10187000DF93EC01162F872FEE85FF8590812B8952
:101880009223908360935704709358040E947E0BB8
:10189000812F0E947E0BEE85FF8580819A89892B9E
:1018A0008083DF91CF911F910895CF93DF93EC0157
:1018B000862FEE85FF8590812B89922390830E944D
:1018C0007E0BEE85FF8580819A89892B8083DF914D
:1018D000CF910895DC019C968D919C91DC01ED9156
:1018E000FC910684F785E02D1994DC019C968D917E
:1018F0009C91DC01ED91FC910480F581E02D19941F
:10190000AF92BF92CF92DF92EF92FF920F931F930D
:10191000CF93DF93EC015901E881F98102A0F3A193
:10192000E02D19959501D8010E9485329B01AC01EB
:10193000E881F98104A0F5A1E02DB701CE01DF9186
:10194000CF911F910F91FF90EF90DF90CF90BF90BC
:10195000AF901994EF92FF920F931F93CF93DF9361
:1019600057FD38C0DC011A96ED91FC91E417F5079C
:101970008CF12115310571F137FF07C0F90131965E
:101980006E0F7F1F319521953109DC011896ED917D
:10199000FC91E617F707F4F0EB01C20FD31FDE014D
:1019A0001197B7FD17C077FF03C09E0170E060E09C
:1019B000EA17FB072CF49F01261B370B2F5F3F4FC5
:1019C000DC01ED91FC910684F785E02D780101E0C2
:1019D00010E01995DF91CF911F910F91FF90EF903B
:1019E0000895EF92FF920F931F93CF93DF9377FDAC
:1019F00039C0DC011896ED91FC91E617F70794F1D8
:101A00002115310579F137FF07C0F90131964E0FE5
:101A10005F1F319521953109DC011A96ED91FC91FA
:101A2000E417F507FCF0EA01C20FD31FDE0111979E
:101A3000B7FD18C057FF03C09E0150E040E0EA1711
:101A4000FB072CF49F01241B350B2F5F3F4FDC015C
:101A5000ED91FC910684F785E02D7801890121E064
:101A600030E01995DF91CF911F910F91FF90EF908A
:101A70000895DC019C968D919C91DC01ED91FC9187
:101A8000028CF38DE02D1994EF92FF920F931F9328
:101A9000CF93DF93EC017901E881F98102A0F3A1F2
:101AA000E02D01E010E021E030E019958CA59DA526
:101AB000DC01ED91FC910684F785E02DB701DF9103
:101AC000CF911F910F91FF90EF901994DC019C969C
:101AD0008D919C91DC01ED91FC910280F381E02DD0
:101AE0001994EF92FF920F931F93CF93DF93EC0122
:101AF0004D3F8FEF580768077807A9F5E881F9810E
:101B000000A4F1A5E02DCE011995E881F981008CA2
:101B1000F18DE02D6F8DCE0119950E811F81EC8026
:101B2000FD80E881F9810484F585E02DCE011995C9
:101B3000E881F98102A0F3A1E02D970150E040E097
:101B400070E060E0CE011995E881F9810688F78997
:101B5000E02DCE01199581E0DF91CF911F910F917A
:101B6000FF90EF9008952EAD8CA59DA5DC01ED9121
:101B7000FC910190F081E02D2F3F29F01995811102
:101B8000BDCF80E0E9CF2FEFF9CFFC0116AE0C946A
:101B9000710D0895FC016770678F85A196A123A13F
:101BA00034A1633019F0D0F46130E1F4958384837B
:101BB000378326832481358121503109318720875D
:101BC0008681978101979387828715861486178669
:101BD0001686318B208B938B828B0895653031F381
:101BE000673021F33583248397838683E3CFCF93B4
:101BF000DF93EC010E94CA0DEF8DE150E73088F5CC
:101C0000F0E08827E95FF14F8F4F0C947D320E0E84
:101C10001F0E230E270E2B0E2D0E2F0E89A98CAB17
:101C20008AA98DAB8FEF9FEF9FAB8EAB99AF88AF3B
:101C30009BAF8AAF9DAF8CAFDF91CF9108958AA9FA
:101C40008CAB8BA9EECF8BA98CAB88A9EACF8AA9E4
:101C50008CAB89A9E6CF8BA9E2CF88A9F1CF89A95E
:101C6000F3CF88A9F5CF1F93CF93DF93EC010E94A8
:101C7000F70DEF8DE15018E4E33020F4F0E0E65F7B
:101C8000FD4F10818CA59DA5DC01ED91FC9102809A
:101C9000F381E02D19958CA59DA5DC01ED91FC91BA
:101CA0000088F189E02D412F66E319958CA59DA54B
:101CB000DC01ED91FC910480F581E02DDF91CF9165
:101CC0001F91199408956F927F928F929F92AF9275
:101CD000BF92CF92DF92EF92FF920F931F93CF9319
:101CE000DF936C015B014901EA013A01600E711E4C
:101CF000C615D70574F4D601ED91FC910288F389DD
:101D0000E02D87019401AE01B501C6011995219618
:101D1000EFCFDF91CF911F910F91FF90EF90DF9068
:101D2000CF90BF90AF909F908F907F906F900895CD
:101D30006F927F928F929F92AF92BF92CF92DF92DB
:101D4000EF92FF920F931F93CF93DF9357012115CB
:101D5000310509F457C00115110509F453C037FFC7
:101D600007C0F90131966E0F7F1F3195219531091A
:101D7000EC01A885B985A617B7070CF443C017FF77
:101D800007C0F80131964E0F5F1F1195019511099B
:101D9000EC01EA85FB85E417F507A4F16B01C20E9F
:101DA000D31E3601D1E06D1A710877FC2BC07A0181
:101DB000E00EF11E4701C1E08C1A910897FC22C089
:101DC00077FF03C0960170E060E057FF03C0870112
:101DD00050E040E0A615B7052CF49D01261B370BFB
:101DE0002F5F3F4FE815F9052CF48F01041B150BED
:101DF0000F5F1F4FDC01ED91FC910684F785E02D0C
:101E000075011995DF91CF911F910F91FF90EF9080
:101E1000DF90CF90BF90AF909F908F907F906F900A
:101E20000895CF92DF92EF92FF920F931F93CF937B
:101E3000DF93EC010E811F81CC80DD80E881F98188
:101E40000484F585E02D1995F12CE12C960150E0E4
:101E500040E070E060E0CE010E94980EE881F981D8
:101E60000688F789E02DCE01DF91CF911F910F9168
:101E7000FF90EF90DF90CF9019942F923F924F9266
:101E80005F926F927F928F929F92AF92BF92CF920A
:101E9000DF92EF92FF920F931F93CF93DF93CDB713
:101EA000DEB72E970FB6F894DEBF0FBECDBF9E876C
:101EB0008D877A876987DC01ED91FC910484F58533
:101EC000E02D199569857A8560517109AD85BE85CA
:101ED000ED91FC9111970288F389E02D05E51DEA4B
:101EE00021E230E043EB50E0CD01199520E033EEE4
:101EF0004FEF5FEF29833A834B835C831D821E8201
:101F00001F821886812C912C540180E1482E512C7F
:101F1000612C712C89819A81AB81BC81B7FF22C071
:101F20009FEF891A990AA90AB90AD501C40112E0DA
:101F3000880F991FAA1FBB1F1A95D1F70296A11DE2
:101F4000B11DBA2FA92F982F882729813A814B815B
:101F50005C81280F391F4A1F5B1F29833A834B83FB
:101F60005C83D8CF1201220C331C3FEF231A330AB3
:101F700049855A85441955095C874B8751E0451AB4
:101F800051086108710864018D819E81C81AD90ABF
:101F9000E5E5EE2EEDEAFE2E8601910143EB50E0E1
:101FA000481959096B857C858D859E850E94980E00
:101FB0004D815E814C545F4F91016B857C858D8591
:101FC0009E850E94980ED301C201FAE0880F991FE6
:101FD000AA1FBB1FFA95D1F729813A814B815C81F9
:101FE000281B390B4A0B5B0B29833A834B835C8399
:101FF000481459046A047B042CF08D829E82AF82BF
:10200000B88688CFC12C53EED52EEE24EA94FE2C50
:1020100060E1462E512C612C712C812C912C5401A5
:10202000F7FE1AC03FEF831A930AA30AB30AD50139
:10203000C40132E0880F991FAA1FBB1F3A95D1F740
:102040000296A11DB11DBA2FA92F982F8827C80E5F
:10205000D91EEA1EFB1EE4CF5E824D8241E0441A87
:102060005108610871081401220C331C5FEF251A16
:10207000350A43EB50E08D819E81481B590BAD859D
:10208000BE85ED91FC9111970288F389E02D05E55D
:102090001DEA910189859A85881999099A8389830E
:1020A000BC01CD0119954D815E814D545F4FAD85C9
:1020B000BE85ED91FC9111970288F389E02D910185
:1020C00069817A81CD011995D301C2012AE0880F77
:1020D000991FAA1FBB1F2A95D1F7C81AD90AEA0A65
:1020E000FB0A481459046A047B040CF099CFAD85AF
:1020F000BE85ED91FC9111970688F789E02DCD0101
:102100002E960FB6F894DEBF0FBECDBFDF91CF91F4
:102110001F910F91FF90EF90DF90CF90BF90AF9005
:102120009F908F907F906F905F904F903F902F90F7
:102130001994CF93DF93DC0157FD38C01A968D9127
:102140009C911B97841795078CF197968C91979784
:10215000882319F1CA01880F991F9896CD91DC91B7
:102160009997C80FD91FE881F9816E177F07F4F09E
:102170009A96ED91FC919B97E80FF91F80819181D0
:10218000861797079CF0ED91FC9111970284F385D7
:10219000E02DCD01DF91CF91199477FD07C01896FE
:1021A0008D919C911997861797076CF7DF91CF91C6
:1021B00008952F923F924F925F926F927F928F92EB
:1021C0009F92AF92BF92CF92DF92EF92FF920F93C6
:1021D0001F93CF93DF93CDB7DEB72C970FB6F8944C
:1021E000DEBF0FBECDBF9C878B877A8369831A01C0
:1021F000D22E1C830B833701DC0191960D911C912B
:1022000092975C964C915C975D963C915D97432EBE
:10221000512C50968D919C910115110509F46EC1B8
:10222000F801349624913297A590B490D21AB7E071
:10223000DB9EA00CB11C1124F801659174917A8782
:102240006987F501C590D490F501329674917D832C
:102250003196A491AE8331962491085F1F4FF80107
:102260000491F50135965491588766E0A60EB11C8D
:10227000F501A49069817A81861797070CF416C33B
:10228000802F90E0880F991F63E070E00E94473232
:10229000649DC001659D900D749D900D11242101D8
:1022A000481A590AAB85BC8552968D919C9184152C
:1022B00095050CF4FBC28D80821608F4822E849E54
:1022C0004001112449815A81480D591DEB85FC8537
:1022D00084859585841795070CF0E8C2039F8001DB
:1022E00011249101200F311F86859785821793074E
:1022F0000CF0DCC20190F081E02D0484F585E02D26
:102300008B859C8519952B813C816216730671F132
:10231000AB85BC8550962D913C9189819A81880D21
:10232000991D0197281739078CF0EB85FC852289C8
:102330003389C801840D951D0197281739076CF45E
:10234000EB85FC85858D081B1109F3CFAB85BC851A
:102350005C968C91881A9108E0CF73019401A201D8
:1023600069817A818B859C850E94980EF8858F2ED5
:10237000FF0F9908EA2C0A2C000CFF08AB85BC85DE
:102380005D962C915D975C968C91813009F045C0EB
:10239000213009F042C0E20CF31C870180E0512C8F
:1023A000902F9E19BE819B1708F054C1EB85FC85C8
:1023B00022893389201731076CF1A980BA80A80CD3
:1023C000B91C3D80380E831529F144244394480EEE
:1023D000877041F4C6010196E985FA85EC0DFD1D73
:1023E00054906C01AB85BC8550968D919C91519712
:1023F0008A159B054CF057FE07C02B813C81A80134
:10240000B501CD010E949910BFEFAB1ABB0A550C64
:10241000842DD9CF0F5F1F4FC3CF3A2D3203500108
:102420001124A20CB31C80E0512C412C4E81441687
:1024300009F410C1AB85BC855D962C915D972A0D82
:102440003B2D311D2150310952964D915C9153978E
:10245000421753070CF44AC05C962C91388532031E
:102460004001112449815A81840E951E2D80280E29
:10247000821509F43BC033243394380E877041F43D
:10248000C6010196E985FA85EC0DFD1D54906C019D
:10249000AB85BC855C962C915C9730E0C901880DBA
:1024A000991D019750964D915C9151974817590786
:1024B000ACF057FE13C05E968C915E9790E05D96EF
:1024C0000C915D9710E0081B190B281B390BEB8052
:1024D000FC80A501B401CD010E94980EEB85FC851E
:1024E000848D880E911C550C832DC2CF4394AB85EF
:1024F000BC855D969C91A90EB11C98CFE981FA81AB
:102500008E179F070CF4D2C1AB85BC8552968D9176
:102510009C91821593050CF4C9C19F01B6E04B9FB5
:10252000200D311D1124EB85FC858485958582174E
:1025300093070CF0BBC153E0440C551C5A95E1F7CE
:10254000420C531C86859785841595050CF0AEC109
:102550000190F081E02D0484F585E02D8B859C852C
:102560001995AB85BC855C962C91B5E0DB9EC001CE
:102570001124213009F09EC0EB85FC85258D21308A
:1025800009F098C0F12CE12C9C0126593D4F4901DE
:10259000510138E0A30EB11CC980DA80CE0CDF1CDB
:1025A000F401EE0DFF1D5490AB85BC8550968D91C6
:1025B0009C918C159D05ECF08101EB85FC85828951
:1025C0009389801791077CF00190F081E02D50FEF7
:1025D00063C00284F385E02D2B813C81A801B60104
:1025E0008B859C8519950F5F1F4F56940A151B0507
:1025F00021F73FEFE31AF30A45E0E416F10461F630
:102600006B817C816616770629F169817A816B5F1F
:102610007F4FAB85BC8550968D919C9151978617C5
:102620009707C4F052962D913C91C10106968217EE
:102630009307ECF1221933092F5F3F4FAB85BC851F
:10264000ED91FC9111970088F189E02D8301A101A2
:10265000CD011995AB85BC85ED91FC91119706884C
:10266000F789E02DCD012C960FB6F894DEBF0FBE92
:10267000CDBFDF91CF911F910F91FF90EF90DF9031
:10268000CF90BF90AF909F908F907F906F905F9012
:102690004F903F902F9019942B813C8162167306C6
:1026A00009F4A1CF0284F385E02D930197CF28E0B0
:1026B00030E0C4CFC980DA80512C412CFC01E659AE
:1026C000FD4FFF83EE83AB85BC855C968C915C9758
:1026D0008C0D9D2D911D019750962D913C912817A1
:1026E00039070CF487C0EE81FF81E40DF51DB4912C
:1026F000BD835101912C812CEB85FC85858D90E06B
:102700009C012A0D3B1D21503109428953894217F2
:1027100053070CF45EC0248D30E0FD81F0FFB7C09C
:10272000AB85BC855E964C915E97442309F4AAC0A4
:1027300050E08C01041B150B241B350B889DA00158
:10274000899D500D989D500D1124420D531DEB8114
:10275000FC816E167F0609F490C07F01B601CD01A1
:102760000E94980EAB85BC855D960C915D9710E03C
:102770005E962C915E9730E0089DA001099D500D5A
:10278000189D500D1124420D531D5C966C915C9761
:102790006C0D7D2D711D621B730B7301CD010E94A9
:1027A000980EEB85FC85068D10E0248D30E0201B13
:1027B000310B658DC4010196689FA001699F500D82
:1027C0001124420D531D401B510BB601CF010E9435
:1027D000980E5D8156955D83AB85BC855D968C9129
:1027E000A80EB11CBFEF8B1A9B0AE8E08E1691046D
:1027F00009F082CFAB85BC855C968C91282F30E0A8
:10280000C20ED31EBFEF4B1A5B0AE5E04E16510411
:1028100009F059CF4B815C816416750609F41ACF13
:1028200069817A8155E0859F600D711D1124C90170
:10283000860F971F0197AB85BC8550964D915C9193
:102840005197481759070CF405CF5D968C915D9709
:1028500090E08C0143E0000F111F4A95E1F752967A
:102860004D915C91F1013197DF01A00FB11F4A1723
:102870005B07ACF4081B190BF7CF7301B6018B850E
:102880009C85A5CFEB80FC808C01A501F7CF4B8107
:102890005C816416750609F49CCF7301F5CF730152
:1028A000A1018B859C850E94980ED4CE2C960FB6E4
:1028B000F894DEBF0FBECDBFDF91CF911F910F9176
:1028C000FF90EF90DF90CF90BF90AF909F908F9050
:1028D0007F906F905F904F903F902F900895DF9280
:1028E000EF92FF920F931F93CF93DF93EC01262F6C
:1028F00089A19AA1009709F47DC06A30D1F42C8592
:102900003D853D8B2C8BFC013896E4912D8D8E8975
:102910009F89E29F800D911D11249F8B8E8B81E0FA
:1029200090E0DF91CF911F910F91FF90EF90DF909A
:1029300008956D30A1F3FC01349645915491FC014A
:102940003696A591B49170E06417750740F3A61709
:10295000B70728F3FC013296A591B491362F341BAA
:1029600047E0349FA00DB11D1124FD013296449122
:102970003296D49038A1332341F115963C9150E022
:10298000430F511D37FD5A953C8D349FB001359F43
:10299000700D11244C895D89460F571F4150510914
:1029A000688979896417750784F44E895F896C8515
:1029B0007D857D8B6C8B0896FC0184919D8D899F14
:1029C000400D511D11245F8B4E8BEA8CFB8C088DC2
:1029D000198D4E895F896C897D89CE010E94D9103D
:1029E0002C8D8C899D89D29E800D911D11249D8BEB
:1029F0008C8B95CF6A3071F48C859D859D8B8C8BEB
:102A00008D8DF8E08F9F900111248E899F89820F10
:102A1000931F83CF6D3009F482CF88A18823E9F01A
:102A20003C8D8C899D8946E0349F800D911D112439
:102A3000019748895989481759077CF44E895F895D
:102A40008C859D859D8B8C8B8D8DE8E08E9FC00144
:102A50001124840F951F9F8B8E8BEA8CFB8C088D25
:102A6000198D4E895F896C897D89CE010E94D910AC
:102A70002C8D8C899D89F6E02F9F800D911D11244E
:102A8000B6CFAF92BF92CF92DF92EF92FF920F93A9
:102A90001F93CF93DF936C015A01EB017B01E20E90
:102AA000F31ECE15DF0544F49801A501BE01C60151
:102AB0000E9499102196F5CFDF91CF911F910F9130
:102AC000FF90EF90DF90CF90BF90AF900895AF92BE
:102AD000BF92CF92DF92EF92FF920F931F93CF930B
:102AE000DF936C015B01EA017A01E20EF31ECE1561
:102AF000DF0544F49801AE01B501C6010E949910AA
:102B00002196F5CFDF91CF911F910F91FF90EF901C
:102B1000DF90CF90BF90AF90089508952F923F928D
:102B20004F925F926F927F928F929F92AF92BF92DD
:102B3000CF92DF92EF92FF920F931F93CF93DF9389
:102B400000D000D0CDB7DEB74C016B015E834D8362
:102B5000590162177307A9F50417150734F49D810D
:102B60008E811E830D83092F182F2D813E81021B1C
:102B7000130B98012F5F3F4FD401ED91FC9100881A
:102B8000F189E02D87014D815E81B601C40119955F
:102B900026960FB6F894DEBF0FBECDBFDF91CF9162
:102BA0001F910F91FF90EF90DF90CF90BF90AF906B
:102BB0009F908F907F906F905F904F903F902F905D
:102BC00008952D813E812017310799F4A616B70686
:102BD00024F48D2D6501A62EB82E95012C193D09E2
:102BE0002F5F3F4FD401ED91FC910288F389E02DD6
:102BF000C9CF2D813E811801221A330A20173107CF
:102C000024F02D803E80201A310A25014C185D08E1
:102C1000CA14DB041CF026014A185B084214530452
:102C20005CF49A2D8B2D5801092F182F9C2D8D2D7A
:102C3000CD80DE809D838E83AC14BD045CF49D81C9
:102C40008E811E830D83092F182F9C2D8D2D6501DC
:102C5000A92EB82EC5018C199D099A838983AD814F
:102C6000BE81A017B107ACF598012A1B3B0B3C8332
:102C70002B8369807A8075946794AD81BE81A0179B
:102C8000B10774F10FEF1FEFAC14BD040CF480CF4B
:102C90009701A6016D817E81421453041CF04D8181
:102CA0005E81B601C4010E9499102B813C81621A99
:102CB000730A77FE0AC089819A81680E791EAD81F8
:102CC000BE81A00FB11FBE83AD83BFEFCB1ADB0A5D
:102CD000DBCF8D819E81801B910B9C838B83C9CF21
:102CE00001E010E0D1CF089590E080E008951F93B7
:102CF000CF93DF93EC01162FE881F9810280F381F5
:102D0000E02D1995E881F9810680F781E02D612F8A
:102D1000CE011995E881F9810480F581E02DCE017D
:102D2000DF91CF911F91199460E1FC0184A595A5D5
:102D30000E94771666E970E080E090E00C94EC0663
:102D400061E1FC0184A595A50E94771666E970E013
:102D500080E090E00C94EC06FC0184A595A527A5E5
:102D6000261303C060E20C94771661E2FCCFEF9269
:102D7000FF920F931F93CF93DF93EC018A017901A8
:102D8000E881F9810680F781E02D199500935904B7
:102D900010935A04E881F9810484F585E02D612FB0
:102DA000CE01199509E514E0E881F9810484F585DF
:102DB000E02DD8016C91CE011995E0925904F09262
:102DC0005A04E881F9810484F585E02D6F2DCE0148
:102DD0001995E881F9810484F585E02DD8016C917D
:102DE000CE01DF91CF911F910F91FF90EF90199439
:102DF000EF92FF920F931F93CF93DF93EC017A0131
:102E00008901E881F9810680F781E02D1995E88133
:102E1000F9810684F785E02DB701CE011995E88187
:102E2000F9810684F785E02DB801CE01DF91CF91BD
:102E30001F910F91FF90EF9019940F931F93CF93D1
:102E4000DF93EC018A01E881F9810084F185E02DAE
:102E50001995E881F9810684F785E02DB801CE0146
:102E6000DF91CF911F910F9119940F931F93CF93DF
:102E7000DF93EC018A01E881F9810680F781E02D7A
:102E80001995E881F9810684F785E02DB801CE0116
:102E9000DF91CF911F910F9119941F93CF93DF93DF
:102EA000EC01142FE881F9810680F781E02D199556
:102EB000E881F9810484F585E02D612FCE01DF9151
:102EC000CF911F9119942F923F924F925F926F92E0
:102ED0007F928F929F92AF92BF92CF92DF92EF92AA
:102EE000FF920F931F93CF93DF935C011B016A0145
:102EF000F12CE12CD50114968D919C9186010E192F
:102F00001F098017910708F48C01F501D0810E94F8
:102F1000C7062B013C0180910F05811172C0C02FA3
:102F2000013208F0C0E2F1E0F0930F0521E0C601A4
:102F3000801B910BE816F90608F420E020930E059B
:102F40008FEF80930D0510920C058C0F80930B056D
:102F5000A1E0A093EA048091EA04DD0FD82BD0937E
:102F6000EA048091E904813009F090C01092E904EC
:102F70000E94C7062B013C018091EA048093BB00AC
:102F80008091110590911205A0911305B09114053F
:102F9000892B8A2B8B2BA1F00E94C706209111054B
:102FA000309112054091130550911405641975096B
:102FB00086099709261737074807590708F442C0BA
:102FC0008091BC0083FDD8CFB5ECB093BC000E94CB
:102FD000C7062B013C0180910F05813009F45AC0CE
:102FE00080910C058C1710F4C0910C05ABEEB4E089
:102FF000E9ECF4E080E08C1751F19D9191938F5FA3
:10300000FACF8091110590911205A0911305B0910E
:103010001405892B8A2B8B2B09F47DCF0E94C706C0
:10302000209111053091120540911305509114051E
:10303000641975098609970926173707480759073C
:1030400008F069CF809110050E942609C0E0109217
:10305000C804C093C704C017110609F057C0410146
:103060008E0C9F1CE401CE018819990980179107E5
:1030700098F5D50111968D919C91DC01ED91FC9113
:103080000284F385E02D19958993EDCFE5EEE09369
:10309000BC009DCF8091110590911205A091130560
:1030A000B0911405892B8A2B8B2B09F494CF0E94A5
:1030B000C7062091110530911205409113055091DA
:1030C00014056419750986099709261737074807F3
:1030D000590708F080CFB6CFE00EF11EEC14FD04C6
:1030E00008F408CF81E0DF91CF911F910F91FF90FD
:1030F000EF90DF90CF90BF90AF909F908F907F9098
:103100006F905F904F903F902F90089580E0EBCFAD
:103110000F931F93CF93DF9300D000D0CDB7DEB7CE
:1031200064E170E080E090E00E94EC0646E050E050
:10313000BE016F5F7F4F80911806909119060E9423
:103140006317182F882309F452C00B81CE01019612
:103150000E947A04081357C00E81CE0104960E9483
:103160007A04081350C029813A8132272327322755
:10317000A7E1B1E10E9420302EE0959587957795E3
:1031800067952A95D1F764597141810991090E9487
:10319000F02E20E030E048EC52E40E94A130609331
:1031A00012067093130680931406909315062C81D3
:1031B0003D81322723273227A1E7B2E00E94203049
:1031C0003CE096958795779567953A95D1F70E945B
:1031D000EE2E20E030E048EC52E40E94A1306093F3
:1031E0000E0670930F068093100690931106812FA0
:1031F00026960FB6F894DEBF0FBECDBFDF91CF91FC
:103200001F910F91089510E0F2CFCF93DF931F929B
:103210001F92CDB7DEB799838A838091180690916B
:103220001906FC012481358122303105B8F0208156
:1032300031E0309315052093370510921605109252
:10324000380521E042E050E0BE016F5F7F4F0E94F1
:10325000370A0F900F90DF91CF91089580E0F9CF5A
:10326000EF92FF920F931F93CF93DF9300D000D084
:103270001F92CDB7DEB78C011982E090C504F090A3
:10328000C604D70114968D919C911597892BE9F06E
:103290008C9191E090931505809337051092160557
:1032A0001092380520E041E050E0BE016F5F7F4F93
:1032B000C7010E94370A882341F047E050E0BE0171
:1032C0006F5F7F4FC7010E946317E981EF77FA8133
:1032D000FB805D814E814F778F81282F30E094E015
:1032E000359527959A95E1F7922F990F990F291BFC
:1032F000220F280FD8012C93842F90E024E095957D
:1033000087952A95E1F7982F990F990F891B880FB8
:10331000840F11968C931197652F70E034E07595AA
:1033200067953A95E1F7862F880F880F681B660F1F
:10333000650F12966C9312974F2D50E064E05595EF
:1033400047956A95E1F7842F880F880F481B440F33
:103350004F0D13964C9313972F2F30E074E0359553
:1033600027957A95E1F7822F880F880F281B220F67
:103370002F0F14962C9314978E2F90E0F4E09595D0
:103380008795FA95E1F7982F990F990F891B880F68
:103390008E0F15968C93C80127960FB6F894DEBF52
:1033A0000FBECDBFDF91CF911F910F91FF90EF9096
:1033B00008952F923F924F925F926F927F928F92D9
:1033C0009F92AF92BF92CF92DF92EF92FF920F93B4
:1033D0001F93CF93DF93CDB7DEB7C254D1090FB699
:1033E000F894DEBF0FBECDBF9E878D877EAF6DAFD9
:1033F0005A83498319012701380121969FAE8EAE69
:1034000021974217530724F0832D1A0129838A83B9
:10341000A6019501C301B2010E942F309B01AC01AE
:103420005F772D833E834F83588720E030E044EB65
:1034300053E4C301B2010E9454312B013C0120E04E
:1034400030E044EB53E4C601B5010E9454316B01F6
:103450007C0120E030E0A901C301B2010E94E92E05
:1034600087FF0AC020E030E044EB53E4C301B2011F
:103470000E9430302B013C0120E030E0A901C7015F
:10348000B6010E94E92E87FF0AC020E030E044EB3D
:1034900053E4C701B6010E9430306B017C0120E08B
:1034A00030E040E054E36D817E818F8198850E94F9
:1034B000E92E87FD18C0A7019601C301B2010E9441
:1034C0002F309F7727E137EB41ED58E30E94E92E3B
:1034D00018164CF0C12CD12C84EBE82E83E4F82E86
:1034E000412C512C3201AD85BE85ED91FC91119797
:1034F0000484F585E02DCD01199520E030E044EB02
:1035000052E4C301B2010E94E92E8823F1F020E0C9
:1035100030E044E353E4C301B2010E94E92E882362
:10352000A1F020E030E047E853E4C301B2010E947B
:10353000E92E882351F020E030E044EB53E4C3014E
:10354000B2010E94E92E81110AC02DEC3CEC4CEC3A
:103550005DE3C301B2010E942F302B013C0120E04A
:1035600030E044EB52E4C701B6010E94E92E882303
:10357000F1F020E030E044E353E4C701B6010E94DB
:10358000E92E8823A1F020E030E047E853E4C701AA
:10359000B6010E94E92E882351F020E030E044EB90
:1035A00053E4C701B6010E94E92E81110AC02DEC37
:1035B0003CEC4CEC5DE3C701B6010E942F306B017F
:1035C0007C0125E33AEF4EE85CE3C301B2010E94BF
:1035D0004F2F4B015C010E949C306D837E838F8353
:1035E000988725E33AEF4EE85CE3C701B6010E94F5
:1035F0004F2F6F87788B898B9A8B0E949C306987BD
:103600007A878B879C87C501B4010E94EF319B01AB
:10361000AC016D817E818F8198850E94A1306CA361
:103620007DA38EA39FA36F85788989899A890E943B
:10363000EF319B01AC0169857A858B859C850E9461
:10364000A13068A779A78AA79BA72D813E814F81CA
:10365000588560E070E080E09FE30E94A1306CA795
:103660007DA78EA79FA729853A854B855C8560E05D
:1036700070E080E09FEB0E94A13068AB79AB8AAB31
:103680009BAB29813A812150310949815A81249F7C
:10369000C001259F900D349F900D11249C01990F1E
:1036A000440B550B2B8B3C8B4D8B5E8B81010F5F3D
:1036B0001F4F029DC001039D900D129D900D11247E
:1036C0009C01990F440B550B2F87388B498B5A8BD4
:1036D00020E030E044E353E4C301B2010E94E92E4C
:1036E000881F8827881F91E089278CAB20E030E075
:1036F00044E353E4C701B6010E94E92E881F8827DE
:10370000881F8BA38824992482189308092C000C05
:10371000AA08BB08C101330CAA0BBB0B8F8F98A35F
:10372000A9A3BAA39801110F440B550B2D833E8317
:103730004F83588720E030E044E353E4C301B201F3
:103740000E9430309B01AC01C701B6010E94EA31F2
:1037500018160CF4DFC0A7019601C301B2010E9444
:10376000EA31181684F420E030E044E353E4C70162
:10377000B6010E9430309B01AC01C301B2010E942E
:10378000E92E87FDC7C020E030E047E853E4C701D9
:10379000B6010E94EA3187FF0AC020E030E044EB26
:1037A00052E4C701B6010E94E92E87FF14C020E051
:1037B00030E047E853E4C301B2010E94EA3187FFD9
:1037C00096C020E030E044EB52E4C301B2010E9415
:1037D000E92E87FD8CC020E030E047E853E4C701C4
:1037E000B6010E94E92E87FF87C020E030E044EB5D
:1037F00052E4C701B6010E94EA3187FD7DC020E096
:1038000030E047E853E4C301B2010E94E92E87FF8C
:1038100073C020E030E044EB52E4C301B2010E94E7
:10382000EA3189829A82AB82BC8287FF6AC020E03B
:1038300030E044E353E4C701B6010E94EA3187FD5A
:103840000AC020E030E044E353E4C301B2010E9427
:10385000EA3187FF66C020E030E044E353E4C7016B
:10386000B6010E94E92E312C87FF0BC020E030E02A
:1038700044E353E4C301B2010E94E92E312C87FDD9
:1038800056C0A5019401C501B4010E9437326F8B67
:10389000788F898F9A8F29813A814B815C81412C65
:1038A000512C3201211531054105510509F457C04C
:1038B00029013A01A3019201C301B2010E943732EA
:1038C0002F89388D498D5A8D620F731F841F951F64
:1038D0002F85388949895A896217730784079507A4
:1038E00054F13FEF431A530A630A730AE3CF198274
:1038F0001A821B821C829BCF89829A82AB82BC82F5
:1039000096CF81E090E0A0E0B0E08D839E83AF830E
:10391000B8878DCF89829A82AB82BC82332433945C
:10392000B0CF312C1F8E18A219A21AA2AACF812CB7
:10393000912C5401A6CF8D819E81AF81B8850197CE
:10394000A105B10561F021E030E040E050E024192C
:103950003509460957092D833E834F835887C50192
:10396000B4010E94F02E6B017C01AC019B016CA59F
:103970007DA58EA59FA50E9430302CA13DA14EA112
:103980005FA10E944F2F6DAB7EAB8FAB98AFA701AD
:10399000960168A979A98AA99BA90E94303028A517
:1039A00039A54AA55BA50E944F2F69AF7AAF8BAFAF
:1039B0009CAFC12CD12C7601A40143565F4F2396B6
:1039C0005FAF4EAF2397A3019201C301B2010E94E2
:1039D00037322F89388D498D5A8D260F371F481F52
:1039E000591F29873A874B875C878B899C89AD89CA
:1039F000BE89281739074A075B074CF1C301B2019A
:103A00000E94F02E6B8F7C8F8D8F9E8F11E09B011B
:103A1000AC0169AD7AAD8BAD9CAD0E94EA3187FDFA
:103A200010E001E02B8D3C8D4D8D5E8D6DA97EA942
:103A30008FA998AD0E94EA3187FD00E09CA99017FC
:103A400009F448C0ABA1A1134CC031104AC0C11445
:103A5000D104E104F104C9F06DAD7EAD640D751DB6
:103A60006C197D09AD85BE85ED91FC911197028899
:103A7000F389E02D21960EAD1FAD21979601239677
:103A80004EAD5FAD2397CD0119952F8538894989B2
:103A90005A8989859A85AB85BC8582179307A407C7
:103AA000B5070CF04AC077FE11C02B893C894D89BF
:103AB0005E8982179307A407B50744F47094609455
:103AC00050944094411C511C611C711CC12CD12C80
:103AD000760124C0332009F4BACFBBA1B11709F491
:103AE000B6CF2D813E814F8158854216530664061C
:103AF000750609F4ACCF8F859889A989BA8929857B
:103B00003A854B855C85281739074A075B070CF017
:103B100046C03FEFC31AD30AE30AF30A3FEF431A42
:103B2000530A630A730A8D819E81AF81B88584151B
:103B30009505A605B7050CF046CF9FEF891A990A9F
:103B4000A90AB90A2F8D38A149A15AA1281539050A
:103B50004A055B050CF095CEAD85BE85ED91FC91D7
:103B600011970688F789E02DCD01CE5BDF4F0FB6A8
:103B7000F894DEBF0FBECDBFDF91CF911F910F91A3
:103B8000FF90EF90DF90CF90BF90AF909F908F907D
:103B90007F906F905F904F903F902F901994C11439
:103BA000D104E104F10449F257CF0E94AE34FB0185
:103BB00001900020E9F73197AF01461B570BDC015C
:103BC000ED91FC910280F381E02D19948F929F92E8
:103BD000AF92BF92EF92FF920F931F93CF93DF9319
:103BE000CDB7DEB7A1970FB6F894DEBF0FBECDBF3D
:103BF0007C01FA01CB0119A2223008F42AE08E01DF
:103C00000F5D1F4F822E912CB12CA12CBF01A5015D
:103C100094010E945B32F901CA016A300CF5605DC3
:103C2000D8016E938D01232B242B252B79F790E05F
:103C300080E0109721F0BD01C7010E94D71DA19619
:103C40000FB6F894DEBF0FBECDBFDF91CF911F91AD
:103C50000F91FF90EF90BF90AF909F908F9008953D
:103C6000695CDECF462F50E070E060E02AE00C9403
:103C7000E61DCF92DF92EF92FF920F931F93CF93A7
:103C8000DF936B01770FEE08FF08F7FE1BC0EC0116
:103C90006DE20E94CF048C0144275527BA014C19CC
:103CA0005D096E097F092AE0CE010E94E61D800FA2
:103CB000911FDF91CF911F910F91FF90EF90DF90B7
:103CC000CF9008952AE0B701A601DF91CF911F910F
:103CD0000F91FF90EF90DF90CF900C94E61D0C9425
:103CE000D71D0F931F93CF93DF93C82FD62F84E157
:103CF000C89F80011124085D1F4F80911A06909182
:103D00001B0624E130E0FC01358B248B178B068BDE
:103D1000138E128E118E108EC33009F446C040F5FA
:103D2000C13079F1C230D1F180911A0690911B0611
:103D300020EE3FEFD11102C02FEF3FEFFC01338F98
:103D4000228F318F208F24E130E0358B248B178B2D
:103D5000068BC33009F45AC0B0F5C13009F43FC036
:103D6000C23009F44CC0DF91CF911F910F9108959B
:103D7000C43011F1C530C1F663EF72E00E946F1ECE
:103D8000D3CF6BEC72E00E946F1E6091AB04809108
:103D90001A0690911B060E94321EC6CF65ED72E096
:103DA0000E946F1E6091AA04F2CF6FED72E00E9434
:103DB0006F1E6091A904EBCF69EE72E00E946F1E46
:103DC0006091A804E4CFC43041F1C53061F663EFDF
:103DD00072E0DF91CF911F910F910C946F1E6BECED
:103DE00072E00E946F1E6091AB0480911A06909160
:103DF0001B06DF91CF911F910F910C94321E65ED40
:103E000072E00E946F1E6091AA04EFCF6FED72E026
:103E10000E946F1E6091A904E8CF69EE72E00E94D3
:103E20006F1E6091A804E1CF0F931F93CF93DF9390
:103E3000C82FD62F84E1C89F80011124085D1F4F31
:103E400080911A0690911B0624E130E0FC01358B2D
:103E5000248B178B068B138E128E118E108EC3300F
:103E6000B9F148F5C13089F16DE073E0C23051F12C
:103E700080911A0690911B0620EE3FEFD11102C0EF
:103E80002FEF3FEFFC01338F228F318F208F24E102
:103E900030E0358B248B178B068BC33009F464C05C
:103EA00000F5C13069F1C23009F44CC0DF91CF9107
:103EB0001F910F910895C53089F068F063EF72E0AB
:103EC000C630B1F60E946F1ED3CF68EF72E0FACF12
:103ED00062E273E0F7CF67E373E0F4CF6CE473E082
:103EE000F1CFC53009F455C008F450C063EF72E05B
:103EF000C630E1F6DF91CF911F910F910C946F1EA8
:103F000068EF72E00E946F1E80911A0690911B0666
:103F10002FEF3FEFFC01338F228F318F208F68E529
:103F200073E00E946F1E65E573E080911A06909120
:103F30001B060E946F1E68E573E080911A0690913F
:103F40001B06D8CF6DE073E00E946F1E80911A06A9
:103F500090911B062FEF3FEFFC01338F228F318FA3
:103F6000208F67E573E0C6CF62E273E00E946F1EA8
:103F700080911A0690911B062FEF3FEFFC01338FC3
:103F8000228F318F208F68E573E0B4CF67E373E051
:103F9000EDCF6CE473E0AECF0F931F93CF93DF931D
:103FA000EC0188819981009759F02A813B8126177D
:103FB000370730F081E0DF91CF911F910F91089585
:103FC0008B016F5F7F4F0E94CD33009759F099832B
:103FD00088831B830A832C813D81232B59F7FC01A5
:103FE0001082E8CF80E0E7CFEF92FF920F931F930C
:103FF000CF93DF93EC017B01FB0101900020E9F7F7
:1040000031978F01061B170BB8010E94CC1F288126
:104010003981811113C02115310519F0C9010E94A0
:104020004433198218821D821C821B821A82DF91FE
:10403000CF911F910F91FF90EF9008951D830C83F6
:10404000B701C901DF91CF911F910F91FF90EF90C0
:104050000C94C53485ED8093BC008091110590913E
:104060001205A0911305B09114050796A11DB11D6D
:1040700023E0B695A795979587952A95D1F7209136
:10408000BC0024FD03C010920F0508954091110556
:10409000509112056091130570911405452B462B24
:1040A000472B69F30097A105B10541F025E32A9557
:1040B000F1F700000197A109B109E1CF8091100546
:1040C0000C9426094F925F926F927F928F929F92EB
:1040D000AF92BF92CF92DF92EF92FF920F931F9316
:1040E000CF93DF936C01DC019E968C9161E08F3F52
:1040F00009F456C00E94960661E0E6018EA50E9472
:104100000A0664E670E080E090E00E94EC0660E061
:104110008EA50E940A0666E970E080E090E00E94A9
:10412000EC0661E08EA50E940A0666E970E080E078
:1041300090E00E94EC06D6019C960D911C91F60130
:10414000EF5BFF4F408051803297E080F180D0E0FC
:10415000C0E02BE5A22E23E0B22EC415D50508F051
:10416000D2C0F701EC0FFD1FE0814E01BFEF8B1AAB
:104170009B0AED3008F0A9C0F0E08827ED53FF4D11
:104180008F4F0C947D3211211C21F6202121E82033
:1041900074213B21D6201A2140211E2153215A216E
:1041A000F60184A595A50E947716BFCF80E07724FD
:1041B0007394780ED701A80DB91DE801E881F98143
:1041C0000680F781E02D6C91C8011995E40102C0C9
:1041D00077247394219647018C0E9D1E672C6A9458
:1041E000FFEF6F1284C0C70DD11DB7CF712CF7013F
:1041F000E80DF91D808180935A042296F701EC0F97
:10420000FD1F8081809359046091590470915A0474
:10421000D801ED91FC910084F185E02DC80119953C
:10422000D9CFD801ED91FC910280F381E02DC80136
:1042300019951FC081E0BBCF712CBCCF92E0792EC5
:10424000D6CFF701E80DF91D7080272D30E050E042
:1042500040E0BE016E5F7F4F6E0D7F1DE801E8817B
:10426000F9810284F385E02DC8011995E401C70D99
:10427000D11D712CAFCFF701E80DF91D7080A6CFCD
:10428000D701A80DB91DF80180819181FC0126811B
:1042900037816C91C801F90119952296F701EC0F4D
:1042A000FD1F708097CFD801ED91FC910480F581BE
:1042B000E02DBDCFF701E80DF91D608170E090E0C1
:1042C00080E00E94EC06E401D4CF1F92EF93DF93CD
:1042D000CF93BF92AF920E94CC340F900F900F906B
:1042E0000F900F900F90C5CF82E0782E73CFD4013E
:1042F0006D914D01D801ED91FC910484F585E02D7F
:10430000C80119956CCFE601E881F981028CF38D23
:10431000E02D60E0C601DF91CF911F910F91FF90DA
:10432000EF90DF90CF90BF90AF909F908F907F9055
:104330006F905F904F9019940F931F93CF93DF93DB
:10434000EC014F3F8FEF58076807780721F440E0F2
:1043500052E16AE770E04A835B836C837D832E833E
:1043600061E08F810E94960661E08F810E940A06BB
:1043700088858F3F39F061E00E94960661E088856C
:104380000E940A068F81082E000C990BFC01EC5B41
:10439000F74FE491F0E0EE0FFF1FEC57F84F259137
:1043A00034913F872E87FC01EC51F84FE491EA8B62
:1043B000E095EB8B88858F3FA9F0082E000C990BB8
:1043C000FC01EC5BF74FE491F0E0EE0FFF1FEC57C0
:1043D000F84F259134913D872C87FC01EC51F84F23
:1043E000E491E88B88898095898B1FB7F894809138
:1043F0005604811127C0E9E7F8E08491E9E1F8E08B
:104400009491E82FF0E0EE0FFF1FE659F84FA591C9
:10441000B491EC91E92321F461E085E30E940A065E
:1044200061E085E30E9496068CB580618CBD8CB5F9
:1044300080648CBD61E084E30E94960661E083E3C2
:104440000E949606809156048F5F809356041FBF8A
:104450008E818F3F11F488E08E839E810A811B81BB
:104460002C813D8140E052E16AE770E080E0041772
:1044700015072607370740F47695679557954795B2
:104480008F5F8630A1F787E09C709065282F269576
:10449000922B9093D605809581708093D70581E00B
:1044A000DF91CF911F910F9108950C940D301F92C1
:1044B0000F920FB60F9211240BB60F922F933F93CA
:1044C0004F935F936F937F938F939F93AF93BF931C
:1044D000EF93FF9389E395E00E944A05FF91EF91E6
:1044E000BF91AF919F918F917F916F915F914F910C
:1044F0003F912F910F900BBE0F900FBE0F901F900A
:1045000018951F920F920FB60F9211240BB60F92AF
:104510002F938F939F93EF93FF93E0914905F09131
:104520004A058081E0914F05F091500582FD1DC044
:104530009081809152058F5F8F7320915305821770
:1045400041F0E0915205F0E0E75CFA4F958F8093DF
:104550005205FF91EF919F918F912F910F900BBE7C
:104560000F900FBE0F901F9018958081F2CF1F9271
:104570000F920FB60F9211242F933F938F939F9317
:10458000AF93BF938091A0049091A104A091A20445
:10459000B091A30430919F0423E0230F2D3758F5E9
:1045A0000196A11DB11D20939F048093A0049093B8
:1045B000A104A093A204B093A3048091A4049091B9
:1045C000A504A091A604B091A7040196A11DB11D58
:1045D0008093A4049093A504A093A604B093A70489
:1045E000BF91AF919F918F913F912F910F900FBEEF
:1045F0000F901F90189526E8230F0296A11DB11D5C
:10460000D2CF1F920F920FB60F9211240BB60F92BA
:104610002F933F934F935F936F937F938F939F93CA
:10462000AF93BF93EF93FF938091B900887F80365B
:1046300009F44DC008F040C0883209F4A9C028F53B
:10464000803109F49DC0C8F4882309F4FBC0883088
:1046500009F496C0FF91EF91BF91AF919F918F9117
:104660007F916F915F914F913F912F910F900BBE72
:104670000F900FBE0F901F901895883109F488C0D5
:10468000803241F780930D0514C0803409F49DC039
:1046900040F48033B9F38833E9F680930D0585EC57
:1046A000B0C0803509F485C0883509F496C08834D7
:1046B00089F60E942A20CECF883909F48CC038F5BB
:1046C000883729F050F4883611F0803719F683E0E6
:1046D00080930F0510929E0457C0883809F47BC060
:1046E000803919F0803809F0B5CF80919E0480326E
:1046F00008F071C0E0919E0481E08E0F80939E04CB
:104700008091BB00F0E0E258FB4F80833DC0803BCE
:1047100039F0E0F4803A09F479C0883A09F09ACF88
:1047200084E080930F0510927D0410927C04E09148
:10473000C304F091C404199580917C0481110FC0C9
:1047400081E080937C0410925C0409C0803C09F4F1
:10475000A6CF883C09F4A3CF883B09F07BCFE0913A
:104760007D0481E08E0F80937D04F0E0E45AFB4FDE
:1047700080818093BB0090917D0480917C0429C04E
:104780008091EA048093BB0085EC8093BC0062CFEB
:1047900090910C0580910B05981758F5E0910C0548
:1047A00081E08E0F80930C05F0E0E551FB4F808196
:1047B000E9CFE0910C0581E08E0F80930C0580918C
:1047C000BB00F0E0E551FB4F808390910C05809198
:1047D0000B059817C8F285E8D8CFE0910C0581E069
:1047E0008E0F80930C058091BB00F0E0E551FB4FEC
:1047F000808380910E0581115CCF81E08093E90474
:1048000084EA8093BC0010920F0524CF85EC80933E
:10481000BC0010920F0580919E04803230F4E0912C
:104820009E04F0E0E258FB4F108260919E0470E01D
:10483000E091C104F091C2048EE794E019951092C2
:104840009E0408CF10920D0534CFEF92FF920F9384
:104850001F93CF93DF93EC017B01198218821B8297
:104860001A821D821C82FB0101900020E9F731971A
:104870008F01061B170BB8010E94CC1F28813981BC
:10488000811113C02115310519F0C9010E9444336B
:10489000198218821D821C821B821A82DF91CF919D
:1048A0001F910F91FF90EF9008951D830C83B70126
:1048B000C901DF91CF911F910F91FF90EF900C9460
:1048C000C5341F93CF93DF9310923C0510923B05A4
:1048D00088EE93E0A0E0B0E080933D0590933E0524
:1048E000A0933F05B093400521E132E030933A05B3
:1048F0002093390525EC30E030934605209345059B
:1049000024EC30E0309348052093470520EC30E05C
:1049100030934A052093490521EC30E030934C0553
:1049200020934B0522EC30E030934E0520934D054B
:1049300026EC30E03093500520934F05109252053D
:1049400010925305109254051092550510920506C9
:10495000109204068093060690930706A09308061B
:10496000B093090683E292E09093030680930206D7
:1049700080E58093D6051092D70584E190E00E94EF
:10498000A832EC0183E692E09983888380E38F83E9
:1049900085E3888788ED95E09A87898711E01B87F2
:1049A000D0931D06C0931C0683E490E00E94A832B9
:1049B000FC011382128220EF30E034A323A380E4B1
:1049C00091E096A385A317A23583248397838683DA
:1049D0002FEE30E0318720878FE391E09387828745
:1049E0001586148617861686318B208B938B828BC7
:1049F000158A148A178A168A8FEF9FEF918F808FFE
:104A0000938F828F148F158F168E178E10A312A27C
:104A100011A2D5A7C4A781E386A717A610AA11AA39
:104A200012AA13AA8FEF86AF85E392E09183808369
:104A3000DF01DF9683E892E011969C938E931296A5
:104A400088E490E08D939C93F0931B06E0931A0604
:104A5000109219061092180682E096E090931706BD
:104A60008093160680E090E0A0ECBFE780930E06EE
:104A700090930F06A0931006B09311068093120630
:104A800090931306A0931406B093150682E38093C7
:104A9000E8051092E9051092EA051092EB051092D4
:104AA000EC051092ED051092EE051092EF051092B4
:104AB000F0051092F1051092F2051092F605109291
:104AC000F7051092F80584E28093F30586E280935F
:104AD000F40588E28093F5058091E6058061877F83
:104AE0008093E605E8E6F8E0E491F0E0EE0FFF1FC2
:104AF000E65DF74F859194919093FA058093F905BF
:104B0000E8E0F8E0E491E093FB05EAE6F8E0E49100
:104B1000F0E0EE0FFF1FE65DF74F859194919093C3
:104B2000FD058093FC05EAE0F8E0E491E093FE05E2
:104B3000ECE6F8E0E491F0E0EE0FFF1FE65DF74FE2
:104B400085919491909300068093FF05ECE0F8E046
:104B5000E491E093010662E084E20E94960662E03E
:104B60008091F4050E9496068091E60584FF05C0B9
:104B700062E08091F5050E9496068091E7058160CC
:104B80008093E705E091F905F091FA059081809115
:104B9000FB05982381E009F480E0E091FC05F091A9
:104BA000FD0590812091FE05922309F092E0892B6A
:104BB0008093E9056BE773E08FED95E00E94252473
:104BC00060E873E089ED95E0DF91CF911F910C943F
:104BD0002524CF93DF9300D000D000D01F92CDB713
:104BE000DEB7789484B5826084BD84B5816084BD6D
:104BF00085B5826085BD85B5816085BD80916E007B
:104C0000816080936E0010928100809181008260AB
:104C100080938100809181008160809381008091E8
:104C200080008160809380008091B10084608093D7
:104C3000B1008091B00081608093B00080919100BC
:104C400082608093910080919100816080939100B7
:104C5000809190008160809390008091A10082609B
:104C60008093A1008091A10081608093A100809138
:104C7000A00081608093A0008091210182608093D8
:104C80002101809121018160809321018091200187
:104C900081608093200180917A00846080937A0003
:104CA00080917A00826080937A0080917A0081609E
:104CB00080937A0080917A00806880937A001092C5
:104CC000C100E0914905F0914A0582E08083E091BE
:104CD0004505F09146051082E0914705F0914805A1
:104CE0008FEC808310925105E0914D05F0914E05B7
:104CF00086E08083E0914B05F0914C0580818061D6
:104D00008083E0914B05F0914C0580818860808321
:104D1000E0914B05F0914C05808180688083E091A3
:104D20004B05F0914C0580818F7D808380911A0620
:104D300090911B06DC01ED91FC910084F185E02D42
:104D40004FEF5FEFBA01199580911A0690911B06FB
:104D5000DC01ED91FC91008CF18DE02D63E0199563
:104D60000E940F098091180690911906009711F082
:104D70000E94443386E090E00E94A8328C0180912A
:104D800016069091170624E4F8012083928381830C
:104D9000138280E290E09583848310931906009338
:104DA00018060E940F0981E0D80113968C93C80160
:104DB0000E94550A8823C9F082EA90E30E940519EF
:104DC0006AE070E080E090E00E94EC068DE293EFF4
:104DD0000E94051943E050E0BE016F5F7F4F809154
:104DE0001806909119060E9463178091C50490914E
:104DF000C604009711F00E94443386E090E00E94C0
:104E0000A8328C0188E6F801808382E096E09283E4
:104E10008183138280E290E0958384831093C6049B
:104E20000093C5040E940F0981E0D80113968C936A
:104E3000C8010E94550A61E087E20E94960661E07F
:104E400087E20E940A068091E60588608093E60565
:104E500090E080E00E9455226AE873E08F3641F0CE
:104E60006BE773E0813621F0863631F46DE873E04C
:104E70008FED95E00E94F41F81E090E00E945522A2
:104E800090ED980F9A3030F48053990B9093AD04C5
:104E90008093AC0482E090E00E94552290ED980F40
:104EA0009A3040F4082E000C990BC09790930102A1
:104EB0008093000283E090E00E9455228093AB042F
:104EC00084E090E00E9455228093AA0485E090E05F
:104ED0000E9455228093A90486E090E00E9455220A
:104EE0008093A80480911A0690911B060E94110FCE
:104EF000E0911A06F0911B06168E81E0848F858F53
:104F000080EE97E0938F828F918F808F0AE010E080
:104F1000158B048B84E190E0978B868B61E973E0BD
:104F2000CF010E946F1E68EE73E080E090E00E9467
:104F3000EC0680911A0690911B06FC01158B048BE0
:104F400028E230E0378B268B61EA73E00E946F1E07
:104F5000CE0101960E9430196C8180911A069091C1
:104F60001B060E94321E65E573E080911A0690913F
:104F70001B060E946F1E6D8180911A0690911B0680
:104F80000E94321E68EE73E080E090E00E94EC0622
:104F900080911A0690911B06DC0155961C930E9386
:104FA00054972CE330E057963C932E93569768EA3B
:104FB00073E00E946F1EE0901A06F0901B0680E0DE
:104FC00094E20E940519811114C166EB73E0C701D8
:104FD0000E94D71D68EE73E080E090E00E94EC062E
:104FE00080911A0690911B060AE010E0FC01158BD7
:104FF000048B20E530E0378B268B62EC73E00E9457
:105000006F1E6091AC047091AD0480911A0690916E
:105010001B060E94391E68EE73E080E090E00E945B
:10502000EC0680911A0690911B06DC0155961C93A4
:105030000E93549724E630E057963C932E93569760
:1050400066ED73E00E946F1E609100027091010294
:1050500080911A0690911B060E94391E68EE73E03B
:1050600080E090E00E94EC0680911A0690911B0669
:10507000FC01158B048B28E730E0378B268B6CEE18
:1050800073E00E946F1E80911A0690911B06DC014E
:1050900055961C930E9354972CE830E057963C930A
:1050A0002E9356976EEF73E00E946F1E6091AB04D3
:1050B00080911A0690911B060E94321E80911A065A
:1050C00090911B06FC01158B048B20EA30E0378B96
:1050D000268B61E074E00E946F1E6091AA048091AB
:1050E0001A0690911B060E94321E80911A0690911A
:1050F0001B06DC0155961C930E93549724EB30E06D
:1051000057963C932E93569764E074E00E946F1E6E
:105110006091A90480911A0690911B060E94321E8C
:1051200080911A0690911B06FC01158B048B28ECCC
:1051300030E0378B268B67E074E00E946F1E609131
:10514000A80480911A0690911B060E94321E68E8FE
:1051500073E180E090E00E94EC0680911A06909145
:105160001B060E94110F66246A94762C55245394D2
:105170005DEA252E312C0E942B078091DD05909150
:10518000DE05892B09F405C40091D9051091DA05D3
:1051900060E873E0C8010E94BC34892B09F018C490
:1051A0008091E60582FD0E942B078091E50580FF36
:1051B000C9C087FFC7C08F778093E50580911A0625
:1051C00090911B060E94110F6AE074E089ED95E052
:1051D0000E94F41F1092C0041092BF040E941F0787
:1051E0006093BB047093BC048093BD049093BE0491
:1051F000D0C30E948818882309F4E7CE8090120655
:1052000090901306A0901406B0901506A501940185
:10521000C501B4010E94F7318111D7CE24013501B7
:10522000E89477F82FEF3FEF4FE75FE7C301B20154
:105230000E94F73181110DC02FEF3FEF4FE75FE77D
:10524000C301B2010E94E92E18161CF46AEB73E048
:10525000BECE2FEF3FEF4FE75FE4C501B4010E94E0
:10526000EA3118161CF46EEB73E0B1CE2FEF3FEF6E
:105270004FE75FECC501B4010E94E92E87FDF3CF33
:1052800020E030E0A901C501B4010E94E92E87FFAA
:1052900008C06DE2C7010E94CF04B7FAB094B7F816
:1052A000B0942AE037ED43EA5BE3C501B4010E9404
:1052B00030302B013C010E941A314B015C010E94ED
:1052C000EE2E9B01AC01C301B2010E942F302B01D5
:1052D0003C012AE0B501A401C7010E94E61D6EE26F
:1052E000C7010E94CF0420E030E040E251E4C30156
:1052F000B2010E944F2F2B013C010E941A314B0139
:10530000B12CA12C2AE0B501A401C7010E94E61D21
:10531000C501B4010E94EE2E9B01AC01C301B20194
:105320000E942F3020E030E040E251E40E944F2FF5
:105330000E941A31AB0170E060E02AE0C7010E94D0
:10534000E61D48CE8091C00481110CC2E0911A067E
:10535000F0911B06738E628E718E608E168E92E0B7
:10536000492E448E458E86E390E0958B848B83E0B6
:1053700090E0978B868B63E174E0CF010E946F1EF3
:1053800080911A0690911B06EAE0F0E0DC01559648
:10539000FC93EE93549729E130E057963C932E937B
:1053A000569766E274E00E946F1E20E1822E24E888
:1053B000922EA12CB12C37E8C32E33E4D32EE12C4E
:1053C000F12C04E313E42CE430E048E550E064E61B
:1053D00070E080911A0690911B060E94D919812CC9
:1053E00058EF952EA12CB12C6AE4C62E63E4D62E7C
:1053F00021E430E04BE450E064E670E080911A066E
:1054000090911B060E94D91970EE872E99249A94C8
:10541000A12CB12CE0E6CE2EE3E4DE2EE12CF12C23
:105420000CE413E421E430E04BE450E064E670E087
:1054300080911A0690911B060E94D919A0EE8A2E1F
:10544000A7E09A2EA12CB12CB6E7CB2EB3E4DB2E2D
:10545000E12CF12C02E613E421E430E04BE450E0CF
:1054600064E670E080911A0690911B060E94D9199B
:105470009FE1892E912CA12CB12C27E8C22E23E488
:10548000D22EE12CF12C08E713E421E430E04BE4C8
:1054900050E064E670E080911A0690911B060E942D
:1054A000D919E0911A06F0911B06738E628E718EE7
:1054B000608E168E548E558E82E190E0958B848B93
:1054C00028E930E0378B268B70E060E0CF010E9446
:1054D000391E80911A0690911B0624E230E0DC010F
:1054E00055963C932E93549721E630E057963C9383
:1054F0002E93569762E370E00E94391E80911A063F
:1055000090911B0629E530E0FC01358B248B29E4C2
:1055100030E0378B268B64E670E00E94391EE09104
:105520001A06F0911B0680E590E0958B848B378AF4
:10553000268A168E448E458E6DE274E0CF010E945D
:105540006F1E40E1842E44E8942EA12CB12C54EB24
:10555000C52E53E4D52EE12CF12C04E313E42AE507
:1055600030E046E650E06DEC70E080911A069091D4
:105570001B060E94D9197FE1872E912CA12CB12CFA
:10558000E0E6CE2EE3E4DE2E2FE430E049E550E005
:105590006DEC70E080911A0690911B060E94D9195B
:1055A000F0EE8F2EF7E09F2EA12CA0E8BA2EA6E8F1
:1055B000CA2EA3E4DA2EE12CF12C02E613E42FE448
:1055C00030E049E550E06DEC70E080911A06909172
:1055D0001B060E94D91910EE812E99249A94A12CB1
:1055E000B12C0DE9C02E03E4D02EE12C10E8F12EF1
:1055F00007E813E42FE430E049E550E06DEC70E09B
:1056000080911A0690911B060E94D919812C98EF5F
:10561000992EA12CB12C24EBC22E23E4D22EE12C06
:10562000F12C0EE913E42FE430E049E550E06DEC95
:1056300070E080911A0690911B060E94D919E091A2
:105640001A06F0911B06738E628E718E608E168E16
:10565000548E558E8CE690E0958B848B28E930E053
:10566000378B268B70E060E0CF010E94391E80915D
:105670001A0690911B0622E830E0DC0155963C9317
:105680002E93549727E530E057963C932E935697E8
:105690006EE170E00E94391E80911A0690911B06FF
:1056A00027EC30E0FC01358B248B2BE330E0378B8B
:1056B000268B6CE370E00E94391E80911A0690914F
:1056C0001B062DE031E0DC0155963C932E93549758
:1056D000E5E5F0E05796FC93EE9356976AE570E0A7
:1056E0000E94391E80911A0690911B062FE131E02D
:1056F000DC0155963C932E935497E8E9F0E05796D9
:10570000FC93EE93569768E770E00E94391EE09193
:105710001A06F0911B06738E628E718E608E168E45
:10572000448E458E8DED90E0958B848B378A268A4A
:1057300068EFCF010E94CF0480911A0690911B065A
:1057400029EE30E0DC0155963C932E935497579602
:105750003C922E92569760E374E00E946F1EB1E077
:10576000B093C004CE0101960E94301980E094E20B
:105770000E940519811110C160E070E080EC9FE784
:105780000E9413316F83788789879A8780E094E23B
:105790000E94051981110EC1812C912C80ECA82E3C
:1057A0008FE7B82E80911A0690911B062FE030E00B
:1057B000FC01358B248BA2E3B0E0B78BA68B6C8108
:1057C0000E94321E65E573E080911A0690911B06D7
:1057D0000E946F1E6D8180911A0690911B060E9497
:1057E000321E40E850E06DEC70E080911A06909116
:1057F0001B060E949A0445E250E064E670E0809146
:105800001A0690911B060E949A04E0901A06F090E6
:105810001B06F701738E628E718E608E168E12E0FB
:10582000148F158F28E230E0358B248B378A268A37
:10583000C501B4010E941331C7010E94391EE091D5
:105840001A06F0911B06738E628E718E608E168E14
:10585000148F158F89EB90E0958B848B378A268A7D
:105860006F817885CF010E94391E60E970E08091D8
:105870001A0690911B060E943D0FE0911A06F091C6
:105880001B06168E148F158F738E628E718E608E2E
:105890008BE890E0958B848B378A268A62E374E0EC
:1058A000CF010E946F1E6EE071E080911A06909108
:1058B0001B060E943D0FE0911A06F0911B06168E02
:1058C000148F158F738E628E718E608E8AE091E0D8
:1058D000958B848B378A268A6FE873E0CF010E940C
:1058E0006F1EE0911A06F0911B06738E628E718E08
:1058F000608E88E290E0958B848B02ED10E0178B30
:10590000068B6AE873E0CF010E946F1EE0911A06D1
:10591000F0911B06738E628E718E608E8CE890E023
:10592000958B848B178B068B6BE773E0CF010E94FE
:105930006F1EE0911A06F0911B06738E628E718EB7
:10594000608E80EF90E0958B848B178B068B6DE8D3
:1059500073E0CF010E946F1E0E941F070091B704E1
:105960001091B8042091B9043091BA04601B710BF6
:10597000820B930B623371058105910550F00E94F3
:105980001F076093B7047093B8048093B904909391
:10599000BA040E94D905EFCB0E948818882309F425
:1059A000EBCE6091120670911306809114069091CF
:1059B0001506E6CE0E948818882309F4EDCE809063
:1059C0000E0690900F06A0901006B0901106EACE39
:1059D0006AE074E0C8010E94BC34892B09F0FFC062
:1059E0000E941F070091BB041091BC042091BD04CC
:1059F0003091BE04601B710B820B930B61317742B7
:105A00008105910598F080911A0690911B060E94DD
:105A1000110F60E873E089ED95E00E94F41F109289
:105A2000C0041092BF041092B604B3CF10910302C9
:105A30008091E60582FD0E942B078091EA05823065
:105A4000E1F41092EA050E941F076093BB04709373
:105A5000BC048093BD049093BE0481E0810F873025
:105A600008F055C08093030260E0812F0E94141F4C
:105A700061E0809103020E94141F8091E60582FD7F
:105A80000E942B078091EA058130D9F41092EA0533
:105A90000E941F076093BB047093BC048093BD04F5
:105AA0009093BE04809103028150A9F18093030278
:105AB00060E0812F0E94141F61E0809103020E9428
:105AC000141F8091E60582FD0E942B078091E50559
:105AD00085FF23C08F7D8093E5058091030286308A
