:020000040000FA
:100000000C94F2020C941A030C941A030C941A0325
:100010000C941A030C941A030C941A030C941A03EC
:100020000C941A030C941A030C941A030C941A03DC
:100030000C941A030C941A030C941A030C941A03CC
:100040000C94A6200C941A030C9474200C944E204B
:100050000C941A030C941A030C941A030C941A03AC
:100060000C94F0200C941A0305A84CCDB2D44EB9D0
:100070003836A9020C50B9918688083CA6AAAA2A4B
:10008000BE000000803F00000000003E5B4F5B3E72
:100090003E6B4F6B3E1C3E7C3E1C183C7E3C181C4D
:1000A000577D571C1C5E7F5E1C00183C1800FFE744
:1000B000C3E7FF0018241800FFE7DBE7FF30483AEA
:1000C000060E2629792926407F050507407F05254C
:1000D0003F5A3CE73C5A7F3E1C1C08081C1C3E7FD4
:1000E00014227F22145F5F005F5F06097F017F009B
:1000F0006689956A606060606094A2FFA2940804BB
:100100007E040810207E201008082A1C08081C2ADB
:1001100008081E101010100C1E0C1E0C30383E3833
:1001200030060E3E0E06000000000000005F0000DA
:100130000007000700147F147F14242A7F2A12234B
:100140001308646236495620500008070300001C5B
:100150002241000041221C002A1C7F1C2A08083E64
:100160000808008070300008080808080000606077
:100170000020100804023E5149453E00427F4000E5
:1001800072494949462141494D331814127F1027BD
:10019000454545393C4A494931412111090736490C
:1001A000494936464949291E0000140000004034E0
:1001B00000000008142241141414141400412214E5
:1001C0000802015909063E415D594E7C1211127C0C
:1001D0007F494949363E414141227F4141413E7F6D
:1001E000494949417F090909013E414151737F084D
:1001F00008087F00417F41002040413F017F0814F3
:1002000022417F404040407F021C027F7F04081053
:100210007F3E4141413E7F090909063E4151215E31
:100220007F09192946264949493203017F01033FC5
:100230004040403F1F2040201F3F4038403F631454
:1002400008146303047804036159494D43007F4156
:1002500041410204081020004141417F0402010293
:1002600004404040404000030708002054547840B8
:100270007F284444383844444428384444287F384C
:100280005454541800087E090218A4A49C787F08CE
:1002900004047800447D40002040403D007F102849
:1002A000440000417F40007C047804787C0804040A
:1002B000783844444438FC1824241818242418FCA2
:1002C0007C08040408485454542404043F44243C47
:1002D0004040207C1C2040201C3C4030403C4428B6
:1002E0001028444C9090907C4464544C4400083650
:1002F00041000000770000004136080002010204BE
:10030000023C2623263C1EA1A161123A4040207ADD
:100310003854545559215555794122545478422125
:100320005554784020545579400C1E52721239555C
:100330005555593954545459395554545800004559
:100340007C410002457D420001457C407D12111236
:100350007DF0282528F07C545545002054547C54C9
:100360007C0A097F4932494949323A4444443A3285
:100370004A4848303A4141217A3A42402078009D2B
:10038000A0A07D3D4242423D3D4040403D3C24FFD7
:100390002424487E4943662B2FFC2F2BFF0929F686
:1003A00020C0887E090320545479410000447D41D7
:1003B0003048484A32384040227A007A0A0A727D30
:1003C0000D19317D2629292F28262929292630484B
:1003D0004D4020380808080808080808382F10C8B9
:1003E000ACBA2F102834FA00007B000008142A143D
:1003F0002222142A14085500550055AA55AA55AAB8
:10040000FF55FF55FF000000FF00101010FF001403
:100410001414FF001010FF00FF1010F010F014145F
:1004200014FC001414F700FF0000FF00FF1414F484
:1004300004FC141417101F10101F101F1414141F85
:1004400000101010F0000000001F101010101F10FE
:10045000101010F010000000FF10101010101010FD
:100460001010FF10000000FF140000FF00FF00004C
:100470001F10170000FC04F414141710171414F4C0
:1004800004F40000FF00F714141414141414F700FB
:10049000F7141414171410101F101F141414F4144C
:1004A0001010F010F000001F101F0000001F1400BB
:1004B0000000FC140000F010F01010FF10FF1414E6
:1004C00014FF141010101F00000000F010FFFFFFB9
:1004D000FFFFF0F0F0F0F0FFFFFF0000000000FF72
:1004E000FF0F0F0F0F0F3844443844FC4A4A4A3478
:1004F0007E02020606027E027E026355494163388F
:1005000044443C04407E201E2006027E020299A53F
:10051000E7A5991C2A492A1C4C7201724C304A4D9D
:100520004D303048784830BC625A463D3E494949D2
:10053000007E0101017E2A2A2A2A2A44445F44447B
:1005400040514A444040444A51400000FF0103E00A
:1005500080FF000008086B6B083612362436000650
:10056000090906000018180000001010003040FFB4
:100570000101001F01011E00191D1712003C3C3C27
:100580003C000000000000000000240027002A00BA
:1005900000000000250028002B00000000080002D9
:1005A0000100000304070000000000000000010239
:1005B00004081020408001020408102001020408F1
:1005C0001020000000002300260029000404040479
:1005D00004040404020202020202030303030303ED
:1005E0004B223B2C11241FBECFEFD8E0DEBFCDBF86
:1005F00025E0A2EBB3E001C01D92A638B207E1F7F7
:1006000013E0A0E0B1E0E4ECF9E602C005900D9241
:10061000A23BB107D9F712E0C1EFD2E004C02197A5
:10062000FE010E941830C03FD107C9F70E94D323B2
:100630000C94D5340C940000FC019081909528E036
:1006400030E081E397FF03C0990F982701C0990F0D
:1006500021503109B9F78181892728E030E091E301
:1006600087FF03C0880F892701C0880F21503109F7
:10067000B9F7089508950895AF92BF92CF92DF928F
:10068000EF92FF920F931F93CF93DF93EC016B01D7
:100690005A01E881F9810484F585E02D0995E88106
:1006A000F9810488F589E02D80EEE82EFF24FA9484
:1006B0000DE910E095014DE950E0B601CE01099534
:1006C000E881F9810688F789E02DCE01DF91CF918D
:1006D0001F910F91FF90EF90DF90CF90BF90AF9060
:1006E0000994DC01ED91FC910190F081E02D0994D9
:1006F000AF92BF92CF92DF92EF92FF920F931F9330
:10070000CF93DF936C017B018B01040F151FEB016D
:100710005E01AE18BF08C017D10759F06991D60124
:10072000ED91FC910190F081E02DC6010995892B96
:1007300079F7C501DF91CF911F910F91FF90EF9055
:10074000DF90CF90BF90AF900895FC01538D448D02
:10075000252F30E0842F90E0821B930B541710F06C
:10076000CF96089501970895FC01918D828D981779
:1007700061F0A28DAE0FBF2FB11D5D968C91928D51
:100780009F5F9F73928F90E008958FEF9FEF089582
:10079000FC01918D828D981731F0828DE80FF11D4B
:1007A000858D90E008958FEF9FEF0895FC01918D66
:1007B000228D892F90E0805C9F4F821B91098F735F
:1007C0009927089587E994E00E94D60321E0892BB8
:1007D00009F420E0822F089580E090E0892B29F031
:1007E0000E94E20381110C9400000895FC01A48D85
:1007F000A80FB92FB11DA35ABF4F2C91848D90E043
:1008000001968F739927848FA689B7892C93A08925
:10081000B1898C91837080648C93938D848D9813AF
:1008200006C00288F389E02D80818F7D8083089542
:10083000EF92FF920F931F93CF93DF93EC0181E030
:10084000888F9B8D8C8D98131AC0E889F9898081D7
:1008500085FF15C09FB7F894EE89FF896083E8890A
:10086000F98980818370806480839FBF81E090E0FC
:10087000DF91CF911F910F91FF90EF900895F62E89
:100880000B8D10E00F5F1F4F0F731127E02E8C8D23
:100890008E110CC00FB607FCFACFE889F989808168
:1008A00085FFF5CFCE010E94F603F1CFEB8DEC0F63
:1008B000FD2FF11DE35AFF4FF0829FB7F8940B8F85
:1008C000EA89FB8980818062CFCFCF93DF93EC01EF
:1008D000888D8823B9F0AA89BB89E889F9898C9128
:1008E00085FD03C0808186FD0DC00FB607FCF7CFE4
:1008F0008C9185FFF2CF808185FFEDCFCE010E94E4
:10090000F603E9CFDF91CF91089590E0FC01E65620
:10091000FA4F2491FC01E255FA4F3491FC01E45363
:10092000FA4FE491EE23C9F0222339F0233001F18C
:10093000A8F4213019F1223029F1F0E0EE0FFF1F69
:10094000E057FA4FA591B4918FB7F894EC916111EB
:1009500026C030953E233C938FBF08952730A9F0E1
:100960002830C9F0243049F7809180008F7D03C082
:10097000809180008F7780938000DFCF84B58F7760
:1009800084BDDBCF84B58F7DFBCF8091B0008F77A6
:100990008093B000D2CF8091B0008F7DF9CF3E2BF5
:1009A000DACFCF93DF9390E0FC01E255FA4F249128
:1009B00084539A4FFC0184918823D1F090E0880FF2
:1009C000991FFC01EA57FA4FA591B491FC01E05739
:1009D000FA4FC591D491623071F49FB7F8943C916D
:1009E000822F809583238C93E8812E2B28839FBFB1
:1009F000DF91CF9108958FB7F894EC912E2B2C9323
:100A00008FBFF6CF3FB7F894809100049091010416
:100A1000A0910204B091030426B5A89B05C02F3F06
:100A200019F00196A11DB11D3FBFBA2FA92F982F14
:100A30008827BC01CD01620F711D811D911D42E00F
:100A4000660F771F881F991F4A95D1F708958F92D7
:100A50009F92AF92BF92CF92DF92EF92FF926B0183
:100A60007C010E9402054B015C01C114D104E10428
:100A7000F104B9F00E940205681979098A099B09F5
:100A8000683E73408105910580F321E0C21AD108C8
:100A9000E108F10888EE880E83E0981EA11CB11CC5
:100AA000E4CFFF90EF90DF90CF90BF90AF909F90FA
:100AB0008F9008952FB7F8946091FC037091FD0317
:100AC0008091FE039091FF032FBF0895CF92DF9294
:100AD000EF92FF920F931F93CF93DF930E945A05DB
:100AE000AB01BC01E0914405F0905505E4FBFF2704
:100AF000F0F9E4FF79C00091490510914A05209171
:100B00004B0530914C05E7FB882780F9F11010C0A8
:100B100080915D0590915E05DC019C9180915F055F
:100B2000982381E009F480E0909145059170892730
:100B300080935605DB01CA01801B910BA20BB30BFE
:100B40008C019D01B09156059091430591FB88273A
:100B500080F9BB2309F424C181111AC001351105A4
:100B600021053105A8F04093490550934A0560934B
:100B70004B0570934C05997E926190689093430564
:100B80008091450580628093450500E010E0980162
:100B9000809145059091430584FF12C00D32A1E07C
:100BA0001A072105310560F092FD05C083FDAFC035
:100BB000826080934505809145058F7E8093450531
:100BC00091FF12C00D3B12402105310568F092FDE6
:100BD0000BC0BB2309F49DC09160909343058091A5
:100BE00045058F7D80934505FF2009F49FC0E6FBF6
:100BF000992790F9C92FA0E0DA2FCC0FDD1FE5FB74
:100C0000882780F98C2B20914705281709F472C09A
:100C1000109248059091450596FFB8C0833009F0C1
:100C2000A1C09F7B90934505213009F497C091E0C6
:100C3000223009F494C0E3FD03C0833009F49DC061
:100C400020914805222309F446C0909143059860FD
:100C500090934305233040F49091450597FF04C0DD
:100C600093E0921B9093480590915605911122C0F4
:100C700000914D0510914E0520914F053091500582
:100C80006A017B01C01AD10AE20AF30A0091460503
:100C900010E030E020E0C016D106E206F30650F482
:100CA00020914805213009F074C02091440522604C
:100CB0002093440540934D0550934E0560934F0596
:100CC00070935005FF2339F0992329F0909148053E
:100CD0009E5F90934805809347058091430584600B
:100CE000809343054093490550934A0560934B0513
:100CF00070934C05DF91CF911F910F91FF90EF9072
:100D0000DF90CF9008958091450588603CCF846046
:100D100050CF9D7F9E7F909343054093490550930C
:100D20004A0560934B0570934C055ECFA091570523
:100D3000B09158059C9180915905982321E009F4C0
:100D400020E0A0915A05B0915B059C9180915C05D3
:100D5000982382E009F480E0822B55CF92E09093B3
:100D6000480569CFE3FD4DC081116ACF9F7B909309
:100D70004505213041F0223031F0909145059064D5
:100D8000909345055DCF20934805F7CF8823A9F3BD
:100D900052CF223009F08ECF20914405216088CFB8
:100DA000882309F4F5CE013511052105310508F434
:100DB000EFCE92FD05C090FD03C090629093430575
:100DC0000D3B12402105310528F0809143058064D8
:100DD00080934305809143054093490550934A050C
:100DE00060934B0570934C058D7F8E7F80934305F8
:100DF0008091450585FF87CF84FD85CF8061877F02
:100E0000C2CE882309F4B9CF66CF2091D803260F2C
:100E10003327331F21323105ECF420916D04FC019E
:100E200090E080E0243069F082E00895A091D8033A
:100E30002191AC0148545C4FA40FB52FB11D2C93E8
:100E40000196861798F38091D803680F6093D803B2
:100E500080E0089581E0089510926D0481E0809310
:100E60006C041092470461E082E10E94850461E015
:100E700083E10E948504E9EBF0E080818E7F80832E
:100E800080818D7F808388E48093B80085E480939F
:100E9000BC00089510922604109225041092740448
:100EA000109296040E942C078AE393E09093240406
:100EB000809323048BE393E0909322048093210496
:100EC0000895CF93DF9391E09093B7038823B9F00F
:100ED000C091B800D091BA008091BC008A7B809309
:100EE000BC0060E082E10E94850460E083E10E9432
:100EF00085040E942C07D093BA00C093B800DF91FC
:100F0000CF9108958F929F92AF92BF92CF92DF922E
:100F1000EF92FF920F931F93CF93DF93D09196049C
:100F2000D13208F0D7C0182FC09195040E94020555
:100F30006B017C0180916D0481116BC082E0809314
:100F40006D0410936C048FEF80936B0410926A040D
:100F5000D0936904A5E7B4E0E9E4F4E080E0D813B5
:100F600091C01092480480914804CC0FC82BC093C4
:100F7000480480914704813009F088C010924704EA
:100F80000E9402056B017C01809148048093BB00A4
:100F900080916F0490917004A0917104B0917204DB
:100FA000892B8A2B8B2BA1F00E94020500916F04E4
:100FB0001091700420917104309172046C197D09B4
:100FC0008E099F09061717072807390708F442C03A
:100FD0008091BC0083FDD8CF85EC8093BC000E943B
:100FE00002056B017C0180916D04823009F450C0D0
:100FF00080916B048F3F09F46FC080916B04803245
:1010000009F46CC080916B04803309F469C084E0FA
:1010100026C080916F0490917004A0917104B091EA
:101020007204892B8A2B8B2B09F484CF0E94020532
:1010300080906F0490907004A0907104B09072043E
:101040006C197D098E099F0986169706A806B906B0
:1010500008F070CF80916E040E94610785E01092C5
:1010600074041092960410927304DF91CF911F9133
:101070000F91FF90EF90DF90CF90BF90AF909F9037
:101080008F9008959D9191938F5F69CF85EEA5CF45
:1010900080916F0490917004A0917104B0917204DA
:1010A000892B8A2B8B2B09F49ECF0E94020500917D
:1010B0006F041091700420917104309172046C19C6
:1010C0007D098E099F09061717072807390708F0B9
:1010D0008ACFC0CF81E0C3CF80E0C1CF82E0BFCF55
:1010E00083E0BDCF1F93CF93DF93EA01122FDC0182
:1010F00011968D919C91DC01ED91FC910280F38120
:10110000E02D0995C817D90729F4812F0E9482077D
:1011100091E0811190E0892FDF91CF911F91089587
:10112000CF93DF93EC018B818823A1F0888191E03C
:101130009093730480939504109274041092960413
:1011400081E00E94820791E0811190E0892FDF9178
:10115000CF9108950E944A0781E08B83CE010E94BF
:101160009008982F8111E2CFF1CF0895E0912604E5
:1011700080912504E81730F4F0E0E95DFB4F8081B1
:1011800090E008958FEF9FEF08959091260480914D
:1011900025042FEF3FEF981748F4E92FF0E0E95DC1
:1011A000FB4F208130E09F5F90932604C901089592
:1011B0008091250490912604891B990B0895CF9264
:1011C000DF92EF92FF920F931F93CF93DF937C01F7
:1011D000CB018A0120917304222389F0EB016B017A
:1011E000C40ED51ECC15DD0569F06991D701ED91CE
:1011F000FC910190F081E02DC7010995F3CF642F98
:101200000E940507C801DF91CF911F910F91FF90B8
:10121000EF90DF90CF900895CF93DF931F92CDB7DB
:10122000DEB76983209173042223F9F0209196049C
:10123000203258F021E030E0FC013383228390E03B
:1012400080E00F90DF91CF91089580917404E82F92
:10125000F0E0EB58FB4F998190838F5F809374048B
:101260008093960481E090E0ECCF61E0CE0101969E
:101270000E940507F7CFEF92FF920F931F93CF9332
:10128000DF93EC017A018EA99FA98617970729F4AD
:101290008AAD9BAD82179307B1F07FAB6EAB3BAFCE
:1012A0002AAF8CA59DA54CA9460F572F511D215043
:1012B0003109240F351FDC01ED91FC91008CF18D7B
:1012C000E02D6AE2099588AD99AD8E159F0529F448
:1012D0008CAD9DAD80179107B9F0F9AEE8AE1DAFAA
:1012E0000CAF8CA59DA54DA94E0D5F2D511D015034
:1012F00011099801240F351FDC01ED91FC91008C40
:10130000F18DE02D6BE209958CA59DA5DC01ED9199
:10131000FC910680F781E02D6CE2DF91CF911F9167
:101320000F91FF90EF900994FC0180858F3F31F081
:10133000A485B5859C918089892B8C930895FC01A7
:101340008385882331F090913405809135059CBDCB
:101350008DBDA685B7858C919289892B8C938085CC
:101360008F3F31F0A485B5858C91918989238C9329
:1013700008958EBD00000DB407FEFDCF8EB5089513
:10138000CF92DF92EF92FF921F93CF93DF93690189
:101390007A01EB0181E0C81AD108E108F1088FEF6A
:1013A000C816D806E806F80669F0188189812296E1
:1013B0001093B3038093B4030E94B909812F0E9454
:1013C000B909E8CFDF91CF911F91FF90EF90DF90A7
:1013D000CF900895CF92DF92EF92FF92CF93DF9359
:1013E00069017A01EB0181E0C81AD108E108F1082E
:1013F0008FEFC816D806E806F80621F089910E94FA
:10140000B909F1CFDF91CF91FF90EF90DF90CF90AE
:101410000895CF92DF92EF92FF92CF93DF93EB018B
:1014200069017A016093B303D093B40381E0C81AD1
:10143000D108E108F1088FEFC816D806E806F806CB
:1014400039F08D2F0E94B9098C2F0E94B909EECF77
:10145000DF91CF91FF90EF90DF90CF900895CF93E1
:10146000C62F872F6093B3037093B4030E94B9090A
:101470008C2FCF910C94B909862F0C94B909CF9277
:10148000DF92EF92FF920F931F93CF93DF93EC01C4
:1014900069017A01EE85FF8580819B89892380839C
:1014A0008B0181E0C81AD108E108F108EFEFCE16F0
:1014B000DE06EE06FE0631F0F80181918F010E94F2
:1014C000B909EFCFEE85FF8580819A89892B8083CA
:1014D000DF91CF911F910F91FF90EF90DF90CF9010
:1014E00008951F93CF93DF93EC01162F872FEE857E
:1014F000FF8590812B89922390836093B30370932F
:10150000B4030E94B909812F0E94B909EE85FF85B5
:1015100080819A89892B8083DF91CF911F910895D3
:10152000CF93DF93EC01862FEE85FF8590812B8989
:10153000922390830E94B909EE85FF8580819A8964
:10154000892B8083DF91CF910895DC019C968D914A
:101550009C91DC01ED91FC910684F785E02D0994C6
:10156000DC019C968D919C91DC01ED91FC910480B5
:10157000F581E02D0994AF92BF92CF92DF92EF9266
:10158000FF920F931F93CF93DF93EC015901E881F2
:10159000F98102A0F3A1E02D09959501D8010E94DF
:1015A0001E309B01AC01E881F98104A0F5A1E02D7A
:1015B000B701CE01DF91CF911F910F91FF90EF9076
:1015C000DF90CF90BF90AF900994EF92FF920F936E
:1015D0001F93CF93DF9357FD38C0DC011A96ED912E
:1015E000FC91E417F5078CF12115310571F137FFF6
:1015F00007C0F90131966E0F7F1F31952195310992
:10160000DC011896ED91FC91E617F707F4F0EB0179
:10161000C20FD31FDE011197B7FD17C077FF03C0BC
:101620009E0170E060E0EA17FB072CF49F01261B87
:10163000370B2F5F3F4FDC01ED91FC910684F7855E
:10164000E02D780101E010E00995DF91CF911F9125
:101650000F91FF90EF900895EF92FF920F931F93D9
:10166000CF93DF9377FD39C0DC011896ED91FC91A3
:10167000E617F70794F12115310579F137FF07C017
:10168000F90131964E0F5F1F319521953109DC012B
:101690001A96ED91FC91E417F507FCF0EA01C20FF0
:1016A000D31FDE011197B7FD18C057FF03C09E017D
:1016B00050E040E0EA17FB072CF49F01241B350B98
:1016C0002F5F3F4FDC01ED91FC910684F785E02D03
:1016D0007801890121E030E00995DF91CF911F91D8
:1016E0000F91FF90EF900895DC019C968D919C9155
:1016F000DC01ED91FC91028CF38DE02D0994EF92C9
:10170000FF920F931F93CF93DF93EC017901E88150
:10171000F98102A0F3A1E02D01E010E021E030E02A
:1017200009958CA59DA5DC01ED91FC910684F785BA
:10173000E02DB701DF91CF911F910F91FF90EF90B6
:101740000994DC019C968D919C91DC01ED91FC91BA
:101750000280F381E02D0994EF92FF920F931F9383
:10176000CF93DF93EC014D3F8FEF58076807780761
:10177000A9F5E881F98100A4F1A5E02DCE01099534
:10178000E881F981008CF18DE02D6F8DCE010995F6
:101790000E811F81EC80FD80E881F9810484F5854C
:1017A000E02DCE010995E881F98102A0F3A1E02D99
:1017B000970150E040E070E060E0CE010995E881DB
:1017C000F9810688F789E02DCE01099581E0DF9146
:1017D000CF911F910F91FF90EF9008952EAD8CA5A2
:1017E0009DA5DC01ED91FC910190F081E02D2F3F52
:1017F00029F009958111BDCF80E0E9CF2FEFF9CF16
:10180000FC0116AE0C94AC0B0895FC016770678F59
:1018100085A196A123A134A1633019F0D0F46130E1
:10182000E1F4958384833783268324813581215095
:101830003109318720878681978101979387828735
:101840001586148617861686318B208B938B828B98
:101850000895653031F3673021F33583248397830E
:101860008683E3CFCF93DF93EC010E94050CEF8DCD
:10187000E150E73078F5F0E0E05CF34F0C9418307D
:10188000470C580C5C0C600C640C660C680C89A945
:101890008CAB8AA98DAB8FEF9FEF9FAB8EAB99AFCF
:1018A00088AF9BAF8AAF9DAF8CAFDF91CF9108958A
:1018B0008AA98CAB8BA9EECF8BA98CAB88A9EACF78
:1018C0008AA98CAB89A9E6CF8BA9E2CF88A9F1CFF1
:1018D00089A9F3CF88A9F5CF1F93CF93DF93EC01AC
:1018E0000E94320CEF8DE15018E4E33020F4F0E078
:1018F000E65FFE4F10818CA59DA5DC01ED91FC916A
:101900000280F381E02D09958CA59DA5DC01ED9168
:10191000FC910088F189E02D412F66E309958CA5A3
:101920009DA5DC01ED91FC910480F581E02DDF9116
:10193000CF911F91099408956F927F928F929F92F9
:10194000AF92BF92CF92DF92EF92FF920F931F93CD
:10195000CF93DF936C015B014901EA013A01600E0C
:10196000711EC615D70574F4D601ED91FC9102885D
:10197000F389E02D87019401AE01B501C6010995F7
:101980002196EFCFDF91CF911F910F91FF90EF90B4
:10199000DF90CF90BF90AF909F908F907F906F908F
:1019A00008956F927F928F929F92AF92BF92CF9243
:1019B000DF92EF92FF920F931F93CF93DF93570124
:1019C0002115310509F457C00115110509F453C05B
:1019D00037FF07C0F90131966E0F7F1F31952195B2
:1019E0003109EC01A885B985A617B7070CF443C0E7
:1019F00017FF07C0F80131964E0F5F1F1195019533
:101A00001109EC01EA85FB85E417F507A4F16B01E8
:101A1000C20ED31E3601D1E06D1A710877FC2BC0BF
:101A20007A01E00EF11E4701C1E08C1A910897FC83
:101A300022C077FF03C0960170E060E057FF03C04B
:101A4000870150E040E0A615B7052CF49D01261B48
:101A5000370B2F5F3F4FE815F9052CF48F01041B5E
:101A6000150B0F5F1F4FDC01ED91FC910684F7858C
:101A7000E02D75010995DF91CF911F910F91FF9096
:101A8000EF90DF90CF90BF90AF909F908F907F901E
:101A90006F900895CF92DF92EF92FF920F931F9372
:101AA000CF93DF93EC010E811F81CC80DD80E88134
:101AB000F9810484F585E02D0995F12CE12C96013E
:101AC00050E040E070E060E0CE010E94D10CE8817F
:101AD000F9810688F789E02DCE01DF91CF911F9122
:101AE0000F91FF90EF90DF90CF9009942F923F924B
:101AF0004F925F926F927F928F929F92AF92BF921E
:101B0000CF92DF92EF92FF920F931F93CF93DF93C9
:101B1000CDB7DEB72E970FB6F894DEBF0FBECDBFA0
:101B20009E878D877A876987DC01ED91FC9104841B
:101B3000F585E02D099569857A8560517109AD8536
:101B4000BE85ED91FC9111970288F389E02D05E5A2
:101B50001DEA21E230E043EB50E0CD01099520E0A1
:101B600033EE4FEF5FEF29833A834B835C831D8213
:101B70001E821F821886812C912C540180E1482EF0
:101B8000512C612C712C89819A81AB81BC81B7FF6A
:101B900022C09FEF891A990AA90AB90AD501C4017E
:101BA00012E0880F991FAA1FBB1F1A95D1F7029642
:101BB000A11DB11DBA2FA92F982F882729813A81FD
:101BC0004B815C81280F391F4A1F5B1F29833A8391
:101BD0004B835C83D8CF1201220C331C3FEF231AB6
:101BE000330A49855A85441955095C874B8751E06A
:101BF000451A51086108710864018D819E81C81AD7
:101C0000D90AE5E5EE2EEDEAFE2E8601910143EBC1
:101C100050E0481959096B857C858D859E850E9409
:101C2000D10C4D815E814C545F4F91016B857C8559
:101C30008D859E850E94D10CD301C201FAE0880FE8
:101C4000991FAA1FBB1FFA95D1F729813A814B81B1
:101C50005C81281B390B4A0B5B0B29833A834B832E
:101C60005C83481459046A047B042CF08D829E82A4
:101C7000AF82B88688CFC12C53EED52EEE24EA94DD
:101C8000FE2C60E1462E512C612C712C812C912C64
:101C90005401F7FE1AC03FEF831A930AA30AB30A4E
:101CA000D501C40132E0880F991FAA1FBB1F3A95C6
:101CB000D1F70296A11DB11DBA2FA92F982F882701
:101CC000C80ED91EEA1EFB1EE4CF5E824D8241E0A3
:101CD000441A5108610871081401220C331C5FEF8B
:101CE000251A350A43EB50E08D819E81481B590B24
:101CF000AD85BE85ED91FC9111970288F389E02DA9
:101D000005E51DEA910189859A85881999099A83C3
:101D10008983BC01CD0109954D815E814D545F4F92
:101D2000AD85BE85ED91FC9111970288F389E02D78
:101D3000910169817A81CD010995D301C2012AE01F
:101D4000880F991FAA1FBB1F2A95D1F7C81AD90A55
:101D5000EA0AFB0A481459046A047B040CF099CF80
:101D6000AD85BE85ED91FC9111970688F789E02D30
:101D7000CD012E960FB6F894DEBF0FBECDBFDF911A
:101D8000CF911F910F91FF90EF90DF90CF90BF9078
:101D9000AF909F908F907F906F905F904F903F900B
:101DA0002F900994CF93DF93DC0157FD38C01A962A
:101DB0008D919C911B97841795078CF197968C9128
:101DC0009797882319F1CA01880F991F9896CD918A
:101DD000DC919997C80FD91FE881F9816E177F07A9
:101DE000F4F09A96ED91FC919B97E80FF91F808192
:101DF0009181861797079CF0ED91FC9111970284D1
:101E0000F385E02DCD01DF91CF91099477FD07C0D7
:101E100018968D919C911997861797076CF7DF910B
:101E2000CF9108952F923F924F925F926F927F923F
:101E30008F929F92AF92BF92CF92DF92EF92FF92DA
:101E40000F931F93CF93DF93CDB7DEB72C970FB6C9
:101E5000F894DEBF0FBECDBF9C878B877A836983E2
:101E60001A01D22E1C830B833701DC0191960D9150
:101E70001C9192975C964C915C975D963C915D9716
:101E8000432E512C50968D919C910115110509F40A
:101E90006EC1F801349624913297A590B490D21A6D
:101EA000B7E0DB9EA00CB11C1124F8016591749180
:101EB0007A876987F501C590D490F50132967491BF
:101EC0007D833196A491AE8331962491085F1F4F94
:101ED000F8010491F50135965491588766E0A60EF5
:101EE000B11CF501A49069817A81861797070CF4DB
:101EF00016C3802F90E0880F991F63E070E00E9466
:101F0000E22F649DC001659D900D749D900D11247C
:101F10002101481A590AAB85BC8552968D919C9136
:101F2000841595050CF4FBC28D80821608F4822E70
:101F3000849E4001112449815A81480D591DEB8529
:101F4000FC8584859585841795070CF0E8C2039F6E
:101F5000800111249101200F311F868597858217FA
:101F600093070CF0DCC20190F081E02D0484F5852C
:101F7000E02D8B859C8509952B813C81621673062B
:101F800071F1AB85BC8550962D913C9189819A81E8
:101F9000880D991D0197281739078CF0EB85FC8572
:101FA00022893389C801840D951D019728173907A7
:101FB0006CF4EB85FC85858D081B1109F3CFAB858F
:101FC000BC855C968C91881A9108E0CF73019401CE
:101FD000A20169817A818B859C850E94D10CF8854C
:101FE0008F2EFF0F9908EA2C0A2C000CFF08AB85F6
:101FF000BC855D962C915D975C968C91813009F043
:1020000045C0213009F042C0E20CF31C870180E09A
:10201000512C902F9E19BE819B1708F054C1EB855F
:10202000FC8522893389201731076CF1A980BA8099
:10203000A80CB91C3D80380E831529F14424439423
:10204000480E877041F4C6010196E985FA85EC0DCA
:10205000FD1D54906C01AB85BC8550968D919C9173
:1020600051978A159B054CF057FE07C02B813C8188
:10207000A801B501CD010E94D20EBFEFAB1ABB0A79
:10208000550C842DD9CF0F5F1F4FC3CF3A2D32038C
:1020900050011124A20CB31C80E0512C412C4E8124
:1020A000441609F410C1AB85BC855D962C915D97F3
:1020B0002A0D3B2D311D2150310952964D915C91D5
:1020C0005397421753070CF44AC05C962C913885FD
:1020D00032034001112449815A81840E951E2D80BE
:1020E000280E821509F43BC033243394380E8770D0
:1020F00041F4C6010196E985FA85EC0DFD1D549069
:102100006C01AB85BC855C962C915C9730E0C90175
:10211000880D991D019750964D915C9151974817E4
:102120005907ACF057FE13C05E968C915E9790E015
:102130005D960C915D9710E0081B190B281B390B5D
:10214000EB80FC80A501B401CD010E94D10CEB8590
:10215000FC85848D880E911C550C832DC2CF439431
:10216000AB85BC855D969C91A90EB11C98CFE98189
:10217000FA818E179F070CF4D2C1AB85BC855296AD
:102180008D919C91821593050CF4C9C19F01B6E015
:102190004B9F200D311D1124EB85FC858485958591
:1021A000821793070CF0BBC153E0440C551C5A95A1
:1021B000E1F7420C531C86859785841595050CF034
:1021C000AEC10190F081E02D0484F585E02D8B8572
:1021D0009C850995AB85BC855C962C91B5E0DB9E12
:1021E000C0011124213009F09EC0EB85FC85258DAE
:1021F000213009F098C0F12CE12C9C012A573F4F67
:102200004901510138E0A30EB11CC980DA80CE0C1F
:10221000DF1CF401EE0DFF1D5490AB85BC8550967C
:102220008D919C918C159D05ECF08101EB85FC85D1
:1022300082899389801791077CF00190F081E02DCD
:1022400050FE63C00284F385E02D2B813C81A80100
:10225000B6018B859C8509950F5F1F4F56940A1513
:102260001B0521F73FEFE31AF30A45E0E416F104FA
:1022700061F66B817C816616770629F169817A8126
:102280006B5F7F4FAB85BC8550968D919C9151972C
:1022900086179707C4F052962D913C91C10106967E
:1022A00082179307ECF1221933092F5F3F4FAB855B
:1022B000BC85ED91FC9111970088F189E02D830197
:1022C000A101CD010995AB85BC85ED91FC911197DC
:1022D0000688F789E02DCD012C960FB6F894DEBF65
:1022E0000FBECDBFDF91CF911F910F91FF90EF9067
:1022F000DF90CF90BF90AF909F908F907F906F9026
:102300005F904F903F902F9009942B813C816216F3
:10231000730609F4A1CF0284F385E02D930197CFD2
:1023200028E030E0C4CFC980DA80512C412CFC0178
:10233000EA57FF4FFF83EE83AB85BC855C968C919B
:102340005C978C0D9D2D911D019750962D913C9180
:10235000281739070CF487C0EE81FF81E40DF51DC5
:10236000B491BD835101912C812CEB85FC85858D29
:1023700090E09C012A0D3B1D21503109428953896F
:10238000421753070CF45EC0248D30E0FD81F0FF4E
:10239000B7C0AB85BC855E964C915E97442309F42B
:1023A000AAC050E08C01041B150B241B350B889D23
:1023B000A001899D500D989D500D1124420D531D73
:1023C000EB81FC816E167F0609F490C07F01B60197
:1023D000CD010E94D10CAB85BC855D960C915D97BB
:1023E00010E05E962C915E9730E0089DA001099D5B
:1023F000500D189D500D1124420D531D5C966C918B
:102400005C976C0D7D2D711D621B730B7301CD01EB
:102410000E94D10CEB85FC85068D10E0248D30E008
:10242000201B310B658DC4010196689FA001699F37
:10243000500D1124420D531D401B510BB601CF010D
:102440000E94D10C5D8156955D83AB85BC855D9600
:102450008C91A80EB11CBFEF8B1A9B0AE8E08E1678
:10246000910409F082CFAB85BC855C968C91282FB6
:1024700030E0C20ED31EBFEF4B1A5B0AE5E04E16EA
:10248000510409F059CF4B815C816416750609F43B
:102490001ACF69817A8155E0859F600D711D1124E5
:1024A000C901860F971F0197AB85BC8550964D914A
:1024B0005C915197481759070CF405CF5D968C91A4
:1024C0005D9790E08C0143E0000F111F4A95E1F702
:1024D00052964D915C91F1013197DF01A00FB11F30
:1024E0004A175B07ACF4081B190BF7CF7301B60151
:1024F0008B859C85A5CFEB80FC808C01A501F7CF57
:102500004B815C816416750609F49CCF7301F5CF8D
:102510007301A1018B859C850E94D10CD4CE2C9691
:102520000FB6F894DEBF0FBECDBFDF91CF911F91E4
:102530000F91FF90EF90DF90CF90BF90AF909F9062
:102540008F907F906F905F904F903F902F90089565
:10255000DF92EF92FF920F931F93CF93DF93EC01E3
:10256000262F89A19AA1009709F47DC06A30D1F481
:102570002C853D853D8B2C8BFC013896E4912D8D6F
:102580008E899F89E29F800D911D11249F8B8E8BD8
:1025900081E090E0DF91CF911F910F91FF90EF903C
:1025A000DF9008956D30A1F3FC013496459154916C
:1025B000FC013696A591B49170E06417750740F35D
:1025C000A617B70728F3FC013296A591B491362FD0
:1025D000341B47E0349FA00DB11D1124FD0132963C
:1025E00044913296D49038A1332341F115963C9111
:1025F00050E0430F511D37FD5A953C8D349FB0017B
:10260000359F700D11244C895D89460F571F41502D
:102610005109688979896417750784F44E895F893F
:102620006C857D857D8B6C8B0896FC0184919D8DDE
:10263000899F400D511D11245F8B4E8BEA8CFB8CC2
:10264000088D198D4E895F896C897D89CE010E9424
:10265000120F2C8D8C899D89D29E800D911D112485
:102660009D8B8C8B95CF6A3071F48C859D859D8B6D
:102670008C8B8D8DF8E08F9F900111248E899F891E
:10268000820F931F83CF6D3009F482CF88A18823F6
:10269000E9F03C8D8C899D8946E0349F800D911D29
:1026A0001124019748895989481759077CF44E89A4
:1026B0005F898C859D859D8B8C8B8D8DE8E08E9FB1
:1026C000C0011124840F951F9F8B8E8BEA8CFB8C8D
:1026D000088D198D4E895F896C897D89CE010E9494
:1026E000120F2C8D8C899D89F6E02F9F800D911DF6
:1026F0001124B6CFAF92BF92CF92DF92EF92FF92AA
:102700000F931F93CF93DF936C015A01EB017B0171
:10271000E20EF31ECE15DF0544F49801A501BE01BB
:10272000C6010E94D20E2196F5CFDF91CF911F9165
:102730000F91FF90EF90DF90CF90BF90AF900895F2
:10274000AF92BF92CF92DF92EF92FF920F931F93BF
:10275000CF93DF936C015B01EA017A01E20EF31E75
:10276000CE15DF0544F49801AE01B501C6010E9403
:10277000D20E2196F5CFDF91CF911F910F91FF904F
:10278000EF90DF90CF90BF90AF90089508952F9273
:102790003F924F925F926F927F928F929F92AF92F1
:1027A000BF92CF92DF92EF92FF920F931F93CF933E
:1027B000DF9300D000D000D0CDB7DEB74C016B0165
:1027C0005E834D83590162177307A9F50417150736
:1027D00034F49D818E811E830D83092F182F2D8146
:1027E0003E81021B130B98012F5F3F4FD401ED91E7
:1027F000FC910088F189E02D87014D815E81B60151
:10280000C401099526960FB6F894DEBF0FBECDBF62
:10281000DF91CF911F910F91FF90EF90DF90CF90BC
:10282000BF90AF909F908F907F906F905F904F90F0
:102830003F902F9008952D813E812017310799F404
:10284000A616B70624F48D2D6501A62EB82E950187
:102850002C193D092F5F3F4FD401ED91FC91028867
:10286000F389E02DC9CF2D813E811801221A330A48
:102870002017310724F02D803E80201A310A2501CF
:102880004C185D08CA14DB041CF026014A185B08CA
:10289000421453045CF49A2D8B2D5801092F182FE4
:1028A0009C2D8D2DCD80DE809D838E83AC14BD0448
:1028B0005CF49D818E811E830D83092F182F9C2D22
:1028C0008D2D6501A92EB82EC5018C199D099A83FD
:1028D0008983AD81BE81A017B107ACF598012A1B91
:1028E0003B0B3C832B8369807A8075946794AD8120
:1028F000BE81A017B10774F10FEF1FEFAC14BD0438
:102900000CF480CF9701A6016D817E81421453049F
:102910001CF04D815E81B601C4010E94D20E2B8154
:102920003C81621A730A77FE0AC089819A81680E17
:10293000791EAD81BE81A00FB11FBE83AD83BFEFF5
:10294000CB1ADB0ADBCF8D819E81801B910B9C8390
:102950008B83C9CF01E010E0D1CF089590E080E0F3
:1029600008951F93CF93DF93EC01162FE881F9812F
:102970000280F381E02D0995E881F9810680F781D5
:10298000E02D612FCE010995E881F9810480F58160
:10299000E02DCE01DF91CF911F91099460E1FC0100
:1029A00084A595A50E94B11466E970E080E090E0EE
:1029B0000C94270561E1FC0184A595A50E94B11442
:1029C00066E970E080E090E00C942705FC0184A5A6
:1029D00095A527A5261303C060E20C94B11461E20B
:1029E000FCCFEF92FF920F931F93CF93DF93EC01F5
:1029F0008A017901E881F9810680F781E02D099546
:102A00000093B5031093B603E881F9810484F5853A
:102A1000E02D612FCE01099505EB13E0E881F981E6
:102A20000484F585E02DD8016C91CE010995E092E2
:102A3000B503F092B603E881F9810484F585E02DB1
:102A40006F2DCE010995E881F9810484F585E02D8B
:102A5000D8016C91CE01DF91CF911F910F91FF9022
:102A6000EF900994EF92FF920F931F93CF93DF9310
:102A7000EC017A018901E881F9810680F781E02D76
:102A80000995E881F9810684F785E02DB701CE012B
:102A90000995E881F9810684F785E02DB801CE011A
:102AA000DF91CF911F910F91FF90EF9009940F93B9
:102AB0001F93CF93DF93EC018A01E881F9810084B1
:102AC000F185E02D0995E881F9810684F785E02DEF
:102AD000B801CE01DF91CF911F910F9109940F930F
:102AE0001F93CF93DF93EC018A01E881F98106807F
:102AF000F781E02D0995E881F9810684F785E02DBD
:102B0000B801CE01DF91CF911F910F9109941F93CE
:102B1000CF93DF93EC01142FE881F9810680F781D0
:102B2000E02D0995E881F9810484F585E02D612F78
:102B3000CE01DF91CF911F9109942F923F924F9236
:102B40005F926F927F928F929F92AF92BF92CF923D
:102B5000DF92EF92FF920F931F93CF93DF935C016D
:102B60001B016A01F12CE12CD50114968D919C91E9
:102B700086010E191F098017910708F48C01F501D1
:102B8000D0810E9402052B013C0180916D048111CE
:102B900072C0C02F013208F0C0E2F1E0F0936D0482
:102BA00021E0C601801B910BE816F90608F420E02D
:102BB00020936C048FEF80936B0410926A048C0F47
:102BC00080936904A1E0A093480480914804DD0F3C
:102BD000D82BD093480480914704813009F090C0ED
:102BE000109247040E9402052B013C018091480489
:102BF0008093BB0080916F0490917004A091710448
:102C0000B0917204892B8A2B8B2BA1F00E940205B4
:102C100020916F04309170044091710450917204BE
:102C20006419750986099709261737074807590750
:102C300008F442C08091BC0083FDD8CFB5ECB093BE
:102C4000BC000E9402052B013C0180916D04813083
:102C500009F45AC080916A048C1710F4C0916A0478
:102C6000A9E4B4E0E7E2F4E080E08C1751F19D9133
:102C700091938F5FFACF80916F0490917004A0912F
:102C80007104B0917204892B8A2B8B2B09F47DCFB0
:102C90000E94020520916F043091700440917104EC
:102CA0005091720464197509860997092617370728
:102CB0004807590708F069CF80916E040E946107A8
:102CC000C0E010922604C0932504C017110609F035
:102CD00057C041018E0C9F1CE401CE01881999094F
:102CE0008017910798F5D50111968D919C91DC0183
:102CF000ED91FC910284F385E02D09958993EDCF48
:102D0000E5EEE093BC009DCF80916F04909170043C
:102D1000A0917104B0917204892B8A2B8B2B09F43A
:102D200094CF0E94020520916F043091700440916D
:102D30007104509172046419750986099709261760
:102D400037074807590708F080CFB6CFE00EF11ECD
:102D5000EC14FD0408F408CF81E0DF91CF911F91BE
:102D60000F91FF90EF90DF90CF90BF90AF909F902A
:102D70008F907F906F905F904F903F902F9008952D
:102D800080E0EBCFCF93DF9300D0CDB7DEB7998350
:102D90008A838091760590917705FC0124813581A5
:102DA00022303105B8F0208131E030937304209354
:102DB0009504109274041092960421E042E050E0D1
:102DC000BE016F5F7F4F0E9472080F900F90DF91DE
:102DD000CF91089580E0F9CF2F923F924F925F926A
:102DE0006F927F928F929F92AF92BF92CF92DF921B
:102DF000EF92FF920F931F93CF93DF93CDB7DEB780
:102E0000C254D1090FB6F894DEBF0FBECDBF9E8766
:102E10008D877EAF6DAF5A83498319012701380131
:102E200021969FAE8EAE21974217530724F0832D33
:102E30001A0129838A83A6019501C301B2010E9468
:102E4000D12D9B01AC015F772D833E834F83588743
:102E500020E030E044EB53E4C301B2010E94EF2EC6
:102E60002B013C0120E030E044EB53E4C601B50106
:102E70000E94EF2E6B017C0120E030E0A901C3012C
:102E8000B2010E94542C87FF0AC020E030E044EBDE
:102E900053E4C301B2010E94D22D2B013C0120E07A
:102EA00030E0A901C701B6010E94542C87FF0AC077
:102EB00020E030E044EB53E4C701B6010E94D22D7C
:102EC0006B017C0120E030E040E054E36D817E81C5
:102ED0008F8198850E94542C87FD18C0A701960108
:102EE000C301B2010E94D12D9F7727E137EB41ED5D
:102EF00058E30E94542C18164CF0C12CD12C84EBB2
:102F0000E82E83E4F82E412C512C3201AD85BE858C
:102F1000ED91FC9111970484F585E02DCD01099583
:102F200020E030E044EB52E4C301B2010E94542C93
:102F30008823F1F020E030E044E353E4C301B20120
:102F40000E94542C8823A1F020E030E047E853E4AD
:102F5000C301B2010E94542C882351F020E030E0DC
:102F600044EB53E4C301B2010E94542C81110AC006
:102F70002DEC3CEC4CEC5DE3C301B2010E94D12D81
:102F80002B013C0120E030E044EB52E4C701B601E4
:102F90000E94542C8823F1F020E030E044E353E415
:102FA000C701B6010E94542C8823A1F020E030E034
:102FB00047E853E4C701B6010E94542C882351F01E
:102FC00020E030E044EB53E4C701B6010E94542CEA
:102FD00081110AC02DEC3CEC4CEC5DE3C701B6015D
:102FE0000E94D12D6B017C0125E33AEF4EE85CE3B2
:102FF000C301B2010E94BA2C4B015C010E943E2E1B
:103000006D837E838F83988725E33AEF4EE85CE3F8
:10301000C701B6010E94BA2C6F87788B898B9A8B77
:103020000E943E2E69877A878B879C87C501B401F1
:103030000E948A2F9B01AC016D817E818F819885D2
:103040000E94432E6CA37DA38EA39FA36F857889D6
:1030500089899A890E948A2F9B01AC0169857A85AA
:103060008B859C850E94432E68A779A78AA79BA77A
:103070002D813E814F81588560E070E080E09FE3C4
:103080000E94432E6CA77DA78EA79FA729853A850E
:103090004B855C8560E070E080E09FEB0E94432EF2
:1030A00068AB79AB8AAB9BAB29813A81215031095E
:1030B00049815A81249FC001259F900D349F900D16
:1030C00011249C01990F440B550B2B8B3C8B4D8B82
:1030D0005E8B81010F5F1F4F029DC001039D900D0C
:1030E000129D900D11249C01990F440B550B2F87B5
:1030F000388B498B5A8B20E030E044E353E4C30122
:10310000B2010E94542C881F8827881F91E08927CC
:103110008CAB20E030E044E353E4C701B6010E94E9
:10312000542C881F8827881F8BA3882499248218F1
:103130009308092C000CAA08BB08C101330CAA0B88
:10314000BB0B8F8F98A3A9A3BAA39801110F440BAF
:10315000550B2D833E834F83588720E030E044E3B6
:1031600053E4C301B2010E94D22D9B01AC01C701FF
:10317000B6010E94852F18160CF4DFC0A701960136
:10318000C301B2010E94852F181684F420E030E0BC
:1031900044E353E4C701B6010E94D22D9B01AC0168
:1031A000C301B2010E94542C87FDC7C020E030E06B
:1031B00047E853E4C701B6010E94852F87FF0AC084
:1031C00020E030E044EB52E4C701B6010E94542CE9
:1031D00087FF14C020E030E047E853E4C301B201A8
:1031E0000E94852F87FF96C020E030E044EB52E438
:1031F000C301B2010E94542C87FD8CC020E030E056
:1032000047E853E4C701B6010E94542C87FF87C0EA
:1032100020E030E044EB52E4C701B6010E94852F64
:1032200087FD7DC020E030E047E853E4C301B201F0
:103230000E94542C87FF73C020E030E044EB52E43E
:10324000C301B2010E94852F89829A82AB82BC821F
:1032500087FF6AC020E030E044E353E4C701B601D1
:103260000E94852F87FD0AC020E030E044E353E44C
:10327000C301B2010E94852F87FF66C020E030E0C5
:1032800044E353E4C701B6010E94542C312C87FF5C
:103290000BC020E030E044E353E4C301B2010E94DC
:1032A000542C312C87FD56C0A5019401C501B401F1
:1032B0000E94D22F6F8B788F898F9A8F29813A81C4
:1032C0004B815C81412C512C320121153105410586
:1032D000510509F457C029013A01A3019201C30124
:1032E000B2010E94D22F2F89388D498D5A8D620FDD
:1032F000731F841F951F2F85388949895A89621742
:1033000073078407950754F13FEF431A530A630A82
:10331000730AE3CF19821A821B821C829BCF898297
:103320009A82AB82BC8296CF81E090E0A0E0B0E0D0
:103330008D839E83AF83B8878DCF89829A82AB823B
:10334000BC8233243394B0CF312C1F8E18A219A223
:103350001AA2AACF812C912C5401A6CF8D819E81D7
:10336000AF81B8850197A105B10561F021E030E09A
:1033700040E050E024193509460957092D833E8362
:103380004F835887C501B4010E945B2C6B017C01FF
:10339000AC019B016CA57DA58EA59FA50E94D22D99
:1033A0002CA13DA14EA15FA10E94BA2C6DAB7EABBA
:1033B0008FAB98AFA701960168A979A98AA99BA9A3
:1033C0000E94D22D28A539A54AA55BA50E94BA2C3A
:1033D00069AF7AAF8BAF9CAFC12CD12C7601A40121
:1033E00043565F4F23965FAF4EAF2397A3019201E1
:1033F000C301B2010E94D22F2F89388D498D5A8D79
:10340000260F371F481F591F29873A874B875C872C
:103410008B899C89AD89BE89281739074A075B07C4
:103420004CF1C301B2010E945B2C6B8F7C8F8D8F9E
:103430009E8F11E09B01AC0169AD7AAD8BAD9CAD67
:103440000E94852F87FD10E001E02B8D3C8D4D8D76
:103450005E8D6DA97EA98FA998AD0E94852F87FDED
:1034600000E09CA9901709F448C0ABA1A1134CC07F
:1034700031104AC0C114D104E104F104C9F06DADAA
:103480007EAD640D751D6C197D09AD85BE85ED9110
:10349000FC9111970288F389E02D21960EAD1FADA6
:1034A0002197960123964EAD5FAD2397CD010995E7
:1034B0002F85388949895A8989859A85AB85BC8544
:1034C00082179307A407B5070CF04AC077FE11C016
:1034D0002B893C894D895E8982179307A407B5071C
:1034E00044F47094609450944094411C511C611CAD
:1034F000711CC12CD12C760124C0332009F4BACF21
:10350000BBA1B11709F4B6CF2D813E814F815885FB
:10351000421653066406750609F4ACCF8F85988968
:10352000A989BA8929853A854B855C852817390789
:103530004A075B070CF046C03FEFC31AD30AE30A01
:10354000F30A3FEF431A530A630A730A8D819E817F
:10355000AF81B88584159505A605B7050CF046CF53
:103560009FEF891A990AA90AB90A2F8D38A149A192
:103570005AA1281539054A055B050CF095CEAD8595
:10358000BE85ED91FC9111970688F789E02DCD015C
:10359000CE5BDF4F0FB6F894DEBF0FBECDBFDF911D
:1035A000CF911F910F91FF90EF90DF90CF90BF9040
:1035B000AF909F908F907F906F905F904F903F90D3
:1035C0002F900994C114D104E104F10449F257CFBA
:1035D0000E942332FB0101900020E9F73197AF01EF
:1035E000461B570BDC01ED91FC910280F381E02D2D
:1035F00009948F929F92AF92BF92EF92FF920F9396
:103600001F93CF93DF93CDB7DEB7A1970FB6F89492
:10361000DEBF0FBECDBF7C01FA01CB0119A2223063
:1036200008F42AE08E010F5D1F4F822E912CB12CE1
:10363000A12CBF01A50194010E94F62FF901CA0136
:103640006A300CF5605DD8016E938D01232B242B1D
:10365000252B79F790E080E0109721F0BD01C7019C
:103660000E94EA1AA1960FB6F894DEBF0FBECDBF36
:10367000DF91CF911F910F91FF90EF90BF90AF908E
:103680009F908F900895695CDECF462F50E070E0E8
:1036900060E02AE00C94F91ACF92DF92EF92FF9249
:1036A0000F931F93CF93DF936B01770FEE08FF0803
:1036B000F7FE1BC0EC016DE20E9471038C014427F0
:1036C0005527BA014C195D096E097F092AE0CE0120
:1036D0000E94F91A800F911FDF91CF911F910F91D6
:1036E000FF90EF90DF90CF9008952AE0B701A601F8
:1036F000DF91CF911F910F91FF90EF90DF90CF90CE
:103700000C94F91A2F923F924F925F926F927F9290
:103710008F929F92AF92BF92CF92DF92EF92FF92E1
:103720001F93CF93DF93EC016A017B01722EAB01F3
:103730009601CB01B6010E94922F6BEC71E08111D2
:1037400026C046015701E894B7F82FEF3FEF4FE747
:103750005FE7C501B4010E94922F81110CC02FEFC9
:103760003FEF4FE75FE7C501B4010E94542C6FECB7
:1037700071E0181664F02FEF3FEF4FE75FE4C701E9
:10378000B6010E94852F1816B4F463ED71E0CE01E6
:10379000DF91CF911F91FF90EF90DF90CF90BF907E
:1037A000AF909F908F907F906F905F904F903F90E1
:1037B0002F900C94EA1A2FEF3FEF4FE75FECC70111
:1037C000B6010E94542C87FDE0CF20E030E0A90133
:1037D000C701B6010E94542C312C212C87FF09C04F
:1037E0006DE2CE010E9471031C01F7FAF094F7F824
:1037F000F09410E060E070E080E09FE3711641F02B
:1038000020E030E040E251E40E94432E1F5FF6CFFB
:10381000A70196010E94D22D2B013C010E94B52EDA
:103820004B015C012AE0BC01A401CE010E94F91AFF
:103830007C01E20CF31C1123C1F1C501B4010E940B
:10384000592C9B01AC01C301B2010E94D12D4B0147
:103850005C016EE2CE010E947103E80EF91E115068
:1038600020F120E030E040E251E4C501B4010E94C3
:10387000BA2C2B013C010E94B52E4B01B12CA12C7E
:103880002AE0B501A401CE010E94F91AE80EF91E42
:10389000C501B4010E94592C9B01AC01C301B201C6
:1038A0000E94D12D4B015C01DACFC701DF91CF918E
:1038B0001F91FF90EF90DF90CF90BF90AF909F90BF
:1038C0008F907F906F905F904F903F902F900895D2
:1038D0000C94EA1A0F931F93CF93DF93C82FD62F20
:1038E00084E1C89F80011124085D1F4F80917805F5
:1038F0009091790524E130E0FC01358B248B178B06
:10390000068B138E128E118E108EC33009F446C0B2
:1039100040F5C13079F1C230D1F1809178059091B4
:10392000790520EE3FEFD11102C02FEF3FEFFC01F0
:10393000338F228F318F208F24E130E0358B248B21
:10394000178B068BC33009F45AC0B0F5C13009F4A7
:103950003FC0C23009F44CC0DF91CF911F910F914D
:103960000895C43011F1C530C1F66FEF71E00E94C7
:10397000681CD3CF67ED71E00E94681C6091090458
:1039800080917805909179050E94451BC6CF61EE24
:1039900071E00E94681C60910804F2CF6BEE71E048
:1039A0000E94681C60910704EBCF65EF71E00E94F4
:1039B000681C60910604E4CFC43041F1C53061F663
:1039C0006FEF71E0DF91CF911F910F910C94681C04
:1039D00067ED71E00E94681C609109048091780590
:1039E00090917905DF91CF911F910F910C94451B18
:1039F00061EE71E00E94681C60910804EFCF6BEEED
:103A000071E00E94681C60910704E8CF65EF71E0E7
:103A10000E94681C60910604E1CF0F931F93CF931F
:103A2000DF93C82FD62F84E1C89F80011124085D41
:103A30001F4F809178059091790524E130E0FC01D9
:103A4000358B248B178B068B138E128E118E108E56
:103A5000C330B9F148F5C13089F16EE172E0C2308E
:103A600051F1809178059091790520EE3FEFD111C9
:103A700002C02FEF3FEFFC01338F228F318F208F59
:103A800024E130E0358B248B178B068BC33009F48F
:103A900064C000F5C13069F1C23009F44CC0DF9157
:103AA000CF911F910F910895C53089F068F06FEFA5
:103AB00071E0C630B1F60E94681CD3CF64E072E0BA
:103AC000FACF66E372E0F7CF6DE472E0F4CF64E61C
:103AD00072E0F1CFC53009F455C008F450C06FEF63
:103AE00071E0C630E1F6DF91CF911F910F910C94F8
:103AF000681C6FE672E00E94681C809178059091C6
:103B000079052FEF3FEFFC01338F228F318F208F0C
:103B10006AE472E00E94681C6DE672E080917805AC
:103B2000909179050E94681C6AE472E080917805A2
:103B300090917905D8CF64E872E00E94681C80916A
:103B40007805909179052FEF3FEFFC01338F228F9D
:103B5000318F208F62E372E0C6CF69E972E00E9484
:103B6000681C80917805909179052FEF3FEFFC015B
:103B7000338F228F318F208F6AE472E0B4CF6EEAE8
:103B800072E0EDCF64E672E0AECF0F931F93CF9358
:103B9000DF93EC0188819981009759F02A813B815C
:103BA0002617370730F081E0DF91CF911F910F91F9
:103BB00008958B016F5F7F4F0E946631009759F027
:103BC000998388831B830A832C813D81232B59F79A
:103BD000FC011082E8CF80E0E7CFEF92FF920F93D5
:103BE0001F93CF93DF93EC017B01FB010190002039
:103BF000E9F731978F01061B170BB8010E94C51D0D
:103C000028813981811113C02115310519F0C901AD
:103C10000E94DD30198218821D821C821B821A824A
:103C2000DF91CF911F910F91FF90EF9008951D8329
:103C30000C83B701C901DF91CF911F910F91FF90C4
:103C4000EF900C943A3285ED8093BC0080916F0424
:103C500090917004A0917104B09172040796A11D17
:103C6000B11D23E0B695A795979587952A95D1F72D
:103C70002091BC0024FD03C010926D040895409172
:103C80006F04509170046091710470917204452B1F
:103C9000462B472B69F30097A105B10541F02AE2B5
:103CA0002A95F1F700C00197A109B109E1CF8091F0
:103CB0006E040C9461074F925F926F927F928F9285
:103CC0009F92AF92BF92CF92DF92EF92FF920F93AB
:103CD0001F93CF93DF936C01DC019E968C9161E082
:103CE0008F3F09F454C00E94D10461E0E6018EA523
:103CF0000E94850464E670E080E090E00E94270561
:103D000060E08EA50E94850466E970E080E090E0A6
:103D10000E94270561E08EA50E94850466E970E097
:103D200080E090E00E942705D6019C960D911C91A1
:103D3000F601EF5BFF4F408051803297E080F180C9
:103D4000D0E0C0E023ECA22E22E0B22EC415D505AF
:103D500008F0D0C0F701EC0FFD1FE0814E01BFEF6E
:103D60008B1A9B0AED3008F0A7C0F0E0E654F14E44
:103D70000C941830081F131FED1E181FDF1E6B1F39
:103D8000321FCD1E111F371F151F4A1F511FF6016D
:103D900084A595A50E94B114C1CF80E077247394C7
:103DA000780ED701A80DB91DE801E881F9810680D8
:103DB000F781E02D6C91C8010995E40102C07724D8
:103DC0007394219647018C0E9D1E672C6A94FFEF19
:103DD0006F1284C0C70DD11DB9CF712CF701E80D4A
:103DE000F91D80818093B6032296F701EC0FFD1F29
:103DF00080818093B5036091B5037091B603D801BB
:103E0000ED91FC910084F185E02DC8010995D9CF91
:103E1000D801ED91FC910280F381E02DC801099554
:103E20001FC081E0BBCF712CBCCF92E0792ED6CFE2
:103E3000F701E80DF91D7080272D30E050E040E0DB
:103E4000BE016E5F7F4F6E0D7F1DE801E881F98135
:103E50000284F385E02DC8010995E401C70DD11D49
:103E6000712CAFCFF701E80DF91D7080A6CFD701F7
:103E7000A80DB91DF80180819181FC01268137814F
:103E80006C91C801F90109952296F701EC0FFD1F0D
:103E9000708097CFD801ED91FC910480F581E02DE1
:103EA000BDCFF701E80DF91D608170E090E080E082
:103EB0000E942705E401D4CF1F92EF93DF93CF93A5
:103EC000BF92AF920E9441320F900F900F900F90CF
:103ED0000F900F90C5CF82E0782E73CFD4016D91F3
:103EE0004D01D801ED91FC910484F585E02DC801C8
:103EF00009956CCFE601E881F981028CF38DE02D04
:103F000060E0C601DF91CF911F910F91FF90EF907C
:103F1000DF90CF90BF90AF909F908F907F906F90E9
:103F20005F904F9009940F931F93CF93DF93EC0111
:103F30004F3F8FEF58076807780721F440E052E1C0
:103F40006AE770E04A835B836C837D832E8361E044
:103F50008F810E94D10461E08F810E948504888551
:103F60008F3F39F061E00E94D10461E088850E94B2
:103F700085048F81082E000C990BFC01E453FA4F45
:103F8000E491F0E0EE0FFF1FE057FA4F25913491D6
:103F90003F872E87FC01E255FA4FE491EA8BE095CA
:103FA000EB8B88858F3FA9F0082E000C990BFC0144
:103FB000E453FA4FE491F0E0EE0FFF1FE057FA4FA1
:103FC000259134913D872C87FC01E255FA4FE4910D
:103FD000E88B88898095898B1FB7F8948091B2030C
:103FE000811127C0E6EDF5E08491E8EBF5E09491CE
:103FF000E82FF0E0EE0FFF1FEA57FA4FA591B491BA
:10400000EC91E92321F461E08AE00E94850461E0FB
:104010008AE00E94D1048CB580618CBD8CB580642F
:104020008CBD61E08DE00E94D10461E08BE00E94D4
:10403000D1048091B2038F5F8093B2031FBF8E8142
:104040008F3F11F488E08E839E810A811B812C8131
:104050003D8140E052E16AE770E080E00417150717
:104060002607370740F476956795579547958F5FF4
:104070008630A1F787E09C709065282F2695922BBB
:1040800090933405809581708093350581E0DF91B0
:10409000CF911F910F9108950C94782D1F920F923C
:1040A0000FB60F9211242F933F934F935F936F930B
:1040B0007F938F939F93AF93BF93EF93FF9387E982
:1040C00094E00E94F603FF91EF91BF91AF919F9111
:1040D0008F917F916F915F914F913F912F910F90B1
:1040E0000FBE0F901F9018951F920F920FB60F9250
:1040F00011242F938F939F93EF93FF93E091A70445
:10410000F091A8048081E091AD04F091AE0482FDAD
:104110001BC090818091B0048F5F8F732091B10498
:10412000821741F0E091B004F0E0E956FB4F958F23
:104130008093B004FF91EF919F918F912F910F90F9
:104140000FBE0F901F9018958081F4CF1F920F9291
:104150000FB60F9211242F933F938F939F93AF939A
:10416000BF938091FC039091FD03A091FE03B09159
:10417000FF033091FB0323E0230F2D3758F5019601
:10418000A11DB11D2093FB038093FC039093FD03BD
:10419000A093FE03B093FF0380910004909101046B
:1041A000A0910204B09103040196A11DB11D80935A
:1041B000000490930104A0930204B0930304BF9100
:1041C000AF919F918F913F912F910F900FBE0F90C4
:1041D0001F90189526E8230F0296A11DB11DD2CF7E
:1041E0001F920F920FB60F9211242F933F934F936C
:1041F0005F936F937F938F939F93AF93BF93EF934F
:10420000FF938091B900887F803609F44AC0F0F5A9
:10421000883209F4A7C018F5803109F49BC0B8F4BE
:10422000882309F4F9C0883009F494C0FF91EF9114
:10423000BF91AF919F918F917F916F915F914F91BE
:104240003F912F910F900FBE0F901F9018958831BE
:1042500009F488C0803251F780936B0414C0803415
:1042600009F49DC040F48033B9F38833F9F68093A4
:104270006B0485ECB0C0803509F485C0883509F43D
:1042800096C0883499F60E94231ED0CF883909F44D
:104290008CC038F5883729F050F4883611F0803713
:1042A00029F683E080936D041092FA0357C0883892
:1042B00009F47BC0803919F0803809F0B7CF8091BC
:1042C000FA03803208F071C0E091FA0381E08E0FAA
:1042D0008093FA038091BB00F0E0E652FC4F8083AC
:1042E0003DC0803B39F0E0F4803A09F479C0883A67
:1042F00009F09CCF84E080936D041092D903109252
:10430000D803E0912304F091240409958091D80307
:1043100081110FC081E08093D8031092B80309C0C7
:10432000803C09F4A6CF883C09F4A3CF883B09F070
:104330007DCFE091D90381E08E0F8093D903F0E027
:10434000E854FC4F80818093BB009091D903809109
:10435000D80329C0809148048093BB0085EC8093EA
:10436000BC0064CF90916A0480916904981758F555
:10437000E0916A0481E08E0F80936A04F0E0E75BCD
:10438000FB4F8081E9CFE0916A0481E08E0F80933A
:104390006A048091BB00F0E0E75BFB4F8083909163
:1043A0006A04809169049817C8F285E8D8CFE09133
:1043B0006A0481E08E0F80936A048091BB00F0E074
:1043C000E75BFB4F808380916C0481115CCF81E0BF
:1043D0008093470484EA8093BC0010926D0426CF3A
:1043E00085EC8093BC0010926D048091FA038032BA
:1043F00030F4E091FA03F0E0E652FC4F1082609155
:10440000FA0370E0E0912104F09122048AED93E038
:1044100009951092FA030ACF10926B0434CFEF92F1
:10442000FF920F931F93CF93DF93EC017B011982CF
:1044300018821B821A821D821C82FB0101900020BF
:10444000E9F731978F01061B170BB8010E94C51DB4
:1044500028813981811113C02115310519F0C90155
:104460000E94DD30198218821D821C821B821A82F2
:10447000DF91CF911F910F91FF90EF9008951D83D1
:104480000C83B701C901DF91CF911F910F91FF906C
:10449000EF900C943A321F93CF93DF9310929A04CB
:1044A0001092990488EE93E0A0E0B0E080939B0422
:1044B00090939C04A0939D04B0939E0421E131E06D
:1044C000309398042093970425EC30E03093A404B3
:1044D0002093A30424EC30E03093A6042093A50499
:1044E00020EC30E03093A8042093A70421EC30E0C6
:1044F0003093AA042093A90422EC30E03093AC045A
:104500002093AB0426EC30E03093AE042093AD044E
:104510001092B0041092B1041092B2041092B3043D
:10452000109263051092620580936405909365056F
:10453000A0936605B093670583E291E090936105CF
:104540008093600580E5809334051092350584E101
:1045500090E00E944130EC0183E691E099838883EA
:1045600088E08F8389E0888786E395E09A8789874A
:1045700011E01B87D0937B05C0937A0583E490E01C
:104580000E944130FC011382128220EF30E034A3FC
:1045900023A380E491E096A385A317A23583248307
:1045A000978386832FEE30E0318720878FE391E079
:1045B000938782871586148617861686318B208B03
:1045C000938B828B158A148A178A168A8FEF9FEF36
:1045D000918F808F938F828F148F158F168E178EE9
:1045E00010A312A211A2D5A7C4A787E086A717A679
:1045F00010AA11AA12AA13AA8FEF86AF85E391E041
:1046000091838083DF01DF9683E891E011969C938C
:104610008E93129688E490E08D939C93F0937905A5
:10462000E0937805109277051092760580E695E084
:10463000909375058093740580E090E0A0ECBFE74F
:1046400080936C0590936D05A0936E05B0936F05F4
:104650008093700590937105A0937205B0937305D4
:1046600082E3809346051092470510924805109208
:10467000490510924A0510924B0510924C05109274
:104680004D0510924E0510924F0510925005109254
:104690005405109255051092560582E080935105FD
:1046A00083E08093520584E0809353058091440514
:1046B0008061877F80934405EEECF5E0E491F0E0C3
:1046C000EE0FFF1FEE53FA4F85919491909358058A
:1046D00080935705E0EBF5E0E491E0935905EFECAA
:1046E000F5E0E491F0E0EE0FFF1FEE53FA4F8591F5
:1046F000949190935B0580935A05E1EBF5E0E4918A
:10470000E0935C05E0EDF5E0E491F0E0EE0FFF1FD3
:10471000EE53FA4F8591949190935E0580935D05D9
:10472000E2EBF5E0E491E0935F0562E082E00E9455
:10473000D10462E0809152050E94D1048091440529
:1047400084FF05C062E0809153050E94D1048091EE
:104750004505816080934505E0915705F091580526
:10476000908180915905982381E009F480E0E091DF
:104770005A05F0915B05908120915C05922309F028
:1047800092E0892B8093470563EE72E08DE395E01C
:104790000E940F2268EE72E087E395E0DF91CF91EF
:1047A0001F910C940F22CF93DF93CDB7DEB72D97D7
:1047B0000FB6F894DEBF0FBECDBF789484B582608B
:1047C00084BD84B5816084BD85B5826085BD85B5B5
:1047D000816085BD80916E00816080936E00109233
:1047E00081008091810082608093810080918100AE
:1047F000816080938100809180008160809380003F
:104800008091B10084608093B1008091B00081609C
:104810008093B00080917A00846080937A008091C8
:104820007A00826080937A0080917A008160809320
:104830007A0080917A00806880937A001092C1009B
:10484000E091A704F091A80482E08083E091A304A2
:10485000F091A4041082E091A504F091A6048FECDD
:1048600080831092AF04E091AB04F091AC0486E039
:104870008083E091A904F091AA0480818061808303
:10488000E091A904F091AA04808188608083E0917E
:10489000A904F091AA04808180688083E091A90432
:1048A000F091AA0480818F7D80838091780590911A
:1048B0007905DC01ED91FC910084F185E02D4FEF4D
:1048C0005FEFBA0109958091780590917905DC0137
:1048D000ED91FC91008CF18DE02D63E009950E9433
:1048E0004A078091760590917705009711F00E9414
:1048F000DD3086E090E00E9441308C0180917405AB
:104900009091750524E4F8012083928381831382BA
:1049100080E290E095838483109377050093760579
:104920000E944A0781E0D80113968C93C8010E9427
:1049300090088823C9F082EA90E30E94C2166AE0D8
:1049400070E080E090E00E9427058DE293EF0E94E6
:10495000C21643E050E0BE016F5F7F4F8091760545
:10496000909177050E949D1561E085E00E94D10439
:1049700061E085E00E948504809144058860809311
:10498000440590E080E00E944C2062EF72E08F3698
:1049900041F063EE72E0813621F0863631F465EF46
:1049A00072E08DE395E00E94ED1D81E090E00E94B1
:1049B0004C20682F80ED860F8A3080F46053770B8F
:1049C000072E000C880B990B0E945B2C60930A0445
:1049D00070930B0480930C0490930D0482E090E09C
:1049E0000E944C2090ED980F9A3040F4082E000C55
:1049F000990BC097909301018093000183E090E0B0
:104A00000E944C208093090484E090E00E944C2096
:104A10008093080485E090E00E944C208093070476
:104A200086E090E00E944C208093060480917805F7
:104A3000909179050E944A0DE0917805F0917905F1
:104A4000168E77247394748E758E80EE97E0938F14
:104A5000828F918F808F0AE010E0158B048B84E1A8
:104A600090E0978B868B69EF72E0CF010E94681C03
:104A700068EE73E080E090E00E9427058091780561
:104A800090917905FC01158B048B28E230E0378B7F
:104A9000268B69E073E00E94681C1982009104046F
:104AA00010910504D80114968D919C911597892B2E
:104AB000E1F08C91709273048093950410927404C9
:104AC0001092960420E041E050E0BE016F5F7F4FFE
:104AD000C8010E947208882341F047E050E0BE01FF
:104AE0006F5F7F4FC8010E949D152A81822F90E041
:104AF00064E0959587956A95E1F7982F990F990F3E
:104B0000782E791A770C720E2B81822F90E074E048
:104B1000959587957A95E1F7982F990F990F682FBA
:104B2000691B660F620F80917805909179050E944C
:104B3000451B6DE672E080917805909179050E94A1
:104B4000681C672D80917805909179050E94451B1E
:104B500068EE73E080E090E00E9427058091780580
:104B6000909179052AE030E0FC01358B248B2CE311
:104B700030E0378B268B60E173E00E94681C009167
:104B800078051091790580E094E20E94C21688238E
:104B900009F487C164E170E080E090E00E9427059D
:104BA00046E050E0BE016F5F7F4F809176059091A7
:104BB00077050E949D15882309F473C17B80CE017F
:104BC00001960E941C0378126CC17E80CE0104966F
:104BD0000E941C03781265C129813A81322723275C
:104BE0003227A7E1B1E10E94C22D4EE0959587954D
:104BF000779567954A95D1F7645971418109910973
:104C00000E945B2C20E030E048EC52E40E94432EEE
:104C10002B013C0140927005509271056092720523
:104C2000709273052C813D81322723273227A1E71B
:104C3000B2E00E94C22D5CE09695879577956795C6
:104C40005A95D1F70E94592C20E030E048EC52E40C
:104C50000E94432E60936C0570936D0580936E05E2
:104C600090936F0522E0B301A201C8010E94821B4C
:104C700068EE73E080E090E00E942705809178055F
:104C8000909179050AE010E0DC0155961C930E9393
:104C9000549720E530E057963C932E9356976EE15B
:104CA00073E00E94681C40910A0450910B046091CB
:104CB0000C0470910D0422E08091780590917905A3
:104CC0000E94821B68EE73E080E090E00E9427055E
:104CD0008091780590917905FC01158B048B24E671
:104CE00030E0378B268B62E373E00E94681C609192
:104CF00000017091010180917805909179050E94E1
:104D00004C1B68EE73E080E090E00E9427058091E4
:104D1000780590917905DC0155961C930E93549774
:104D200028E730E057963C932E93569768E473E05B
:104D30000E94681C8091780590917905FC01158B83
:104D4000048B2CE830E0378B268B6AE573E00E94F9
:104D5000681C6091090480917805909179050E9402
:104D6000451B8091780590917905DC0155961C933F
:104D70000E93549720EA30E057963C932E93569723
:104D80006DE573E00E94681C6091080480917805CD
:104D9000909179050E94451B809178059091790545
:104DA000FC01158B048B24EB30E0378B268B60E6FF
:104DB00073E00E94681C60910704809178059091CF
:104DC00079050E94451B8091780590917905DC0159
:104DD00055961C930E93549728EC30E057963C93CD
:104DE0002E93569763E673E00E94681C6091060458
:104DF00080917805909179050E94451B68E873E1E0
:104E000080E090E00E9427058091780590917905D7
:104E10000E944A0D66246A94762C552453949DEA88
:104E2000292E312C0E94660580913B0590913C050E
:104E3000892B09F42BC3009137051091380568EED2
:104E400072E0C8010E943132892B09F02CC3809195
:104E5000440582FD0E946605E0917805F091790590
:104E60008091430580FF24C087FF22C08F77809305
:104E70004305CF010E944A0D66E673E087E395E0A3
:104E80000E94ED1D1092200410921F040E945A05EA
:104E900060931B0470931C0480931D0490931E0464
:104EA000F5C2412C512C30EC632E3FE7732EDACE45
:104EB00080912004811104C2738E628E718E608E87
:104EC000168E82E0482E448E458E86E390E0958BC8
:104ED000848B83E090E0978B868B6FE673E0CF0145
:104EE0000E94681C80917805909179052AE030E055
:104EF000FC01358B248B29E130E0378B268B62E86F
:104F000073E00E94681C90E1892E94E8992EA12CF0
:104F1000B12C27E8C22E23E4D22EE12CF12C04E39D
:104F200013E42CE430E048E550E064E670E0809162
:104F30007805909179050E94EC16812C48EF942E0B
:104F4000A12CB12C5AE4C52E53E4D52E21E430E037
:104F50004BE450E064E670E080917805909179052B
:104F60000E94EC1660EE862E99249A94A12CB12C06
:104F700070E6C72E73E4D72EE12CF12C0CE413E479
:104F800021E430E04BE450E064E670E08091780585
:104F9000909179050E94EC16F0EE8F2EF7E09F2E8F
:104FA000A12CB12CA6E7CA2EA3E4DA2EE12CF12C19
:104FB00002E613E421E430E04BE450E064E670E004
:104FC00080917805909179050E94EC161FE1812E61
:104FD000912CA12CB12C07E8C02E03E4D02EE12C9B
:104FE000F12C08E713E421E430E04BE450E064E600
:104FF00070E080917805909179050E94EC16E0911F
:105000007805F0917905738E628E718E608E168EA2
:10501000548E558E82E190E0958B848B88E990E0E8
:10502000978B868B70E060E0CF010E944C1B8091D3
:1050300078059091790524E230E0DC0155963C93A7
:105040002E93549721E630E057963C932E93569733
:1050500062E370E00E944C1B809178059091790585
:1050600029E530E0FC01358B248B29E430E0378BD7
:10507000268B64E670E00E944C1BE0917805F0916D
:10508000790580E590E0958B848B378A268A168E89
:10509000448E458E69E873E0CF010E94681C90E160
:1050A000892E94E8992EA12CB12C24EBC22E23E456
:1050B000D22EE12CF12C04E313E42AE530E046E69D
:1050C00050E06DEC70E080917805909179050E9438
:1050D000EC164FE1842E912CA12CB12C50E6C52E5C
:1050E00053E4D52E2FE430E049E550E06DEC70E05C
:1050F00080917805909179050E94EC1660EE862EDD
:1051000067E0962EA12C70E8B72E76E8C72E73E4E0
:10511000D72EE12CF12C02E613E42FE430E049E530
:1051200050E06DEC70E080917805909179050E94D7
:10513000EC16F0EE8F2E99249A94A12CB12CADE9A7
:10514000CA2EA3E4DA2EE12C10E8F12E07E813E4CE
:105150002FE430E049E550E06DEC70E08091780597
:10516000909179050E94EC16812C18EF912EA12CBC
:10517000B12C04EBC02E03E4D02EE12CF12C0EE96F
:1051800013E42FE430E049E550E06DEC70E08091ED
:105190007805909179050E94EC16E0917805F091E0
:1051A0007905738E628E718E608E168E548E558E3A
:1051B0008CE690E0958B848B28E930E0378B268B4A
:1051C00070E060E0CF010E944C1B809178059091C7
:1051D000790522E830E0DC0155963C932E935497F4
:1051E00027E530E057963C932E9356976EE170E09A
:1051F0000E944C1B809178059091790527EC30E056
:10520000FC01358B248B2BE330E0378B268B6CE352
:1052100070E00E944C1B80917805909179052DE0FB
:1052200031E0DC0155963C932E935497E5E5F0E090
:105230005796FC93EE9356976AE570E00E944C1BDC
:1052400080917805909179052FE131E0DC01559648
:105250003C932E935497E8E9F0E05796FC93EE9335
:10526000569768E770E00E944C1BE0917805F0913A
:105270007905738E628E718E608E168E448E458E89
:105280008DED90E0958B848B378A268A68EFCF016D
:105290000E947103809178059091790529EE30E0A4
:1052A000DC0155963C932E93549757963C922E9240
:1052B00056976CE873E00E94681CB1E0B09320043C
:1052C00080917805909179052FE030E0FC01358BD5
:1052D000248BA2E3B0E0B78BA68B68E172E00E945A
:1052E000681C40E850E06DEC70E08091780590918A
:1052F00079050E943C0345E250E064E670E080914D
:105300007805909179050E943C03E0917805F09131
:105310007905738E628E718E608E168E12E0148FF8
:10532000158F28E230E0358B248B378A268A62E39A
:1053300072E0CF010E94681CE0917805F091790538
:10534000738E628E718E608E168E148F158F89EB20
:1053500090E0958B848B378A268A62E372E0CF01D6
:105360000E94681C60E970E0809178059091790551
:105370000E94760DE0917805F0917905168E148FD4
:10538000158F738E628E718E608E8BE890E0958B98
:10539000848B378A268A6EE873E0CF010E94681CEE
:1053A0006EE071E080917805909179050E94760D0C
:1053B000E0917805F0917905168E148F158F738E14
:1053C000628E718E608E8AE091E0958B848B378A35
:1053D000268A67EF72E0CF010E94681CE091780591
:1053E000F0917905738E628E718E608EA8E2B0E0C6
:1053F000B58BA48B02ED10E0178B068B62EF72E089
:10540000CF010E94681CE0917805F0917905738EB8
:10541000628E718E608E8CE890E0958B848B178BFA
:10542000068B63EE72E0CF010E94681CE091780564
:10543000F0917905738E628E718E608E80EF90E0B0
:10544000958B848B178B068B65EF72E0CF010E94E2
:10545000681C0E945A0500911704109118042091AD
:10546000190430911A04601B710B820B930B623389
:1054700071058105910550F00E945A05609317044B
:10548000709318048093190490931A0480E090E0BC
:10549000892B09F4C7CC0E94E203882309F4BDCC10
:1054A0000E940000BACC66E673E0C8010E94313267
:1054B000892B09F0FFC00E945A0500911B0410912E
:1054C0001C0420911D0430911E04601B710B820B83
:1054D000930B613177428105910598F080917805B1
:1054E000909179050E944A0D68EE72E087E395E09D
:1054F0000E94ED1D1092200410921F0410921604B9
:10550000C5CF109103018091440582FD0E9466057C
:10551000809148058230E1F4109248050E945A05B6
:1055200060931B0470931C0480931D0490931E04CD
:1055300081E0810F873008F055C08093030160E05F
:10554000812F0E940D1D61E0809103010E940D1DBD
:105550008091440582FD0E94660580914805813056
:10556000D9F4109248050E945A0560931B04709369
:105570001C0480931D0490931E04809103018150AC
:10558000A9F18093030160E0812F0E940D1D61E06D
:10559000809103010E940D1D8091440582FD0E94AF
:1055A00066058091430585FF23C08F7D8093430569
:1055B00080910301863009F491CF8530C9F4809140
:1055C0007805909179050E944A0D60E973E087E3C0
:1055D00095E00E94ED1D1092200410921F0410927D
:1055E000160454CCE1E0E0930301A9CF86E0C9CFD3
:1055F00080911F0481113FC08091780590917905B9
:105600000E944A0DE0917805F0917905168E82E0AE
:10561000848F858F28E730E0358B248B8AE090E0FB
:10562000978B868B738E628E718E608E6AE973E0C3
:10563000CF010E94681CE0917805F0917905168EE3
:10564000548E558E11E061E080910301811360E07A
:10565000812F0E940D1D1F5F1730A9F791E09093D5
:105660001F040E945A0560931B0470931C048093CE
:105670001D0490931E040E945A050091120410917B
:1056800013042091140430911504601B710B820BDC
:10569000930B623371058105910508F4F7CE0E94E2
:1056A0005A0560931204709313048093140490932A
:1056B0001504ECCE60E973E0C8010E943132892BF9
:1056C00009F0E4CE0E945A0500911B0410911C04BD
:1056D00020911D0430911E04601B710B820B930BF3
:1056E000613177428105910508F0F8CE10910201F1
:1056F0008091440582FD0E946605809148058230B4
:10570000E1F4109248050E945A0560931B047093BF
:105710001C0480931D0490931E0481E0810F863049
:1057200008F0A3C08093020160E0812F0E946A1CF0
:1057300061E0809102010E946A1C8091440582FD13
:105740000E946605809148058130E1F41092480579
:105750000E945A0560931B0470931C0480931D04DF
:1057600090931E0480910201815009F482C08093BD
:10577000020160E0812F0E946A1C61E080910201B9
:105780000E946A1C8091440582FD0E9466058091FA
:10579000430585FF08C08F7D8093430580910201FA
:1057A000853009F49BCE8091160481113FC0809111
:1057B0007805909179050E944A0DE0917805F09165
:1057C0007905738E628E718E608E168E82E0848F64
:1057D000858F25E530E0358B248B8AE090E0978B30
:1057E000868B62EA73E0CF010E94681CE091780525
:1057F000F0917905168E548E558E11E061E08091FE
:105800000201811360E0812F0E946A1C1F5F163025
:10581000A9F791E0909316040E945A0560931B0427
:1058200070931C0480931D0490931E040E945A05DB
:1058300000910E0410910F04209110043091110476
:10584000601B710B820B930B62337105810591050F
:1058500008F41CCE0E945A0560930E0470930F0446
:10586000809310049093110411CEB1E0B093020123
:105870005BCF85E07CCF809137059091380500970C
:1058800011F00E94DD3080913D0590913E0500971A
:1058900011F00E94DD308091760590917705009798
:1058A00011F00C94DD3008950E94962C08F481E0EC
:1058B0000895E89409C097FB3EF490958095709503
:1058C00061957F4F8F4F9F4F9923A9F0F92F96E94C
:1058D000BB279395F695879577956795B795F111C1
:1058E000F8CFFAF4BB0F11F460FF1BC06F5F7F4F5E
:1058F0008F4F9F4F16C0882311F096E911C0772370
:1059000021F09EE8872F762F05C0662371F096E878
:10591000862F70E060E02AF09A95660F771F881F47
:10592000DAF7880F9695879597F90895990F0008EB
:10593000550FAA0BE0E8FEEF16161706E807F90761
:10594000C0F012161306E407F50798F0621B730BFC
:10595000840B950B39F40A2661F0232B242B252B7D
:1059600021F408950A2609F4A140A6958FEF811D20
:10597000811D08950E94CD2C0C943E2D0E94302D47
:1059800038F00E94372D20F0952311F00C94272D2C
:105990000C942D2D11240C94722D0E944F2D70F318
:1059A000959FC1F3950F50E0551F629FF001729FC4
:1059B000BB27F00DB11D639FAA27F00DB11DAA1FD3
:1059C000649F6627B00DA11D661F829F2227B00D20
:1059D000A11D621F739FB00DA11D621F839FA00DAB
:1059E000611D221F749F3327A00D611D231F849FFB
:1059F000600D211D822F762F6A2F11249F57504052
:105A00009AF0F1F088234AF0EE0FFF1FBB1F661FCC
:105A1000771F881F91505040A9F79E3F510580F095
:105A20000C94272D0C94722D5F3FE4F3983ED4F331
:105A3000869577956795B795F795E7959F5FC1F739
:105A4000FE2B880F911D9695879597F9089597F9E4
:105A50009F6780E870E060E008959FEF80EC089514
:105A600000240A941616170618060906089500243D
:105A70000A9412161306140605060895092E0394B7
:105A8000000C11F4882352F0BB0F40F4BF2B11F42B
:105A900060FF04C06F5F7F4F8F4F9F4F089557FD8A
:105AA0009058440F551F59F05F3F71F04795880F8C
:105AB00097FB991F61F09F3F79F087950895121623
:105AC00013061406551FF2CF4695F1DF08C01616CF
:105AD00017061806991FF1CF869571056105089480
