:020000040000FA
:100000000C94F2020C94301D0C94091D0C941A03EC
:100010000C941A030C941A030C941A030C941A03EC
:100020000C941A030C941A030C941A030C941A03DC
:100030000C941A030C941A030C941A030C941A03CC
:100040000C94BF1C0C941A030C941A030C941A03FE
:100050000C941A030C941A030C941A030C941A03AC
:100060000C94571D0C941A0305A84CCDB2D44EB96C
:100070003836A9020C50B9918688083CA6AAAA2A4B
:10008000BE000000803F00000000003E5B4F5B3E72
:100090003E6B4F6B3E1C3E7C3E1C183C7E3C181C4D
:1000A000577D571C1C5E7F5E1C00183C1800FFE744
:1000B000C3E7FF0018241800FFE7DBE7FF30483AEA
:1000C000060E2629792926407F050507407F05254C
:1000D0003F5A3CE73C5A7F3E1C1C08081C1C3E7FD4
:1000E00014227F22145F5F005F5F06097F017F009B
:1000F0006689956A606060606094A2FFA2940804BB
:100100007E040810207E201008082A1C08081C2ADB
:1001100008081E101010100C1E0C1E0C30383E3833
:1001200030060E3E0E06000000000000005F0000DA
:100130000007000700147F147F14242A7F2A12234B
:100140001308646236495620500008070300001C5B
:100150002241000041221C002A1C7F1C2A08083E64
:100160000808008070300008080808080000606077
:100170000020100804023E5149453E00427F4000E5
:1001800072494949462141494D331814127F1027BD
:10019000454545393C4A494931412111090736490C
:1001A000494936464949291E0000140000004034E0
:1001B00000000008142241141414141400412214E5
:1001C0000802015909063E415D594E7C1211127C0C
:1001D0007F494949363E414141227F4141413E7F6D
:1001E000494949417F090909013E414151737F084D
:1001F00008087F00417F41002040413F017F0814F3
:1002000022417F404040407F021C027F7F04081053
:100210007F3E4141413E7F090909063E4151215E31
:100220007F09192946264949493203017F01033FC5
:100230004040403F1F2040201F3F4038403F631454
:1002400008146303047804036159494D43007F4156
:1002500041410204081020004141417F0402010293
:1002600004404040404000030708002054547840B8
:100270007F284444383844444428384444287F384C
:100280005454541800087E090218A4A49C787F08CE
:1002900004047800447D40002040403D007F102849
:1002A000440000417F40007C047804787C0804040A
:1002B000783844444438FC1824241818242418FCA2
:1002C0007C08040408485454542404043F44243C47
:1002D0004040207C1C2040201C3C4030403C4428B6
:1002E0001028444C9090907C4464544C4400083650
:1002F00041000000770000004136080002010204BE
:10030000023C2623263C1EA1A161123A4040207ADD
:100310003854545559215555794122545478422125
:100320005554784020545579400C1E52721239555C
:100330005555593954545459395554545800004559
:100340007C410002457D420001457C407D12111236
:100350007DF0282528F07C545545002054547C54C9
:100360007C0A097F4932494949323A4444443A3285
:100370004A4848303A4141217A3A42402078009D2B
:10038000A0A07D3D4242423D3D4040403D3C24FFD7
:100390002424487E4943662B2FFC2F2BFF0929F686
:1003A00020C0887E090320545479410000447D41D7
:1003B0003048484A32384040227A007A0A0A727D30
:1003C0000D19317D2629292F28262929292630484B
:1003D0004D4020380808080808080808382F10C8B9
:1003E000ACBA2F102834FA00007B000008142A143D
:1003F0002222142A14085500550055AA55AA55AAB8
:10040000FF55FF55FF000000FF00101010FF001403
:100410001414FF001010FF00FF1010F010F014145F
:1004200014FC001414F700FF0000FF00FF1414F484
:1004300004FC141417101F10101F101F1414141F85
:1004400000101010F0000000001F101010101F10FE
:10045000101010F010000000FF10101010101010FD
:100460001010FF10000000FF140000FF00FF00004C
:100470001F10170000FC04F414141710171414F4C0
:1004800004F40000FF00F714141414141414F700FB
:10049000F7141414171410101F101F141414F4144C
:1004A0001010F010F000001F101F0000001F1400BB
:1004B0000000FC140000F010F01010FF10FF1414E6
:1004C00014FF141010101F00000000F010FFFFFFB9
:1004D000FFFFF0F0F0F0F0FFFFFF0000000000FF72
:1004E000FF0F0F0F0F0F3844443844FC4A4A4A3478
:1004F0007E02020606027E027E026355494163388F
:1005000044443C04407E201E2006027E020299A53F
:10051000E7A5991C2A492A1C4C7201724C304A4D9D
:100520004D303048784830BC625A463D3E494949D2
:10053000007E0101017E2A2A2A2A2A44445F44447B
:1005400040514A444040444A51400000FF0103E00A
:1005500080FF000008086B6B083612362436000650
:10056000090906000018180000001010003040FFB4
:100570000101001F01011E00191D1712003C3C3C27
:100580003C000000000000000000240027002A00BA
:1005900000000000250028002B00000000080002D9
:1005A0000100000304070000000000000000010239
:1005B00004081020408001020408102001020408F1
:1005C0001020000000002300260029000404040479
:1005D00004040404020202020202030303030303ED
:1005E000761E9F2711241FBECFEFD8E0DEBFCDBF00
:1005F00024E0A2E2B3E001C01D92A333B207E1F709
:1006000013E0A0E0B1E0EAE6F0E602C005900D924A
:10061000A232B107D9F712E0C1EFD2E004C02197AE
:10062000FE010E94742BC03FD107C9F70E94C81F6A
:100630000C9428300C940000FC019081909528E0E7
:1006400030E081E397FF03C0990F982701C0990F0D
:1006500021503109B9F78181892728E030E091E301
:1006600087FF03C0880F892701C0880F21503109F7
:10067000B9F7089508950895AF92BF92CF92DF928F
:10068000EF92FF920F931F93CF93DF93EC016B01D7
:100690005A01E881F9810484F585E02D0995E88106
:1006A000F9810488F589E02D80EEE82EFF24FA9484
:1006B0000DE910E095014DE950E0B601CE01099534
:1006C000E881F9810688F789E02DCE01DF91CF918D
:1006D0001F910F91FF90EF90DF90CF90BF90AF9060
:1006E0000994DC01ED91FC910190F081E02D0994D9
:1006F000AF92BF92CF92DF92EF92FF920F931F9330
:10070000CF93DF936C017B018B01040F151FEB016D
:100710005E01AE18BF08C017D10759F06991D60124
:10072000ED91FC910190F081E02DC6010995892B96
:1007300079F7C501DF91CF911F910F91FF90EF9055
:10074000DF90CF90BF90AF90089590E0FC01E65607
:10075000FA4F2491FC01E255FA4F3491FC01E45325
:10076000FA4FE491EE23C9F0222339F0233001F14E
:10077000A8F4213019F1223029F1F0E0EE0FFF1F2B
:10078000E057FA4FA591B4918FB7F894EC916111AD
:1007900026C030953E233C938FBF08952730A9F0A3
:1007A0002830C9F0243049F7809180008F7D03C044
:1007B000809180008F7780938000DFCF84B58F7722
:1007C00084BDDBCF84B58F7DFBCF8091B0008F7768
:1007D0008093B000D2CF8091B0008F7DF9CF3E2BB7
:1007E000DACFCF93DF9390E0FC01E255FA4F2491EA
:1007F00084539A4FFC0184918823D1F090E0880FB4
:10080000991FFC01EA57FA4FA591B491FC01E057FA
:10081000FA4FC591D491623071F49FB7F8943C912E
:10082000822F809583238C93E8812E2B28839FBF72
:10083000DF91CF9108958FB7F894EC912E2B2C93E4
:100840008FBFF6CF3FB7F8948091700390917103FA
:10085000A0917203B091730326B5A89B05C02F3FEA
:1008600019F00196A11DB11D3FBFBA2FA92F982FD6
:100870008827BC01CD01620F711D811D911D42E0D1
:10088000660F771F881F991F4A95D1F708958F9299
:100890009F92AF92BF92CF92DF92EF92FF926B0145
:1008A0007C010E9422044B015C01C114D104E104CB
:1008B000F104B9F00E942204681979098A099B0998
:1008C000683E73408105910580F321E0C21AD1088A
:1008D000E108F10888EE880E83E0981EA11CB11C87
:1008E000E4CFFF90EF90DF90CF90BF90AF909F90BC
:1008F0008F900895089520914803260F3327331FC2
:1009000021323105ECF42091CA03FC0190E080E033
:10091000243069F082E00895A09148032191AC0150
:10092000485D5C4FA40FB52FB11D2C93019686171F
:1009300098F380914803680F6093480380E008951E
:1009400081E008951092CA0381E08093C903109258
:10095000A40361E082E10E94A50361E083E10E94BB
:10096000A503E9EBF0E080818E7F808380818D7F1D
:10097000808388E48093B80085E48093BC00089568
:1009800010928303109282031092D1031092F3030A
:100990000E94A2048AE393E09093810380938003F2
:1009A0008BE393E090937F0380937E030895CF932E
:1009B000DF9391E0909327038823B9F0C091B800AA
:1009C000D091BA008091BC008A7B8093BC0060E02B
:1009D00082E10E94A50360E083E10E94A5030E94DA
:1009E000A204D093BA00C093B800DF91CF910895CC
:1009F0008F929F92AF92BF92CF92DF92EF92FF922F
:100A00000F931F93CF93DF93D091F303D13208F06C
:100A1000D7C0182FC091F2030E9422046B017C0101
:100A20008091CA0381116BC082E08093CA03109346
:100A3000C9038FEF8093C8031092C703D093C603F6
:100A4000A2EDB3E0E6EAF3E080E0D81391C01092A3
:100A5000A5038091A503CC0FC82BC093A50380915B
:100A6000A403813009F088C01092A4030E942204DC
:100A70006B017C018091A5038093BB008091CC0326
:100A80009091CD03A091CE03B091CF03892B8A2BF7
:100A90008B2BA1F00E9422040091CC031091CD0376
:100AA0002091CE033091CF036C197D098E099F09E7
:100AB000061717072807390708F442C08091BC00C1
:100AC00083FDD8CF85EC8093BC000E9422046B018B
:100AD0007C018091CA03823009F450C08091C80320
:100AE0008F3F09F46FC08091C803803209F46CC055
:100AF0008091C803803309F469C084E026C08091E6
:100B0000CC039091CD03A091CE03B091CF03892B5C
:100B10008A2B8B2B09F484CF0E9422048090CC0373
:100B20009090CD03A090CE03B090CF036C197D09B7
:100B30008E099F0986169706A806B90608F070CF99
:100B40008091CB030E94D70485E01092D1031092CC
:100B5000F3031092D003DF91CF911F910F91FF907B
:100B6000EF90DF90CF90BF90AF909F908F900895BF
:100B70009D9191938F5F69CF85EEA5CF8091CC0336
:100B80009091CD03A091CE03B091CF03892B8A2BF6
:100B90008B2B09F49ECF0E9422040091CC0310916C
:100BA000CD032091CE033091CF036C197D098E09BE
:100BB0009F09061717072807390708F08ACFC0CF03
:100BC00081E0C3CF80E0C1CF82E0BFCF83E0BDCF63
:100BD0001F93CF93DF93EA01122FDC0111968D91C1
:100BE0009C91DC01ED91FC910280F381E02D09954F
:100BF000C817D90729F4812F0E94F80491E08111C8
:100C000090E0892FDF91CF911F910895CF93DF93CB
:100C1000EC018B818823A1F0888191E09093D0032F
:100C20008093F2031092D1031092F30381E00E94AB
:100C3000F80491E0811190E0892FDF91CF91089520
:100C40000E94C00481E08B83CE010E940606982F8B
:100C50008111E2CFF1CF0895E09183038091820367
:100C6000E81730F4F0E0EC57FC4F808190E00895F5
:100C70008FEF9FEF089590918303809182032FEF70
:100C80003FEF981748F4E92FF0E0EC57FC4F208134
:100C900030E09F5F90938303C901089580918203A0
:100CA00090918303891B990B0895CF92DF92EF9265
:100CB000FF920F931F93CF93DF937C01CB018A01A7
:100CC0002091D003222389F0EB016B01C40ED51EC5
:100CD000CC15DD0569F06991D701ED91FC9101908A
:100CE000F081E02DC7010995F3CF642F0E947B04AA
:100CF000C801DF91CF911F910F91FF90EF90DF908E
:100D0000CF900895CF93DF931F92CDB7DEB769835D
:100D10002091D0032223F9F02091F303203258F0E0
:100D200021E030E0FC013383228390E080E00F90EB
:100D3000DF91CF9108958091D103E82FF0E0EE523A
:100D4000FC4F998190838F5F8093D1038093F3034D
:100D500081E090E0ECCF61E0CE0101960E947B043F
:100D6000F7CFEF92FF920F931F93CF93DF93EC0196
:100D70007A018EA99FA98617970729F48AAD9BADA2
:100D800082179307B1F07FAB6EAB3BAF2AAF8CA558
:100D90009DA54CA9460F572F511D21503109240FF5
:100DA000351FDC01ED91FC91008CF18DE02D6AE2A4
:100DB000099588AD99AD8E159F0529F48CAD9DAD33
:100DC00080179107B9F0F9AEE8AE1DAF0CAF8CA556
:100DD0009DA54DA94E0D5F2D511D01501109980182
:100DE000240F351FDC01ED91FC91008CF18DE02D7D
:100DF0006BE209958CA59DA5DC01ED91FC91068027
:100E0000F781E02D6CE2DF91CF911F910F91FF9060
:100E1000EF900994FC0180858F3F31F0A485B58562
:100E20009C918089892B8C930895FC01838588236C
:100E300031F09091F4038091F5039CBD8DBDA685A2
:100E4000B7858C919289892B8C9380858F3F31F067
:100E5000A485B5858C91918989238C9308958EBD45
:100E600000000DB407FEFDCF8EB50895CF92DF923E
:100E7000EF92FF921F93CF93DF9369017A01EB0109
:100E800081E0C81AD108E108F1088FEFC816D8062A
:100E9000E806F80669F018818981229610932303E9
:100EA000809324030E942F07812F0E942F07E8CFF1
:100EB000DF91CF911F91FF90EF90DF90CF90089539
:100EC000CF92DF92EF92FF92CF93DF9369017A0185
:100ED000EB0181E0C81AD108E108F1088FEFC816CC
:100EE000D806E806F80621F089910E942F07F1CF75
:100EF000DF91CF91FF90EF90DF90CF900895CF9248
:100F0000DF92EF92FF92CF93DF93EB0169017A01B9
:100F100060932303D093240381E0C81AD108E10829
:100F2000F1088FEFC816D806E806F80639F08D2FBD
:100F30000E942F078C2F0E942F07EECFDF91CF91B9
:100F4000FF90EF90DF90CF900895CF93C62F872F1B
:100F500060932303709324030E942F078C2FCF915B
:100F60000C942F07862F0C942F07CF92DF92EF92CD
:100F7000FF920F931F93CF93DF93EC0169017A01E6
:100F8000EE85FF8580819B89892380838B0181E0A9
:100F9000C81AD108E108F108EFEFCE16DE06EE061A
:100FA000FE0631F0F80181918F010E942F07EFCFEB
:100FB000EE85FF8580819A89892B8083DF91CF918F
:100FC0001F910F91FF90EF90DF90CF9008951F93A6
:100FD000CF93DF93EC01162F872FEE85FF8590814D
:100FE0002B899223908360932303709324030E94A0
:100FF0002F07812F0E942F07EE85FF8580819A8918
:10100000892B8083DF91CF911F910895CF93DF9338
:10101000EC01862FEE85FF8590812B8992239083AA
:101020000E942F07EE85FF8580819A89892B808316
:10103000DF91CF910895DC019C968D919C91DC010C
:10104000ED91FC910684F785E02D0994DC019C96D6
:101050008D919C91DC01ED91FC910480F581E02D56
:101060000994AF92BF92CF92DF92EF92FF920F93CB
:101070001F93CF93DF93EC015901E881F98102A01E
:10108000F3A1E02D09959501D8010E947A2B9B01CF
:10109000AC01E881F98104A0F5A1E02DB701CE01F2
:1010A000DF91CF911F910F91FF90EF90DF90CF9044
:1010B000BF90AF900994EF92FF920F931F93CF933D
:1010C000DF9357FD38C0DC011A96ED91FC91E417CF
:1010D000F5078CF12115310571F137FF07C0F901D2
:1010E00031966E0F7F1F319521953109DC011896DD
:1010F000ED91FC91E617F707F4F0EB01C20FD31F57
:10110000DE011197B7FD17C077FF03C09E0170E0A5
:1011100060E0EA17FB072CF49F01261B370B2F5FBB
:101120003F4FDC01ED91FC910684F785E02D7801BD
:1011300001E010E00995DF91CF911F910F91FF9091
:10114000EF900895EF92FF920F931F93CF93DF9349
:1011500077FD39C0DC011896ED91FC91E617F70791
:1011600094F12115310579F137FF07C0F901319666
:101170004E0F5F1F319521953109DC011A96ED91D3
:10118000FC91E417F507FCF0EA01C20FD31FDE0162
:101190001197B7FD18C057FF03C09E0150E040E013
:1011A000EA17FB072CF49F01241B350B2F5F3F4FE1
:1011B000DC01ED91FC910684F785E02D7801890131
:1011C00021E030E00995DF91CF911F910F91FF90C1
:1011D000EF900895DC019C968D919C91DC01ED913E
:1011E000FC91028CF38DE02D0994EF92FF920F9306
:1011F0001F93CF93DF93EC017901E881F98102A07D
:10120000F3A1E02D01E010E021E030E009958CA58C
:101210009DA5DC01ED91FC910684F785E02DB701D9
:10122000DF91CF911F910F91FF90EF900994DC0116
:101230009C968D919C91DC01ED91FC910280F38153
:10124000E02D0994EF92FF920F931F93CF93DF93BA
:10125000EC014D3F8FEF580768077807A9F5E88143
:10126000F98100A4F1A5E02DCE010995E881F9816D
:10127000008CF18DE02D6F8DCE0109950E811F81BF
:10128000EC80FD80E881F9810484F585E02DCE01B4
:101290000995E881F98102A0F3A1E02D970150E0C2
:1012A00040E070E060E0CE010995E881F9810688B0
:1012B000F789E02DCE01099581E0DF91CF911F9153
:1012C0000F91FF90EF9008952EAD8CA59DA5DC01A8
:1012D000ED91FC910190F081E02D2F3F29F00995CF
:1012E0008111BDCF80E0E9CF2FEFF9CFFC0116AE21
:1012F0000C9422090895FC016770678F85A196A15F
:1013000023A134A1633019F0D0F46130E1F4958366
:1013100084833783268324813581215031093187A5
:101320002087868197810197938782871586148607
:1013300017861686318B208B938B828B08956530B0
:1013400031F3673021F33583248397838683E3CF9A
:10135000CF93DF93EC010E947B09EF8DE150E730E2
:1013600078F5F0E0EA54F64F0C94742BBD09CE09E1
:10137000D209D609DA09DC09DE0989A98CAB8AA968
:101380008DAB8FEF9FEF9FAB8EAB99AF88AF9BAFCD
:101390008AAF9DAF8CAFDF91CF9108958AA98CABB6
:1013A0008BA9EECF8BA98CAB88A9EACF8AA98CAB8D
:1013B00089A9E6CF8BA9E2CF88A9F1CF89A9F3CF7C
:1013C00088A9F5CF1F93CF93DF93EC010E94A80962
:1013D000EF8DE15018E4E33020F4F0E0E45FFE4FDD
:1013E00010818CA59DA5DC01ED91FC910280F3811B
:1013F000E02D09958CA59DA5DC01ED91FC9100885F
:10140000F189E02D412F66E309958CA59DA5DC01AE
:10141000ED91FC910480F581E02DDF91CF911F913A
:10142000099408956F927F928F929F92AF92BF928C
:10143000CF92DF92EF92FF920F931F93CF93DF93A0
:101440006C015B014901EA013A01600E711EC6158B
:10145000D70574F4D601ED91FC910288F389E02D53
:1014600087019401AE01B501C60109952196EFCF20
:10147000DF91CF911F910F91FF90EF90DF90CF9070
:10148000BF90AF909F908F907F906F9008956F92D4
:101490007F928F929F92AF92BF92CF92DF92EF9204
:1014A000FF920F931F93CF93DF93570121153105BF
:1014B00009F457C00115110509F453C037FF07C0DF
:1014C000F90131966E0F7F1F319521953109EC019D
:1014D000A885B985A617B7070CF443C017FF07C046
:1014E000F80131964E0F5F1F119501951109EC011E
:1014F000EA85FB85E417F507A4F16B01C20ED31E44
:101500003601D1E06D1A710877FC2BC07A01E00E2C
:10151000F11E4701C1E08C1A910897FC22C077FFA9
:1015200003C0960170E060E057FF03C0870150E000
:1015300040E0A615B7052CF49D01261B370B2F5F45
:101540003F4FE815F9052CF48F01041B150B0F5FB5
:101550001F4FDC01ED91FC910684F785E02D7501AC
:101560000995DF91CF911F910F91FF90EF90DF9040
:10157000CF90BF90AF909F908F907F906F90089585
:10158000CF92DF92EF92FF920F931F93CF93DF934F
:10159000EC010E811F81CC80DD80E881F98104841B
:1015A000F585E02D0995F12CE12C960150E040E005
:1015B00070E060E0CE010E94470AE881F981068868
:1015C000F789E02DCE01DF91CF911F910F91FF9010
:1015D000EF90DF90CF9009942F923F924F925F92BD
:1015E0006F927F928F929F92AF92BF92CF92DF9233
:1015F000EF92FF920F931F93CF93DF93CDB7DEB798
:101600002E970FB6F894DEBF0FBECDBF9E878D8795
:101610007A876987DC01ED91FC910484F585E02DE2
:10162000099569857A8560517109AD85BE85ED9111
:10163000FC9111970288F389E02D05E51DEA21E26E
:1016400030E043EB50E0CD01099520E033EE4FEF61
:101650005FEF29833A834B835C831D821E821F8246
:101660001886812C912C540180E1482E512C612C3C
:10167000712C89819A81AB81BC81B7FF22C09FEF19
:10168000891A990AA90AB90AD501C40112E0880F7A
:10169000991FAA1FBB1F1A95D1F70296A11DB11D54
:1016A000BA2FA92F982F882729813A814B815C81F5
:1016B000280F391F4A1F5B1F29833A834B835C83A2
:1016C000D8CF1201220C331C3FEF231A330A49856D
:1016D0005A85441955095C874B8751E0451A5108D2
:1016E0006108710864018D819E81C81AD90AE5E5F7
:1016F000EE2EEDEAFE2E8601910143EB50E04819F3
:1017000059096B857C858D859E850E94470A4D8190
:101710005E814C545F4F91016B857C858D859E85E4
:101720000E94470AD301C201FAE0880F991FAA1F3D
:10173000BB1FFA95D1F729813A814B815C81281B27
:10174000390B4A0B5B0B29833A834B835C83481428
:1017500059046A047B042CF08D829E82AF82B88685
:1017600088CFC12C53EED52EEE24EA94FE2C60E1F6
:10177000462E512C612C712C812C912C5401F7FE9A
:101780001AC03FEF831A930AA30AB30AD501C40112
:1017900032E0880F991FAA1FBB1F3A95D1F7029616
:1017A000A11DB11DBA2FA92F982F8827C80ED91EA9
:1017B000EA1EFB1EE4CF5E824D8241E0441A5108CE
:1017C000610871081401220C331C5FEF251A350AD9
:1017D00043EB50E08D819E81481B590BAD85BE8542
:1017E000ED91FC9111970288F389E02D05E51DEA42
:1017F000910189859A85881999099A838983BC0101
:10180000CD0109954D815E814D545F4FAD85BE85FB
:10181000ED91FC9111970288F389E02D9101698186
:101820007A81CD010995D301C2012AE0880F991F61
:10183000AA1FBB1F2A95D1F7C81AD90AEA0AFB0AC0
:10184000481459046A047B040CF099CFAD85BE8519
:10185000ED91FC9111970688F789E02DCD012E9628
:101860000FB6F894DEBF0FBECDBFDF91CF911F91B1
:101870000F91FF90EF90DF90CF90BF90AF909F902F
:101880008F907F906F905F904F903F902F90099432
:10189000CF93DF93DC0157FD38C01A968D919C9150
:1018A0001B97841795078CF197968C9197978823AF
:1018B00019F1CA01880F991F9896CD91DC919997DB
:1018C000C80FD91FE881F9816E177F07F4F09A9647
:1018D000ED91FC919B97E80FF91F8081918186170C
:1018E00097079CF0ED91FC9111970284F385E02D10
:1018F000CD01DF91CF91099477FD07C018968D91A6
:101900009C911997861797076CF7DF91CF910895EF
:101910002F923F924F925F926F927F928F929F92FF
:10192000AF92BF92CF92DF92EF92FF920F931F93ED
:10193000CF93DF93CDB7DEB72C970FB6F894DEBF09
:101940000FBECDBF9C878B877A8369831A01D22E05
:101950001C830B833701DC0191960D911C919297AA
:101960005C964C915C975D963C915D97432E512C13
:1019700050968D919C910115110509F46EC1F801E5
:10198000349624913297A590B490D21AB7E0DB9E9A
:10199000A00CB11C1124F801659174917A876987B4
:1019A000F501C590D490F501329674917D833196FE
:1019B000A491AE8331962491085F1F4FF8010491E2
:1019C000F50135965491588766E0A60EB11CF501D5
:1019D000A49069817A81861797070CF416C3802F2B
:1019E00090E0880F991F63E070E00E943E2B649D99
:1019F000C001659D900D749D900D11242101481A20
:101A0000590AAB85BC8552968D919C91841595059C
:101A10000CF4FBC28D80821608F4822E849E400155
:101A2000112449815A81480D591DEB85FC85848517
:101A30009585841795070CF0E8C2039F8001112457
:101A40009101200F311F86859785821793070CF02F
:101A5000DCC20190F081E02D0484F585E02D8B85BA
:101A60009C8509952B813C816216730671F1AB85CB
:101A7000BC8550962D913C9189819A81880D991D44
:101A80000197281739078CF0EB85FC85228933896B
:101A9000C801840D951D0197281739076CF4EB8553
:101AA000FC85858D081B1109F3CFAB85BC855C9641
:101AB0008C91881A9108E0CF73019401A201698189
:101AC0007A818B859C850E94470AF8858F2EFF0FAF
:101AD0009908EA2C0A2C000CFF08AB85BC855D96A2
:101AE0002C915D975C968C91813009F045C0213036
:101AF00009F042C0E20CF31C870180E0512C902FCA
:101B00009E19BE819B1708F054C1EB85FC85228984
:101B10003389201731076CF1A980BA80A80CB91C51
:101B20003D80380E831529F144244394480E877074
:101B300041F4C6010196E985FA85EC0DFD1D54902E
:101B40006C01AB85BC8550968D919C9151978A15FF
:101B50009B054CF057FE07C02B813C81A801B501C5
:101B6000CD010E94480CBFEFAB1ABB0A550C842D67
:101B7000D9CF0F5F1F4FC3CF3A2D3203500111242D
:101B8000A20CB31C80E0512C412C4E81441609F468
:101B900010C1AB85BC855D962C915D972A0D3B2DC0
:101BA000311D2150310952964D915C915397421746
:101BB00053070CF44AC05C962C91388532034001DF
:101BC000112449815A81840E951E2D80280E82157C
:101BD00009F43BC033243394380E877041F4C601B6
:101BE0000196E985FA85EC0DFD1D54906C01AB85DD
:101BF000BC855C962C915C9730E0C901880D991DDD
:101C0000019750964D915C91519748175907ACF048
:101C100057FE13C05E968C915E9790E05D960C9196
:101C20005D9710E0081B190B281B390BEB80FC801B
:101C3000A501B401CD010E94470AEB85FC85848D86
:101C4000880E911C550C832DC2CF4394AB85BC8567
:101C50005D969C91A90EB11C98CFE981FA818E17EF
:101C60009F070CF4D2C1AB85BC8552968D919C9197
:101C7000821593050CF4C9C19F01B6E04B9F200D5E
:101C8000311D1124EB85FC8584859585821793078A
:101C90000CF0BBC153E0440C551C5A95E1F7420CC3
:101CA000531C86859785841595050CF0AEC101906F
:101CB000F081E02D0484F585E02D8B859C850995C8
:101CC000AB85BC855C962C91B5E0DB9EC0011124F0
:101CD000213009F09EC0EB85FC85258D213009F06F
:101CE00098C0F12CE12C9C012A573F4F490151012A
:101CF00038E0A30EB11CC980DA80CE0CDF1CF401E1
:101D0000EE0DFF1D5490AB85BC8550968D919C9136
:101D10008C159D05ECF08101EB85FC85828993890A
:101D2000801791077CF00190F081E02D50FE63C098
:101D30000284F385E02D2B813C81A801B6018B85BF
:101D40009C8509950F5F1F4F56940A151B0521F7B7
:101D50003FEFE31AF30A45E0E416F10461F66B8104
:101D60007C816616770629F169817A816B5F7F4FE6
:101D7000AB85BC8550968D919C915197861797079E
:101D8000C4F052962D913C91C1010696821793079B
:101D9000ECF1221933092F5F3F4FAB85BC85ED91E4
:101DA000FC9111970088F189E02D8301A101CD01FB
:101DB0000995AB85BC85ED91FC9111970688F78953
:101DC000E02DCD012C960FB6F894DEBF0FBECDBF2F
:101DD000DF91CF911F910F91FF90EF90DF90CF9007
:101DE000BF90AF909F908F907F906F905F904F903B
:101DF0003F902F9009942B813C816216730609F461
:101E0000A1CF0284F385E02D930197CF28E030E045
:101E1000C4CFC980DA80512C412CFC01EA57FF4F16
:101E2000FF83EE83AB85BC855C968C915C978C0DB3
:101E30009D2D911D019750962D913C9128173907A2
:101E40000CF487C0EE81FF81E40DF51DB491BD83D4
:101E50005101912C812CEB85FC85858D90E09C01B6
:101E60002A0D3B1D215031094289538942175307DE
:101E70000CF45EC0248D30E0FD81F0FFB7C0AB856F
:101E8000BC855E964C915E97442309F4AAC050E04D
:101E90008C01041B150B241B350B889DA001899D0B
:101EA000500D989D500D1124420D531DEB81FC8166
:101EB0006E167F0609F490C07F01B601CD010E9425
:101EC000470AAB85BC855D960C915D9710E05E96E8
:101ED0002C915E9730E0089DA001099D500D189D42
:101EE000500D1124420D531D5C966C915C976C0D46
:101EF0007D2D711D621B730B7301CD010E94470A7A
:101F0000EB85FC85068D10E0248D30E0201B310B25
:101F1000658DC4010196689FA001699F500D112431
:101F2000420D531D401B510BB601CF010E94470AC1
:101F30005D8156955D83AB85BC855D968C91A80EC1
:101F4000B11CBFEF8B1A9B0AE8E08E16910409F0D2
:101F500082CFAB85BC855C968C91282F30E0C20E79
:101F6000D31EBFEF4B1A5B0AE5E04E16510409F091
:101F700059CF4B815C816416750609F41ACF6981CB
:101F80007A8155E0859F600D711D1124C901860F6E
:101F9000971F0197AB85BC8550964D915C915197E9
:101FA000481759070CF405CF5D968C915D9790E02A
:101FB0008C0143E0000F111F4A95E1F752964D91B5
:101FC0005C91F1013197DF01A00FB11F4A175B0748
:101FD000ACF4081B190BF7CF7301B6018B859C85F8
:101FE000A5CFEB80FC808C01A501F7CF4B815C81F4
:101FF0006416750609F49CCF7301F5CF7301A10136
:102000008B859C850E94470AD4CE2C960FB6F894F7
:10201000DEBF0FBECDBFDF91CF911F910F91FF901B
:10202000EF90DF90CF90BF90AF909F908F907F9078
:102030006F905F904F903F902F900895DF92EF92B6
:10204000FF920F931F93CF93DF93EC01262F89A16B
:102050009AA1009709F47DC06A30D1F42C853D85A2
:102060003D8B2C8BFC013896E4912D8D8E899F89B8
:10207000E29F800D911D11249F8B8E8B81E090E05B
:10208000DF91CF911F910F91FF90EF90DF90089516
:102090006D30A1F3FC01349645915491FC013696C4
:1020A000A591B49170E06417750740F3A617B707C0
:1020B00028F3FC013296A591B491362F341B47E0EA
:1020C000349FA00DB11D1124FD013296449132962A
:1020D000D49038A1332341F115963C9150E0430F41
:1020E000511D37FD5A953C8D349FB001359F700DC1
:1020F00011244C895D89460F571F41505109688949
:1021000079896417750784F44E895F896C857D85AC
:102110007D8B6C8B0896FC0184919D8D899F400D71
:10212000511D11245F8B4E8BEA8CFB8C088D198D11
:102130004E895F896C897D89CE010E94880C2C8D27
:102140008C899D89D29E800D911D11249D8B8C8B35
:1021500095CF6A3071F48C859D859D8B8C8B8D8D90
:10216000F8E08F9F900111248E899F89820F931F21
:1021700083CF6D3009F482CF88A18823E9F03C8DAC
:102180008C899D8946E0349F800D911D1124019713
:1021900048895989481759077CF44E895F898C858D
:1021A0009D859D8B8C8B8D8DE8E08E9FC0011124C9
:1021B000840F951F9F8B8E8BEA8CFB8C088D198D5D
:1021C0004E895F896C897D89CE010E94880C2C8D97
:1021D0008C899D89F6E02F9F800D911D1124B6CF2B
:1021E000AF92BF92CF92DF92EF92FF920F931F9325
:1021F000CF93DF936C015A01EB017B01E20EF31EDA
:10220000CE15DF0544F49801A501BE01C6010E9468
:10221000480C2196F5CFDF91CF911F910F91FF9040
:10222000EF90DF90CF90BF90AF900895AF92BF92A4
:10223000CF92DF92EF92FF920F931F93CF93DF9392
:102240006C015B01EA017A01E20EF31ECE15DF0597
:1022500044F49801AE01B501C6010E94480C2196D4
:10226000F5CFDF91CF911F910F91FF90EF90DF900D
:10227000CF90BF90AF90089508952F923F924F92C4
:102280005F926F927F928F929F92AF92BF92CF9206
:10229000DF92EF92FF920F931F93CF93DF9300D0C3
:1022A00000D000D0CDB7DEB74C016B015E834D830B
:1022B000590162177307A9F50417150734F49D81B6
:1022C0008E811E830D83092F182F2D813E81021BC5
:1022D000130B98012F5F3F4FD401ED91FC910088C3
:1022E000F189E02D87014D815E81B601C401099518
:1022F00026960FB6F894DEBF0FBECDBFDF91CF910B
:102300001F910F91FF90EF90DF90CF90BF90AF9013
:102310009F908F907F906F905F904F903F902F9005
:1023200008952D813E812017310799F4A616B7062E
:1023300024F48D2D6501A62EB82E95012C193D098A
:102340002F5F3F4FD401ED91FC910288F389E02D7E
:10235000C9CF2D813E811801221A330A2017310777
:1023600024F02D803E80201A310A25014C185D088A
:10237000CA14DB041CF026014A185B0842145304FB
:102380005CF49A2D8B2D5801092F182F9C2D8D2D23
:10239000CD80DE809D838E83AC14BD045CF49D8172
:1023A0008E811E830D83092F182F9C2D8D2D650185
:1023B000A92EB82EC5018C199D099A838983AD81F8
:1023C000BE81A017B107ACF598012A1B3B0B3C83DB
:1023D0002B8369807A8075946794AD81BE81A01744
:1023E000B10774F10FEF1FEFAC14BD040CF480CFF4
:1023F0009701A6016D817E81421453041CF04D812A
:102400005E81B601C4010E94480C2B813C81621A96
:10241000730A77FE0AC089819A81680E791EAD81A0
:10242000BE81A00FB11FBE83AD83BFEFCB1ADB0A05
:10243000DBCF8D819E81801B910B9C838B83C9CFC9
:1024400001E010E0D1CF089590E080E008951F935F
:10245000CF93DF93EC01162FE881F9810280F3819D
:10246000E02D0995E881F9810680F781E02D612F43
:10247000CE010995E881F9810480F581E02DCE0136
:10248000DF91CF911F91099460E1FC0184A595A58E
:102490000E94271266E970E080E090E00C94470407
:1024A00061E1FC0184A595A50E94271266E970E010
:1024B00080E090E00C944704FC0184A595A527A535
:1024C000261303C060E20C94271261E2FCCFEF9266
:1024D000FF920F931F93CF93DF93EC018A01790151
:1024E000E881F9810680F781E02D099500932503A5
:1024F00010932603E881F9810484F585E02D612F8E
:10250000CE01099505E213E0E881F9810484F5859F
:10251000E02DD8016C91CE010995E0922503F0924F
:102520002603E881F9810484F585E02D6F2DCE0125
:102530000995E881F9810484F585E02DD8016C9135
:10254000CE01DF91CF911F910F91FF90EF900994F1
:10255000EF92FF920F931F93CF93DF93EC017A01D9
:102560008901E881F9810680F781E02D0995E881EC
:10257000F9810684F785E02DB701CE010995E88140
:10258000F9810684F785E02DB801CE01DF91CF9166
:102590001F910F91FF90EF9009940F931F93CF938A
:1025A000DF93EC018A01E881F9810084F185E02D57
:1025B0000995E881F9810684F785E02DB801CE01FF
:1025C000DF91CF911F910F9109940F931F93CF9398
:1025D000DF93EC018A01E881F9810680F781E02D23
:1025E0000995E881F9810684F785E02DB801CE01CF
:1025F000DF91CF911F910F9109941F93CF93DF9398
:10260000EC01142FE881F9810680F781E02D09950E
:10261000E881F9810484F585E02D612FCE01DF91F9
:10262000CF911F910994DC01ED91FD918081ED9195
:10263000FD919081ED91FD916C9163708E2309F075
:1026400064609F2309F06860E0E3F3E1E60FF11DA9
:10265000659565956D936D917D918D919D91099491
:1026600023C01AC012C016C010C01EC009C014C0BA
:1026700013C006C019C009C00DC007C00DC014C0EA
:1026800062507040804090400BC06150704080406C
:10269000904006C06E5F01C06F5F7F4F8F4F9F4FAE
:1026A0009E938E937E936E9308958091F6039091FE
:1026B000F7030C9413138091F8039091F9030C9491
:1026C00013132F923F924F925F926F927F928F924D
:1026D0009F92AF92BF92CF92DF92EF92FF920F93B1
:1026E0001F93CF93DF935C011B016A01F12CE12C56
:1026F000D50114968D919C9186010E191F098017A2
:10270000910708F48C01F501D0810E9422042B016D
:102710003C018091CA03811172C0C02F013208F0C0
:10272000C0E2F1E0F093CA0321E0C601801B910BE7
:10273000E816F90608F420E02093C9038FEF809390
:10274000C8031092C7038C0F8093C603A1E0A09327
:10275000A5038091A503DD0FD82BD093A50380910D
:10276000A403813009F090C01092A4030E942204B7
:102770002B013C018091A5038093BB008091CC0389
:102780009091CD03A091CE03B091CF03892B8A2BDA
:102790008B2BA1F00E9422042091CC033091CD0319
:1027A0004091CE035091CF036419750986099709AA
:1027B000261737074807590708F442C08091BC0024
:1027C00083FDD8CFB5ECB093BC000E9422042B014E
:1027D0003C018091CA03813009F45AC08091C7033B
:1027E0008C1710F4C091C703A6EAB3E0E4E8F3E065
:1027F00080E08C1751F19D9191938F5FFACF80917A
:10280000CC039091CD03A091CE03B091CF03892B3F
:102810008A2B8B2B09F47DCF0E9422042091CC03BC
:102820003091CD034091CE035091CF0364197509C7
:1028300086099709261737074807590708F069CF0F
:102840008091CB030E94D704C0E010928303C09311
:102850008203C017110609F057C041018E0C9F1C5E
:10286000E401CE01881999098017910798F5D501DF
:1028700011968D919C91DC01ED91FC910284F38580
:10288000E02D09958993EDCFE5EEE093BC009DCF57
:102890008091CC039091CD03A091CE03B091CF0352
:1028A000892B8A2B8B2B09F494CF0E942204209130
:1028B000CC033091CD034091CE035091CF036419E6
:1028C000750986099709261737074807590708F039
:1028D00080CFB6CFE00EF11EEC14FD0408F408CF53
:1028E00081E0DF91CF911F910F91FF90EF90DF90EA
:1028F000CF90BF90AF909F908F907F906F905F90A0
:102900004F903F902F90089580E0EBCFCF93DF93CF
:1029100000D0CDB7DEB799838A838091230490914C
:102920002404FC012481358122303105B8F0208156
:1029300031E03093D0032093F2031092D103109230
:10294000F30321E042E050E0BE016F5F7F4F0E9441
:10295000E8050F900F90DF91CF91089580E0F9CFB7
:10296000FB0101900020E9F73197AF01461B570B9F
:10297000DC01ED91FC910280F381E02D09948F92AE
:102980009F92AF92BF92EF92FF920F931F93CF93BC
:10299000DF93CDB7DEB7A1970FB6F894DEBF0FBEB9
:1029A000CDBF7C01FA01CB0119A2223008F42AE044
:1029B0008E010F5D1F4F822E912CB12CA12CBF01D7
:1029C000A50194010E94522BF901CA016A300CF54D
:1029D000605DD8016E938D01232B242B252B79F775
:1029E00090E080E0109721F0BD01C7010E94B01473
:1029F000A1960FB6F894DEBF0FBECDBFDF91CF9189
:102A00001F910F91FF90EF90BF90AF909F908F908C
:102A10000895695CDECF462F50E070E060E02AE068
:102A20000C94BF14CF92DF92EF92FF920F931F93FB
:102A3000CF93DF936B01770FEE08FF08F7FE1BC003
:102A4000EC016DE20E9471038C0144275527BA0105
:102A50004C195D096E097F092AE0CE010E94BF145E
:102A6000800F911FDF91CF911F910F91FF90EF90F9
:102A7000DF90CF9008952AE0B701A601DF91CF91B2
:102A80001F910F91FF90EF90DF90CF900C94BF14A7
:102A90002F923F924F925F926F927F928F929F926E
:102AA000AF92BF92CF92DF92EF92FF921F93CF939C
:102AB000DF93EC016A017B01722EAB019601CB0121
:102AC000B6010E94EE2A6BEB71E0811126C046012F
:102AD0005701E894B7F82FEF3FEF4FE75FE7C501E5
:102AE000B4010E94EE2A81110CC02FEF3FEF4FE797
:102AF0005FE7C501B4010E94B0276FEB71E01816C3
:102B000064F02FEF3FEF4FE75FE4C701B6010E948B
:102B1000E12A1816B4F463EC71E0CE01DF91CF9195
:102B20001F91FF90EF90DF90CF90BF90AF909F905C
:102B30008F907F906F905F904F903F902F900C946C
:102B4000B0142FEF3FEF4FE75FECC701B6010E94D3
:102B5000B02787FDE0CF20E030E0A901C701B60132
:102B60000E94B027312C212C87FF09C06DE2CE01D5
:102B70000E9471031C01F7FAF094F7F8F09410E04A
:102B800060E070E080E09FE3711641F020E030E00B
:102B900040E251E40E949F291F5FF6CFA7019601F2
:102BA0000E942E292B013C010E94112A4B015C013D
:102BB0002AE0BC01A401CE010E94BF147C01E20CFA
:102BC000F31C1123C1F1C501B4010E94B5279B017B
:102BD000AC01C301B2010E942D294B015C016EE2E0
:102BE000CE010E947103E80EF91E115020F120E081
:102BF00030E040E251E4C501B4010E9416282B01E7
:102C00003C010E94112A4B01B12CA12C2AE0B501F4
:102C1000A401CE010E94BF14E80EF91EC501B40143
:102C20000E94B5279B01AC01C301B2010E942D296E
:102C30004B015C01DACFC701DF91CF911F91FF906B
:102C4000EF90DF90CF90BF90AF909F908F907F904C
:102C50006F905F904F903F902F9008950C94B01418
:102C6000CF93DF93EC018091FB039091FC030097DD
:102C700059F02091FD033091FE032C173D0720F001
:102C800081E0DF91CF910895BE016F5F7F4F0E9479
:102C9000C22C009789F09093FC038093FB03D093A0
:102CA000FE03C093FD032091FF0330910004232B0A
:102CB00039F7FC011082E4CF80E0E3CF0F931F933C
:102CC000CF93DF938C01EC0109900020E9F7219765
:102CD000C81BD90BCE010E9430162091FB03309106
:102CE000FC03811117C02115310519F0C9010E949B
:102CF000392C1092FC031092FB03109200041092E6
:102D0000FF031092FE031092FD03DF91CF911F91FC
:102D10000F910895D0930004C093FF03B801C90137
:102D2000DF91CF911F910F910C948D2D2F923F9297
:102D30004F925F926F927F928F929F92AF92BF92CB
:102D4000CF92DF92EF92FF920F931F93CF93DF9377
:102D5000CDB7DEB7C254D1090FB6F894DEBF0FBEAF
:102D6000CDBF9E878D877EAF6DAF5A834983190192
:102D70002701380121969FAE8EAE21974217530747
:102D800024F0832D1A0129838A83A6019501C301AA
:102D9000B2010E942D299B01AC015F772D833E83F8
:102DA0004F83588720E030E044EB53E4C301B20185
:102DB0000E944B2A2B013C0120E030E044EB53E41D
:102DC000C601B5010E944B2A6B017C0120E030E076
:102DD000A901C301B2010E94B02787FF0AC020E009
:102DE00030E044EB53E4C301B2010E942E292B01D1
:102DF0003C0120E030E0A901C701B6010E94B027E4
:102E000087FF0AC020E030E044EB53E4C701B6017D
:102E10000E942E296B017C0120E030E040E054E369
:102E20006D817E818F8198850E94B02787FD18C0B3
:102E3000A7019601C301B2010E942D299F7727E1C6
:102E400037EB41ED58E30E94B02718164CF0C12C27
:102E5000D12C84EBE82E83E4F82E412C512C320146
:102E6000AD85BE85ED91FC9111970484F585E02D2B
:102E7000CD01099520E030E044EB52E4C301B201FA
:102E80000E94B0278823F1F020E030E044E353E4CF
:102E9000C301B2010E94B0278823A1F020E030E0F6
:102EA00047E853E4C301B2010E94B027882351F0E0
:102EB00020E030E044EB53E4C301B2010E94B027AC
:102EC00081110AC02DEC3CEC4CEC5DE3C301B20176
:102ED0000E942D292B013C0120E030E044EB52E41C
:102EE000C701B6010E94B0278823F1F020E030E04E
:102EF00044E353E4C701B6010E94B0278823A1F040
:102F000020E030E047E853E4C701B6010E94B02753
:102F1000882351F020E030E044EB53E4C701B601D0
:102F20000E94B02781110AC02DEC3CEC4CEC5DE313
:102F3000C701B6010E942D296B017C0125E33AEF00
:102F40004EE85CE3C301B2010E9416284B015C010C
:102F50000E949A296D837E838F83988725E33AEFB9
:102F60004EE85CE3C701B6010E9416286F87788B94
:102F7000898B9A8B0E949A2969877A878B879C878D
:102F8000C501B4010E94E62A9B01AC016D817E81DE
:102F90008F8198850E949F296CA37DA38EA39FA3F8
:102FA0006F85788989899A890E94E62A9B01AC01FC
:102FB00069857A858B859C850E949F2968A779A75A
:102FC0008AA79BA72D813E814F81588560E070E0E4
:102FD00080E09FE30E949F296CA77DA78EA79FA7F3
:102FE00029853A854B855C8560E070E080E09FEB49
:102FF0000E949F2968AB79AB8AAB9BAB29813A8150
:103000002150310949815A81249FC001259F900D8B
:10301000349F900D11249C01990F440B550B2B8B61
:103020003C8B4D8B5E8B81010F5F1F4F029DC0015A
:10303000039D900D129D900D11249C01990F440B3E
:10304000550B2F87388B498B5A8B20E030E044E3B7
:1030500053E4C301B2010E94B027881F8827881F4C
:1030600091E089278CAB20E030E044E353E4C701D2
:10307000B6010E94B027881F8827881F8BA3882449
:10308000992482189308092C000CAA08BB08C101D6
:10309000330CAA0BBB0B8F8F98A3A9A3BAA39801DB
:1030A000110F440B550B2D833E834F83588720E02F
:1030B00030E044E353E4C301B2010E942E299B0196
:1030C000AC01C701B6010E94E12A18160CF4DFC05A
:1030D000A7019601C301B2010E94E12A181684F4E7
:1030E00020E030E044E353E4C701B6010E942E29FA
:1030F0009B01AC01C301B2010E94B02787FDC7C08C
:1031000020E030E047E853E4C701B6010E94E12A1D
:1031100087FF0AC020E030E044EB52E4C701B6016B
:103120000E94B02787FF14C020E030E047E853E456
:10313000C301B2010E94E12A87FF96C020E030E07F
:1031400044EB52E4C301B2010E94B02787FD8CC05A
:1031500020E030E047E853E4C701B6010E94B02701
:1031600087FF87C020E030E044EB52E4C701B6019E
:103170000E94E12A87FD7DC020E030E047E853E46B
:10318000C301B2010E94B02787FF73C020E030E086
:1031900044EB52E4C301B2010E94E12A89829A827F
:1031A000AB82BC8287FF6AC020E030E044E353E496
:1031B000C701B6010E94E12A87FD0AC020E030E085
:1031C00044E353E4C301B2010E94E12A87FF66C0D1
:1031D00020E030E044E353E4C701B6010E94B02789
:1031E000312C87FF0BC020E030E044E353E4C301FF
:1031F000B2010E94B027312C87FD56C0A501940171
:10320000C501B4010E942E2B6F8B788F898F9A8F06
:1032100029813A814B815C81412C512C320121154D
:1032200031054105510509F457C029013A01A301AF
:103230009201C301B2010E942E2B2F89388D498D36
:103240005A8D620F731F841F951F2F8538894989F6
:103250005A89621773078407950754F13FEF431AA1
:10326000530A630A730AE3CF19821A821B821C82F3
:103270009BCF89829A82AB82BC8296CF81E090E01C
:10328000A0E0B0E08D839E83AF83B8878DCF898225
:103290009A82AB82BC8233243394B0CF312C1F8E00
:1032A00018A219A21AA2AACF812C912C5401A6CF40
:1032B0008D819E81AF81B8850197A105B10561F02F
:1032C00021E030E040E050E0241935094609570973
:1032D0002D833E834F835887C501B4010E94B727D1
:1032E0006B017C01AC019B016CA57DA58EA59FA502
:1032F0000E942E292CA13DA14EA15FA10E9416285B
:103300006DAB7EAB8FAB98AFA701960168A979A989
:103310008AA99BA90E942E2928A539A54AA55BA5A3
:103320000E94162869AF7AAF8BAF9CAFC12CD12C0D
:103330007601A40143565F4F23965FAF4EAF2397AC
:10334000A3019201C301B2010E942E2B2F89388D57
:10335000498D5A8D260F371F481F591F29873A87D5
:103360004B875C878B899C89AD89BE892817390773
:103370004A075B074CF1C301B2010E94B7276B8F6C
:103380007C8F8D8F9E8F11E09B01AC0169AD7AAD72
:103390008BAD9CAD0E94E12A87FD10E001E02B8DF2
:1033A0003C8D4D8D5E8D6DA97EA98FA998AD0E9433
:1033B000E12A87FD00E09CA9901709F448C0ABA161
:1033C000A1134CC031104AC0C114D104E104F1046E
:1033D000C9F06DAD7EAD640D751D6C197D09AD85AF
:1033E000BE85ED91FC9111970288F389E02D21961D
:1033F0000EAD1FAD2197960123964EAD5FAD23977D
:10340000CD0109952F85388949895A8989859A85F9
:10341000AB85BC8582179307A407B5070CF04AC09B
:1034200077FE11C02B893C894D895E8982179307ED
:10343000A407B50744F47094609450944094411CE0
:10344000511C611C711CC12CD12C760124C033206D
:1034500009F4BACFBBA1B11709F4B6CF2D813E81D3
:103460004F815885421653066406750609F4ACCFA1
:103470008F859889A989BA8929853A854B855C8584
:10348000281739074A075B070CF046C03FEFC31AFD
:10349000D30AE30AF30A3FEF431A530A630A730A93
:1034A0008D819E81AF81B88584159505A605B705E8
:1034B0000CF046CF9FEF891A990AA90AB90A2F8DF5
:1034C00038A149A15AA1281539054A055B050CF018
:1034D00095CEAD85BE85ED91FC9111970688F78953
:1034E000E02DCD01CE5BDF4F0FB6F894DEBF0FBEEF
:1034F000CDBFDF91CF911F910F91FF90EF90DF90A3
:10350000CF90BF90AF909F908F907F906F905F9083
:103510004F903F902F900994C114D104E104F1041D
:1035200049F257CF0E947F2D85ED8093BC0080919A
:10353000CC039091CD03A091CE03B091CF03079619
:10354000A11DB11D23E0B695A795979587952A955E
:10355000D1F72091BC0024FD03C01092CA03089546
:103560004091CC035091CD036091CE037091CF0375
:10357000452B462B472B69F30097A105B10541F078
:1035800025E32A95F1F700000197A109B109E1CFE0
:103590008091CB030C94D7044F925F926F927F92ED
:1035A0008F929F92AF92BF92CF92DF92EF92FF9253
:1035B0000F931F93CF93DF936C01DC019E968C9148
:1035C00061E08F3F09F454C00E94F10361E0E6011D
:1035D0008EA50E94A50364E670E080E090E00E9462
:1035E000470460E08EA50E94A50366E970E080E0D4
:1035F00090E00E94470461E08EA50E94A50366E961
:1036000070E080E090E00E944704D6019C960D9106
:103610001C91F601EF5BFF4F408051803297E080B4
:10362000F180D0E0C0E027ECA22E21E0B22EC4153C
:10363000D50508F0D0C0F701EC0FFD1FE0814E0169
:10364000BFEF8B1A9B0AED3008F0A7C0F0E0E55DF4
:10365000F44E0C94742B791B841B5E1B891B501B2E
:10366000DC1BA31B3E1B821BA81B861BBB1BC21B98
:10367000F60184A595A50E942712C1CF80E077248A
:103680007394780ED701A80DB91DE801E881F9817E
:103690000680F781E02D6C91C8010995E40102C014
:1036A00077247394219647018C0E9D1E672C6A9493
:1036B000FFEF6F1284C0C70DD11DB9CF712CF70178
:1036C000E80DF91D8081809326032296F701EC0F07
:1036D000FD1F80818093250360912503709126034F
:1036E000D801ED91FC910084F185E02DC801099588
:1036F000D9CFD801ED91FC910280F381E02DC80172
:1037000009951FC081E0BBCF712CBCCF92E0792E10
:10371000D6CFF701E80DF91D7080272D30E050E07D
:1037200040E0BE016E5F7F4F6E0D7F1DE801E881B6
:10373000F9810284F385E02DC8010995E401C70DE4
:10374000D11D712CAFCFF701E80DF91D7080A6CF08
:10375000D701A80DB91DF80180819181FC01268156
:1037600037816C91C801F90109952296F701EC0F98
:10377000FD1F708097CFD801ED91FC910480F581F9
:10378000E02DBDCFF701E80DF91D608170E090E0FC
:1037900080E00E944704E401D4CF1F92EF93DF93AF
:1037A000CF93BF92AF920E94942D0F900F900F90E5
:1037B0000F900F900F90C5CF82E0782E73CFD40179
:1037C0006D914D01D801ED91FC910484F585E02DBA
:1037D000C80109956CCFE601E881F981028CF38D6F
:1037E000E02D60E0C601DF91CF911F910F91FF9016
:1037F000EF90DF90CF90BF90AF909F908F907F9091
:103800006F905F904F9009940F931F93CF93DF9326
:10381000EC014F3F8FEF58076807780721F440E02D
:1038200052E16AE770E04A835B836C837D832E8379
:1038300061E08F810E94F10361E08F810E94A50306
:1038400088858F3F39F061E00E94F10361E088854F
:103850000E94A5038F81082E000C990BFC01E453F4
:10386000FA4FE491F0E0EE0FFF1FE057FA4F259179
:1038700034913F872E87FC01E255FA4FE491EA8BA1
:10388000E095EB8B88858F3FA9F0082E000C990BF3
:10389000FC01E453FA4FE491F0E0EE0FFF1FE05714
:1038A000FA4F259134913D872C87FC01E255FA4F60
:1038B000E491E88B88898095898B1FB7F894809173
:1038C0002203811127C0E6EDF5E08491E8EBF5E0F5
:1038D0009491E82FF0E0EE0FFF1FEA57FA4FA59101
:1038E000B491EC91E92321F461E08AE00E94A50300
:1038F00061E08AE00E94F1038CB580618CBD8CB5DB
:1039000080648CBD61E08DE00E94F10361E08BE09A
:103910000E94F103809122038F5F809322031FBFD7
:103920008E818F3F11F488E08E839E810A811B81F6
:103930002C813D8140E052E16AE770E080E00417AD
:1039400015072607370740F47695679557954795ED
:103950008F5F8630A1F787E09C709065282F2695B1
:10396000922B9093F403809581708093F50381E00E
:10397000DF91CF911F910F9108950C94D4281F923D
:103980000F920FB60F9211242F933F938F939F9313
:10399000AF93BF9380916C0390916D03A0916E03E0
:1039A000B0916F0330916B0323E0230F2D3758F54F
:1039B0000196A11DB11D20936B0380936C0390931E
:1039C0006D03A0936E03B0936F0380917003909189
:1039D0007103A0917203B09173030196A11DB11DF3
:1039E0008093700390937103A0937203B093730359
:1039F000BF91AF919F918F913F912F910F900FBEEB
:103A00000F901F90189526E8230F0296A11DB11D57
:103A1000D2CF1F920F920FB60F9211242F933F9384
:103A20004F935F936F937F938F939F93AF93BF93C6
:103A3000EF93FF93E0910401F09105010995FF9147
:103A4000EF91BF91AF919F918F917F916F915F9116
:103A50004F913F912F910F900FBE0F901F9018958F
:103A60001F920F920FB60F9211242F933F934F93F3
:103A70005F936F937F938F939F93AF93BF93EF93D6
:103A8000FF93E0910201F09103010995FF91EF91FD
:103A9000BF91AF919F918F917F916F915F914F9166
:103AA0003F912F910F900FBE0F901F9018951F926E
:103AB0000F920FB60F9211242F933F934F935F9362
:103AC0006F937F938F939F93AF93BF93EF93FF93E6
:103AD0008091B900887F803609F44AC0F0F58832B9
:103AE00009F4A7C018F5803109F49BC0B8F4882305
:103AF00009F4F9C0883009F494C0FF91EF91BF91A7
:103B0000AF919F918F917F916F915F914F913F9175
:103B10002F910F900FBE0F901F901895883109F4C8
:103B200088C0803251F78093C80314C0803409F4F0
:103B30009DC040F48033B9F38833F9F68093C8030D
:103B400085ECB0C0803509F485C0883509F496C08D
:103B5000883499F60E94941AD0CF883909F48CC021
:103B600038F5883729F050F4883611F0803729F677
:103B700083E08093CA0310926A0357C0883809F41F
:103B80007BC0803919F0803809F0B7CF80916A0383
:103B9000803208F071C0E0916A0381E08E0F80935B
:103BA0006A038091BB00F0E0E65BFC4F80833DC080
:103BB000803B39F0E0F4803A09F479C0883A09F0A2
:103BC0009CCF84E08093CA0310924903109248036B
:103BD000E0918003F0918103099580914803811160
:103BE0000FC081E0809348031092280309C0803CF5
:103BF00009F4A6CF883C09F4A3CF883B09F07DCF18
:103C0000E091490381E08E0F80934903F0E0E85D85
:103C1000FC4F80818093BB009091490380914803C1
:103C200029C08091A5038093BB0085EC8093BC00E4
:103C300064CF9091C7038091C603981758F5E0911F
:103C4000C70381E08E0F8093C703F0E0EA55FC4F75
:103C50008081E9CFE091C70381E08E0F8093C70395
:103C60008091BB00F0E0EA55FC4F80839091C70340
:103C70008091C6039817C8F285E8D8CFE091C703B2
:103C800081E08E0F8093C7038091BB00F0E0EA557E
:103C9000FC4F80838091C90381115CCF81E08093C8
:103CA000A40384EA8093BC001092CA0326CF85EC5B
:103CB0008093BC001092CA0380916A03803230F472
:103CC000E0916A03F0E0E65BFC4F108260916A03CA
:103CD00070E0E0917E03F0917F038AE493E0099520
:103CE00010926A030ACF1092C80334CF1F93CF9368
:103CF000DF931092100410920F0488EE93E0A0E07E
:103D0000B0E08093110490931204A0931304B09335
:103D1000140483E191E090930E0480930D0480E5F8
:103D20008093F4031092F50384E190E00E949D2BB0
:103D3000EC0183E591E09983888388E08F8389E0B3
:103D400088878AEF93E09A87898711E01B87D09351
:103D50002804C093270483E490E00E949D2BFC017B
:103D60001382128220EF30E034A323A380E491E099
:103D700096A385A317A235832483978386832FEE8A
:103D800030E0318720878FE391E093878287158623
:103D9000148617861686318B208B938B828B158A1F
:103DA000148A178A168A8FEF9FEF918F808F938FD7
:103DB000828F148F158F168E178E10A312A211A248
:103DC000D5A7C4A787E086A717A610AA11AA12AA8A
:103DD00013AA8FEF86AF85E291E091838083DF01A4
:103DE000DF9683E791E011969C938E93129688E478
:103DF00090E08D939C93F0932604E0932504109219
:103E00002404109223048DE094E090932204809384
:103E1000210480E090E0A0ECBFE780931904909328
:103E20001A04A0931B04B0931C0480931D04909368
:103E30001E04A0931F04B093200462E082E00E945D
:103E4000F10362E083E00E94F103EEECF5E0E4911F
:103E5000F0E0EE0FFF1FEE53FA4FA591B491B0932F
:103E60000204A0930104E0EBF5E0449140930504C3
:103E7000EFECF5E0E491F0E0EE0FFF1FEE53FA4FA8
:103E8000C591D491D0930404C0930304E1EBF5E011
:103E9000E491E09306041092080410920904109231
:103EA0000A0410920B042BE33FE1C9010197F1F7DB
:103EB0009C91842F892391E009F490E08881E82384
:103EC00009F0926021E034E0909307043093F70307
:103ED0002093F60385E593E190930301809302011B
:103EE000809169008C7F816080936900E89A81E00D
:103EF00080930C043093F9032093F8038BE593E14E
:103F0000909305018093040180916900837F846010
:103F100080936900E99A82E080930C041092FC037C
:103F20001092FB031092FE031092FD031092000406
:103F30001092FF0384E090E00E9430162091FB0372
:103F40003091FC03811116C02115310519F0C9010A
:103F50000E94392C1092FC031092FB031092000473
:103F60001092FF031092FE031092FD03DF91CF9198
:103F70001F91089584E090E0909300048093FF03E4
:103F800067EE71E0C901DF91CF911F910C948D2DE7
:103F9000CF93DF93CDB7DEB72D970FB6F894DEBF82
:103FA0000FBECDBF789484B5826084BD84B5816036
:103FB00084BD85B5826085BD85B5816085BD8091F4
:103FC0006E00816080936E0010928100809181006C
:103FD0008260809381008091810081608093810064
:103FE000809180008160809380008091B100846026
:103FF0008093B1008091B00081608093B000809187
:104000007A00846080937A0080917A008260809345
:104010007A0080917A00816080937A0080917A00A2
:10402000806880937A001092C1008091250490915D
:104030002604DC01ED91FC910084F185E02D4FEF29
:104040005FEFBA0109958091250490912604DC0167
:10405000ED91FC91008CF18DE02D61E009950E94BD
:10406000C0048091230490912404009711F00E94D1
:10407000392C86E090E00E949D2B8C0180912104D8
:104080009091220424E4F801208392838183138297
:1040900080E290E0958384831093240400932304AA
:1040A0000E94C00481E0D80113968C93C8010E943D
:1040B00006068823C9F082EA90E30E9486146AE02B
:1040C00070E080E090E00E9447048DE293EF0E9450
:1040D000861443E050E0BE016F5F7F4F8091230460
:1040E000909124040E94611361E085E00E94F10335
:1040F00060E085E00E94A50362E084E00E94F10395
:1041000090E080E00E94BD1C8F3609F006C78CEE5F
:1041100091E00E945E1681E090E00E94BD1C682F35
:1041200080ED860F8A3098F4062E000C770B6053D2
:104130007109072E000C880B990B0E94B72760931A
:104140007A0370937B0380937C0390937D0382E0DA
:1041500090E00E94BD1C90ED980F9A3040F4082E1C
:10416000000C990BC097909301018093000183E0AC
:1041700090E00E94BD1C8093790384E090E00E944F
:10418000BD1C8093780385E090E00E94BD1C809365
:10419000770386E090E00E94BD1C809376038091B7
:1041A0002504909126040E94C00AE0912504F09114
:1041B0002604168EFF24F394F48EF58E80EE97E09D
:1041C000938F828F918F808F0AE010E0158B048B84
:1041D00084E190E0978B868B63EF71E0CF010E94C2
:1041E0002E1668EE73E080E090E00E944704809114
:1041F000250490912604FC01158B048B28E230E005
:10420000378B268B63E072E00E942E161982009194
:10421000740310917503D80114968D919C91159794
:10422000892BE1F08C91F092D0038093F2031092ED
:10423000D1031092F30320E041E050E0BE016F5F34
:104240007F4FC8010E94E805882341F047E050E015
:10425000BE016F5F7F4FC8010E9461132A81822FC8
:1042600090E044E0959587954A95E1F7982F990F4E
:10427000990F182F191B110F120F2B81822F90E00D
:1042800054E0959587955A95E1F7982F990F990FD6
:10429000682F691B660F620F809125049091260498
:1042A0000E940B1563EF72E0809125049091260423
:1042B0000E942E16612F80912504909126040E9461
:1042C0000B1568EE73E080E090E00E944704809157
:1042D0002504909126042AE030E0FC01358B248BE4
:1042E0002CE330E0378B268B6AE072E00E942E16BA
:1042F000009125041091260480E094E20E94861427
:10430000882309F415C664E170E080E090E00E9423
:10431000470446E050E0BE016F5F7F4F8091230469
:10432000909124040E946113882309F401C6FB8044
:10433000CE0101960E941C03F812FAC5FE80CE0140
:1043400004960E941C03F812F3C529813A81322792
:1043500023273227A7E1B1E10E941E292EE095957F
:104360008795779567952A95D1F7645971418109A9
:1043700091090E94B72720E030E048EC52E40E9407
:104380009F296B017C01C0921D04D0921E04E09213
:104390001F04F09220042C813D81322723273227ED
:1043A000A1E7B2E00E941E293CE09695879577959B
:1043B00067953A95D1F70E94B52720E030E048ECA8
:1043C00052E40E949F296093190470931A04809309
:1043D0001B0490931C0422E0B701A601C8010E94AF
:1043E000481568EE73E080E090E00E9447048091F9
:1043F0002504909126040AE010E0DC0155961C93F8
:104400000E93549720E530E057963C932E935697A1
:1044100068E172E00E942E1640917A0350917B036E
:1044200060917C0370917D0322E08091250490913E
:1044300026040E94481568EE73E080E090E00E9438
:1044400047048091250490912604FC01158B048B70
:1044500024E630E0378B268B6CE272E00E942E1649
:1044600060910001709101018091250490912604D2
:104470000E94121568EE73E080E090E00E9447040D
:104480008091250490912604DC0155961C930E938F
:10449000549728E730E057963C932E93569762E462
:1044A00072E00E942E168091250490912604FC0152
:1044B000158B048B2CE830E0378B268B64E572E09B
:1044C0000E942E1660917903809125049091260414
:1044D0000E940B158091250490912604DC015596CD
:1044E0001C930E93549720EA30E057963C932E93FA
:1044F000569767E572E00E942E16609178038091CE
:104500002504909126040E940B158091250490911A
:104510002604FC01158B048B24EB30E0378B268BB3
:104520006AE572E00E942E1660917703809125045F
:10453000909126040E940B158091250490912604E9
:10454000DC0155961C930E93549728EC30E0579657
:104550003C932E9356976DE572E00E942E16609163
:10456000760380912504909126040E940B1568E83B
:1045700073E180E090E00E944704809125049091CF
:1045800026040E94C00A66246A94762C00E5202E38
:10459000312CE0912504F0912604738E628E718E89
:1045A000608E168E82E0582E548E558E26E330E0B3
:1045B000358B248B83E090E0978B868B60E672E0EE
:1045C000CF010E942E168091250490912604EAE0E6
:1045D000F0E0DC015596FC93EE93549729E130E02E
:1045E00057963C932E93569763E772E00E942E16DF
:1045F00090E1892E94E8992EA12CB12C27E8C22EA7
:1046000023E4D22EE12CF12C04E313E42CE430E07B
:1046100048E550E064E670E080912504909126041E
:104620000E949616812C48EF942EA12CB12C5AE4AE
:10463000C52E53E4D52E21E430E04BE450E064E68F
:1046400070E080912504909126040E94961660EEF9
:10465000862E99249A94A12CB12C70E6C72E73E46F
:10466000D72EE12CF12C0CE413E421E430E04BE4F0
:1046700050E064E670E080912504909126040E9449
:104680009616F0EE8F2EF7E09F2EA12CB12CA6E708
:10469000CA2EA3E4DA2EE12CF12C02E613E421E485
:1046A00030E04BE450E064E670E0809125049091A6
:1046B00026040E9496161FE1812E912CA12CB12C6C
:1046C00007E8C02E03E4D02EE12CF12C08E713E418
:1046D00021E430E04BE450E064E670E08091250492
:1046E000909126040E949616E0912504F0912604EC
:1046F000738E628E718E608E168E44244394448E27
:10470000458E82E190E0958B848BA8E9B0E0B78B71
:10471000A68B70E060E0CF010E9412158091250405
:104720009091260424E230E0FC01358B248BA1E635
:10473000B0E0B78BA68B62E370E00E941215809107
:1047400025049091260429E530E0FC01358B248B6B
:10475000A9E4B0E0B78BA68B64E670E00E94121566
:10476000E0912504F0912604358A248A2DEA30E070
:10477000378B268B168E548E558E6AE772E0CF01EA
:104780000E942E1690E1892E94E8992EA12CB12C2E
:1047900024EBC22E23E4D22EE12CF12C04E313E40B
:1047A0002AE530E046E650E06DEC70E080912504AB
:1047B000909126040E9496164FE1842E912CA12CF4
:1047C000B12C50E6C52E53E4D52E2FE430E049E558
:1047D00050E06DEC70E080912504909126040E94D9
:1047E000961660EE862E67E0962EA12C70E8B72E06
:1047F00076E8C72E73E4D72EE12CF12C02E613E401
:104800002FE430E049E550E06DEC70E08091250444
:10481000909126040E949616F0EE8F2E99249A9479
:10482000A12CB12CADE9CA2EA3E4DA2EE12C10E8BC
:10483000F12E07E813E42FE430E049E550E06DEC99
:1048400070E080912504909126040E949616812C98
:1048500018EF912EA12CB12C04EBC02E03E4D02E26
:10486000E12CF12C0EE913E42FE430E049E550E0AF
:104870006DEC70E080912504909126040E949616BC
:10488000E0912504F0912604738E628E718E608E05
:10489000168E448E458E8CE690E0958B848B88E94D
:1048A00090E0978B868B70E060E0CF010E9412153C
:1048B000809125049091260422E830E0DC01559691
:1048C0003C932E93549727E530E057963C932E93D4
:1048D00056976EE170E00E94121580912504909128
:1048E000260427EC30E0FC01358B248B2BE330E0F1
:1048F000378B268B6CE370E00E94121580912504A3
:10490000909126042DE031E0DC0155963C932E93E6
:10491000549725E530E057963C932E9356976AE5D9
:1049200070E00E94121580912504909126042EE1DA
:1049300031E0FC01358B248B28E930E0378B268B66
:1049400068E770E00E941215E0912504F0912604BA
:10495000738E628E718E608E168E548E558E8DED96
:1049600090E0958B848B8DEA90E0978B868B68EF37
:10497000CF010E947103809125049091260429EEB5
:1049800030E0DC0155963C932E935497EDEAF0E02D
:104990005796FC93EE9356976DE772E00E942E16A1
:1049A00080912504909126042FE030E0DC0155969B
:1049B0003C932E93549722E3C22ED12C5796DC922F
:1049C000CE9256976FE772E00E942E1640E850E0B4
:1049D0006DEC70E080912504909126040E943C03C8
:1049E00045E250E064E670E0809125049091260451
:1049F0000E943C03E0912504F0912604738E628EA0
:104A0000718E608E168E548E558E38E2832E912CC8
:104A1000958A848A2DEA30E0378B268B65E872E030
:104A2000CF010E942E16E0912504F0912604738E8A
:104A3000628E718E608E168E548E558E89EB90E04C
:104A4000958B848B8DEA90E0978B868B65E872E07E
:104A5000CF010E942E1660E970E0809125049091AC
:104A600026040E94EC0AE0912504F0912604168E9B
:104A7000548E558E738E628E718E608E8BE890E0B0
:104A8000958B848BADEAB0E0B78BA68B69E872E0BA
:104A9000CF010E942E166EE071E080912504909166
:104AA00026040E94EC0AE0912504F0912604168E5B
:104AB000548E558E738E628E718E608E8AE091E078
:104AC000958B848B2DEA30E0378B268B61EF71E07C
:104AD000CF010E942E16E0912504F0912604738EDA
:104AE000628E718E608E958A848A0CED10E0178B31
:104AF000068B6CEE71E0CF010E942E16E09125042A
:104B0000F0912604738E628E718E608E8CE890E038
:104B1000958B848B178B068B67EE71E0CF010E941B
:104B20002E16E0912504F0912604738E628E718E0C
:104B3000608E80EF90E0958B848B178B068B6FEEE9
:104B400071E0CF010E942E1668E873E180E090E0EA
:104B50000E94470480912504909126040E94C00A77
:104B6000E0912504F0912604738E628E718E608E22
:104B7000168E548E558E358A248AAAE0B0E0B78B03
:104B8000A68B6BE872E0CF010E942E16809125045F
:104B90009091260444E1E42EF12CFC01F58AE48A8C
:104BA000D78AC68A63E972E00E942E168091250496
:104BB00090912604DC015596FC92EE9254975796FC
:104BC0003C922E9256976DE972E00E942E168091CB
:104BD000250490912604FC01F58AE48A5EE6A52E60
:104BE000B12CB78AA68A6EEA72E00E942E168091D6
:104BF000250490912604DC015596FC92EE92549780
:104C0000ECE8F0E05796FC93EE9356976EEB72E06B
:104C10000E942E16809125049091260404EB10E04A
:104C2000DC0155961C930E9354975796DC92CE92C6
:104C300056976FE772E00E942E168091250490919E
:104C40002604FC01158B048B378A268A65E872E0FE
:104C50000E942E168091250490912604DC01559621
:104C60001C930E9354975796BC92AE92569766E853
:104C700072E00E942E1668E873E180E090E00E94E6
:104C8000470480912504909126040E94C00AE09177
:104C90002504F0912604738E628E718E608E168EBE
:104CA000548E558E86E490E0958B848B2AE030E01C
:104CB000378B268B69EC72E0CF010E942E16809113
:104CC000250490912604DC015596FC92EE925497AF
:104CD0005796DC92CE92569768ED72E00E942E169F
:104CE0008091250490912604FC01958A848A378A54
:104CF000268A60EE72E00E942E1680912504909123
:104D00002604DC0155969C928E9254975796BC923D
:104D1000AE9256976AEE72E00E942E16809125049C
:104D200090912604FC01958A848A2CE830E0378B28
:104D3000268B65EF72E00E942E16809125049091DB
:104D4000260460EA462E512CDC0155965C924E9268
:104D500054975796DC92CE92569768E073E00E9483
:104D60002E168091250490912604FC01158B048B4E
:104D7000378A268A60EE72E00E942E168091250402
:104D800090912604DC0155961C930E9354975796E8
:104D9000BC92AE9256976AEE72E00E942E168091F7
:104DA000250490912604FC01158B048B2CE830E03F
:104DB000378B268B65EF72E00E942E1680912504BA
:104DC00090912604DC015596FC92EE9254977AEA73
:104DD000C72ED12C5796DC92CE92569760E173E0A5
:104DE0000E942E168091250490912604FC01958A3C
:104DF000848AA8ECEA2EF12CF78AE68A60EE72E04B
:104E00000E942E168091250490912604DC0155966F
:104E10005C924E9254975796DC92CE92569769E1E7
:104E200073E00E942E168091250490912604FC01C7
:104E3000158B048BF78AE68A60EE72E00E942E16CC
:104E40008091250490912604DC0155961C930E93C5
:104E5000549757963C922E9256976FE772E00E94B5
:104E60002E168091250490912604B0E4CB2EDD24EB
:104E7000D394FC01D58AC48A378A268A6FE772E008
:104E80000E942E168091250490912604DC015596EF
:104E90001C930E9354975796FC92EE9256976FE799
:104EA00072E00E942E168091250490912604FC0148
:104EB000158B048BB78AA68A6FE772E00E942E16C4
:104EC0008091250490912604DC015596DC92CE92C7
:104ED00054975796BC92AE9256976FE772E00E9435
:104EE0002E16E0902504F0902604F701158B048B14
:104EF00086EE90E0978B868B68E873E180E090E027
:104F00000E944704C7010E94C00A80E090E0892BFC
:104F100009F43FCB0E9400003CCB813619F487EEA8
:104F200091E0F7C8863609F0F6C88FEE91E0F1C837
:104F3000C12CD12C80ECE82E8FE7F82E4CCA809142
:104F4000FB039091FC03009711F00E94392C809193
:104F5000230490912404009711F00C94392C0895A7
:104F60000E94F22708F481E00895E89409C097FBB5
:104F70003EF490958095709561957F4F8F4F9F4F30
:104F80009923A9F0F92F96E9BB279395F695879574
:104F900077956795B795F111F8CFFAF4BB0F11F437
:104FA00060FF1BC06F5F7F4F8F4F9F4F16C08823DE
:104FB00011F096E911C0772321F09EE8872F762F14
:104FC00005C0662371F096E8862F70E060E02AF055
:104FD0009A95660F771F881FDAF7880F9695879541
:104FE00097F90895990F0008550FAA0BE0E8FEEF16
:104FF00016161706E807F907C0F012161306E4079D
:10500000F50798F0621B730B840B950B39F40A2695
:1050100061F0232B242B252B21F408950A2609F473
:10502000A140A6958FEF811D811D08950E9429281A
:105030000C949A280E948C2838F00E94932820F023
:10504000952311F00C9483280C94892811240C9436
:10505000CE280E94AB2870F3959FC1F3950F50E0C6
:10506000551F629FF001729FBB27F00DB11D639F1A
:10507000AA27F00DB11DAA1F649F6627B00DA11DC0
:10508000661F829F2227B00DA11D621F739FB00D66
:10509000A11D621F839FA00D611D221F749F3327D6
:1050A000A00D611D231F849F600D211D822F762F6F
:1050B0006A2F11249F5750409AF0F1F088234AF04C
:1050C000EE0FFF1FBB1F661F771F881F91505040B8
:1050D000A9F79E3F510580F00C9483280C94CE28AC
:1050E0005F3FE4F3983ED4F3869577956795B7953F
:1050F000F795E7959F5FC1F7FE2B880F911D969559
:10510000879597F9089597F99F6780E870E060E0C8
:1051100008959FEF80EC089500240A941616170650
:1051200018060906089500240A9412161306140698
:1051300005060895092E0394000C11F4882352F0FB
:10514000BB0F40F4BF2B11F460FF04C06F5F7F4FB3
:105150008F4F9F4F089557FD9058440F551F59F09A
:105160005F3F71F04795880F97FB991F61F09F3F54
:1051700079F087950895121613061406551FF2CF7D
:105180004695F1DF08C0161617061806991FF1CFCD
:1051900086957105610508940895E894BB276627F4
:1051A0007727CB0197F90895F999FECF92BD81BD7C
:1051B000F89A992780B508950E941E29A59F900D01
:1051C000B49F900DA49F800D911D112408952F92DE
:1051D0003F924F925F926F927F928F929F92AF9287
:1051E000BF92CF92DF92EF92FF920F931F93CF93D4
:1051F000DF93CDB7DEB7CA1BDB0B0FB6F894DEBF6B
:105200000FBECDBF09942A88398848885F846E8490
:105210007D848C849B84AA84B984C884DF80EE80DA
:10522000FD800C811B81AA81B981CE0FD11D0FB6E3
:10523000F894DEBF0FBECDBFED010895A29FB0016F
:10524000B39FC001A39F700D811D1124911DB29FBA
:10525000700D811D1124911D08955058BB27AA2758
:105260000E9445290C949A280E948C2838F00E94AC
:10527000932820F039F49F3F19F426F40C948928E0
:105280000EF4E095E7FB0C948328E92F0E94AB28ED
:1052900058F3BA17620773078407950720F079F46B
:1052A000A6F50C94CD280EF4E0950B2EBA2FA02D68
:1052B0000B01B90190010C01CA01A0011124FF27C3
:1052C000591B99F0593F50F4503E68F11A16F040BE
:1052D000A22F232F342F4427585FF3CF46953795BD
:1052E0002795A795F0405395C9F77EF41F16BA0B82
:1052F000620B730B840BBAF09150A1F0FF0FBB1F30
:10530000661F771F881FC2F70EC0BA0F621F731F78
:10531000841F48F4879577956795B795F7959E3FD5
:1053200008F0B0CF9395880F08F09927EE0F979566
:10533000879508950E94A42AE3950C94CD2A0E9493
:10534000B3290C949A280E94932858F00E948C2824
:1053500040F029F45F3F29F00C94832851110C94FC
:10536000CE280C9489280E94AB2868F39923B1F3C6
:10537000552391F3951B550BBB27AA27621773077B
:10538000840738F09F5F5F4F220F331F441FAA1F0F
:10539000A9F335D00E2E3AF0E0E832D091505040CB
:1053A000E695001CCAF72BD0FE2F29D0660F771F79
:1053B000881FBB1F261737074807AB07B0E809F05F
:1053C000BB0B802DBF01FF2793585F4F3AF09E3FE4
:1053D000510578F00C9483280C94CE285F3FE4F3B9
:1053E000983ED4F3869577956795B795F7959F5F27
:1053F000C9F7880F911D9695879597F90895E1E073
:10540000660F771F881FBB1F621773078407BA07D1
:1054100020F0621B730B840BBA0BEE1F88F7E0952C
:1054200008950E94B32888F09F5798F0B92F9927C4
:10543000B751B0F0E1F0660F771F881F991F1AF07F
:10544000BA95C9F714C0B13091F00E94CD28B1E0EF
:1054500008950C94CD28672F782F8827B85F39F0EE
:10546000B93FCCF3869577956795B395D9F73EF418
:1054700090958095709561957F4F8F4F9F4F0895C0
:105480000E948C2820F019F00E94932850F40C946C
:1054900089280C94CE28E92F0E94AB2888F3552345
:1054A000B1F3E7FB6217730784079507A8F189F347
:1054B000E92FFF2788232AF03197660F771F881F6F
:1054C000DAF7952F5527442332F091505040220FA0
:1054D000331F441FD2F7BB27E91BF50B621B730B6D
:1054E000840BB109B1F222F4620F731F841FB11D46
:1054F00031972AF0660F771F881FBB1FEFCF91509F
:10550000504062F041F0882332F0660F771F881F09
:1055100091505040C1F793950C94942A86957795B5
:1055200067959F5FD9F7F7CF9F3F31F0915020F4F7
:10553000879577956795B795880F911D969587956F
:1055400097F908950C9489280E94B328D8F3E89419
:10555000E0E0BB279F57F0F02AED3FE049EC06C0A2
:10556000EE0FBB0F661F771F881F28F0B23A620745
:105570007307840728F0B25A620B730B840BE39510
:105580009A9572F7803830F49A95BB0F661F771F93
:10559000881FD2F790480C94962AEF93E0FF07C03B
:1055A000A2EA2AED3FE049EC5FEB0E9445290E9408
:1055B0009A280F90039401FC9058E8E6F0E00C94D0
:1055C000F32A0E94F22708F48FEF08959F930E9418
:1055D000A42A0F9007FCEE5F0C94CD2A0E94F227BC
:1055E000880B990B08959F938F937F936F93FF93ED
:1055F000EF939B01AC010E941628EF91FF910E944E
:10560000072B2F913F914F915F910C941628DF93B8
:10561000CF931F930F93FF92EF92DF927B018C0148
:10562000689406C0DA2EEF010E942928FE01E89452
:10563000A5912591359145915591A6F3EF010E94D1
:105640004529FE019701A801DA9469F7DF90EF90F0
:10565000FF900F911F91CF91DF910895DB018F9300
:105660009F930E94DC28BF91AF91A29F800D911D56
:10567000A39F900DB29F900D1124089597FB072EC4
:1056800016F4009407D077FD09D00E94892B07FCFF
:1056900005D03EF4909581959F4F08957095619542
:1056A0007F4F0895A1E21A2EAA1BBB1BFD010DC05E
:1056B000AA1FBB1FEE1FFF1FA217B307E407F507C2
:1056C00020F0A21BB30BE40BF50B661F771F881F9E
:1056D000991F1A9469F760957095809590959B0134
:1056E000AC01BD01CF010895EE0FFF1F0590F491AD
:1056F000E02D09940E941E29332312F48A1B9B0B70
:105700000C94842B0E941E29B7FF0895821B930BD3
:105710000895AA1BBB1B51E107C0AA1FBB1FA617F8
:10572000B70710F0A61BB70B881F991F5A95A9F74A
:1057300080959095BC01CD0108950F931F93CF9351
:10574000DF938230910510F482E090E0E0912B0429
:10575000F0912C0430E020E0B0E0A0E0309799F424
:105760002115310509F44AC0281B390B24303105B5
:10577000D8F58A819B816115710589F1FB019383BD
:105780008283FE0111C0408151810281138148173B
:105790005907E0F04817590799F4109761F01296ED
:1057A0000C93129713961C933296CF01DF91CF91F1
:1057B0001F910F91089500932B0410932C04F4CFA4
:1057C0002115310551F04217530738F0A901DB01CB
:1057D0009A01BD01DF01F801C1CFEF01F9CF90932C
:1057E0002C0480932B04CDCFFE01E20FF31F819395
:1057F00091932250310939832883D7CF20912904EE
:1058000030912A04232B41F42091080130910901A1
:1058100030932A0420932904209106013091070136
:105820002115310541F42DB73EB740910A01509141
:105830000B01241B350BE0912904F0912A04E21797
:10584000F307A0F42E1B3F0B2817390778F0AC01A3
:105850004E5F5F4F2417350748F04E0F5F1F509380
:105860002A0440932904819391939FCFF0E0E0E0D4
:105870009CCFCF93DF930097E9F0FC01329713821E
:105880001282A0912B04B0912C04ED0130E020E0B5
:105890001097A1F420813181820F931F2091290458
:1058A00030912A042817390709F061C0F0932A04BF
:1058B000E0932904DF91CF910895EA01CE17DF0725
:1058C000E8F54A815B819E0141155105B1F7E90177
:1058D000FB83EA8349915991C40FD51FEC17FD074B
:1058E00061F4808191810296840F951FE90199836B
:1058F0008883828193819B838A83F0E0E0E0129623
:105900008D919C9113970097B9F52D913C9111972A
:10591000CD010296820F931F2091290430912A0411
:105920002817390739F6309751F510922C04109248
:105930002B04B0932A04A0932904BCCFD383C28341
:1059400040815181840F951FC817D90761F44E5FBC
:105950005F4F88819981480F591F518340838A8105
:105960009B81938382832115310509F0B0CFF09399
:105970002C04E0932B049ECFFD01DC01C0CF1382E9
:105980001282D7CFB0E0A0E0E8ECFCE20C94E9286A
:105990008C01009751F4CB010E949D2B8C01C80112
:1059A000CDB7DEB7E0E10C940529FC01E60FF71F47
:1059B0009C0122503109E217F30708F49DC0D90178
:1059C000CD91DC911197C617D70798F0C530D10556
:1059D00030F3CE0104978617970708F3C61BD70B41
:1059E0002297C193D1936D937C93CF010E94392C60
:1059F000D6CF5B01AC1ABD0A4C018C0E9D1EA09146
:105A00002B04B0912C04512C412CF12CE12C10973B
:105A100031F58091290490912A048815990509F09F
:105A20005CC04616570608F058C080910601909158
:105A30000701009741F48DB79EB740910A0150913C
:105A40000B01841B950BE817F90708F055C0F0937C
:105A50002A04E0932904F90171836083A0CF8D911A
:105A60009C91119712966C90129713967C901397B5
:105A7000A815B90559F56C0142E0C40ED11CCA1431
:105A8000DB0420F1AC014A195B09DA011296159783
:105A900080F06282738251834083D9016D937C933D
:105AA000E114F10471F0D7011396FC93EE93129771
:105AB00076CF22968C0F9D1FF90191838083F3018D
:105AC000EFCFF0932C04E0932B0469CF48165906CE
:105AD00008F42C017D01D3019ACFCB010E949D2BAC
