:020000040000FA
:100000000C94F2020C941A030C941A030C941A0325
:100010000C941A030C941A030C941A030C941A03EC
:100020000C941A030C941A030C941A030C941A03DC
:100030000C941A030C941A030C941A030C941A03CC
:100040000C9447200C941A030C9415200C94EF1F69
:100050000C941A030C941A030C941A030C941A03AC
:100060000C9491200C941A0305A84CCDB2D44EB92F
:100070003836A9020C50B9918688083CA6AAAA2A4B
:10008000BE000000803F00000000003E5B4F5B3E72
:100090003E6B4F6B3E1C3E7C3E1C183C7E3C181C4D
:1000A000577D571C1C5E7F5E1C00183C1800FFE744
:1000B000C3E7FF0018241800FFE7DBE7FF30483AEA
:1000C000060E2629792926407F050507407F05254C
:1000D0003F5A3CE73C5A7F3E1C1C08081C1C3E7FD4
:1000E00014227F22145F5F005F5F06097F017F009B
:1000F0006689956A606060606094A2FFA2940804BB
:100100007E040810207E201008082A1C08081C2ADB
:1001100008081E101010100C1E0C1E0C30383E3833
:1001200030060E3E0E06000000000000005F0000DA
:100130000007000700147F147F14242A7F2A12234B
:100140001308646236495620500008070300001C5B
:100150002241000041221C002A1C7F1C2A08083E64
:100160000808008070300008080808080000606077
:100170000020100804023E5149453E00427F4000E5
:1001800072494949462141494D331814127F1027BD
:10019000454545393C4A494931412111090736490C
:1001A000494936464949291E0000140000004034E0
:1001B00000000008142241141414141400412214E5
:1001C0000802015909063E415D594E7C1211127C0C
:1001D0007F494949363E414141227F4141413E7F6D
:1001E000494949417F090909013E414151737F084D
:1001F00008087F00417F41002040413F017F0814F3
:1002000022417F404040407F021C027F7F04081053
:100210007F3E4141413E7F090909063E4151215E31
:100220007F09192946264949493203017F01033FC5
:100230004040403F1F2040201F3F4038403F631454
:1002400008146303047804036159494D43007F4156
:1002500041410204081020004141417F0402010293
:1002600004404040404000030708002054547840B8
:100270007F284444383844444428384444287F384C
:100280005454541800087E090218A4A49C787F08CE
:1002900004047800447D40002040403D007F102849
:1002A000440000417F40007C047804787C0804040A
:1002B000783844444438FC1824241818242418FCA2
:1002C0007C08040408485454542404043F44243C47
:1002D0004040207C1C2040201C3C4030403C4428B6
:1002E0001028444C9090907C4464544C4400083650
:1002F00041000000770000004136080002010204BE
:10030000023C2623263C1EA1A161123A4040207ADD
:100310003854545559215555794122545478422125
:100320005554784020545579400C1E52721239555C
:100330005555593954545459395554545800004559
:100340007C410002457D420001457C407D12111236
:100350007DF0282528F07C545545002054547C54C9
:100360007C0A097F4932494949323A4444443A3285
:100370004A4848303A4141217A3A42402078009D2B
:10038000A0A07D3D4242423D3D4040403D3C24FFD7
:100390002424487E4943662B2FFC2F2BFF0929F686
:1003A00020C0887E090320545479410000447D41D7
:1003B0003048484A32384040227A007A0A0A727D30
:1003C0000D19317D2629292F28262929292630484B
:1003D0004D4020380808080808080808382F10C8B9
:1003E000ACBA2F102834FA00007B000008142A143D
:1003F0002222142A14085500550055AA55AA55AAB8
:10040000FF55FF55FF000000FF00101010FF001403
:100410001414FF001010FF00FF1010F010F014145F
:1004200014FC001414F700FF0000FF00FF1414F484
:1004300004FC141417101F10101F101F1414141F85
:1004400000101010F0000000001F101010101F10FE
:10045000101010F010000000FF10101010101010FD
:100460001010FF10000000FF140000FF00FF00004C
:100470001F10170000FC04F414141710171414F4C0
:1004800004F40000FF00F714141414141414F700FB
:10049000F7141414171410101F101F141414F4144C
:1004A0001010F010F000001F101F0000001F1400BB
:1004B0000000FC140000F010F01010FF10FF1414E6
:1004C00014FF141010101F00000000F010FFFFFFB9
:1004D000FFFFF0F0F0F0F0FFFFFF0000000000FF72
:1004E000FF0F0F0F0F0F3844443844FC4A4A4A3478
:1004F0007E02020606027E027E026355494163388F
:1005000044443C04407E201E2006027E020299A53F
:10051000E7A5991C2A492A1C4C7201724C304A4D9D
:100520004D303048784830BC625A463D3E494949D2
:10053000007E0101017E2A2A2A2A2A44445F44447B
:1005400040514A444040444A51400000FF0103E00A
:1005500080FF000008086B6B083612362436000650
:10056000090906000018180000001010003040FFB4
:100570000101001F01011E00191D1712003C3C3C27
:100580003C000000000000000000240027002A00BA
:1005900000000000250028002B00000000080002D9
:1005A0000100000304070000000000000000010239
:1005B00004081020408001020408102001020408F1
:1005C0001020000000002300260029000404040479
:1005D00004040404020202020202030303030303ED
:1005E000EC21DD2A11241FBECFEFD8E0DEBFCDBF46
:1005F00024E0AAE1B3E001C01D92A93FB207E1F7F0
:1006000013E0A0E0B1E0E8E0F7E602C005900D924B
:10061000AA31B107D9F712E0C1EFD2E004C02197A7
:10062000FE010E94BA2EC03FD107C9F70E94742371
:100630000C9477330C940000FC019081909528E095
:1006400030E081E397FF03C0990F982701C0990F0D
:1006500021503109B9F78181892728E030E091E301
:1006600087FF03C0880F892701C0880F21503109F7
:10067000B9F7089508950895AF92BF92CF92DF928F
:10068000EF92FF920F931F93CF93DF93EC016B01D7
:100690005A01E881F9810484F585E02D0995E88106
:1006A000F9810488F589E02D80EEE82EFF24FA9484
:1006B0000DE910E095014DE950E0B601CE01099534
:1006C000E881F9810688F789E02DCE01DF91CF918D
:1006D0001F910F91FF90EF90DF90CF90BF90AF9060
:1006E0000994DC01ED91FC910190F081E02D0994D9
:1006F000AF92BF92CF92DF92EF92FF920F931F9330
:10070000CF93DF936C017B018B01040F151FEB016D
:100710005E01AE18BF08C017D10759F06991D60124
:10072000ED91FC910190F081E02DC6010995892B96
:1007300079F7C501DF91CF911F910F91FF90EF9055
:10074000DF90CF90BF90AF900895FC01538D448D02
:10075000252F30E0842F90E0821B930B541710F06C
:10076000CF96089501970895FC01918D828D981779
:1007700061F0A28DAE0FBF2FB11D5D968C91928D51
:100780009F5F9F73928F90E008958FEF9FEF089582
:10079000FC01918D828D981731F0828DE80FF11D4B
:1007A000858D90E008958FEF9FEF0895FC01918D66
:1007B000228D892F90E0805C9F4F821B91098F735F
:1007C000992708958AE094E00E94D60321E0892BBE
:1007D00009F420E0822F089580E090E0892B29F031
:1007E0000E94E20381110C9400000895FC01A48D85
:1007F000A80FB92FB11DA35ABF4F2C91848D90E043
:1008000001968F739927848FA689B7892C93A08925
:10081000B1898C91837080648C93938D848D9813AF
:1008200006C00288F389E02D80818F7D8083089542
:10083000EF92FF920F931F93CF93DF93EC0181E030
:10084000888F9B8D8C8D98131AC0E889F9898081D7
:1008500085FF15C09FB7F894EE89FF896083E8890A
:10086000F98980818370806480839FBF81E090E0FC
:10087000DF91CF911F910F91FF90EF900895F62E89
:100880000B8D10E00F5F1F4F0F731127E02E8C8D23
:100890008E110CC00FB607FCFACFE889F989808168
:1008A00085FFF5CFCE010E94F603F1CFEB8DEC0F63
:1008B000FD2FF11DE35AFF4FF0829FB7F8940B8F85
:1008C000EA89FB8980818062CFCFCF93DF93EC01EF
:1008D000888D8823B9F0AA89BB89E889F9898C9128
:1008E00085FD03C0808186FD0DC00FB607FCF7CFE4
:1008F0008C9185FFF2CF808185FFEDCFCE010E94E4
:10090000F603E9CFDF91CF91089590E0FC01E65620
:10091000FA4F2491FC01E255FA4F3491FC01E45363
:10092000FA4FE491EE23C9F0222339F0233001F18C
:10093000A8F4213019F1223029F1F0E0EE0FFF1F69
:10094000E057FA4FA591B4918FB7F894EC916111EB
:1009500026C030953E233C938FBF08952730A9F0E1
:100960002830C9F0243049F7809180008F7D03C082
:10097000809180008F7780938000DFCF84B58F7760
:1009800084BDDBCF84B58F7DFBCF8091B0008F77A6
:100990008093B000D2CF8091B0008F7DF9CF3E2BF5
:1009A000DACFCF93DF9390E0FC01E255FA4F249128
:1009B00084539A4FFC0184918823D1F090E0880FF2
:1009C000991FFC01EA57FA4FA591B491FC01E05739
:1009D000FA4FC591D491623071F49FB7F8943C916D
:1009E000822F809583238C93E8812E2B28839FBFB1
:1009F000DF91CF9108958FB7F894EC912E2B2C9323
:100A00008FBFF6CF3FB7F894809168039091690348
:100A1000A0916A03B0916B0326B5A89B05C02F3F38
:100A200019F00196A11DB11D3FBFBA2FA92F982F14
:100A30008827BC01CD01620F711D811D911D42E00F
:100A4000660F771F881F991F4A95D1F708958F92D7
:100A50009F92AF92BF92CF92DF92EF92FF926B0183
:100A60007C010E9402054B015C01C114D104E10428
:100A7000F104B9F00E940205681979098A099B09F5
:100A8000683E73408105910580F321E0C21AD108C8
:100A9000E108F10888EE880E83E0981EA11CB11CC5
:100AA000E4CFFF90EF90DF90CF90BF90AF909F90FA
:100AB0008F9008952FB7F894609164037091650347
:100AC00080916603909167032FBF0895CF92DF92C4
:100AD000EF92FF920F931F93CF93DF930E945A05DB
:100AE000AB01BC01E091B704F090C804E4FBFF2720
:100AF000F0F9E4FF79C00091BC041091BD0420918D
:100B0000BE043091BF04E7FB882780F9F11010C0C4
:100B10008091D0049091D104DC019C918091D20409
:100B2000982381E009F480E09091B80491708927BE
:100B30008093C904DB01CA01801B910BA20BB30B8C
:100B40008C019D01B091C9049091B60491FB882756
:100B500080F9BB2309F424C181111AC001351105A4
:100B600021053105A8F04093BC045093BD04609367
:100B7000BE047093BF04997E926190689093B6040E
:100B80008091B80480628093B80400E010E098017E
:100B90008091B8049091B60484FF12C00D32A1E098
:100BA0001A072105310560F092FD05C083FDAFC035
:100BB00082608093B8048091B8048F7E8093B804DB
:100BC00091FF12C00D3B12402105310568F092FDE6
:100BD0000BC0BB2309F49DC091609093B604809133
:100BE000B8048F7D8093B804FF2009F49FC0E6FB12
:100BF000992790F9C92FA0E0DA2FCC0FDD1FE5FB74
:100C0000882780F98C2B2091BA04281709F472C028
:100C10001092BB049091B80496FFB8C0833009F0DD
:100C2000A1C09F7B9093B804213009F497C091E054
:100C3000223009F494C0E3FD03C0833009F49DC061
:100C40002091BB04222309F446C09091B604986019
:100C50009093B604233040F49091B80497FF04C0F9
:100C600093E0921B9093BB049091C904911122C010
:100C70000091C0041091C1042091C2043091C304BA
:100C80006A017B01C01AD10AE20AF30A0091B90491
:100C900010E030E020E0C016D106E206F30650F482
:100CA0002091BB04213009F074C02091B704226068
:100CB0002093B7044093C0045093C1046093C204CE
:100CC0007093C304FF2339F0992329F09091BB045A
:100CD0009E5F9093BB048093BA048091B6048460B5
:100CE0008093B6044093BC045093BD046093BE044B
:100CF0007093BF04DF91CF911F910F91FF90EF9000
:100D0000DF90CF9008958091B80488603CCF8460D4
:100D100050CF9D7F9E7F9093B6044093BC04509328
:100D2000BD046093BE047093BF045ECFA091CA045B
:100D3000B091CB049C918091CC04982321E009F4DC
:100D400020E0A091CD04B091CE049C918091CF047D
:100D5000982382E009F480E0822B55CF92E09093B3
:100D6000BB0469CFE3FD4DC081116ACF9F7B909397
:100D7000B804213041F0223031F09091B8049064F1
:100D80009093B8045DCF2093BB04F7CF8823A9F3D9
:100D900052CF223009F08ECF2091B704216088CF46
:100DA000882309F4F5CE013511052105310508F434
:100DB000EFCE92FD05C090FD03C090629093B60403
:100DC0000D3B12402105310528F08091B604806466
:100DD0008093B6048091B6044093BC045093BD0444
:100DE0006093BE047093BF048D7F8E7F8093B604A2
:100DF0008091B80485FF87CF84FD85CF8061877F90
:100E0000C2CE882309F4B9CF66CF20914003260FC4
:100E10003327331F21323105ECF42091E003FC012C
:100E200090E080E0243069F082E00895A0914003D2
:100E30002191AC01405E5C4FA40FB52FB11D2C93E6
:100E40000196861798F380914003680F60934003E2
:100E500080E0089581E008951092E00381E080939E
:100E6000DF031092BA0361E082E10E94850461E031
:100E700083E10E948504E9EBF0E080818E7F80832E
:100E800080818D7F808388E48093B80085E480939F
:100E9000BC00089510929903109298031092E703F2
:100EA000109209040E942C078AE393E09093970321
:100EB000809396038BE393E0909395038093940340
:100EC0000895CF93DF9391E090931F038823B9F0A7
:100ED000C091B800D091BA008091BC008A7B809309
:100EE000BC0060E082E10E94850460E083E10E9432
:100EF00085040E942C07D093BA00C093B800DF91FC
:100F0000CF9108958F929F92AF92BF92CF92DF922E
:100F1000EF92FF920F931F93CF93DF93D091090429
:100F2000D13208F0D7C0182FC09108040E940205E2
:100F30006B017C018091E00381116BC082E08093A2
:100F4000E0031093DF038FEF8093DE031092DD0345
:100F5000D093DC03A8EEB3E0ECEBF3E080E0D81331
:100F600091C01092BB038091BB03CC0FC82BC093E0
:100F7000BB038091BA03813009F088C01092BA0394
:100F80000E9402056B017C018091BB038093BB0032
:100F90008091E2039091E303A091E403B091E50313
:100FA000892B8A2B8B2BA1F00E9402050091E20372
:100FB0001091E3032091E4033091E5036C197D095E
:100FC0008E099F09061717072807390708F442C03A
:100FD0008091BC0083FDD8CF85EC8093BC000E943B
:100FE00002056B017C018091E003823009F450C05E
:100FF0008091DE038F3F09F46FC08091DE03803261
:1010000009F46CC08091DE03803309F469C084E088
:1010100026C08091E2039091E303A091E403B09194
:10102000E503892B8A2B8B2B09F484CF0E940205C0
:101030008090E2039090E303A090E403B090E50376
:101040006C197D098E099F0986169706A806B906B0
:1010500008F070CF8091E1030E94610785E0109253
:10106000E703109209041092E603DF91CF911F91DC
:101070000F91FF90EF90DF90CF90BF90AF909F9037
:101080008F9008959D9191938F5F69CF85EEA5CF45
:101090008091E2039091E303A091E403B091E50312
:1010A000892B8A2B8B2B09F49ECF0E94020500917D
:1010B000E2031091E3032091E4033091E5036C19FE
:1010C0007D098E099F09061717072807390708F0B9
:1010D0008ACFC0CF81E0C3CF80E0C1CF82E0BFCF55
:1010E00083E0BDCF1F93CF93DF93EA01122FDC0182
:1010F00011968D919C91DC01ED91FC910280F38120
:10110000E02D0995C817D90729F4812F0E9482077D
:1011100091E0811190E0892FDF91CF911F91089587
:10112000CF93DF93EC018B818823A1F0888191E03C
:101130009093E603809308041092E7031092090449
:1011400081E00E94820791E0811190E0892FDF9178
:10115000CF9108950E944A0781E08B83CE010E94BF
:101160009008982F8111E2CFF1CF0895E091990373
:1011700080919803E81730F4F0E0E656FC4F808148
:1011800090E008958FEF9FEF0895909199038091DB
:1011900098032FEF3FEF981748F4E92FF0E0E65659
:1011A000FC4F208130E09F5F90939903C90108951F
:1011B0008091980390919903891B990B0895CF9280
:1011C000DF92EF92FF920F931F93CF93DF937C01F7
:1011D000CB018A012091E603222389F0EB016B0108
:1011E000C40ED51ECC15DD0569F06991D701ED91CE
:1011F000FC910190F081E02DC7010995F3CF642F98
:101200000E940507C801DF91CF911F910F91FF90B8
:10121000EF90DF90CF900895CF93DF931F92CDB7DB
:10122000DEB769832091E6032223F9F020910904B7
:10123000203258F021E030E0FC013383228390E03B
:1012400080E00F90DF91CF9108958091E703E82F20
:10125000F0E0E851FC4F998190838F5F8093E70322
:101260008093090481E090E0ECCF61E0CE0101962B
:101270000E940507F7CFEF92FF920F931F93CF9332
:10128000DF93EC017A018EA99FA98617970729F4AD
:101290008AAD9BAD82179307B1F07FAB6EAB3BAFCE
:1012A0002AAF8CA59DA54CA9460F572F511D215043
:1012B0003109240F351FDC01ED91FC91008CF18D7B
:1012C000E02D6AE2099588AD99AD8E159F0529F448
:1012D0008CAD9DAD80179107B9F0F9AEE8AE1DAFAA
:1012E0000CAF8CA59DA54DA94E0D5F2D511D015034
:1012F00011099801240F351FDC01ED91FC91008C40
:10130000F18DE02D6BE209958CA59DA5DC01ED9199
:10131000FC910680F781E02D6CE2DF91CF911F9167
:101320000F91FF90EF900994FC0180858F3F31F081
:10133000A485B5859C918089892B8C930895FC01A7
:101340008385882331F09091A7048091A8049CBDE7
:101350008DBDA685B7858C919289892B8C938085CC
:101360008F3F31F0A485B5858C91918989238C9329
:1013700008958EBD00000DB407FEFDCF8EB5089513
:10138000CF92DF92EF92FF921F93CF93DF93690189
:101390007A01EB0181E0C81AD108E108F1088FEF6A
:1013A000C816D806E806F80669F0188189812296E1
:1013B00010931B0380931C030E94B909812F0E9484
:1013C000B909E8CFDF91CF911F91FF90EF90DF90A7
:1013D000CF900895CF92DF92EF92FF92CF93DF9359
:1013E00069017A01EB0181E0C81AD108E108F1082E
:1013F0008FEFC816D806E806F80621F089910E94FA
:10140000B909F1CFDF91CF91FF90EF90DF90CF90AE
:101410000895CF92DF92EF92FF92CF93DF93EB018B
:1014200069017A0160931B03D0931C0381E0C81A01
:10143000D108E108F1088FEFC816D806E806F806CB
:1014400039F08D2F0E94B9098C2F0E94B909EECF77
:10145000DF91CF91FF90EF90DF90CF900895CF93E1
:10146000C62F872F60931B0370931C030E94B9093A
:101470008C2FCF910C94B909862F0C94B909CF9277
:10148000DF92EF92FF920F931F93CF93DF93EC01C4
:1014900069017A01EE85FF8580819B89892380839C
:1014A0008B0181E0C81AD108E108F108EFEFCE16F0
:1014B000DE06EE06FE0631F0F80181918F010E94F2
:1014C000B909EFCFEE85FF8580819A89892B8083CA
:1014D000DF91CF911F910F91FF90EF90DF90CF9010
:1014E00008951F93CF93DF93EC01162F872FEE857E
:1014F000FF8590812B899223908360931B037093C7
:101500001C030E94B909812F0E94B909EE85FF854D
:1015100080819A89892B8083DF91CF911F910895D3
:10152000CF93DF93EC01862FEE85FF8590812B8989
:10153000922390830E94B909EE85FF8580819A8964
:10154000892B8083DF91CF910895DC019C968D914A
:101550009C91DC01ED91FC910684F785E02D0994C6
:10156000DC019C968D919C91DC01ED91FC910480B5
:10157000F581E02D0994AF92BF92CF92DF92EF9266
:10158000FF920F931F93CF93DF93EC015901E881F2
:10159000F98102A0F3A1E02D09959501D8010E94DF
:1015A000C02E9B01AC01E881F98104A0F5A1E02DDA
:1015B000B701CE01DF91CF911F910F91FF90EF9076
:1015C000DF90CF90BF90AF900994EF92FF920F936E
:1015D0001F93CF93DF9357FD38C0DC011A96ED912E
:1015E000FC91E417F5078CF12115310571F137FFF6
:1015F00007C0F90131966E0F7F1F31952195310992
:10160000DC011896ED91FC91E617F707F4F0EB0179
:10161000C20FD31FDE011197B7FD17C077FF03C0BC
:101620009E0170E060E0EA17FB072CF49F01261B87
:10163000370B2F5F3F4FDC01ED91FC910684F7855E
:10164000E02D780101E010E00995DF91CF911F9125
:101650000F91FF90EF900895EF92FF920F931F93D9
:10166000CF93DF9377FD39C0DC011896ED91FC91A3
:10167000E617F70794F12115310579F137FF07C017
:10168000F90131964E0F5F1F319521953109DC012B
:101690001A96ED91FC91E417F507FCF0EA01C20FF0
:1016A000D31FDE011197B7FD18C057FF03C09E017D
:1016B00050E040E0EA17FB072CF49F01241B350B98
:1016C0002F5F3F4FDC01ED91FC910684F785E02D03
:1016D0007801890121E030E00995DF91CF911F91D8
:1016E0000F91FF90EF900895DC019C968D919C9155
:1016F000DC01ED91FC91028CF38DE02D0994EF92C9
:10170000FF920F931F93CF93DF93EC017901E88150
:10171000F98102A0F3A1E02D01E010E021E030E02A
:1017200009958CA59DA5DC01ED91FC910684F785BA
:10173000E02DB701DF91CF911F910F91FF90EF90B6
:101740000994DC019C968D919C91DC01ED91FC91BA
:101750000280F381E02D0994EF92FF920F931F9383
:10176000CF93DF93EC014D3F8FEF58076807780761
:10177000A9F5E881F98100A4F1A5E02DCE01099534
:10178000E881F981008CF18DE02D6F8DCE010995F6
:101790000E811F81EC80FD80E881F9810484F5854C
:1017A000E02DCE010995E881F98102A0F3A1E02D99
:1017B000970150E040E070E060E0CE010995E881DB
:1017C000F9810688F789E02DCE01099581E0DF9146
:1017D000CF911F910F91FF90EF9008952EAD8CA5A2
:1017E0009DA5DC01ED91FC910190F081E02D2F3F52
:1017F00029F009958111BDCF80E0E9CF2FEFF9CF16
:10180000FC0116AE0C94AC0B0895FC016770678F59
:1018100085A196A123A134A1633019F0D0F46130E1
:10182000E1F4958384833783268324813581215095
:101830003109318720878681978101979387828735
:101840001586148617861686318B208B938B828B98
:101850000895653031F3673021F33583248397830E
:101860008683E3CFCF93DF93EC010E94050CEF8DCD
:10187000E150E73078F5F0E0E05CF34F0C94BA2EDD
:10188000470C580C5C0C600C640C660C680C89A945
:101890008CAB8AA98DAB8FEF9FEF9FAB8EAB99AFCF
:1018A00088AF9BAF8AAF9DAF8CAFDF91CF9108958A
:1018B0008AA98CAB8BA9EECF8BA98CAB88A9EACF78
:1018C0008AA98CAB89A9E6CF8BA9E2CF88A9F1CFF1
:1018D00089A9F3CF88A9F5CF1F93CF93DF93EC01AC
:1018E0000E94320CEF8DE15018E4E33020F4F0E078
:1018F000E75FFE4F10818CA59DA5DC01ED91FC9169
:101900000280F381E02D09958CA59DA5DC01ED9168
:10191000FC910088F189E02D412F66E309958CA5A3
:101920009DA5DC01ED91FC910480F581E02DDF9116
:10193000CF911F91099408956F927F928F929F92F9
:10194000AF92BF92CF92DF92EF92FF920F931F93CD
:10195000CF93DF936C015B014901EA013A01600E0C
:10196000711EC615D70574F4D601ED91FC9102885D
:10197000F389E02D87019401AE01B501C6010995F7
:101980002196EFCFDF91CF911F910F91FF90EF90B4
:10199000DF90CF90BF90AF909F908F907F906F908F
:1019A00008956F927F928F929F92AF92BF92CF9243
:1019B000DF92EF92FF920F931F93CF93DF93570124
:1019C0002115310509F457C00115110509F453C05B
:1019D00037FF07C0F90131966E0F7F1F31952195B2
:1019E0003109EC01A885B985A617B7070CF443C0E7
:1019F00017FF07C0F80131964E0F5F1F1195019533
:101A00001109EC01EA85FB85E417F507A4F16B01E8
:101A1000C20ED31E3601D1E06D1A710877FC2BC0BF
:101A20007A01E00EF11E4701C1E08C1A910897FC83
:101A300022C077FF03C0960170E060E057FF03C04B
:101A4000870150E040E0A615B7052CF49D01261B48
:101A5000370B2F5F3F4FE815F9052CF48F01041B5E
:101A6000150B0F5F1F4FDC01ED91FC910684F7858C
:101A7000E02D75010995DF91CF911F910F91FF9096
:101A8000EF90DF90CF90BF90AF909F908F907F901E
:101A90006F900895CF92DF92EF92FF920F931F9372
:101AA000CF93DF93EC010E811F81CC80DD80E88134
:101AB000F9810484F585E02D0995F12CE12C96013E
:101AC00050E040E070E060E0CE010E94D10CE8817F
:101AD000F9810688F789E02DCE01DF91CF911F9122
:101AE0000F91FF90EF90DF90CF9009942F923F924B
:101AF0004F925F926F927F928F929F92AF92BF921E
:101B0000CF92DF92EF92FF920F931F93CF93DF93C9
:101B1000CDB7DEB72E970FB6F894DEBF0FBECDBFA0
:101B20009E878D877A876987DC01ED91FC9104841B
:101B3000F585E02D099569857A8560517109AD8536
:101B4000BE85ED91FC9111970288F389E02D05E5A2
:101B50001DEA21E230E043EB50E0CD01099520E0A1
:101B600033EE4FEF5FEF29833A834B835C831D8213
:101B70001E821F821886812C912C540180E1482EF0
:101B8000512C612C712C89819A81AB81BC81B7FF6A
:101B900022C09FEF891A990AA90AB90AD501C4017E
:101BA00012E0880F991FAA1FBB1F1A95D1F7029642
:101BB000A11DB11DBA2FA92F982F882729813A81FD
:101BC0004B815C81280F391F4A1F5B1F29833A8391
:101BD0004B835C83D8CF1201220C331C3FEF231AB6
:101BE000330A49855A85441955095C874B8751E06A
:101BF000451A51086108710864018D819E81C81AD7
:101C0000D90AE5E5EE2EEDEAFE2E8601910143EBC1
:101C100050E0481959096B857C858D859E850E9409
:101C2000D10C4D815E814C545F4F91016B857C8559
:101C30008D859E850E94D10CD301C201FAE0880FE8
:101C4000991FAA1FBB1FFA95D1F729813A814B81B1
:101C50005C81281B390B4A0B5B0B29833A834B832E
:101C60005C83481459046A047B042CF08D829E82A4
:101C7000AF82B88688CFC12C53EED52EEE24EA94DD
:101C8000FE2C60E1462E512C612C712C812C912C64
:101C90005401F7FE1AC03FEF831A930AA30AB30A4E
:101CA000D501C40132E0880F991FAA1FBB1F3A95C6
:101CB000D1F70296A11DB11DBA2FA92F982F882701
:101CC000C80ED91EEA1EFB1EE4CF5E824D8241E0A3
:101CD000441A5108610871081401220C331C5FEF8B
:101CE000251A350A43EB50E08D819E81481B590B24
:101CF000AD85BE85ED91FC9111970288F389E02DA9
:101D000005E51DEA910189859A85881999099A83C3
:101D10008983BC01CD0109954D815E814D545F4F92
:101D2000AD85BE85ED91FC9111970288F389E02D78
:101D3000910169817A81CD010995D301C2012AE01F
:101D4000880F991FAA1FBB1F2A95D1F7C81AD90A55
:101D5000EA0AFB0A481459046A047B040CF099CF80
:101D6000AD85BE85ED91FC9111970688F789E02D30
:101D7000CD012E960FB6F894DEBF0FBECDBFDF911A
:101D8000CF911F910F91FF90EF90DF90CF90BF9078
:101D9000AF909F908F907F906F905F904F903F900B
:101DA0002F900994CF93DF93DC0157FD38C01A962A
:101DB0008D919C911B97841795078CF197968C9128
:101DC0009797882319F1CA01880F991F9896CD918A
:101DD000DC919997C80FD91FE881F9816E177F07A9
:101DE000F4F09A96ED91FC919B97E80FF91F808192
:101DF0009181861797079CF0ED91FC9111970284D1
:101E0000F385E02DCD01DF91CF91099477FD07C0D7
:101E100018968D919C911997861797076CF7DF910B
:101E2000CF9108952F923F924F925F926F927F923F
:101E30008F929F92AF92BF92CF92DF92EF92FF92DA
:101E40000F931F93CF93DF93CDB7DEB72C970FB6C9
:101E5000F894DEBF0FBECDBF9C878B877A836983E2
:101E60001A01D22E1C830B833701DC0191960D9150
:101E70001C9192975C964C915C975D963C915D9716
:101E8000432E512C50968D919C910115110509F40A
:101E90006EC1F801349624913297A590B490D21A6D
:101EA000B7E0DB9EA00CB11C1124F8016591749180
:101EB0007A876987F501C590D490F50132967491BF
:101EC0007D833196A491AE8331962491085F1F4F94
:101ED000F8010491F50135965491588766E0A60EF5
:101EE000B11CF501A49069817A81861797070CF4DB
:101EF00016C3802F90E0880F991F63E070E00E9466
:101F0000842E649DC001659D900D749D900D1124DB
:101F10002101481A590AAB85BC8552968D919C9136
:101F2000841595050CF4FBC28D80821608F4822E70
:101F3000849E4001112449815A81480D591DEB8529
:101F4000FC8584859585841795070CF0E8C2039F6E
:101F5000800111249101200F311F868597858217FA
:101F600093070CF0DCC20190F081E02D0484F5852C
:101F7000E02D8B859C8509952B813C81621673062B
:101F800071F1AB85BC8550962D913C9189819A81E8
:101F9000880D991D0197281739078CF0EB85FC8572
:101FA00022893389C801840D951D019728173907A7
:101FB0006CF4EB85FC85858D081B1109F3CFAB858F
:101FC000BC855C968C91881A9108E0CF73019401CE
:101FD000A20169817A818B859C850E94D10CF8854C
:101FE0008F2EFF0F9908EA2C0A2C000CFF08AB85F6
:101FF000BC855D962C915D975C968C91813009F043
:1020000045C0213009F042C0E20CF31C870180E09A
:10201000512C902F9E19BE819B1708F054C1EB855F
:10202000FC8522893389201731076CF1A980BA8099
:10203000A80CB91C3D80380E831529F14424439423
:10204000480E877041F4C6010196E985FA85EC0DCA
:10205000FD1D54906C01AB85BC8550968D919C9173
:1020600051978A159B054CF057FE07C02B813C8188
:10207000A801B501CD010E94D20EBFEFAB1ABB0A79
:10208000550C842DD9CF0F5F1F4FC3CF3A2D32038C
:1020900050011124A20CB31C80E0512C412C4E8124
:1020A000441609F410C1AB85BC855D962C915D97F3
:1020B0002A0D3B2D311D2150310952964D915C91D5
:1020C0005397421753070CF44AC05C962C913885FD
:1020D00032034001112449815A81840E951E2D80BE
:1020E000280E821509F43BC033243394380E8770D0
:1020F00041F4C6010196E985FA85EC0DFD1D549069
:102100006C01AB85BC855C962C915C9730E0C90175
:10211000880D991D019750964D915C9151974817E4
:102120005907ACF057FE13C05E968C915E9790E015
:102130005D960C915D9710E0081B190B281B390B5D
:10214000EB80FC80A501B401CD010E94D10CEB8590
:10215000FC85848D880E911C550C832DC2CF439431
:10216000AB85BC855D969C91A90EB11C98CFE98189
:10217000FA818E179F070CF4D2C1AB85BC855296AD
:102180008D919C91821593050CF4C9C19F01B6E015
:102190004B9F200D311D1124EB85FC858485958591
:1021A000821793070CF0BBC153E0440C551C5A95A1
:1021B000E1F7420C531C86859785841595050CF034
:1021C000AEC10190F081E02D0484F585E02D8B8572
:1021D0009C850995AB85BC855C962C91B5E0DB9E12
:1021E000C0011124213009F09EC0EB85FC85258DAE
:1021F000213009F098C0F12CE12C9C012A573F4F67
:102200004901510138E0A30EB11CC980DA80CE0C1F
:10221000DF1CF401EE0DFF1D5490AB85BC8550967C
:102220008D919C918C159D05ECF08101EB85FC85D1
:1022300082899389801791077CF00190F081E02DCD
:1022400050FE63C00284F385E02D2B813C81A80100
:10225000B6018B859C8509950F5F1F4F56940A1513
:102260001B0521F73FEFE31AF30A45E0E416F104FA
:1022700061F66B817C816616770629F169817A8126
:102280006B5F7F4FAB85BC8550968D919C9151972C
:1022900086179707C4F052962D913C91C10106967E
:1022A00082179307ECF1221933092F5F3F4FAB855B
:1022B000BC85ED91FC9111970088F189E02D830197
:1022C000A101CD010995AB85BC85ED91FC911197DC
:1022D0000688F789E02DCD012C960FB6F894DEBF65
:1022E0000FBECDBFDF91CF911F910F91FF90EF9067
:1022F000DF90CF90BF90AF909F908F907F906F9026
:102300005F904F903F902F9009942B813C816216F3
:10231000730609F4A1CF0284F385E02D930197CFD2
:1023200028E030E0C4CFC980DA80512C412CFC0178
:10233000EA57FF4FFF83EE83AB85BC855C968C919B
:102340005C978C0D9D2D911D019750962D913C9180
:10235000281739070CF487C0EE81FF81E40DF51DC5
:10236000B491BD835101912C812CEB85FC85858D29
:1023700090E09C012A0D3B1D21503109428953896F
:10238000421753070CF45EC0248D30E0FD81F0FF4E
:10239000B7C0AB85BC855E964C915E97442309F42B
:1023A000AAC050E08C01041B150B241B350B889D23
:1023B000A001899D500D989D500D1124420D531D73
:1023C000EB81FC816E167F0609F490C07F01B60197
:1023D000CD010E94D10CAB85BC855D960C915D97BB
:1023E00010E05E962C915E9730E0089DA001099D5B
:1023F000500D189D500D1124420D531D5C966C918B
:102400005C976C0D7D2D711D621B730B7301CD01EB
:102410000E94D10CEB85FC85068D10E0248D30E008
:10242000201B310B658DC4010196689FA001699F37
:10243000500D1124420D531D401B510BB601CF010D
:102440000E94D10C5D8156955D83AB85BC855D9600
:102450008C91A80EB11CBFEF8B1A9B0AE8E08E1678
:10246000910409F082CFAB85BC855C968C91282FB6
:1024700030E0C20ED31EBFEF4B1A5B0AE5E04E16EA
:10248000510409F059CF4B815C816416750609F43B
:102490001ACF69817A8155E0859F600D711D1124E5
:1024A000C901860F971F0197AB85BC8550964D914A
:1024B0005C915197481759070CF405CF5D968C91A4
:1024C0005D9790E08C0143E0000F111F4A95E1F702
:1024D00052964D915C91F1013197DF01A00FB11F30
:1024E0004A175B07ACF4081B190BF7CF7301B60151
:1024F0008B859C85A5CFEB80FC808C01A501F7CF57
:102500004B815C816416750609F49CCF7301F5CF8D
:102510007301A1018B859C850E94D10CD4CE2C9691
:102520000FB6F894DEBF0FBECDBFDF91CF911F91E4
:102530000F91FF90EF90DF90CF90BF90AF909F9062
:102540008F907F906F905F904F903F902F90089565
:10255000DF92EF92FF920F931F93CF93DF93EC01E3
:10256000262F89A19AA1009709F47DC06A30D1F481
:102570002C853D853D8B2C8BFC013896E4912D8D6F
:102580008E899F89E29F800D911D11249F8B8E8BD8
:1025900081E090E0DF91CF911F910F91FF90EF903C
:1025A000DF9008956D30A1F3FC013496459154916C
:1025B000FC013696A591B49170E06417750740F35D
:1025C000A617B70728F3FC013296A591B491362FD0
:1025D000341B47E0349FA00DB11D1124FD0132963C
:1025E00044913296D49038A1332341F115963C9111
:1025F00050E0430F511D37FD5A953C8D349FB0017B
:10260000359F700D11244C895D89460F571F41502D
:102610005109688979896417750784F44E895F893F
:102620006C857D857D8B6C8B0896FC0184919D8DDE
:10263000899F400D511D11245F8B4E8BEA8CFB8CC2
:10264000088D198D4E895F896C897D89CE010E9424
:10265000120F2C8D8C899D89D29E800D911D112485
:102660009D8B8C8B95CF6A3071F48C859D859D8B6D
:102670008C8B8D8DF8E08F9F900111248E899F891E
:10268000820F931F83CF6D3009F482CF88A18823F6
:10269000E9F03C8D8C899D8946E0349F800D911D29
:1026A0001124019748895989481759077CF44E89A4
:1026B0005F898C859D859D8B8C8B8D8DE8E08E9FB1
:1026C000C0011124840F951F9F8B8E8BEA8CFB8C8D
:1026D000088D198D4E895F896C897D89CE010E9494
:1026E000120F2C8D8C899D89F6E02F9F800D911DF6
:1026F0001124B6CFAF92BF92CF92DF92EF92FF92AA
:102700000F931F93CF93DF936C015A01EB017B0171
:10271000E20EF31ECE15DF0544F49801A501BE01BB
:10272000C6010E94D20E2196F5CFDF91CF911F9165
:102730000F91FF90EF90DF90CF90BF90AF900895F2
:10274000AF92BF92CF92DF92EF92FF920F931F93BF
:10275000CF93DF936C015B01EA017A01E20EF31E75
:10276000CE15DF0544F49801AE01B501C6010E9403
:10277000D20E2196F5CFDF91CF911F910F91FF904F
:10278000EF90DF90CF90BF90AF90089508952F9273
:102790003F924F925F926F927F928F929F92AF92F1
:1027A000BF92CF92DF92EF92FF920F931F93CF933E
:1027B000DF9300D000D000D0CDB7DEB74C016B0165
:1027C0005E834D83590162177307A9F50417150736
:1027D00034F49D818E811E830D83092F182F2D8146
:1027E0003E81021B130B98012F5F3F4FD401ED91E7
:1027F000FC910088F189E02D87014D815E81B60151
:10280000C401099526960FB6F894DEBF0FBECDBF62
:10281000DF91CF911F910F91FF90EF90DF90CF90BC
:10282000BF90AF909F908F907F906F905F904F90F0
:102830003F902F9008952D813E812017310799F404
:10284000A616B70624F48D2D6501A62EB82E950187
:102850002C193D092F5F3F4FD401ED91FC91028867
:10286000F389E02DC9CF2D813E811801221A330A48
:102870002017310724F02D803E80201A310A2501CF
:102880004C185D08CA14DB041CF026014A185B08CA
:10289000421453045CF49A2D8B2D5801092F182FE4
:1028A0009C2D8D2DCD80DE809D838E83AC14BD0448
:1028B0005CF49D818E811E830D83092F182F9C2D22
:1028C0008D2D6501A92EB82EC5018C199D099A83FD
:1028D0008983AD81BE81A017B107ACF598012A1B91
:1028E0003B0B3C832B8369807A8075946794AD8120
:1028F000BE81A017B10774F10FEF1FEFAC14BD0438
:102900000CF480CF9701A6016D817E81421453049F
:102910001CF04D815E81B601C4010E94D20E2B8154
:102920003C81621A730A77FE0AC089819A81680E17
:10293000791EAD81BE81A00FB11FBE83AD83BFEFF5
:10294000CB1ADB0ADBCF8D819E81801B910B9C8390
:102950008B83C9CF01E010E0D1CF089590E080E0F3
:1029600008951F93CF93DF93EC01162FE881F9812F
:102970000280F381E02D0995E881F9810680F781D5
:10298000E02D612FCE010995E881F9810480F58160
:10299000E02DCE01DF91CF911F91099460E1FC0100
:1029A00084A595A50E94B11466E970E080E090E0EE
:1029B0000C94270561E1FC0184A595A50E94B11442
:1029C00066E970E080E090E00C942705FC0184A5A6
:1029D00095A527A5261303C060E20C94B11461E20B
:1029E000FCCFEF92FF920F931F93CF93DF93EC01F5
:1029F0008A017901E881F9810680F781E02D099546
:102A000000931D0310931E03E881F9810484F5856A
:102A1000E02D612FCE0109950DE113E0E881F981E8
:102A20000484F585E02DD8016C91CE010995E092E2
:102A30001D03F0921E03E881F9810484F585E02DE1
:102A40006F2DCE010995E881F9810484F585E02D8B
:102A5000D8016C91CE01DF91CF911F910F91FF9022
:102A6000EF900994EF92FF920F931F93CF93DF9310
:102A7000EC017A018901E881F9810680F781E02D76
:102A80000995E881F9810684F785E02DB701CE012B
:102A90000995E881F9810684F785E02DB801CE011A
:102AA000DF91CF911F910F91FF90EF9009940F93B9
:102AB0001F93CF93DF93EC018A01E881F9810084B1
:102AC000F185E02D0995E881F9810684F785E02DEF
:102AD000B801CE01DF91CF911F910F9109940F930F
:102AE0001F93CF93DF93EC018A01E881F98106807F
:102AF000F781E02D0995E881F9810684F785E02DBD
:102B0000B801CE01DF91CF911F910F9109941F93CE
:102B1000CF93DF93EC01142FE881F9810680F781D0
:102B2000E02D0995E881F9810484F585E02D612F78
:102B3000CE01DF91CF911F9109942F923F924F9236
:102B40005F926F927F928F929F92AF92BF92CF923D
:102B5000DF92EF92FF920F931F93CF93DF935C016D
:102B60001B016A01F12CE12CD50114968D919C91E9
:102B700086010E191F098017910708F48C01F501D1
:102B8000D0810E9402052B013C018091E00381115C
:102B900072C0C02F013208F0C0E2F1E0F093E00310
:102BA00021E0C601801B910BE816F90608F420E02D
:102BB0002093DF038FEF8093DE031092DD038C0FF1
:102BC0008093DC03A1E0A093BB038091BB03DD0FE6
:102BD000D82BD093BB038091BA03813009F090C009
:102BE0001092BA030E9402052B013C018091BB03A5
:102BF0008093BB008091E2039091E303A091E403F2
:102C0000B091E503892B8A2B8B2BA1F00E94020542
:102C10002091E2033091E3034091E4035091E503F6
:102C20006419750986099709261737074807590750
:102C300008F442C08091BC0083FDD8CFB5ECB093BE
:102C4000BC000E9402052B013C018091E003813011
:102C500009F45AC08091DD038C1710F4C091DD0394
:102C6000ACEBB3E0EAE9F3E080E08C1751F19D9121
:102C700091938F5FFACF8091E2039091E303A0914B
:102C8000E403B091E503892B8A2B8B2B09F47DCFCC
:102C90000E9402052091E2033091E3034091E40396
:102CA0005091E503641975098609970926173707B6
:102CB0004807590708F069CF8091E1030E94610736
:102CC000C0E010929903C0939803C017110609F051
:102CD00057C041018E0C9F1CE401CE01881999094F
:102CE0008017910798F5D50111968D919C91DC0183
:102CF000ED91FC910284F385E02D09958993EDCF48
:102D0000E5EEE093BC009DCF8091E2039091E30358
:102D1000A091E403B091E503892B8A2B8B2B09F456
:102D200094CF0E9402052091E2033091E303409189
:102D3000E4035091E503641975098609970926177C
:102D400037074807590708F080CFB6CFE00EF11ECD
:102D5000EC14FD0408F408CF81E0DF91CF911F91BE
:102D60000F91FF90EF90DF90CF90BF90AF909F902A
:102D70008F907F906F905F904F903F902F9008952D
:102D800080E0EBCFCF93DF9300D0CDB7DEB7998350
:102D90008A838091E9049091EA04FC0124813581C1
:102DA00022303105B8F0208131E03093E6032093E2
:102DB00008041092E7031092090421E042E050E079
:102DC000BE016F5F7F4F0E9472080F900F90DF91DE
:102DD000CF91089580E0F9CF2F923F924F925F926A
:102DE0006F927F928F929F92AF92BF92CF92DF921B
:102DF000EF92FF920F931F93CF93DF93CDB7DEB780
:102E0000C254D1090FB6F894DEBF0FBECDBF9E8766
:102E10008D877EAF6DAF5A83498319012701380131
:102E200021969FAE8EAE21974217530724F0832D33
:102E30001A0129838A83A6019501C301B2010E9468
:102E4000732C9B01AC015F772D833E834F835887A2
:102E500020E030E044EB53E4C301B2010E94912D25
:102E60002B013C0120E030E044EB53E4C601B50106
:102E70000E94912D6B017C0120E030E0A901C3018B
:102E8000B2010E94F62A87FF0AC020E030E044EB3E
:102E900053E4C301B2010E94742C2B013C0120E0D9
:102EA00030E0A901C701B6010E94F62A87FF0AC0D7
:102EB00020E030E044EB53E4C701B6010E94742CDB
:102EC0006B017C0120E030E040E054E36D817E81C5
:102ED0008F8198850E94F62A87FD18C0A701960168
:102EE000C301B2010E94732C9F7727E137EB41EDBC
:102EF00058E30E94F62A18164CF0C12CD12C84EB12
:102F0000E82E83E4F82E412C512C3201AD85BE858C
:102F1000ED91FC9111970484F585E02DCD01099583
:102F200020E030E044EB52E4C301B2010E94F62AF3
:102F30008823F1F020E030E044E353E4C301B20120
:102F40000E94F62A8823A1F020E030E047E853E40D
:102F5000C301B2010E94F62A882351F020E030E03C
:102F600044EB53E4C301B2010E94F62A81110AC066
:102F70002DEC3CEC4CEC5DE3C301B2010E94732CE0
:102F80002B013C0120E030E044EB52E4C701B601E4
:102F90000E94F62A8823F1F020E030E044E353E475
:102FA000C701B6010E94F62A8823A1F020E030E094
:102FB00047E853E4C701B6010E94F62A882351F07E
:102FC00020E030E044EB53E4C701B6010E94F62A4A
:102FD00081110AC02DEC3CEC4CEC5DE3C701B6015D
:102FE0000E94732C6B017C0125E33AEF4EE85CE311
:102FF000C301B2010E945C2B4B015C010E94E02CDA
:103000006D837E838F83988725E33AEF4EE85CE3F8
:10301000C701B6010E945C2B6F87788B898B9A8BD6
:103020000E94E02C69877A878B879C87C501B40151
:103030000E942C2E9B01AC016D817E818F81988531
:103040000E94E52C6CA37DA38EA39FA36F85788936
:1030500089899A890E942C2E9B01AC0169857A8509
:103060008B859C850E94E52C68A779A78AA79BA7DA
:103070002D813E814F81588560E070E080E09FE3C4
:103080000E94E52C6CA77DA78EA79FA729853A856E
:103090004B855C8560E070E080E09FEB0E94E52C52
:1030A00068AB79AB8AAB9BAB29813A81215031095E
:1030B00049815A81249FC001259F900D349F900D16
:1030C00011249C01990F440B550B2B8B3C8B4D8B82
:1030D0005E8B81010F5F1F4F029DC001039D900D0C
:1030E000129D900D11249C01990F440B550B2F87B5
:1030F000388B498B5A8B20E030E044E353E4C30122
:10310000B2010E94F62A881F8827881F91E089272C
:103110008CAB20E030E044E353E4C701B6010E94E9
:10312000F62A881F8827881F8BA388249924821851
:103130009308092C000CAA08BB08C101330CAA0B88
:10314000BB0B8F8F98A3A9A3BAA39801110F440BAF
:10315000550B2D833E834F83588720E030E044E3B6
:1031600053E4C301B2010E94742C9B01AC01C7015E
:10317000B6010E94272E18160CF4DFC0A701960195
:10318000C301B2010E94272E181684F420E030E01B
:1031900044E353E4C701B6010E94742C9B01AC01C7
:1031A000C301B2010E94F62A87FDC7C020E030E0CB
:1031B00047E853E4C701B6010E94272E87FF0AC0E3
:1031C00020E030E044EB52E4C701B6010E94F62A49
:1031D00087FF14C020E030E047E853E4C301B201A8
:1031E0000E94272E87FF96C020E030E044EB52E497
:1031F000C301B2010E94F62A87FD8CC020E030E0B6
:1032000047E853E4C701B6010E94F62A87FF87C04A
:1032100020E030E044EB52E4C701B6010E94272EC3
:1032200087FD7DC020E030E047E853E4C301B201F0
:103230000E94F62A87FF73C020E030E044EB52E49E
:10324000C301B2010E94272E89829A82AB82BC827E
:1032500087FF6AC020E030E044E353E4C701B601D1
:103260000E94272E87FD0AC020E030E044E353E4AB
:10327000C301B2010E94272E87FF66C020E030E024
:1032800044E353E4C701B6010E94F62A312C87FFBC
:103290000BC020E030E044E353E4C301B2010E94DC
:1032A000F62A312C87FD56C0A5019401C501B40151
:1032B0000E94742E6F8B788F898F9A8F29813A8123
:1032C0004B815C81412C512C320121153105410586
:1032D000510509F457C029013A01A3019201C30124
:1032E000B2010E94742E2F89388D498D5A8D620F3C
:1032F000731F841F951F2F85388949895A89621742
:1033000073078407950754F13FEF431A530A630A82
:10331000730AE3CF19821A821B821C829BCF898297
:103320009A82AB82BC8296CF81E090E0A0E0B0E0D0
:103330008D839E83AF83B8878DCF89829A82AB823B
:10334000BC8233243394B0CF312C1F8E18A219A223
:103350001AA2AACF812C912C5401A6CF8D819E81D7
:10336000AF81B8850197A105B10561F021E030E09A
:1033700040E050E024193509460957092D833E8362
:103380004F835887C501B4010E94FD2A6B017C015F
:10339000AC019B016CA57DA58EA59FA50E94742CF8
:1033A0002CA13DA14EA15FA10E945C2B6DAB7EAB19
:1033B0008FAB98AFA701960168A979A98AA99BA9A3
:1033C0000E94742C28A539A54AA55BA50E945C2BF8
:1033D00069AF7AAF8BAF9CAFC12CD12C7601A40121
:1033E00043565F4F23965FAF4EAF2397A3019201E1
:1033F000C301B2010E94742E2F89388D498D5A8DD8
:10340000260F371F481F591F29873A874B875C872C
:103410008B899C89AD89BE89281739074A075B07C4
:103420004CF1C301B2010E94FD2A6B8F7C8F8D8FFE
:103430009E8F11E09B01AC0169AD7AAD8BAD9CAD67
:103440000E94272E87FD10E001E02B8D3C8D4D8DD5
:103450005E8D6DA97EA98FA998AD0E94272E87FD4C
:1034600000E09CA9901709F448C0ABA1A1134CC07F
:1034700031104AC0C114D104E104F104C9F06DADAA
:103480007EAD640D751D6C197D09AD85BE85ED9110
:10349000FC9111970288F389E02D21960EAD1FADA6
:1034A0002197960123964EAD5FAD2397CD010995E7
:1034B0002F85388949895A8989859A85AB85BC8544
:1034C00082179307A407B5070CF04AC077FE11C016
:1034D0002B893C894D895E8982179307A407B5071C
:1034E00044F47094609450944094411C511C611CAD
:1034F000711CC12CD12C760124C0332009F4BACF21
:10350000BBA1B11709F4B6CF2D813E814F815885FB
:10351000421653066406750609F4ACCF8F85988968
:10352000A989BA8929853A854B855C852817390789
:103530004A075B070CF046C03FEFC31AD30AE30A01
:10354000F30A3FEF431A530A630A730A8D819E817F
:10355000AF81B88584159505A605B7050CF046CF53
:103560009FEF891A990AA90AB90A2F8D38A149A192
:103570005AA1281539054A055B050CF095CEAD8595
:10358000BE85ED91FC9111970688F789E02DCD015C
:10359000CE5BDF4F0FB6F894DEBF0FBECDBFDF911D
:1035A000CF911F910F91FF90EF90DF90CF90BF9040
:1035B000AF909F908F907F906F905F904F903F90D3
:1035C0002F900994C114D104E104F10449F257CFBA
:1035D0002091AE043091AF04232B39F421E0FC019B
:1035E0008081882361F020E00AC0BC018091AA0498
:1035F0009091AB040E94D33021E0892BA1F7822F58
:1036000008950E94C530FB0101900020E9F7319731
:10361000AF01461B570BDC01ED91FC910280F38159
:10362000E02D09948F929F92AF92BF92EF92FF92FA
:103630000F931F93CF93DF93CDB7DEB7A1970FB64C
:10364000F894DEBF0FBECDBF7C01FA01CB0119A2F9
:10365000223008F42AE08E010F5D1F4F822E912C3C
:10366000B12CA12CBF01A50194010E94982EF90153
:10367000CA016A300CF5605DD8016E938D01232B71
:10368000242B252B79F790E080E0109721F0BD01E5
:10369000C7010E94031BA1960FB6F894DEBF0FBEB0
:1036A000CDBFDF91CF911F910F91FF90EF90BF9011
:1036B000AF909F908F900895695CDECF462F50E0C9
:1036C00070E060E02AE00C94121BCF92DF92EF9240
:1036D000FF920F931F93CF93DF936B01770FEE0849
:1036E000FF08F7FE1BC0EC016DE20E9471038C0124
:1036F00044275527BA014C195D096E097F092AE054
:10370000CE010E94121B800F911FDF91CF911F915C
:103710000F91FF90EF90DF90CF9008952AE0B701CE
:10372000A601DF91CF911F910F91FF90EF90DF9055
:10373000CF900C94121B2F923F924F925F926F92F8
:103740007F928F929F92AF92BF92CF92DF92EF9231
:10375000FF921F93CF93DF93EC016A017B01722EDE
:10376000AB019601CB01B6010E94342E6AEC71E0E8
:10377000811126C046015701E894B7F82FEF3FEFBB
:103780004FE75FE7C501B4010E94342E81110CC0E0
:103790002FEF3FEF4FE75FE7C501B4010E94F62A24
:1037A0006EEC71E0181664F02FEF3FEF4FE75FE427
:1037B000C701B6010E94272E1816B4F462ED71E01D
:1037C000CE01DF91CF911F91FF90EF90DF90CF90CE
:1037D000BF90AF909F908F907F906F905F904F9031
:1037E0003F902F900C94031B2FEF3FEF4FE75FECC0
:1037F000C701B6010E94F62A87FDE0CF20E030E045
:10380000A901C701B6010E94F62A312C212C87FF9D
:1038100009C06DE2CE010E9471031C01F7FAF09419
:10382000F7F8F09410E060E070E080E09FE371163C
:1038300041F020E030E040E251E40E94E52C1F5FBF
:10384000F6CFA70196010E94742C2B013C010E9427
:10385000572D4B015C012AE0BC01A401CE010E945E
:10386000121B7C01E20CF31C1123C1F1C501B40150
:103870000E94FB2A9B01AC01C301B2010E94732C80
:103880004B015C016EE2CE010E947103E80EF91E4D
:10389000115020F120E030E040E251E4C501B401D4
:1038A0000E945C2B2B013C010E94572D4B01B12C37
:1038B000A12C2AE0B501A401CE010E94121BE80E42
:1038C000F91EC501B4010E94FB2A9B01AC01C30192
:1038D000B2010E94732C4B015C01DACFC701DF916A
:1038E000CF911F91FF90EF90DF90CF90BF90AF905E
:1038F0009F908F907F906F905F904F903F902F9010
:1039000008950C94031BCF93DF938091EB04909167
:10391000EC040E944A0DE091EB04F091EC04168E49
:1039200082E0848F858F88E790E0958B848B8AE096
:1039300090E0978B868BCFEFDFEFD38FC28FD18F45
:10394000C08F66ED71E0CF010E94811CE091EB0415
:10395000F091EC04168E81E0848F858F80910201B6
:10396000813009F09FC080EE9FEF938F828F918FFF
:10397000808F84E190E0958B848B88E290E0978B38
:10398000868B6EED71E0CF010E94811C8091020157
:10399000E091EB04F091EC04823009F088C080EEF5
:1039A0009FEF938F828F918F808F84E190E0958B32
:1039B000848B87E390E0978B868B63EF71E0CF0178
:1039C0000E94811C80910201E091EB04F091EC04D3
:1039D000833009F06FC080EE9FEF938F828F918FBD
:1039E000808F84E190E0958B848B86E490E0978BC8
:1039F000868B68E072E0CF010E94811C80910201F9
:103A0000E091EB04F091EC04843009F056C080EEB4
:103A10009FEF938F828F918F808F84E190E0958BC1
:103A2000848B85E590E0978B868B6DE172E0CF010A
:103A30000E94811C80910201E091EB04F091EC0462
:103A40008530F1F580EE9FEF938F828F918F808F7D
:103A500084E190E0958B848B84E690E0978B868B55
:103A600062E372E0CF010E94811C80910201E0912B
:103A7000EB04F091EC04863031F580EE9FEF938FEC
:103A8000828F918F808F84E190E0958B848B83E788
:103A900090E0978B868B6DE372E0CF01DF91CF9141
:103AA0000C94811CD38FC28FD18FC08F62CF8FEFC8
:103AB0009FEF77CF8FEF9FEF90CF8FEF9FEFA9CF43
:103AC0008FEF9FEFC1CF8FEF9FEFD9CF0F931F9352
:103AD000CF93DF93EC0188819981009759F02A8177
:103AE0003B812617370730F081E0DF91CF911F919E
:103AF0000F9108958B016F5F7F4F0E9408300097F0
:103B000059F0998388831B830A832C813D81232B61
:103B100059F7FC011082E8CF80E0E7CFEF92FF92E7
:103B20000F931F93CF93DF93EC017B01FB01019077
:103B30000020E9F731978F01061B170BB8010E948F
:103B4000661D28813981811113C02115310519F0B5
:103B5000C9010E947F2F198218821D821C821B823C
:103B60001A82DF91CF911F910F91FF90EF900895EE
:103B70001D830C83B701C901DF91CF911F910F9174
:103B8000FF90EF900C94DC3085ED8093BC00809129
:103B9000E2039091E303A091E403B091E50307965B
:103BA000A11DB11D23E0B695A795979587952A95F8
:103BB000D1F72091BC0024FD03C01092E0030895CA
:103BC0004091E2035091E3036091E4037091E503B7
:103BD000452B462B472B69F30097A105B10541F012
:103BE0002AE22A95F1F700C00197A109B109E1CFB6
:103BF0008091E1030C9461074F925F926F927F92E4
:103C00008F929F92AF92BF92CF92DF92EF92FF92EC
:103C10000F931F93CF93DF936C01DC019E968C91E1
:103C200061E08F3F09F454C00E94D10461E0E601D5
:103C30008EA50E94850464E670E080E090E00E941A
:103C4000270560E08EA50E94850466E970E080E0AB
:103C500090E00E94270561E08EA50E94850466E938
:103C600070E080E090E00E942705D6019C960D91BF
:103C70001C91F601EF5BFF4F408051803297E0804E
:103C8000F180D0E0C0E022E4A22E22E0B22EC415E2
:103C9000D50508F0D0C0F701EC0FFD1FE0814E0103
:103CA000BFEF8B1A9B0AED3008F0A7C0F0E0E55A91
:103CB000F14E0C94BA2EA91EB41E8E1EB91E801E83
:103CC0000C1FD31E6E1EB21ED81EB61EEB1EF21E99
:103CD000F60184A595A50E94B114C1CF80E0772498
:103CE0007394780ED701A80DB91DE801E881F98118
:103CF0000680F781E02D6C91C8010995E40102C0AE
:103D000077247394219647018C0E9D1E672C6A942C
:103D1000FFEF6F1284C0C70DD11DB9CF712CF70111
:103D2000E80DF91D808180931E032296F701EC0FA8
:103D3000FD1F808180931D0360911D0370911E0300
:103D4000D801ED91FC910084F185E02DC801099521
:103D5000D9CFD801ED91FC910280F381E02DC8010B
:103D600009951FC081E0BBCF712CBCCF92E0792EAA
:103D7000D6CFF701E80DF91D7080272D30E050E017
:103D800040E0BE016E5F7F4F6E0D7F1DE801E88150
:103D9000F9810284F385E02DC8010995E401C70D7E
:103DA000D11D712CAFCFF701E80DF91D7080A6CFA2
:103DB000D701A80DB91DF80180819181FC012681F0
:103DC00037816C91C801F90109952296F701EC0F32
:103DD000FD1F708097CFD801ED91FC910480F58193
:103DE000E02DBDCFF701E80DF91D608170E090E096
:103DF00080E00E942705E401D4CF1F92EF93DF9368
:103E0000CF93BF92AF920E94E3300F900F900F902C
:103E10000F900F900F90C5CF82E0782E73CFD40112
:103E20006D914D01D801ED91FC910484F585E02D53
:103E3000C80109956CCFE601E881F981028CF38D08
:103E4000E02D60E0C601DF91CF911F910F91FF90AF
:103E5000EF90DF90CF90BF90AF909F908F907F902A
:103E60006F905F904F9009940F931F93CF93DF93C0
:103E7000EC014F3F8FEF58076807780721F440E0C7
:103E800052E16AE770E04A835B836C837D832E8313
:103E900061E08F810E94D10461E08F810E948504DE
:103EA00088858F3F39F061E00E94D10461E0888508
:103EB0000E9485048F81082E000C990BFC01E453AD
:103EC000FA4FE491F0E0EE0FFF1FE057FA4F259113
:103ED00034913F872E87FC01E255FA4FE491EA8B3B
:103EE000E095EB8B88858F3FA9F0082E000C990B8D
:103EF000FC01E453FA4FE491F0E0EE0FFF1FE057AE
:103F0000FA4F259134913D872C87FC01E255FA4FF9
:103F1000E491E88B88898095898B1FB7F89480910C
:103F20001A03811127C0E6EDF5E08491E8EBF5E096
:103F30009491E82FF0E0EE0FFF1FEA57FA4FA5919A
:103F4000B491EC91E92321F461E08AE00E948504B8
:103F500061E08AE00E94D1048CB580618CBD8CB593
:103F600080648CBD61E08DE00E94D10461E08BE053
:103F70000E94D10480911A038F5F80931A031FBFA0
:103F80008E818F3F11F488E08E839E810A811B8190
:103F90002C813D8140E052E16AE770E080E0041747
:103FA00015072607370740F4769567955795479587
:103FB0008F5F8630A1F787E09C709065282F26954B
:103FC000922B9093A704809581708093A80481E040
:103FD000DF91CF911F910F9108950C941A2C1F928D
:103FE0000F920FB60F9211242F933F934F935F932D
:103FF0006F937F938F939F93AF93BF93EF93FF93B1
:104000008AE094E00E94F603FF91EF91BF91AF9197
:104010009F918F917F916F915F914F913F912F91E0
:104020000F900FBE0F901F9018951F920F920FB612
:104030000F9211242F938F939F93EF93FF93E0910F
:104040001A04F0911B048081E0912004F091210476
:1040500082FD1BC09081809123048F5F8F7320911C
:104060002404821741F0E0912304F0E0E65FFB4F67
:10407000958F80932304FF91EF919F918F912F91C2
:104080000F900FBE0F901F9018958081F4CF1F9254
:104090000F920FB60F9211242F933F938F939F93FC
:1040A000AF93BF938091640390916503A0916603E1
:1040B000B09167033091630323E0230F2D3758F548
:1040C0000196A11DB11D2093630380936403909317
:1040D0006503A0936603B093670380916803909192
:1040E0006903A0916A03B0916B030196A11DB11DF4
:1040F0008093680390936903A0936A03B0936B0362
:10410000BF91AF919F918F913F912F910F900FBED3
:104110000F901F90189526E8230F0296A11DB11D40
:10412000D2CF1F920F920FB60F9211242F933F936D
:104130004F935F936F937F938F939F93AF93BF93AF
:10414000EF93FF938091B900887F803609F44AC0CD
:10415000F0F5883209F4A7C018F5803109F49BC046
:10416000B8F4882309F4F9C0883009F494C0FF91A9
:10417000EF91BF91AF919F918F917F916F915F91DF
:104180004F913F912F910F900FBE0F901F90189558
:10419000883109F488C0803251F78093DE0314C05F
:1041A000803409F49DC040F48033B9F38833F9F6C4
:1041B0008093DE0385ECB0C0803509F485C0883576
:1041C00009F496C0883499F60E94C41DD0CF88396E
:1041D00009F48CC038F5883729F050F4883611F08E
:1041E000803729F683E08093E0031092620357C082
:1041F000883809F47BC0803919F0803809F0B7CFCE
:1042000080916203803208F071C0E091620381E026
:104210008E0F809362038091BB00F0E0EE5BFC4F59
:1042200080833DC0803B39F0E0F4803A09F479C0E6
:10423000883A09F09CCF84E08093E0031092410318
:1042400010924003E0919603F091970309958091B5
:10425000400381110FC081E080934003109220033E
:1042600009C0803C09F4A6CF883C09F4A3CF883B61
:1042700009F07DCFE091410381E08E0F80934103EF
:10428000F0E0E05EFC4F80818093BB0090914103A1
:104290008091400329C08091BB038093BB0085ECD3
:1042A0008093BC0064CF9091DD038091DC0398176C
:1042B00058F5E091DD0381E08E0F8093DD03F0E09F
:1042C000E454FC4F8081E9CFE091DD0381E08E0F63
:1042D0008093DD038091BB00F0E0E454FC4F8083C9
:1042E0009091DD038091DC039817C8F285E8D8CF60
:1042F000E091DD0381E08E0F8093DD038091BB00B0
:10430000F0E0E454FC4F80838091DF0381115CCFA7
:1043100081E08093BA0384EA8093BC001092E003AA
:1043200026CF85EC8093BC001092E003809162035D
:10433000803230F4E0916203F0E0EE5BFC4F1082DB
:104340006091620370E0E0919403F091950382E440
:1043500093E00995109262030ACF1092DE0334CFE6
:10436000EF92FF920F931F93CF93DF93EC017B01AA
:10437000198218821B821A821D821C82FB01019005
:104380000020E9F731978F01061B170BB8010E9437
:10439000661D28813981811113C02115310519F05D
:1043A000C9010E947F2F198218821D821C821B82E4
:1043B0001A82DF91CF911F910F91FF90EF90089596
:1043C0001D830C83B701C901DF91CF911F910F911C
:1043D000FF90EF900C94DC301F93CF93DF931092FB
:1043E0000D0410920C0488EE93E0A0E0B0E08093FE
:1043F0000E0490930F04A0931004B093110420E1D5
:1044000031E030930B0420930A0425EC30E0309324
:1044100017042093160424EC30E030931904209301
:10442000180420EC30E030931B0420931A0421EC94
:1044300030E030931D0420931C0422EC30E03093D4
:104440001F0420931E0426EC30E0309321042093B7
:104450002004109223041092240410922504109238
:1044600026041092D6041092D5048093D70490931A
:10447000D804A093D904B093DA0482E291E0909337
:10448000D4048093D30480E58093A7041092A804F9
:1044900084E190E00E94E32EEC0182E691E09983B2
:1044A000888388E08F8389E0888789EA94E09A8707
:1044B000898711E01B87D093EE04C093ED0483E459
:1044C00090E00E94E32EFC011382128220EF30E084
:1044D00034A323A380E491E096A385A317A2358398
:1044E0002483978386832FEE30E0318720878FE304
:1044F00091E0938782871586148617861686318BFE
:10450000208B938B828B158A148A178A168A8FEFD9
:104510009FEF918F808F938F828F148F158F168EC0
:10452000178E10A312A211A2D5A7C4A787E086A751
:1045300017A610AA11AA12AA13AA8FEF86AF84E3B6
:1045400091E091838083DF01DF9682E891E011960C
:104550009C938E93129688E490E08D939C93F093B5
:10456000EC04E093EB041092EA041092E90483ED6A
:1045700094E09093E8048093E70480E090E0A0EC5E
:10458000BFE78093DF049093E004A093E104B0932D
:10459000E2048093E3049093E404A093E504B093D1
:1045A000E60482E38093B9041092BA041092BB042B
:1045B0001092BC041092BD041092BE041092BF046D
:1045C0001092C0041092C1041092C2041092C3044D
:1045D0001092C7041092C8041092C90482E080931C
:1045E000C40483E08093C50484E08093C604809172
:1045F000B7048061877F8093B704EEECF5E0E49127
:10460000F0E0EE0FFF1FEE53FA4F859194919093D7
:10461000CB048093CA04E0EBF5E0E491E093CC0492
:10462000EFECF5E0E491F0E0EE0FFF1FEE53FA4FF0
:10463000859194919093CE048093CD04E1EBF5E0C5
:10464000E491E093CF04E0EDF5E0E491F0E0EE0FCB
:10465000FF1FEE53FA4F859194919093D10480936C
:10466000D004E2EBF5E0E491E093D20462E082E072
:104670000E94D10462E08091C5040E94D10480911F
:10468000B70484FF05C062E08091C6040E94D10493
:104690008091B80481608093B804E091CA04F091DD
:1046A000CB0490818091CC04982381E009F480E0D0
:1046B000E091CD04F091CE0490812091CF0492231B
:1046C00009F092E0892B8093BA0462E672E080EBF5
:1046D00094E00E94B02167E672E08AEA94E0DF91FC
:1046E000CF911F910C94B021CF93DF93CDB7DEB75C
:1046F0002D970FB6F894DEBF0FBECDBF789484B56A
:10470000826084BD84B5816084BD85B5826085BDCD
:1047100085B5816085BD80916E00816080936E005B
:10472000109281008091810082608093810080914D
:1047300081008160809381008091800081608093FE
:1047400080008091B10084608093B1008091B000BE
:1047500081608093B00080917A00846080937A00B9
:1047600080917A00826080937A0080917A008160E3
:1047700080937A0080917A00806880937A0010920A
:10478000C100E0911A04F0911B0482E08083E09163
:104790001604F09117041082E0911804F0911904A6
:1047A0008FEC808310922204E0911E04F0911F048C
:1047B00086E08083E0911C04F0911D04808180617B
:1047C0008083E0911C04F0911D04808188608083C7
:1047D000E0911C04F0911D04808180688083E09149
:1047E0001C04F0911D0480818F7D80838091EB04F7
:1047F0009091EC04DC01ED91FC910084F185E02DB9
:104800004FEF5FEFBA0109958091EB049091EC04B2
:10481000DC01ED91FC91008CF18DE02D63E00995B8
:104820000E944A078091E9049091EA04009711F0F0
:104830000E947F2F86E090E00E94E32E8C01809101
:10484000E7049091E80424E4F801208392838183B3
:10485000138280E290E0958384831093EA040093AE
:10486000E9040E944A0781E0D80113968C93C8019D
:104870000E9490088823C9F082EA90E30E94C21641
:104880006AE070E080E090E00E9427058DE293EFFF
:104890000E94C21643E050E0BE016F5F7F4F8091DF
:1048A000E9049091EA040E949D1561E085E00E9470
:1048B000D10461E085E00E9485048091B70488609E
:1048C0008093B70490E080E00E94ED1F61E772E002
:1048D0008F3641F062E672E0813621F0863631F49F
:1048E00064E772E080EB94E00E948E1D81E090E02E
:1048F0000E94ED1F682F80ED860F8A3080F4605390
:10490000770B072E000C880B990B0E94FD2A6093F1
:10491000720370937303809374039093750382E022
:1049200090E00E94ED1F90ED980F9A3040F4082E11
:10493000000C990BC097909301018093000183E0D4
:1049400090E00E94ED1F8093710384E090E00E944C
:10495000ED1F8093700385E090E00E94ED1F80932F
:104960006F0386E090E00E94ED1F80936E038091BC
:10497000EB049091EC040E944A0DE091EB04F0915D
:10498000EC04168E77247394748E758E80EE97E007
:10499000938F828F918F808F0AE010E0158B048BAC
:1049A00084E190E0978B868B68E772E0CF010E94EC
:1049B000811C68EE73E080E090E00E942705809102
:1049C000EB049091EC04FC01158B048B28E230E0A1
:1049D000378B268B68E872E00E94811C1982009157
:1049E0006C0310916D03D80114968D919C911597CD
:1049F000892BE1F08C917092E60380930804109269
:104A0000E7031092090420E041E050E0BE016F5F2F
:104A10007F4FC8010E947208882341F047E050E0B0
:104A2000BE016F5F7F4FC8010E949D152A81822FB2
:104A300090E064E0959587956A95E1F7982F990F36
:104A4000990F782E791A770C720E2B81822F90E0B5
:104A500074E0959587957A95E1F7982F990F990FBE
:104A6000682F691B660F620F8091EB049091EC0434
:104A70000E945E1B6BE372E08091EB049091EC046A
:104A80000E94811C672D8091EB049091EC040E94A0
:104A90005E1B68EE73E080E090E00E942705809145
:104AA000EB049091EC042AE030E0FC01358B248B80
:104AB0002CE330E0378B268B6FE872E00E94811C7C
:104AC0000091EB041091EC0480E094E20E94C21685
:104AD000882309F47FC164E170E080E090E00E94E7
:104AE000270546E050E0BE016F5F7F4F8091E904EB
:104AF0009091EA040E949D15882309F46BC17B8084
:104B0000CE0101960E941C03781264C17E80CE0102
:104B100004960E941C0378125DC129813A813227D4
:104B200023273227A7E1B1E10E94642C4EE095953E
:104B30008795779567954A95D1F7645971418109B1
:104B400091090E94FD2A20E030E048EC52E40E94E6
:104B5000E52C2B013C014092E3045092E404609266
:104B6000E5047092E6042C813D8132272327322709
:104B7000A1E7B2E00E94642C5CE09695879577955A
:104B800067955A95D1F70E94FB2A20E030E048EC67
:104B900052E40E94E52C6093DF047093E00480935C
:104BA000E1049093E20422E0B301A201C8010E9453
:104BB0009B1B68EE73E080E090E00E9427058091E7
:104BC000EB049091EC040AE010E0DC0155961C9394
:104BD0000E93549720E530E057963C932E935697CA
:104BE0006DE972E00E94811C409172035091730341
:104BF000609174037091750322E08091EB049091B1
:104C0000EC040E949B1B68EE73E080E090E00E9441
:104C100027058091EB049091EC04FC01158B048B2B
:104C200024E630E0378B268B61EB72E00E94811C1A
:104C300060910001709101018091EB049091EC046E
:104C40000E94651B68EE73E080E090E00E942705FB
:104C50008091EB049091EC04DC0155961C930E932B
:104C6000549728E730E057963C932E93569767EC7D
:104C700072E00E94811C8091EB049091EC04FC0195
:104C8000158B048B2CE830E0378B268B69ED72E0B6
:104C90000E94811C609171038091EB049091EC045F
:104CA0000E945E1B8091EB049091EC04DC01559610
:104CB0001C930E93549720EA30E057963C932E9322
:104CC00056976CED72E00E94811C60917003809198
:104CD000EB049091EC040E945E1B8091EB04909198
:104CE000EC04FC01158B048B24EB30E0378B268B16
:104CF0006FED72E00E94811C60916F038091EB0464
:104D00009091EC040E945E1B8091EB049091EC0466
:104D1000DC0155961C930E93549728EC30E057967F
:104D20003C932E93569762EE72E00E94811C609134
:104D30006E038091EB049091EC040E945E1B68E886
:104D400073E180E090E00E9427058091EB04909150
:104D5000EC040E944A0D66246A94762C2DEA422EB9
:104D6000512C0E9466058091B70482FD0E94660561
:104D70008091B60480FF35C087FF33C08F77809362
:104D8000B6048091EB049091EC040E944A0D87E6F2
:104D900092E00E94E81A65EE72E0811108C085EE8B
:104DA00092E00E94E81A8823E1F067E672E08AEA5E
:104DB00094E00E948E1D109293031092920380E063
:104DC00090E0892B71F20E94E203882351F20E9445
:104DD0000000C7CF412C512C30EC632E3FE7732EDF
:104DE000E2CE85EE92E00E94E81A8823C9F1809114
:104DF000B70482FD0E9466058091BB04823031F5C4
:104E00001092BB040E945A0560938E0370938F0327
:104E100080939003909391030E945A0500918E0312
:104E200010918F032091900330919103601B710BBF
:104E3000820B930B613177428105910588F0809157
:104E4000EB049091EC040E944A0DAFCF8091B7041F
:104E500082FD0E9466058091BB048130E9F6D0CFC7
:104E600087E692E00E94E81A882309F40AC3809139
:104E70009303811109C2E091EB04F091EC04738E6D
:104E8000628E718E608E168E82E0382E348E358E54
:104E900026E330E0358B248B83E090E0978B868B84
:104EA0006EEE72E0CF010E94811C8091EB04909124
:104EB000EC042AE030E0DC0155963C932E935497A5
:104EC00029E130E057963C932E93569761E073E0CA
:104ED0000E94811C90E1892E94E8992EA12CB12C7E
:104EE00027E8C22E23E4D22EE12CF12C04E313E4B4
:104EF0002CE430E048E550E064E670E08091EB049B
:104F00009091EC040E94EC16812C48EF942EA12C79
:104F1000B12C5AE4C52E53E4D52E21E430E04BE405
:104F200050E064E670E08091EB049091EC040E9404
:104F3000EC1660EE862E99249A94A12CB12C70E682
:104F4000C72E73E4D72EE12CF12C0CE413E421E4FA
:104F500030E04BE450E064E670E08091EB04909127
:104F6000EC040E94EC16F0EE8F2EF7E09F2EA12CA1
:104F7000B12CA6E7CA2EA3E4DA2EE12CF12C02E62E
:104F800013E421E430E04BE450E064E670E080910B
:104F9000EB049091EC040E94EC161FE1812E912C01
:104FA000A12CB12C07E8C02E03E4D02EE12CF12C6B
:104FB00008E713E421E430E04BE450E064E670E0FD
:104FC0008091EB049091EC040E94EC16E091EB04CC
:104FD000F091EC04738E628E718E608E168E222498
:104FE0002394248E258E82E190E0958B848B28E992
:104FF00030E0378B268B70E060E0CF010E94651BAC
:105000008091EB049091EC0424E230E0DC015596B1
:105010003C932E93549721E630E057963C932E9381
:10502000569762E370E00E94651B8091EB049091BB
:10503000EC0429E530E0FC01358B248B29E430E0D9
:10504000378B268B64E670E00E94651BE091EB04D1
:10505000F091EC0480E590E0958B848B578A468A2A
:10506000168E348E358E68E073E0CF010E94811C6D
:1050700090E1892E94E8992EA12CB12C24EBC22E1C
:1050800023E4D22EE12CF12C04E313E42AE530E0F2
:1050900046E650E06DEC70E08091EB049091EC04FA
:1050A0000E94EC164FE1842E912CA12CB12C50E6DD
:1050B000C52E53E4D52E2FE430E049E550E06DECE9
:1050C00070E08091EB049091EC040E94EC1660EE8D
:1050D000862E67E0962EA12C70E8B72E76E8C72EB4
:1050E00073E4D72EE12CF12C02E613E42FE430E038
:1050F00049E550E06DEC70E08091EB049091EC0498
:105100000E94EC16F0EE8F2E99249A94A12CB12CCB
:10511000ADE9CA2EA3E4DA2EE12C10E8F12E07E85F
:1051200013E42FE430E049E550E06DEC70E080914D
:10513000EB049091EC040E94EC16812C18EF912E58
:10514000A12CB12C04EBC02E03E4D02EE12CF12CC9
:105150000EE913E42FE430E049E550E06DEC70E037
:105160008091EB049091EC040E94EC16E091EB042A
:10517000F091EC04738E628E718E608E168E248E8A
:10518000258E8CE690E0958B848B28E930E0378B78
:10519000268B70E060E0CF010E94651B8091EB04DC
:1051A0009091EC0422E830E0DC0155963C932E937C
:1051B000549727E530E057963C932E9356976EE12F
:1051C00070E00E94651B8091EB049091EC0427EC49
:1051D00030E0FC01358B248B2BE330E0378B268BC2
:1051E0006CE370E00E94651B8091EB049091EC04ED
:1051F0002DE031E0DC0155963C932E93549725E544
:1052000030E057963C932E9356976AE570E00E94E3
:10521000651B8091EB049091EC042FE131E0FC01DF
:10522000358B248B28E930E0378B268B68E770E0DC
:105230000E94651BE091EB04F091EC04738E628E8A
:10524000718E608E168E348E358E8DED90E0958B3E
:10525000848B578A468A68EFCF010E947103809140
:10526000EB049091EC0429EE30E0DC0155963C9380
:105270002E93549757965C924E9256976BE073E03C
:105280000E94811C209293038091EB049091EC0486
:105290002FE030E0FC01358B248BA2E3B0E0B78B2C
:1052A000A68B6DE073E00E94811C40E850E06DEC3D
:1052B00070E08091EB049091EC040E943C0345E285
:1052C00050E064E670E08091EB049091EC040E9461
:1052D0003C03E091EB04F091EC04738E628E718ECE
:1052E000608E168E12E0148F158F28E230E0358B19
:1052F000248B578A468A63E173E0CF010E94811CA8
:10530000E091EB04F091EC04738E628E718E608EEE
:10531000168E148F158F89EB90E0958B848B578AAE
:10532000468A63E173E0CF010E94811C60E970E06E
:105330008091EB049091EC040E94760DE091EB04D7
:10534000F091EC04168E148F158F738E628E718E11
:10535000608EABE8B0E0B58BA48B578A468A67E1D4
:1053600073E0CF010E94811C6EE071E08091EB043C
:105370009091EC040E94760DE091EB04F091EC0426
:10538000168E148F158F738E628E718E608E2AE04A
:1053900031E0358B248B578A468A66E772E0CF016D
:1053A0000E94811CE091EB04F091EC04738E628EFC
:1053B000718E608E88E290E0958B848BA2EDB0E0D8
:1053C000B78BA68B61E772E0CF010E94811CE09150
:1053D000EB04F091EC04738E628E718E608E2CE87B
:1053E00030E0358B248B82ED90E0978B868B62E6E4
:1053F00072E0CF010E94811CE091EB04F091EC047B
:10540000738E628E718E608EA0EFB0E0B58BA48B30
:1054100022ED30E0378B268B64E772E0CF010E94EB
:10542000811C8091860381110DC00E945A056093F2
:10543000820370938303809384039093850381E0B8
:10544000809386030E945A05009182031091830382
:105450002091840330918503601B710B820B930BA9
:10546000623371058105910508F4A9CC0E945A05A3
:1054700060938203709383038093840390938503E6
:105480009ECC85EE92E00E94E81A882309F497CC1E
:105490008091920381110FC00E94831C81E0809350
:1054A00092030E945A0560938E0370938F0380933A
:1054B0009003909391038091B70482FD0E9466054A
:1054C0008091BB048230B1F41092BB040E945A0553
:1054D00060938E0370938F03809390039093910356
:1054E000809102018F5F873008F063C080930201D2
:1054F0000E94831C8091B70482FD0E946605809102
:10550000BB048130A9F41092BB040E945A05609339
:105510008E0370938F0380939003909391038091F7
:105520000201815009F447C0809302010E94831C4C
:105530008091B70482FD0E9466058091B60485FFC4
:1055400008C08F7D8093B60480910201863009F4F3
:105550002CCC80917A0381110DC00E945A05609372
:10556000760370937703809378039093790381E0B7
:1055700080937A030E945A05009176031091770375
:105580002091780330917903601B710B820B930B90
:10559000623371058105910508F411CC0E945A050A
:1055A00060937603709377038093780390937903E5
:1055B00006CC81E09BCF86E0B7CF8091AA04909182
:1055C000AB04009711F00E947F2F8091B00490915E
:1055D000B104009711F00E947F2F8091E90490910F
:1055E000EA04009711F00C947F2F08950E94382B45
:1055F00008F481E00895E89409C097FB3EF4909583
:105600008095709561957F4F8F4F9F4F9923A9F09B
:10561000F92F96E9BB279395F6958795779567952A
:10562000B795F111F8CFFAF4BB0F11F460FF1BC06E
:105630006F5F7F4F8F4F9F4F16C0882311F096E901
:1056400011C0772321F09EE8872F762F05C06623AF
:1056500071F096E8862F70E060E02AF09A95660F68
:10566000771F881FDAF7880F9695879597F9089521
:10567000990F0008550FAA0BE0E8FEEF1616170663
:10568000E807F907C0F012161306E407F50798F0CB
:10569000621B730B840B950B39F40A2661F0232BE4
:1056A000242B252B21F408950A2609F4A140A69560
:1056B0008FEF811D811D08950E946F2B0C94E02BAC
:1056C0000E94D22B38F00E94D92B20F0952311F0A4
:1056D0000C94C92B0C94CF2B11240C94142C0E94E5
:1056E000F12B70F3959FC1F3950F50E0551F629F0A
:1056F000F001729FBB27F00DB11D639FAA27F00D2B
:10570000B11DAA1F649F6627B00DA11D661F829F51
:105710002227B00DA11D621F739FB00DA11D621F36
:10572000839FA00D611D221F749F3327A00D611D53
:10573000231F849F600D211D822F762F6A2F112435
:105740009F5750409AF0F1F088234AF0EE0FFF1F68
:10575000BB1F661F771F881F91505040A9F79E3FBF
:10576000510580F00C94C92B0C94142C5F3FE4F38A
:10577000983ED4F3869577956795B795F795E79515
:105780009F5FC1F7FE2B880F911D9695879597F91E
:10579000089597F99F6780E870E060E008959FEFB3
:1057A00080EC089500240A941616170618060906B8
:1057B000089500240A941216130614060506089587
:1057C000092E0394000C11F4882352F0BB0F40F40F
:1057D000BF2B11F460FF04C06F5F7F4F8F4F9F4F4F
:1057E000089557FD9058440F551F59F05F3F71F0D1
:1057F0004795880F97FB991F61F09F3F79F0879538
:105800000895121613061406551FF2CF4695F1DFC0
:1058100008C0161617061806991FF1CF8695710550
:10582000610508940895E894BB2766277727CB0184
:1058300097F90895F999FECF92BD81BDF89A9927FD
:1058400080B508950E94642CA59F900DB49F900D83
:10585000A49F800D911D112408952F923F924F9285
:105860005F926F927F928F929F92AF92BF92CF92F0
:10587000DF92EF92FF920F931F93CF93DF93CDB7F9
:10588000DEB7CA1BDB0B0FB6F894DEBF0FBECDBF71
:1058900009942A88398848885F846E847D848C8442
:1058A0009B84AA84B984C884DF80EE80FD800C814B
:1058B0001B81AA81B981CE0FD11D0FB6F894DEBF2E
:1058C0000FBECDBFED010895A29FB001B39FC001EF
:1058D000A39F700D811D1124911DB29F700D811D1C
:1058E0001124911D08955058BB27AA270E948B2C84
:1058F0000C94E02B0E94D22B38F00E94D92B20F080
:1059000039F49F3F19F426F40C94CF2B0EF4E09554
:10591000E7FB0C94C92BE92F0E94F12B58F3BA171F
:10592000620773078407950720F079F4A6F50C94B5
:10593000132C0EF4E0950B2EBA2FA02D0B01B901FC
:1059400090010C01CA01A0011124FF27591B99F0F5
:10595000593F50F4503E68F11A16F040A22F232F01
:10596000342F4427585FF3CF469537952795A79551
:10597000F0405395C9F77EF41F16BA0B620B730BF8
:10598000840BBAF09150A1F0FF0FBB1F661F771F69
:10599000881FC2F70EC0BA0F621F731F841F48F41E
:1059A000879577956795B795F7959E3F08F0B0CFA7
:1059B0009395880F08F09927EE0F9795879508958E
:1059C0000E94EA2DE3950C94132E0E94F92C0C945E
:1059D000E02B0E94D92B58F00E94D22B40F029F4E2
:1059E0005F3F29F00C94C92B51110C94142C0C948A
:1059F000CF2B0E94F12B68F39923B1F3552391F338
:105A0000951B550BBB27AA2762177307840738F02D
:105A10009F5F5F4F220F331F441FAA1FA9F335D08A
:105A20000E2E3AF0E0E832D091505040E695001C3E
:105A3000CAF72BD0FE2F29D0660F771F881FBB1FF8
:105A4000261737074807AB07B0E809F0BB0B802DD6
:105A5000BF01FF2793585F4F3AF09E3F510578F002
:105A60000C94C92B0C94142C5F3FE4F3983ED4F3B0
:105A7000869577956795B795F7959F5FC9F7880FD6
:105A8000911D9695879597F90895E1E0660F771F28
:105A9000881FBB1F621773078407BA0720F0621BB9
:105AA000730B840BBA0BEE1F88F7E09508950E94E4
:105AB000F92B88F09F5798F0B92F9927B751B0F07C
:105AC000E1F0660F771F881F991F1AF0BA95C9F782
:105AD00014C0B13091F00E94132CB1E008950C94E1
