:100000000C94F2020C94301D0C94091D0C941A03EC
:100010000C941A030C941A030C941A030C941A03EC
:100020000C941A030C941A030C941A030C941A03DC
:100030000C941A030C941A030C941A030C941A03CC
:100040000C94BF1C0C941A030C941A030C941A03FE
:100050000C941A030C941A030C941A030C941A03AC
:100060000C94571D0C941A0305A84CCDB2D44EB96C
:100070003836A9020C50B9918688083CA6AAAA2A4B
:10008000BE000000803F00000000003E5B4F5B3E72
:100090003E6B4F6B3E1C3E7C3E1C183C7E3C181C4D
:1000A000577D571C1C5E7F5E1C00183C1800FFE744
:1000B000C3E7FF0018241800FFE7DBE7FF30483AEA
:1000C000060E2629792926407F050507407F05254C
:1000D0003F5A3CE73C5A7F3E1C1C08081C1C3E7FD4
:1000E00014227F22145F5F005F5F06097F017F009B
:1000F0006689956A606060606094A2FFA2940804BB
:100100007E040810207E201008082A1C08081C2ADB
:1001100008081E101010100C1E0C1E0C30383E3833
:1001200030060E3E0E06000000000000005F0000DA
:100130000007000700147F147F14242A7F2A12234B
:100140001308646236495620500008070300001C5B
:100150002241000041221C002A1C7F1C2A08083E64
:100160000808008070300008080808080000606077
:100170000020100804023E5149453E00427F4000E5
:1001800072494949462141494D331814127F1027BD
:10019000454545393C4A494931412111090736490C
:1001A000494936464949291E0000140000004034E0
:1001B00000000008142241141414141400412214E5
:1001C0000802015909063E415D594E7C1211127C0C
:1001D0007F494949363E414141227F4141413E7F6D
:1001E000494949417F090909013E414151737F084D
:1001F00008087F00417F41002040413F017F0814F3
:1002000022417F404040407F021C027F7F04081053
:100210007F3E4141413E7F090909063E4151215E31
:100220007F09192946264949493203017F01033FC5
:100230004040403F1F2040201F3F4038403F631454
:1002400008146303047804036159494D43007F4156
:1002500041410204081020004141417F0402010293
:1002600004404040404000030708002054547840B8
:100270007F284444383844444428384444287F384C
:100280005454541800087E090218A4A49C787F08CE
:1002900004047800447D40002040403D007F102849
:1002A000440000417F40007C047804787C0804040A
:1002B000783844444438FC1824241818242418FCA2
:1002C0007C08040408485454542404043F44243C47
:1002D0004040207C1C2040201C3C4030403C4428B6
:1002E0001028444C9090907C4464544C4400083650
:1002F00041000000770000004136080002010204BE
:10030000023C2623263C1EA1A161123A4040207ADD
:100310003854545559215555794122545478422125
:100320005554784020545579400C1E52721239555C
:100330005555593954545459395554545800004559
:100340007C410002457D420001457C407D12111236
:100350007DF0282528F07C545545002054547C54C9
:100360007C0A097F4932494949323A4444443A3285
:100370004A4848303A4141217A3A42402078009D2B
:10038000A0A07D3D4242423D3D4040403D3C24FFD7
:100390002424487E4943662B2FFC2F2BFF0929F686
:1003A00020C0887E090320545479410000447D41D7
:1003B0003048484A32384040227A007A0A0A727D30
:1003C0000D19317D2629292F28262929292630484B
:1003D0004D4020380808080808080808382F10C8B9
:1003E000ACBA2F102834FA00007B000008142A143D
:1003F0002222142A14085500550055AA55AA55AAB8
:10040000FF55FF55FF000000FF00101010FF001403
:100410001414FF001010FF00FF1010F010F014145F
:1004200014FC001414F700FF0000FF00FF1414F484
:1004300004FC141417101F10101F101F1414141F85
:1004400000101010F0000000001F101010101F10FE
:10045000101010F010000000FF10101010101010FD
:100460001010FF10000000FF140000FF00FF00004C
:100470001F10170000FC04F414141710171414F4C0
:1004800004F40000FF00F714141414141414F700FB
:10049000F7141414171410101F101F141414F4144C
:1004A0001010F010F000001F101F0000001F1400BB
:1004B0000000FC140000F010F01010FF10FF1414E6
:1004C00014FF141010101F00000000F010FFFFFFB9
:1004D000FFFFF0F0F0F0F0FFFFFF0000000000FF72
:1004E000FF0F0F0F0F0F3844443844FC4A4A4A3478
:1004F0007E02020606027E027E026355494163388F
:1005000044443C04407E201E2006027E020299A53F
:10051000E7A5991C2A492A1C4C7201724C304A4D9D
:100520004D303048784830BC625A463D3E494949D2
:10053000007E0101017E2A2A2A2A2A44445F44447B
:1005400040514A444040444A51400000FF0103E00A
:1005500080FF000008086B6B083612362436000650
:10056000090906000018180000001010003040FFB4
:100570000101001F01011E00191D1712003C3C3C27
:100580003C000000000000000000240027002A00BA
:1005900000000000250028002B00000000080002D9
:1005A0000100000304070000000000000000010239
:1005B00004081020408001020408102001020408F1
:1005C0001020000000002300260029000404040479
:1005D00004040404020202020202030303030303ED
:1005E000761EAE2511241FBECFEFD8E0DEBFCDBFF3
:1005F00023E0AEE8B2E001C01D92AF39B207E1F7E7
:1006000012E0A0E0B1E0E8E8FCE502C005900D9240
:10061000AE38B107D9F712E0C1EFD2E004C021979C
:10062000FE010E948329C03FD107C9F70E94C81F5D
:100630000C94372E0C940000FC019081909528E0DA
:1006400030E081E397FF03C0990F982701C0990F0D
:1006500021503109B9F78181892728E030E091E301
:1006600087FF03C0880F892701C0880F21503109F7
:10067000B9F7089508950895AF92BF92CF92DF928F
:10068000EF92FF920F931F93CF93DF93EC016B01D7
:100690005A01E881F9810484F585E02D0995E88106
:1006A000F9810488F589E02D80EEE82EFF24FA9484
:1006B0000DE910E095014DE950E0B601CE01099534
:1006C000E881F9810688F789E02DCE01DF91CF918D
:1006D0001F910F91FF90EF90DF90CF90BF90AF9060
:1006E0000994DC01ED91FC910190F081E02D0994D9
:1006F000AF92BF92CF92DF92EF92FF920F931F9330
:10070000CF93DF936C017B018B01040F151FEB016D
:100710005E01AE18BF08C017D10759F06991D60124
:10072000ED91FC910190F081E02DC6010995892B96
:1007300079F7C501DF91CF911F910F91FF90EF9055
:10074000DF90CF90BF90AF90089590E0FC01E65607
:10075000FA4F2491FC01E255FA4F3491FC01E45325
:10076000FA4FE491EE23C9F0222339F0233001F14E
:10077000A8F4213019F1223029F1F0E0EE0FFF1F2B
:10078000E057FA4FA591B4918FB7F894EC916111AD
:1007900026C030953E233C938FBF08952730A9F0A3
:1007A0002830C9F0243049F7809180008F7D03C044
:1007B000809180008F7780938000DFCF84B58F7722
:1007C00084BDDBCF84B58F7DFBCF8091B0008F7768
:1007D0008093B000D2CF8091B0008F7DF9CF3E2BB7
:1007E000DACFCF93DF9390E0FC01E255FA4F2491EA
:1007F00084539A4FFC0184918823D1F090E0880FB4
:10080000991FFC01EA57FA4FA591B491FC01E057FA
:10081000FA4FC591D491623071F49FB7F8943C912E
:10082000822F809583238C93E8812E2B28839FBF72
:10083000DF91CF9108958FB7F894EC912E2B2C93E4
:100840008FBFF6CF3FB7F8948091DC029091DD0224
:10085000A091DE02B091DF0226B5A89B05C02F3F14
:1008600019F00196A11DB11D3FBFBA2FA92F982FD6
:100870008827BC01CD01620F711D811D911D42E0D1
:10088000660F771F881F991F4A95D1F708958F9299
:100890009F92AF92BF92CF92DF92EF92FF926B0145
:1008A0007C010E9422044B015C01C114D104E104CB
:1008B000F104B9F00E942204681979098A099B0998
:1008C000683E73408105910580F321E0C21AD1088A
:1008D000E108F10888EE880E83E0981EA11CB11C87
:1008E000E4CFFF90EF90DF90CF90BF90AF909F90BC
:1008F0008F90089508952091B402260F3327331F57
:1009000021323105ECF420913603FC0190E080E0C7
:10091000243069F082E00895A091B4022191AC01E5
:100920004C565D4FA40FB52FB11D2C930196861721
:1009300098F38091B402680F6093B40280E0089548
:1009400081E008951092360381E080933503109280
:10095000100361E082E10E94A50361E083E10E944F
:10096000A503E9EBF0E080818E7F808380818D7F1D
:10097000808388E48093B80085E48093BC00089568
:100980001092EF021092EE0210923D0310925F035C
:100990000E94A2048AE393E09093ED028093EC021C
:1009A0008BE393E09093EB028093EA020895CF9358
:1009B000DF9391E0909393028823B9F0C091B8003F
:1009C000D091BA008091BC008A7B8093BC0060E02B
:1009D00082E10E94A50360E083E10E94A5030E94DA
:1009E000A204D093BA00C093B800DF91CF910895CC
:1009F0008F929F92AF92BF92CF92DF92EF92FF922F
:100A00000F931F93CF93DF93D0915F03D13208F000
:100A1000D7C0182FC0915E030E9422046B017C0195
:100A20008091360381116BC082E08093360310936E
:100A300035038FEF8093340310923303D093320346
:100A4000AEE3B3E0E2E1F3E080E0D81391C01092AE
:100A5000110380911103CC0FC82BC0931103809117
:100A60001003813009F088C0109210030E94220404
:100A70006B017C01809111038093BB00809138034E
:100A800090913903A0913A03B0913B03892B8A2BB3
:100A90008B2BA1F00E94220400913803109139039E
:100AA00020913A0330913B036C197D098E099F090F
:100AB000061717072807390708F442C08091BC00C1
:100AC00083FDD8CF85EC8093BC000E9422046B018B
:100AD0007C0180913603823009F450C08091340348
:100AE0008F3F09F46FC080913403803209F46CC0E9
:100AF00080913403803309F469C084E026C080917A
:100B0000380390913903A0913A03B0913B03892BAC
:100B10008A2B8B2B09F484CF0E9422048090380307
:100B200090903903A0903A03B0903B036C197D0973
:100B30008E099F0986169706A806B90608F070CF99
:100B4000809137030E94D70485E010923D031092F4
:100B50005F0310923C03DF91CF911F910F91FF90A3
:100B6000EF90DF90CF90BF90AF909F908F900895BF
:100B70009D9191938F5F69CF85EEA5CF80913803CA
:100B800090913903A0913A03B0913B03892B8A2BB2
:100B90008B2B09F49ECF0E94220400913803109100
:100BA000390320913A0330913B036C197D098E097A
:100BB0009F09061717072807390708F08ACFC0CF03
:100BC00081E0C3CF80E0C1CF82E0BFCF83E0BDCF63
:100BD0001F93CF93DF93EA01122FDC0111968D91C1
:100BE0009C91DC01ED91FC910280F381E02D09954F
:100BF000C817D90729F4812F0E94F80491E08111C8
:100C000090E0892FDF91CF911F910895CF93DF93CB
:100C1000EC018B818823A1F0888191E090933C03C3
:100C200080935E0310923D0310925F0381E00E9467
:100C3000F80491E0811190E0892FDF91CF91089520
:100C40000E94C00481E08B83CE010E940606982F8B
:100C50008111E2CFF1CF0895E091EF028091EE0291
:100C6000E81730F4F0E0E051FD4F808190E0089506
:100C70008FEF9FEF08959091EF028091EE022FEF9A
:100C80003FEF981748F4E92FF0E0E051FD4F208145
:100C900030E09F5F9093EF02C90108958091EE02CA
:100CA0009091EF02891B990B0895CF92DF92EF92FA
:100CB000FF920F931F93CF93DF937C01CB018A01A7
:100CC00020913C03222389F0EB016B01C40ED51E59
:100CD000CC15DD0569F06991D701ED91FC9101908A
:100CE000F081E02DC7010995F3CF642F0E947B04AA
:100CF000C801DF91CF911F910F91FF90EF90DF908E
:100D0000CF900895CF93DF931F92CDB7DEB769835D
:100D100020913C032223F9F020915F03203258F008
:100D200021E030E0FC013383228390E080E00F90EB
:100D3000DF91CF91089580913D03E82FF0E0E25CD0
:100D4000FC4F998190838F5F80933D0380935F0375
:100D500081E090E0ECCF61E0CE0101960E947B043F
:100D6000F7CFEF92FF920F931F93CF93DF93EC0196
:100D70007A018EA99FA98617970729F48AAD9BADA2
:100D800082179307B1F07FAB6EAB3BAF2AAF8CA558
:100D90009DA54CA9460F572F511D21503109240FF5
:100DA000351FDC01ED91FC91008CF18DE02D6AE2A4
:100DB000099588AD99AD8E159F0529F48CAD9DAD33
:100DC00080179107B9F0F9AEE8AE1DAF0CAF8CA556
:100DD0009DA54DA94E0D5F2D511D01501109980182
:100DE000240F351FDC01ED91FC91008CF18DE02D7D
:100DF0006BE209958CA59DA5DC01ED91FC91068027
:100E0000F781E02D6CE2DF91CF911F910F91FF9060
:100E1000EF900994FC0180858F3F31F0A485B58562
:100E20009C918089892B8C930895FC01838588236C
:100E300031F090916003809161039CBD8DBDA685CA
:100E4000B7858C919289892B8C9380858F3F31F067
:100E5000A485B5858C91918989238C9308958EBD45
:100E600000000DB407FEFDCF8EB50895CF92DF923E
:100E7000EF92FF921F93CF93DF9369017A01EB0109
:100E800081E0C81AD108E108F1088FEFC816D8062A
:100E9000E806F80669F018818981229610938F027E
:100EA000809390020E942F07812F0E942F07E8CF86
:100EB000DF91CF911F91FF90EF90DF90CF90089539
:100EC000CF92DF92EF92FF92CF93DF9369017A0185
:100ED000EB0181E0C81AD108E108F1088FEFC816CC
:100EE000D806E806F80621F089910E942F07F1CF75
:100EF000DF91CF91FF90EF90DF90CF900895CF9248
:100F0000DF92EF92FF92CF93DF93EB0169017A01B9
:100F100060938F02D093900281E0C81AD108E10853
:100F2000F1088FEFC816D806E806F80639F08D2FBD
:100F30000E942F078C2F0E942F07EECFDF91CF91B9
:100F4000FF90EF90DF90CF900895CF93C62F872F1B
:100F500060938F02709390020E942F078C2FCF9185
:100F60000C942F07862F0C942F07CF92DF92EF92CD
:100F7000FF920F931F93CF93DF93EC0169017A01E6
:100F8000EE85FF8580819B89892380838B0181E0A9
:100F9000C81AD108E108F108EFEFCE16DE06EE061A
:100FA000FE0631F0F80181918F010E942F07EFCFEB
:100FB000EE85FF8580819A89892B8083DF91CF918F
:100FC0001F910F91FF90EF90DF90CF9008951F93A6
:100FD000CF93DF93EC01162F872FEE85FF8590814D
:100FE0002B899223908360938F02709390020E94CA
:100FF0002F07812F0E942F07EE85FF8580819A8918
:10100000892B8083DF91CF911F910895CF93DF9338
:10101000EC01862FEE85FF8590812B8992239083AA
:101020000E942F07EE85FF8580819A89892B808316
:10103000DF91CF910895DC019C968D919C91DC010C
:10104000ED91FC910684F785E02D0994DC019C96D6
:101050008D919C91DC01ED91FC910480F581E02D56
:101060000994AF92BF92CF92DF92EF92FF920F93CB
:101070001F93CF93DF93EC015901E881F98102A01E
:10108000F3A1E02D09959501D8010E9489299B01C2
:10109000AC01E881F98104A0F5A1E02DB701CE01F2
:1010A000DF91CF911F910F91FF90EF90DF90CF9044
:1010B000BF90AF900994EF92FF920F931F93CF933D
:1010C000DF9357FD38C0DC011A96ED91FC91E417CF
:1010D000F5078CF12115310571F137FF07C0F901D2
:1010E00031966E0F7F1F319521953109DC011896DD
:1010F000ED91FC91E617F707F4F0EB01C20FD31F57
:10110000DE011197B7FD17C077FF03C09E0170E0A5
:1011100060E0EA17FB072CF49F01261B370B2F5FBB
:101120003F4FDC01ED91FC910684F785E02D7801BD
:1011300001E010E00995DF91CF911F910F91FF9091
:10114000EF900895EF92FF920F931F93CF93DF9349
:1011500077FD39C0DC011896ED91FC91E617F70791
:1011600094F12115310579F137FF07C0F901319666
:101170004E0F5F1F319521953109DC011A96ED91D3
:10118000FC91E417F507FCF0EA01C20FD31FDE0162
:101190001197B7FD18C057FF03C09E0150E040E013
:1011A000EA17FB072CF49F01241B350B2F5F3F4FE1
:1011B000DC01ED91FC910684F785E02D7801890131
:1011C00021E030E00995DF91CF911F910F91FF90C1
:1011D000EF900895DC019C968D919C91DC01ED913E
:1011E000FC91028CF38DE02D0994EF92FF920F9306
:1011F0001F93CF93DF93EC017901E881F98102A07D
:10120000F3A1E02D01E010E021E030E009958CA58C
:101210009DA5DC01ED91FC910684F785E02DB701D9
:10122000DF91CF911F910F91FF90EF900994DC0116
:101230009C968D919C91DC01ED91FC910280F38153
:10124000E02D0994EF92FF920F931F93CF93DF93BA
:10125000EC014D3F8FEF580768077807A9F5E88143
:10126000F98100A4F1A5E02DCE010995E881F9816D
:10127000008CF18DE02D6F8DCE0109950E811F81BF
:10128000EC80FD80E881F9810484F585E02DCE01B4
:101290000995E881F98102A0F3A1E02D970150E0C2
:1012A00040E070E060E0CE010995E881F9810688B0
:1012B000F789E02DCE01099581E0DF91CF911F9153
:1012C0000F91FF90EF9008952EAD8CA59DA5DC01A8
:1012D000ED91FC910190F081E02D2F3F29F00995CF
:1012E0008111BDCF80E0E9CF2FEFF9CFFC0116AE21
:1012F0000C9422090895FC016770678F85A196A15F
:1013000023A134A1633019F0D0F46130E1F4958366
:1013100084833783268324813581215031093187A5
:101320002087868197810197938782871586148607
:1013300017861686318B208B938B828B08956530B0
:1013400031F3673021F33583248397838683E3CF9A
:10135000CF93DF93EC010E947B09EF8DE150E730E2
:1013600078F5F0E0EA54F64F0C948329BD09CE09D4
:10137000D209D609DA09DC09DE0989A98CAB8AA968
:101380008DAB8FEF9FEF9FAB8EAB99AF88AF9BAFCD
:101390008AAF9DAF8CAFDF91CF9108958AA98CABB6
:1013A0008BA9EECF8BA98CAB88A9EACF8AA98CAB8D
:1013B00089A9E6CF8BA9E2CF88A9F1CF89A9F3CF7C
:1013C00088A9F5CF1F93CF93DF93EC010E94A80962
:1013D000EF8DE15018E4E33020F4F0E0E45FFE4FDD
:1013E00010818CA59DA5DC01ED91FC910280F3811B
:1013F000E02D09958CA59DA5DC01ED91FC9100885F
:10140000F189E02D412F66E309958CA59DA5DC01AE
:10141000ED91FC910480F581E02DDF91CF911F913A
:10142000099408956F927F928F929F92AF92BF928C
:10143000CF92DF92EF92FF920F931F93CF93DF93A0
:101440006C015B014901EA013A01600E711EC6158B
:10145000D70574F4D601ED91FC910288F389E02D53
:1014600087019401AE01B501C60109952196EFCF20
:10147000DF91CF911F910F91FF90EF90DF90CF9070
:10148000BF90AF909F908F907F906F9008956F92D4
:101490007F928F929F92AF92BF92CF92DF92EF9204
:1014A000FF920F931F93CF93DF93570121153105BF
:1014B00009F457C00115110509F453C037FF07C0DF
:1014C000F90131966E0F7F1F319521953109EC019D
:1014D000A885B985A617B7070CF443C017FF07C046
:1014E000F80131964E0F5F1F119501951109EC011E
:1014F000EA85FB85E417F507A4F16B01C20ED31E44
:101500003601D1E06D1A710877FC2BC07A01E00E2C
:10151000F11E4701C1E08C1A910897FC22C077FFA9
:1015200003C0960170E060E057FF03C0870150E000
:1015300040E0A615B7052CF49D01261B370B2F5F45
:101540003F4FE815F9052CF48F01041B150B0F5FB5
:101550001F4FDC01ED91FC910684F785E02D7501AC
:101560000995DF91CF911F910F91FF90EF90DF9040
:10157000CF90BF90AF909F908F907F906F90089585
:10158000CF92DF92EF92FF920F931F93CF93DF934F
:10159000EC010E811F81CC80DD80E881F98104841B
:1015A000F585E02D0995F12CE12C960150E040E005
:1015B00070E060E0CE010E94470AE881F981068868
:1015C000F789E02DCE01DF91CF911F910F91FF9010
:1015D000EF90DF90CF9009942F923F924F925F92BD
:1015E0006F927F928F929F92AF92BF92CF92DF9233
:1015F000EF92FF920F931F93CF93DF93CDB7DEB798
:101600002E970FB6F894DEBF0FBECDBF9E878D8795
:101610007A876987DC01ED91FC910484F585E02DE2
:10162000099569857A8560517109AD85BE85ED9111
:10163000FC9111970288F389E02D05E51DEA21E26E
:1016400030E043EB50E0CD01099520E033EE4FEF61
:101650005FEF29833A834B835C831D821E821F8246
:101660001886812C912C540180E1482E512C612C3C
:10167000712C89819A81AB81BC81B7FF22C09FEF19
:10168000891A990AA90AB90AD501C40112E0880F7A
:10169000991FAA1FBB1F1A95D1F70296A11DB11D54
:1016A000BA2FA92F982F882729813A814B815C81F5
:1016B000280F391F4A1F5B1F29833A834B835C83A2
:1016C000D8CF1201220C331C3FEF231A330A49856D
:1016D0005A85441955095C874B8751E0451A5108D2
:1016E0006108710864018D819E81C81AD90AE5E5F7
:1016F000EE2EEDEAFE2E8601910143EB50E04819F3
:1017000059096B857C858D859E850E94470A4D8190
:101710005E814C545F4F91016B857C858D859E85E4
:101720000E94470AD301C201FAE0880F991FAA1F3D
:10173000BB1FFA95D1F729813A814B815C81281B27
:10174000390B4A0B5B0B29833A834B835C83481428
:1017500059046A047B042CF08D829E82AF82B88685
:1017600088CFC12C53EED52EEE24EA94FE2C60E1F6
:10177000462E512C612C712C812C912C5401F7FE9A
:101780001AC03FEF831A930AA30AB30AD501C40112
:1017900032E0880F991FAA1FBB1F3A95D1F7029616
:1017A000A11DB11DBA2FA92F982F8827C80ED91EA9
:1017B000EA1EFB1EE4CF5E824D8241E0441A5108CE
:1017C000610871081401220C331C5FEF251A350AD9
:1017D00043EB50E08D819E81481B590BAD85BE8542
:1017E000ED91FC9111970288F389E02D05E51DEA42
:1017F000910189859A85881999099A838983BC0101
:10180000CD0109954D815E814D545F4FAD85BE85FB
:10181000ED91FC9111970288F389E02D9101698186
:101820007A81CD010995D301C2012AE0880F991F61
:10183000AA1FBB1F2A95D1F7C81AD90AEA0AFB0AC0
:10184000481459046A047B040CF099CFAD85BE8519
:10185000ED91FC9111970688F789E02DCD012E9628
:101860000FB6F894DEBF0FBECDBFDF91CF911F91B1
:101870000F91FF90EF90DF90CF90BF90AF909F902F
:101880008F907F906F905F904F903F902F90099432
:10189000CF93DF93DC0157FD38C01A968D919C9150
:1018A0001B97841795078CF197968C9197978823AF
:1018B00019F1CA01880F991F9896CD91DC919997DB
:1018C000C80FD91FE881F9816E177F07F4F09A9647
:1018D000ED91FC919B97E80FF91F8081918186170C
:1018E00097079CF0ED91FC9111970284F385E02D10
:1018F000CD01DF91CF91099477FD07C018968D91A6
:101900009C911997861797076CF7DF91CF910895EF
:101910002F923F924F925F926F927F928F929F92FF
:10192000AF92BF92CF92DF92EF92FF920F931F93ED
:10193000CF93DF93CDB7DEB72C970FB6F894DEBF09
:101940000FBECDBF9C878B877A8369831A01D22E05
:101950001C830B833701DC0191960D911C919297AA
:101960005C964C915C975D963C915D97432E512C13
:1019700050968D919C910115110509F46EC1F801E5
:10198000349624913297A590B490D21AB7E0DB9E9A
:10199000A00CB11C1124F801659174917A876987B4
:1019A000F501C590D490F501329674917D833196FE
:1019B000A491AE8331962491085F1F4FF8010491E2
:1019C000F50135965491588766E0A60EB11CF501D5
:1019D000A49069817A81861797070CF416C3802F2B
:1019E00090E0880F991F63E070E00E944D29649D8C
:1019F000C001659D900D749D900D11242101481A20
:101A0000590AAB85BC8552968D919C91841595059C
:101A10000CF4FBC28D80821608F4822E849E400155
:101A2000112449815A81480D591DEB85FC85848517
:101A30009585841795070CF0E8C2039F8001112457
:101A40009101200F311F86859785821793070CF02F
:101A5000DCC20190F081E02D0484F585E02D8B85BA
:101A60009C8509952B813C816216730671F1AB85CB
:101A7000BC8550962D913C9189819A81880D991D44
:101A80000197281739078CF0EB85FC85228933896B
:101A9000C801840D951D0197281739076CF4EB8553
:101AA000FC85858D081B1109F3CFAB85BC855C9641
:101AB0008C91881A9108E0CF73019401A201698189
:101AC0007A818B859C850E94470AF8858F2EFF0FAF
:101AD0009908EA2C0A2C000CFF08AB85BC855D96A2
:101AE0002C915D975C968C91813009F045C0213036
:101AF00009F042C0E20CF31C870180E0512C902FCA
:101B00009E19BE819B1708F054C1EB85FC85228984
:101B10003389201731076CF1A980BA80A80CB91C51
:101B20003D80380E831529F144244394480E877074
:101B300041F4C6010196E985FA85EC0DFD1D54902E
:101B40006C01AB85BC8550968D919C9151978A15FF
:101B50009B054CF057FE07C02B813C81A801B501C5
:101B6000CD010E94480CBFEFAB1ABB0A550C842D67
:101B7000D9CF0F5F1F4FC3CF3A2D3203500111242D
:101B8000A20CB31C80E0512C412C4E81441609F468
:101B900010C1AB85BC855D962C915D972A0D3B2DC0
:101BA000311D2150310952964D915C915397421746
:101BB00053070CF44AC05C962C91388532034001DF
:101BC000112449815A81840E951E2D80280E82157C
:101BD00009F43BC033243394380E877041F4C601B6
:101BE0000196E985FA85EC0DFD1D54906C01AB85DD
:101BF000BC855C962C915C9730E0C901880D991DDD
:101C0000019750964D915C91519748175907ACF048
:101C100057FE13C05E968C915E9790E05D960C9196
:101C20005D9710E0081B190B281B390BEB80FC801B
:101C3000A501B401CD010E94470AEB85FC85848D86
:101C4000880E911C550C832DC2CF4394AB85BC8567
:101C50005D969C91A90EB11C98CFE981FA818E17EF
:101C60009F070CF4D2C1AB85BC8552968D919C9197
:101C7000821593050CF4C9C19F01B6E04B9F200D5E
:101C8000311D1124EB85FC8584859585821793078A
:101C90000CF0BBC153E0440C551C5A95E1F7420CC3
:101CA000531C86859785841595050CF0AEC101906F
:101CB000F081E02D0484F585E02D8B859C850995C8
:101CC000AB85BC855C962C91B5E0DB9EC0011124F0
:101CD000213009F09EC0EB85FC85258D213009F06F
:101CE00098C0F12CE12C9C012A573F4F490151012A
:101CF00038E0A30EB11CC980DA80CE0CDF1CF401E1
:101D0000EE0DFF1D5490AB85BC8550968D919C9136
:101D10008C159D05ECF08101EB85FC85828993890A
:101D2000801791077CF00190F081E02D50FE63C098
:101D30000284F385E02D2B813C81A801B6018B85BF
:101D40009C8509950F5F1F4F56940A151B0521F7B7
:101D50003FEFE31AF30A45E0E416F10461F66B8104
:101D60007C816616770629F169817A816B5F7F4FE6
:101D7000AB85BC8550968D919C915197861797079E
:101D8000C4F052962D913C91C1010696821793079B
:101D9000ECF1221933092F5F3F4FAB85BC85ED91E4
:101DA000FC9111970088F189E02D8301A101CD01FB
:101DB0000995AB85BC85ED91FC9111970688F78953
:101DC000E02DCD012C960FB6F894DEBF0FBECDBF2F
:101DD000DF91CF911F910F91FF90EF90DF90CF9007
:101DE000BF90AF909F908F907F906F905F904F903B
:101DF0003F902F9009942B813C816216730609F461
:101E0000A1CF0284F385E02D930197CF28E030E045
:101E1000C4CFC980DA80512C412CFC01EA57FF4F16
:101E2000FF83EE83AB85BC855C968C915C978C0DB3
:101E30009D2D911D019750962D913C9128173907A2
:101E40000CF487C0EE81FF81E40DF51DB491BD83D4
:101E50005101912C812CEB85FC85858D90E09C01B6
:101E60002A0D3B1D215031094289538942175307DE
:101E70000CF45EC0248D30E0FD81F0FFB7C0AB856F
:101E8000BC855E964C915E97442309F4AAC050E04D
:101E90008C01041B150B241B350B889DA001899D0B
:101EA000500D989D500D1124420D531DEB81FC8166
:101EB0006E167F0609F490C07F01B601CD010E9425
:101EC000470AAB85BC855D960C915D9710E05E96E8
:101ED0002C915E9730E0089DA001099D500D189D42
:101EE000500D1124420D531D5C966C915C976C0D46
:101EF0007D2D711D621B730B7301CD010E94470A7A
:101F0000EB85FC85068D10E0248D30E0201B310B25
:101F1000658DC4010196689FA001699F500D112431
:101F2000420D531D401B510BB601CF010E94470AC1
:101F30005D8156955D83AB85BC855D968C91A80EC1
:101F4000B11CBFEF8B1A9B0AE8E08E16910409F0D2
:101F500082CFAB85BC855C968C91282F30E0C20E79
:101F6000D31EBFEF4B1A5B0AE5E04E16510409F091
:101F700059CF4B815C816416750609F41ACF6981CB
:101F80007A8155E0859F600D711D1124C901860F6E
:101F9000971F0197AB85BC8550964D915C915197E9
:101FA000481759070CF405CF5D968C915D9790E02A
:101FB0008C0143E0000F111F4A95E1F752964D91B5
:101FC0005C91F1013197DF01A00FB11F4A175B0748
:101FD000ACF4081B190BF7CF7301B6018B859C85F8
:101FE000A5CFEB80FC808C01A501F7CF4B815C81F4
:101FF0006416750609F49CCF7301F5CF7301A10136
:102000008B859C850E94470AD4CE2C960FB6F894F7
:10201000DEBF0FBECDBFDF91CF911F910F91FF901B
:10202000EF90DF90CF90BF90AF909F908F907F9078
:102030006F905F904F903F902F900895DF92EF92B6
:10204000FF920F931F93CF93DF93EC01262F89A16B
:102050009AA1009709F47DC06A30D1F42C853D85A2
:102060003D8B2C8BFC013896E4912D8D8E899F89B8
:10207000E29F800D911D11249F8B8E8B81E090E05B
:10208000DF91CF911F910F91FF90EF90DF90089516
:102090006D30A1F3FC01349645915491FC013696C4
:1020A000A591B49170E06417750740F3A617B707C0
:1020B00028F3FC013296A591B491362F341B47E0EA
:1020C000349FA00DB11D1124FD013296449132962A
:1020D000D49038A1332341F115963C9150E0430F41
:1020E000511D37FD5A953C8D349FB001359F700DC1
:1020F00011244C895D89460F571F41505109688949
:1021000079896417750784F44E895F896C857D85AC
:102110007D8B6C8B0896FC0184919D8D899F400D71
:10212000511D11245F8B4E8BEA8CFB8C088D198D11
:102130004E895F896C897D89CE010E94880C2C8D27
:102140008C899D89D29E800D911D11249D8B8C8B35
:1021500095CF6A3071F48C859D859D8B8C8B8D8D90
:10216000F8E08F9F900111248E899F89820F931F21
:1021700083CF6D3009F482CF88A18823E9F03C8DAC
:102180008C899D8946E0349F800D911D1124019713
:1021900048895989481759077CF44E895F898C858D
:1021A0009D859D8B8C8B8D8DE8E08E9FC0011124C9
:1021B000840F951F9F8B8E8BEA8CFB8C088D198D5D
:1021C0004E895F896C897D89CE010E94880C2C8D97
:1021D0008C899D89F6E02F9F800D911D1124B6CF2B
:1021E000AF92BF92CF92DF92EF92FF920F931F9325
:1021F000CF93DF936C015A01EB017B01E20EF31EDA
:10220000CE15DF0544F49801A501BE01C6010E9468
:10221000480C2196F5CFDF91CF911F910F91FF9040
:10222000EF90DF90CF90BF90AF900895AF92BF92A4
:10223000CF92DF92EF92FF920F931F93CF93DF9392
:102240006C015B01EA017A01E20EF31ECE15DF0597
:1022500044F49801AE01B501C6010E94480C2196D4
:10226000F5CFDF91CF911F910F91FF90EF90DF900D
:10227000CF90BF90AF90089508952F923F924F92C4
:102280005F926F927F928F929F92AF92BF92CF9206
:10229000DF92EF92FF920F931F93CF93DF9300D0C3
:1022A00000D000D0CDB7DEB74C016B015E834D830B
:1022B000590162177307A9F50417150734F49D81B6
:1022C0008E811E830D83092F182F2D813E81021BC5
:1022D000130B98012F5F3F4FD401ED91FC910088C3
:1022E000F189E02D87014D815E81B601C401099518
:1022F00026960FB6F894DEBF0FBECDBFDF91CF910B
:102300001F910F91FF90EF90DF90CF90BF90AF9013
:102310009F908F907F906F905F904F903F902F9005
:1023200008952D813E812017310799F4A616B7062E
:1023300024F48D2D6501A62EB82E95012C193D098A
:102340002F5F3F4FD401ED91FC910288F389E02D7E
:10235000C9CF2D813E811801221A330A2017310777
:1023600024F02D803E80201A310A25014C185D088A
:10237000CA14DB041CF026014A185B0842145304FB
:102380005CF49A2D8B2D5801092F182F9C2D8D2D23
:10239000CD80DE809D838E83AC14BD045CF49D8172
:1023A0008E811E830D83092F182F9C2D8D2D650185
:1023B000A92EB82EC5018C199D099A838983AD81F8
:1023C000BE81A017B107ACF598012A1B3B0B3C83DB
:1023D0002B8369807A8075946794AD81BE81A01744
:1023E000B10774F10FEF1FEFAC14BD040CF480CFF4
:1023F0009701A6016D817E81421453041CF04D812A
:102400005E81B601C4010E94480C2B813C81621A96
:10241000730A77FE0AC089819A81680E791EAD81A0
:10242000BE81A00FB11FBE83AD83BFEFCB1ADB0A05
:10243000DBCF8D819E81801B910B9C838B83C9CFC9
:1024400001E010E0D1CF089590E080E008951F935F
:10245000CF93DF93EC01162FE881F9810280F3819D
:10246000E02D0995E881F9810680F781E02D612F43
:10247000CE010995E881F9810480F581E02DCE0136
:10248000DF91CF911F91099460E1FC0184A595A58E
:102490000E94271266E970E080E090E00C94470407
:1024A00061E1FC0184A595A50E94271266E970E010
:1024B00080E090E00C944704FC0184A595A527A535
:1024C000261303C060E20C94271261E2FCCFEF9266
:1024D000FF920F931F93CF93DF93EC018A01790151
:1024E000E881F9810680F781E02D0995009391023A
:1024F00010939202E881F9810484F585E02D612F23
:10250000CE01099501E912E0E881F9810484F5859D
:10251000E02DD8016C91CE010995E0929102F092E4
:102520009202E881F9810484F585E02D6F2DCE01BA
:102530000995E881F9810484F585E02DD8016C9135
:10254000CE01DF91CF911F910F91FF90EF900994F1
:10255000EF92FF920F931F93CF93DF93EC017A01D9
:102560008901E881F9810680F781E02D0995E881EC
:10257000F9810684F785E02DB701CE010995E88140
:10258000F9810684F785E02DB801CE01DF91CF9166
:102590001F910F91FF90EF9009940F931F93CF938A
:1025A000DF93EC018A01E881F9810084F185E02D57
:1025B0000995E881F9810684F785E02DB801CE01FF
:1025C000DF91CF911F910F9109940F931F93CF9398
:1025D000DF93EC018A01E881F9810680F781E02D23
:1025E0000995E881F9810684F785E02DB801CE01CF
:1025F000DF91CF911F910F9109941F93CF93DF9398
:10260000EC01142FE881F9810680F781E02D09950E
:10261000E881F9810484F585E02D612FCE01DF91F9
:10262000CF911F910994DC01ED91FD918081ED9195
:10263000FD919081ED91FD916C9163708E2309F075
:1026400064609F2309F06860E0E3F3E1E60FF11DA9
:10265000659565956D936D917D918D919D91099491
:1026600023C01AC012C016C010C01EC009C014C0BA
:1026700013C006C019C009C00DC007C00DC014C0EA
:1026800062507040804090400BC06150704080406C
:10269000904006C06E5F01C06F5F7F4F8F4F9F4FAE
:1026A0009E938E937E936E93089580916203909192
:1026B00063030C94131380916403909165030C944D
:1026C00013132F923F924F925F926F927F928F924D
:1026D0009F92AF92BF92CF92DF92EF92FF920F93B1
:1026E0001F93CF93DF935C011B016A01F12CE12C56
:1026F000D50114968D919C9186010E191F098017A2
:10270000910708F48C01F501D0810E9422042B016D
:102710003C0180913603811172C0C02F013208F054
:10272000C0E2F1E0F093360321E0C601801B910B7B
:10273000E816F90608F420E0209335038FEF809324
:102740003403109233038C0F80933203A1E0A093E3
:10275000110380911103DD0FD82BD09311038091C9
:102760001003813009F090C0109210030E942204DF
:102770002B013C01809111038093BB0080913803B1
:1027800090913903A0913A03B0913B03892B8A2B96
:102790008B2BA1F00E942204209138033091390341
:1027A00040913A0350913B036419750986099709D2
:1027B000261737074807590708F442C08091BC0024
:1027C00083FDD8CFB5ECB093BC000E9422042B014E
:1027D0003C0180913603813009F45AC08091330363
:1027E0008C1710F4C0913303A2E1B3E0E0EFF2E004
:1027F00080E08C1751F19D9191938F5FFACF80917A
:10280000380390913903A0913A03B0913B03892B8F
:102810008A2B8B2B09F47DCF0E9422042091380350
:102820003091390340913A0350913B036419750983
:1028300086099709261737074807590708F069CF0F
:10284000809137030E94D704C0E01092EF02C0933A
:10285000EE02C017110609F057C041018E0C9F1CF3
:10286000E401CE01881999098017910798F5D501DF
:1028700011968D919C91DC01ED91FC910284F38580
:10288000E02D09958993EDCFE5EEE093BC009DCF57
:102890008091380390913903A0913A03B0913B03A2
:1028A000892B8A2B8B2B09F494CF0E942204209130
:1028B00038033091390340913A0350913B03641936
:1028C000750986099709261737074807590708F039
:1028D00080CFB6CFE00EF11EEC14FD0408F408CF53
:1028E00081E0DF91CF911F910F91FF90EF90DF90EA
:1028F000CF90BF90AF909F908F907F906F905F90A0
:102900004F903F902F90089580E0EBCFCF93DF93CF
:1029100000D0CDB7DEB799838A8380918F039091E1
:102920009003FC012481358122303105B8F02081EB
:1029300031E030933C0320935E0310923D031092EC
:102940005F0321E042E050E0BE016F5F7F4F0E94D5
:10295000E8050F900F90DF91CF91089580E0F9CFB7
:10296000FB0101900020E9F73197AF01461B570B9F
:10297000DC01ED91FC910280F381E02D09948F92AE
:102980009F92AF92BF92EF92FF920F931F93CF93BC
:10299000DF93CDB7DEB7A1970FB6F894DEBF0FBEB9
:1029A000CDBF7C01FA01CB0119A2223008F42AE044
:1029B0008E010F5D1F4F822E912CB12CA12CBF01D7
:1029C000A50194010E946129F901CA016A300CF540
:1029D000605DD8016E938D01232B242B252B79F775
:1029E00090E080E0109721F0BD01C7010E94B01473
:1029F000A1960FB6F894DEBF0FBECDBFDF91CF9189
:102A00001F910F91FF90EF90BF90AF909F908F908C
:102A10000895695CDECF462F50E070E060E02AE068
:102A20000C94BF14CF92DF92EF92FF920F931F93FB
:102A3000CF93DF936B01770FEE08FF08F7FE1BC003
:102A4000EC016DE20E9471038C0144275527BA0105
:102A50004C195D096E097F092AE0CE010E94BF145E
:102A6000800F911FDF91CF911F910F91FF90EF90F9
:102A7000DF90CF9008952AE0B701A601DF91CF91B2
:102A80001F910F91FF90EF90DF90CF900C94BF14A7
:102A90002F923F924F925F926F927F928F929F926E
:102AA000AF92BF92CF92DF92EF92FF921F93CF939C
:102AB000DF93EC016A017B01722EAB019601CB0121
:102AC000B6010E94FD286BEB71E0811126C0460122
:102AD0005701E894B7F82FEF3FEF4FE75FE7C501E5
:102AE000B4010E94FD2881110CC02FEF3FEF4FE78A
:102AF0005FE7C501B4010E94BF256FEB71E01816B6
:102B000064F02FEF3FEF4FE75FE4C701B6010E948B
:102B1000F0281816B4F463EC71E0CE01DF91CF9188
:102B20001F91FF90EF90DF90CF90BF90AF909F905C
:102B30008F907F906F905F904F903F902F900C946C
:102B4000B0142FEF3FEF4FE75FECC701B6010E94D3
:102B5000BF2587FDE0CF20E030E0A901C701B60125
:102B60000E94BF25312C212C87FF09C06DE2CE01C8
:102B70000E9471031C01F7FAF094F7F8F09410E04A
:102B800060E070E080E09FE3711641F020E030E00B
:102B900040E251E40E94AE271F5FF6CFA7019601E5
:102BA0000E943D272B013C010E9420284B015C0123
:102BB0002AE0BC01A401CE010E94BF147C01E20CFA
:102BC000F31C1123C1F1C501B4010E94C4259B016E
:102BD000AC01C301B2010E943C274B015C016EE2D3
:102BE000CE010E947103E80EF91E115020F120E081
:102BF00030E040E251E4C501B4010E9425262B01DA
:102C00003C010E9420284B01B12CA12C2AE0B501E7
:102C1000A401CE010E94BF14E80EF91EC501B40143
:102C20000E94C4259B01AC01C301B2010E943C2754
:102C30004B015C01DACFC701DF91CF911F91FF906B
:102C4000EF90DF90CF90BF90AF909F908F907F904C
:102C50006F905F904F903F902F9008950C94B01418
:102C6000CF93DF93EC018091670390916803009705
:102C700059F02091690330916A032C173D0720F029
:102C800081E0DF91CF910895BE016F5F7F4F0E9479
:102C9000D12A009789F09093680380936703D093BB
:102CA0006A03C093690320916B0330916C03232B5B
:102CB00039F7FC011082E4CF80E0E3CF0F931F933C
:102CC000CF93DF938C01EC0109900020E9F7219765
:102CD000C81BD90BCE010E9430162091670330919A
:102CE0006803811117C02115310519F0C9010E942F
:102CF000482A109268031092670310926C03109296
:102D00006B0310926A0310926903DF91CF911F91B8
:102D10000F910895D0936C03C0936B03B801C90160
:102D2000DF91CF911F910F910C949C2B2F923F928A
:102D30004F925F926F927F928F929F92AF92BF92CB
:102D4000CF92DF92EF92FF920F931F93CF93DF9377
:102D5000CDB7DEB7C254D1090FB6F894DEBF0FBEAF
:102D6000CDBF9E878D877EAF6DAF5A834983190192
:102D70002701380121969FAE8EAE21974217530747
:102D800024F0832D1A0129838A83A6019501C301AA
:102D9000B2010E943C279B01AC015F772D833E83EB
:102DA0004F83588720E030E044EB53E4C301B20185
:102DB0000E945A282B013C0120E030E044EB53E410
:102DC000C601B5010E945A286B017C0120E030E069
:102DD000A901C301B2010E94BF2587FF0AC020E0FC
:102DE00030E044EB53E4C301B2010E943D272B01C4
:102DF0003C0120E030E0A901C701B6010E94BF25D7
:102E000087FF0AC020E030E044EB53E4C701B6017D
:102E10000E943D276B017C0120E030E040E054E35C
:102E20006D817E818F8198850E94BF2587FD18C0A6
:102E3000A7019601C301B2010E943C279F7727E1B9
:102E400037EB41ED58E30E94BF2518164CF0C12C1A
:102E5000D12C84EBE82E83E4F82E412C512C320146
:102E6000AD85BE85ED91FC9111970484F585E02D2B
:102E7000CD01099520E030E044EB52E4C301B201FA
:102E80000E94BF258823F1F020E030E044E353E4C2
:102E9000C301B2010E94BF258823A1F020E030E0E9
:102EA00047E853E4C301B2010E94BF25882351F0D3
:102EB00020E030E044EB53E4C301B2010E94BF259F
:102EC00081110AC02DEC3CEC4CEC5DE3C301B20176
:102ED0000E943C272B013C0120E030E044EB52E40F
:102EE000C701B6010E94BF258823F1F020E030E041
:102EF00044E353E4C701B6010E94BF258823A1F033
:102F000020E030E047E853E4C701B6010E94BF2546
:102F1000882351F020E030E044EB53E4C701B601D0
:102F20000E94BF2581110AC02DEC3CEC4CEC5DE306
:102F3000C701B6010E943C276B017C0125E33AEFF3
:102F40004EE85CE3C301B2010E9425264B015C01FF
:102F50000E94A9276D837E838F83988725E33AEFAC
:102F60004EE85CE3C701B6010E9425266F87788B87
:102F7000898B9A8B0E94A92769877A878B879C8780
:102F8000C501B4010E94F5289B01AC016D817E81D1
:102F90008F8198850E94AE276CA37DA38EA39FA3EB
:102FA0006F85788989899A890E94F5289B01AC01EF
:102FB00069857A858B859C850E94AE2768A779A74D
:102FC0008AA79BA72D813E814F81588560E070E0E4
:102FD00080E09FE30E94AE276CA77DA78EA79FA7E6
:102FE00029853A854B855C8560E070E080E09FEB49
:102FF0000E94AE2768AB79AB8AAB9BAB29813A8143
:103000002150310949815A81249FC001259F900D8B
:10301000349F900D11249C01990F440B550B2B8B61
:103020003C8B4D8B5E8B81010F5F1F4F029DC0015A
:10303000039D900D129D900D11249C01990F440B3E
:10304000550B2F87388B498B5A8B20E030E044E3B7
:1030500053E4C301B2010E94BF25881F8827881F3F
:1030600091E089278CAB20E030E044E353E4C701D2
:10307000B6010E94BF25881F8827881F8BA388243C
:10308000992482189308092C000CAA08BB08C101D6
:10309000330CAA0BBB0B8F8F98A3A9A3BAA39801DB
:1030A000110F440B550B2D833E834F83588720E02F
:1030B00030E044E353E4C301B2010E943D279B0189
:1030C000AC01C701B6010E94F02818160CF4DFC04D
:1030D000A7019601C301B2010E94F028181684F4DA
:1030E00020E030E044E353E4C701B6010E943D27ED
:1030F0009B01AC01C301B2010E94BF2587FDC7C07F
:1031000020E030E047E853E4C701B6010E94F02810
:1031100087FF0AC020E030E044EB52E4C701B6016B
:103120000E94BF2587FF14C020E030E047E853E449
:10313000C301B2010E94F02887FF96C020E030E072
:1031400044EB52E4C301B2010E94BF2587FD8CC04D
:1031500020E030E047E853E4C701B6010E94BF25F4
:1031600087FF87C020E030E044EB52E4C701B6019E
:103170000E94F02887FD7DC020E030E047E853E45E
:10318000C301B2010E94BF2587FF73C020E030E079
:1031900044EB52E4C301B2010E94F02889829A8272
:1031A000AB82BC8287FF6AC020E030E044E353E496
:1031B000C701B6010E94F02887FD0AC020E030E078
:1031C00044E353E4C301B2010E94F02887FF66C0C4
:1031D00020E030E044E353E4C701B6010E94BF257C
:1031E000312C87FF0BC020E030E044E353E4C301FF
:1031F000B2010E94BF25312C87FD56C0A501940164
:10320000C501B4010E943D296F8B788F898F9A8FF9
:1032100029813A814B815C81412C512C320121154D
:1032200031054105510509F457C029013A01A301AF
:103230009201C301B2010E943D292F89388D498D29
:103240005A8D620F731F841F951F2F8538894989F6
:103250005A89621773078407950754F13FEF431AA1
:10326000530A630A730AE3CF19821A821B821C82F3
:103270009BCF89829A82AB82BC8296CF81E090E01C
:10328000A0E0B0E08D839E83AF83B8878DCF898225
:103290009A82AB82BC8233243394B0CF312C1F8E00
:1032A00018A219A21AA2AACF812C912C5401A6CF40
:1032B0008D819E81AF81B8850197A105B10561F02F
:1032C00021E030E040E050E0241935094609570973
:1032D0002D833E834F835887C501B4010E94C625C4
:1032E0006B017C01AC019B016CA57DA58EA59FA502
:1032F0000E943D272CA13DA14EA15FA10E94252641
:103300006DAB7EAB8FAB98AFA701960168A979A989
:103310008AA99BA90E943D2728A539A54AA55BA596
:103320000E94252669AF7AAF8BAF9CAFC12CD12C00
:103330007601A40143565F4F23965FAF4EAF2397AC
:10334000A3019201C301B2010E943D292F89388D4A
:10335000498D5A8D260F371F481F591F29873A87D5
:103360004B875C878B899C89AD89BE892817390773
:103370004A075B074CF1C301B2010E94C6256B8F5F
:103380007C8F8D8F9E8F11E09B01AC0169AD7AAD72
:103390008BAD9CAD0E94F02887FD10E001E02B8DE5
:1033A0003C8D4D8D5E8D6DA97EA98FA998AD0E9433
:1033B000F02887FD00E09CA9901709F448C0ABA154
:1033C000A1134CC031104AC0C114D104E104F1046E
:1033D000C9F06DAD7EAD640D751D6C197D09AD85AF
:1033E000BE85ED91FC9111970288F389E02D21961D
:1033F0000EAD1FAD2197960123964EAD5FAD23977D
:10340000CD0109952F85388949895A8989859A85F9
:10341000AB85BC8582179307A407B5070CF04AC09B
:1034200077FE11C02B893C894D895E8982179307ED
:10343000A407B50744F47094609450944094411CE0
:10344000511C611C711CC12CD12C760124C033206D
:1034500009F4BACFBBA1B11709F4B6CF2D813E81D3
:103460004F815885421653066406750609F4ACCFA1
:103470008F859889A989BA8929853A854B855C8584
:10348000281739074A075B070CF046C03FEFC31AFD
:10349000D30AE30AF30A3FEF431A530A630A730A93
:1034A0008D819E81AF81B88584159505A605B705E8
:1034B0000CF046CF9FEF891A990AA90AB90A2F8DF5
:1034C00038A149A15AA1281539054A055B050CF018
:1034D00095CEAD85BE85ED91FC9111970688F78953
:1034E000E02DCD01CE5BDF4F0FB6F894DEBF0FBEEF
:1034F000CDBFDF91CF911F910F91FF90EF90DF90A3
:10350000CF90BF90AF909F908F907F906F905F9083
:103510004F903F902F900994C114D104E104F1041D
:1035200049F257CF0E948E2B85ED8093BC0080918D
:10353000380390913903A0913A03B0913B03079669
:10354000A11DB11D23E0B695A795979587952A955E
:10355000D1F72091BC0024FD03C0109236030895DA
:10356000409138035091390360913A0370913B03C5
:10357000452B462B472B69F30097A105B10541F078
:1035800025E32A95F1F700000197A109B109E1CFE0
:10359000809137030C94D7044F925F926F927F9281
:1035A0008F929F92AF92BF92CF92DF92EF92FF9253
:1035B0000F931F93CF93DF936C01DC019E968C9148
:1035C00061E08F3F09F454C00E94F10361E0E6011D
:1035D0008EA50E94A50364E670E080E090E00E9462
:1035E000470460E08EA50E94A50366E970E080E0D4
:1035F00090E00E94470461E08EA50E94A50366E961
:1036000070E080E090E00E944704D6019C960D9106
:103610001C91F601EF5BFF4F408051803297E080B4
:10362000F180D0E0C0E027ECA22E21E0B22EC4153C
:10363000D50508F0D0C0F701EC0FFD1FE0814E0169
:10364000BFEF8B1A9B0AED3008F0A7C0F0E0E55DF4
:10365000F44E0C948329791B841B5E1B891B501B21
:10366000DC1BA31B3E1B821BA81B861BBB1BC21B98
:10367000F60184A595A50E942712C1CF80E077248A
:103680007394780ED701A80DB91DE801E881F9817E
:103690000680F781E02D6C91C8010995E40102C014
:1036A00077247394219647018C0E9D1E672C6A9493
:1036B000FFEF6F1284C0C70DD11DB9CF712CF70178
:1036C000E80DF91D8081809392022296F701EC0F9C
:1036D000FD1F80818093910260919102709192020E
:1036E000D801ED91FC910084F185E02DC801099588
:1036F000D9CFD801ED91FC910280F381E02DC80172
:1037000009951FC081E0BBCF712CBCCF92E0792E10
:10371000D6CFF701E80DF91D7080272D30E050E07D
:1037200040E0BE016E5F7F4F6E0D7F1DE801E881B6
:10373000F9810284F385E02DC8010995E401C70DE4
:10374000D11D712CAFCFF701E80DF91D7080A6CF08
:10375000D701A80DB91DF80180819181FC01268156
:1037600037816C91C801F90109952296F701EC0F98
:10377000FD1F708097CFD801ED91FC910480F581F9
:10378000E02DBDCFF701E80DF91D608170E090E0FC
:1037900080E00E944704E401D4CF1F92EF93DF93AF
:1037A000CF93BF92AF920E94A32B0F900F900F90D8
:1037B0000F900F900F90C5CF82E0782E73CFD40179
:1037C0006D914D01D801ED91FC910484F585E02DBA
:1037D000C80109956CCFE601E881F981028CF38D6F
:1037E000E02D60E0C601DF91CF911F910F91FF9016
:1037F000EF90DF90CF90BF90AF909F908F907F9091
:103800006F905F904F9009940F931F93CF93DF9326
:10381000EC014F3F8FEF58076807780721F440E02D
:1038200052E16AE770E04A835B836C837D832E8379
:1038300061E08F810E94F10361E08F810E94A50306
:1038400088858F3F39F061E00E94F10361E088854F
:103850000E94A5038F81082E000C990BFC01E453F4
:10386000FA4FE491F0E0EE0FFF1FE057FA4F259179
:1038700034913F872E87FC01E255FA4FE491EA8BA1
:10388000E095EB8B88858F3FA9F0082E000C990BF3
:10389000FC01E453FA4FE491F0E0EE0FFF1FE05714
:1038A000FA4F259134913D872C87FC01E255FA4F60
:1038B000E491E88B88898095898B1FB7F894809173
:1038C0008E02811127C0E6EDF5E08491E8EBF5E08A
:1038D0009491E82FF0E0EE0FFF1FEA57FA4FA59101
:1038E000B491EC91E92321F461E08AE00E94A50300
:1038F00061E08AE00E94F1038CB580618CBD8CB5DB
:1039000080648CBD61E08DE00E94F10361E08BE09A
:103910000E94F10380918E028F5F80938E021FBF01
:103920008E818F3F11F488E08E839E810A811B81F6
:103930002C813D8140E052E16AE770E080E00417AD
:1039400015072607370740F47695679557954795ED
:103950008F5F8630A1F787E09C709065282F2695B1
:10396000922B90936003809581708093610381E036
:10397000DF91CF911F910F9108950C94E3261F9230
:103980000F920FB60F9211242F933F938F939F9313
:10399000AF93BF938091D8029091D902A091DA029F
:1039A000B091DB023091D70223E0230F2D3758F579
:1039B0000196A11DB11D2093D7028093D802909348
:1039C000D902A093DA02B093DB028091DC029091DD
:1039D000DD02A091DE02B091DF020196A11DB11DB2
:1039E0008093DC029093DD02A093DE02B093DF02AD
:1039F000BF91AF919F918F913F912F910F900FBEEB
:103A00000F901F90189526E8230F0296A11DB11D57
:103A1000D2CF1F920F920FB60F9211242F933F9384
:103A20004F935F936F937F938F939F93AF93BF93C6
:103A3000EF93FF93E0910401F09105010995FF9147
:103A4000EF91BF91AF919F918F917F916F915F9116
:103A50004F913F912F910F900FBE0F901F9018958F
:103A60001F920F920FB60F9211242F933F934F93F3
:103A70005F936F937F938F939F93AF93BF93EF93D6
:103A8000FF93E0910201F09103010995FF91EF91FD
:103A9000BF91AF919F918F917F916F915F914F9166
:103AA0003F912F910F900FBE0F901F9018951F926E
:103AB0000F920FB60F9211242F933F934F935F9362
:103AC0006F937F938F939F93AF93BF93EF93FF93E6
:103AD0008091B900887F803609F44AC0F0F58832B9
:103AE00009F4A7C018F5803109F49BC0B8F4882305
:103AF00009F4F9C0883009F494C0FF91EF91BF91A7
:103B0000AF919F918F917F916F915F914F913F9175
:103B10002F910F900FBE0F901F901895883109F4C8
:103B200088C0803251F78093340314C0803409F484
:103B30009DC040F48033B9F38833F9F680933403A1
:103B400085ECB0C0803509F485C0883509F496C08D
:103B5000883499F60E94941AD0CF883909F48CC021
:103B600038F5883729F050F4883611F0803729F677
:103B700083E0809336031092D60257C0883809F448
:103B80007BC0803919F0803809F0B7CF8091D60218
:103B9000803208F071C0E091D60281E08E0F8093F0
:103BA000D6028091BB00F0E0EA54FD4F80833DC017
:103BB000803B39F0E0F4803A09F479C0883A09F0A2
:103BC0009CCF84E0809336031092B5021092B40229
:103BD000E091EC02F091ED0209958091B40281111F
:103BE0000FC081E08093B4021092940209C0803C1F
:103BF00009F4A6CF883C09F4A3CF883B09F07DCF18
:103C0000E091B50281E08E0F8093B502F0E0EC56B2
:103C1000FD4F80818093BB009091B5028091B402EA
:103C200029C0809111038093BB0085EC8093BC0078
:103C300064CF9091330380913203981758F5E09147
:103C4000330381E08E0F80933303F0E0EE5EFC4F90
:103C50008081E9CFE091330381E08E0F80933303BD
:103C60008091BB00F0E0EE5EFC4F808390913303C7
:103C7000809132039817C8F285E8D8CFE0913303DA
:103C800081E08E0F809333038091BB00F0E0EE5E05
:103C9000FC4F80838091350381115CCF81E080935C
:103CA000100384EA8093BC001092360326CF85EC83
:103CB0008093BC00109236038091D602803230F49B
:103CC000E091D602F0E0EA54FD4F10826091D602F6
:103CD00070E0E091EA02F091EB0286EB92E0099548
:103CE0001092D6020ACF1092340334CF1F93CF9391
:103CF000DF9310927C0310927B0388EE93E0A0E0A8
:103D0000B0E080937D0390937E03A0937F03B093F4
:103D1000800383E191E090937A038093790380E5B7
:103D2000809360031092610384E190E00E94AC29CB
:103D3000EC0183E591E09983888388E08F8389E0B3
:103D4000888786E693E09A87898711E01B87D0935E
:103D50009403C093930383E490E00E94AC29FC0198
:103D60001382128220EF30E034A323A380E491E099
:103D700096A385A317A235832483978386832FEE8A
:103D800030E0318720878FE391E093878287158623
:103D9000148617861686318B208B938B828B158A1F
:103DA000148A178A168A8FEF9FEF918F808F938FD7
:103DB000828F148F158F168E178E10A312A211A248
:103DC000D5A7C4A787E086A717A610AA11AA12AA8A
:103DD00013AA8FEF86AF85E291E091838083DF01A4
:103DE000DF9683E791E011969C938E93129688E478
:103DF00090E08D939C93F0939203E0939103109243
:103E0000900310928F0389E793E090938E03809341
:103E10008D0380E090E0A0ECBFE780938503909352
:103E20008603A0938703B0938803809389039093BC
:103E30008A03A0938B03B0938C0362E082E00E941C
:103E4000F10362E083E00E94F103EEECF5E0E4911F
:103E5000F0E0EE0FFF1FEE53FA4FA591B491B0932F
:103E60006E03A0936D03E0EBF5E044914093710382
:103E7000EFECF5E0E491F0E0EE0FFF1FEE53FA4FA8
:103E8000C591D491D0937003C0936F03E1EBF5E03B
:103E9000E491E093720310927403109275031092F0
:103EA0007603109277032BE33FE1C9010197F1F705
:103EB0009C91842F892391E009F490E08881E82384
:103EC00009F092602DE633E090937303309363031F
:103ED0002093620385E593E19093030180930201AF
:103EE000809169008C7F816080936900E89A81E00D
:103EF0008093780330936503209364038BE593E10B
:103F0000909305018093040180916900837F846010
:103F100080936900E99A82E08093780310926803A5
:103F20001092670310926A031092690310926C0357
:103F300010926B0384E090E00E943016209167039A
:103F400030916803811116C02115310519F0C9019E
:103F50000E94482A109268031092670310926C0323
:103F600010926B0310926A0310926903DF91CF9154
:103F70001F91089584E090E090936C0380936B030D
:103F800067EE71E0C901DF91CF911F910C949C2BDA
:103F9000CF93DF9300D000D000D01F92CDB7DEB713
:103FA000789484B5826084BD84B5816084BD85B514
:103FB000826085BD85B5816085BD80916E00816020
:103FC00080936E00109281008091810082608093C6
:103FD00081008091810081608093810080918000C8
:103FE0008160809380008091B10084608093B100F3
:103FF0008091B00081608093B00080917A008460ED
:1040000080937A0080917A00826080937A00809118
:104010007A00816080937A0080917A008068809332
:104020007A001092C1008091910390919203DC017B
:10403000ED91FC910084F185E02D4FEF5FEFBA0127
:1040400009958091910390919203DC01ED91FC918F
:10405000008CF18DE02D61E009950E94C0048091F3
:104060008F0390919003009711F00E94482A86E0F8
:1040700090E00E94AC298C0180918D0390918E0379
:1040800024E4F801208392838183138280E290E00C
:10409000958384831093900300938F030E94C00440
:1040A00081E0D80113968C93C8010E9406068823EC
:1040B000C9F082EA90E30E9486146AE070E080E032
:1040C00090E00E9447048DE293EF0E94861443E043
:1040D00050E0BE016F5F7F4F80918F0390919003FE
:1040E0000E94611361E085E00E94F10360E085E0D9
:1040F0000E94A50362E084E00E94F10390E080E06A
:104100000E94BD1C8F3609F017C58CEE91E00E940D
:104110005E1681E090E00E94BD1C682F80ED860F46
:104120008A3098F4062E000C770B60537109072E25
:10413000000C880B990B0E94C6256093E6027093D1
:10414000E7028093E8029093E90282E090E00E9407
:10415000BD1C90ED980F9A3040F4082E000C990B7E
:10416000C097909301018093000183E090E00E944A
:10417000BD1C8093E50284E090E00E94BD1C80930A
:10418000E40285E090E00E94BD1C8093E30286E09B
:1041900090E00E94BD1C8093E20280919103909177
:1041A00092030E94C00AE0919103F0919203168E4F
:1041B00077247394748E758E80EE97E0938F828F40
:1041C000918F808F0AE010E0158B048B84E190E0E2
:1041D000978B868B63EF71E0CF010E942E1668EEFD
:1041E00073E080E090E00E944704809191039091F9
:1041F0009203FC01158B048B28E230E0378B268B71
:1042000063E072E00E942E1619820091E002109184
:10421000E102D80114968D919C911597892BE1F0BC
:104220008C9170923C0380935E0310923D03109238
:104230005F0320E041E050E0BE016F5F7F4FC801A7
:104240000E94E805882341F047E050E0BE016F5F1F
:104250007F4FC8010E9461132A81822F90E064E0A1
:10426000959587956A95E1F7982F990F990F782E74
:10427000791A770C720E2B81822F90E074E095955D
:1042800087957A95E1F7982F990F990F682F691BF9
:10429000660F620F80919103909192030E940B151B
:1042A0006AE072E080919103909192030E942E1631
:1042B000672D80919103909192030E940B1568EEF7
:1042C00073E080E090E00E94470480919103909118
:1042D00092032AE030E0FC01358B248B2CE330E0A4
:1042E000378B268B6CE072E00E942E1600919103B2
:1042F0001091920380E094E20E948614882309F4CE
:1043000026C464E170E080E090E00E94470446E04B
:1043100050E0BE016F5F7F4F80918F0390919003BB
:104320000E946113882309F412C47B80CE01019698
:104330000E941C0378120BC47E80CE0104960E945A
:104340001C03781204C429813A813227232732279B
:10435000A7E1B1E10E942D274EE0959587957795CD
:1043600067954A95D1F764597141810991090E9475
:10437000C62520E030E048EC52E40E94AE272B0135
:104380003C014092890350928A0360928B037092A1
:104390008C032C813D81322723273227A1E7B2E00D
:1043A0000E942D275CE096958795779567955A959D
:1043B000D1F70E94C42520E030E048EC52E40E948E
:1043C000AE27609385037093860380938703909351
:1043D000880322E0B301A201C8010E94481568EEDB
:1043E00073E080E090E00E944704809191039091F7
:1043F00092030AE010E0DC0155961C930E9354974B
:1044000020E530E057963C932E9356976AE172E090
:104410000E942E164091E6025091E7026091E80258
:104420007091E90222E080919103909192030E94A1
:10443000481568EE73E080E090E00E9447048091A8
:10444000910390919203FC01158B048B24E630E0DC
:10445000378B268B6EE272E00E942E16609100016F
:104460007091010180919103909192030E94121525
:1044700068EE73E080E090E00E9447048091910331
:1044800090919203DC0155961C930E93549728E764
:1044900030E057963C932E93569764E472E00E9466
:1044A0002E168091910390919203FC01158B048B41
:1044B0002CE830E0378B268B66E572E00E942E16E2
:1044C0006091E50280919103909192030E940B15F7
:1044D0008091910390919203DC0155961C930E9369
:1044E000549720EA30E057963C932E93569769E50F
:1044F00072E00E942E166091E402809191039091E7
:1045000092030E940B158091910390919203FC01FC
:10451000158B048B24EB30E0378B268B6CE572E037
:104520000E942E166091E302809191039091920374
:104530000E940B158091910390919203DC01559696
:104540001C930E93549728EC30E057963C932E938F
:1045500056976FE572E00E942E166091E2028091FC
:104560009103909192030E940B1568E873E180E03B
:1045700090E00E94470480919103909192030E94E1
:10458000C00A66246A94762C2DEA422E512CE091C2
:104590009103F0919203738E628E718E608E168EEF
:1045A00082E0382E348E358E26E330E0358B248B36
:1045B00083E090E0978B868B62E672E0CF010E94E9
:1045C0002E168091910390919203EAE0F0E0DC01D5
:1045D0005596FC93EE93549729E130E057963C931F
:1045E0002E93569765E772E00E942E1690E1892E71
:1045F00094E8992EA12CB12C27E8C22E23E4D22EC8
:10460000E12CF12C04E313E42CE430E048E550E025
:1046100064E670E080919103909192030E94961657
:10462000812C48EF942EA12C50E8B52E5AE4C52ECB
:1046300053E4D52E21E430E04BE450E064E670E032
:1046400080919103909192030E94961660EE862EBF
:1046500099249A94A12CB12C71E6C72E73E4D72E1D
:10466000E12C10E8F12E0AE413E421E430E04BE4FD
:1046700050E064E670E080919103909192030E9473
:104680009616F0EE8F2EF7E09F2EA12CA0E8BA2E02
:10469000A7E7CA2EA3E4DA2EE12CF12C01E613E4FD
:1046A00021E430E04BE450E064E670E08091910357
:1046B000909192030E9496161FE1812E912CA12CBD
:1046C000B12C07E8C02E03E4D02EE12C10E8F12E27
:1046D00007E713E421E430E04BE450E064E670E0E7
:1046E00080919103909192030E949616E09191031C
:1046F000F0919203738E628E718E608E168E2224DC
:104700002394248E258E82E190E0958B848BA8E9FA
:10471000B0E0B78BA68B70E060E0CF010E9412156D
:10472000809191039091920324E230E0FC01358B5B
:10473000248BA1E6B0E0B78BA68B62E370E00E9409
:104740001215809191039091920329E530E0FC01CC
:10475000358B248BA9E4B0E0B78BA68B64E670E0C0
:104760000E941215E0919103F091920320E530E050
:10477000358B248B578A468A168E348E358E6CE79D
:1047800072E0CF010E942E1690E1892E94E8992EB6
:10479000A12CB12C24EBC22E23E4D22EE12CF12C3F
:1047A00004E313E42AE530E046E650E06DEC70E007
:1047B00080919103909192030E9496164FE1842E6E
:1047C000912CA12CB12C51E6C52E53E4D52E2FE40B
:1047D00030E049E550E06DEC70E0809191039091FC
:1047E00092030E94961660EE862E67E0962EA12C0C
:1047F000B12C77E8C72E73E4D72EE12CF12C01E61B
:1048000013E42FE430E049E550E06DEC70E0809176
:104810009103909192030E949616F0EE8F2E9924A8
:104820009A94A12CA0E8BA2EADE9CA2EA3E4DA2E00
:10483000E12CF12C07E813E42FE430E049E550E0E7
:104840006DEC70E080919103909192030E94961616
:10485000812C18EF912EA12CB12C04EBC02E03E477
:10486000D02EE12C10E8F12E0DE913E42FE430E016
:1048700049E550E06DEC70E08091910390919203D6
:104880000E949616E0919103F0919203738E628ECE
:10489000718E608E168E248E258E8CE690E0958B20
:1048A000848B88E990E0978B868B70E060E0CF0185
:1048B0000E941215809191039091920322E830E0BA
:1048C000DC0155963C932E93549727E530E057969C
:1048D0003C932E9356976EE170E00E9412158091E2
:1048E00091039091920327EC30E0FC01358B248BEF
:1048F0002BE330E0378B268B6CE370E00E941215BF
:1049000080919103909192032DE031E0DC01559666
:104910003C932E93549725E530E057963C932E9385
:1049200056976AE570E00E9412158091910390916C
:1049300092032EE131E0FC01358B248B28E930E035
:10494000378B268B68E770E00E941215E091910387
:10495000F0919203738E628E718E608E168E348EFD
:10496000358E8DED90E0958B848B578A468A68EF63
:10497000CF010E947103809191039091920329EEDF
:1049800030E0DC0155963C932E93549757965C92F9
:104990004E9256976FE772E00E942E168091910317
:1049A000909192032FE030E0FC01358B248B22E3C1
:1049B00030E0378B268B61E872E00E942E1640E8CB
:1049C00050E06DEC70E080919103909192030E9411
:1049D0003C0345E250E064E670E0809191039091E1
:1049E00092030E943C03E0919103F0919203738E35
:1049F000628E718E608E168E348E358E08E210E0D7
:104A0000158B048B578A468A67E872E0CF010E94B3
:104A10002E16E0919103F0919203738E628E718E47
:104A2000608E168E348E358E89EB90E0958B848B5C
:104A3000578A468A67E872E0CF010E942E1660E925
:104A400070E080919103909192030E94EC0AE091B2
:104A50009103F0919203168E348E358E738E628E92
:104A6000718E608E8BE890E0958B848B578A468A96
:104A70006BE872E0CF010E942E166EE071E080912B
:104A80009103909192030E94EC0AE0919103F091BE
:104A90009203168E348E358E738E628E718E608E7A
:104AA0008AE091E0958B848B578A468A61EF71E0AA
:104AB000CF010E942E16E0919103F0919203738E24
:104AC000628E718E608E158B048B0CED10E0178B4F
:104AD000068B6CEE71E0CF010E942E16E0919103DF
:104AE000F0919203738E628E718E608E8CE890E0EE
:104AF000958B848B178B068B67EE71E0CF010E943C
:104B00002E16E0919103F0919203738E628E718E56
:104B1000608E80EF90E0958B848B178B068B6FEE09
:104B200071E0CF010E942E1680E090E0892B09F4FD
:104B30002ECD0E9400002BCD813619F487EE91E036
:104B4000E6CA863609F0E5CA8FEE91E0E0CA412C4C
:104B5000512C30EC632E3FE7732E3BCC80916703E2
:104B600090916803009711F00E94482A80918F036A
:104B700090919003009711F00C94482A08950E9498
:104B8000012608F481E00895E89409C097FB3EF4FB
:104B900090958095709561957F4F8F4F9F4F99238A
:104BA000A9F0F92F96E9BB279395F6958795779508
:104BB0006795B795F111F8CFFAF4BB0F11F460FFC8
:104BC0001BC06F5F7F4F8F4F9F4F16C0882311F020
:104BD00096E911C0772321F09EE8872F762F05C034
:104BE000662371F096E8862F70E060E02AF09A95CF
:104BF000660F771F881FDAF7880F9695879597F9C4
:104C00000895990F0008550FAA0BE0E8FEEF16165D
:104C10001706E807F907C0F012161306E407F507B0
:104C200098F0621B730B840B950B39F40A2661F024
:104C3000232B242B252B21F408950A2609F4A140C7
:104C4000A6958FEF811D811D08950E9438260C9432
:104C5000A9260E949B2638F00E94A22620F09523C8
:104C600011F00C9492260C94982611240C94DD26B5
:104C70000E94BA2670F3959FC1F3950F50E0551F1F
:104C8000629FF001729FBB27F00DB11D639FAA27A1
:104C9000F00DB11DAA1F649F6627B00DA11D661FF0
:104CA000829F2227B00DA11D621F739FB00DA11D11
:104CB000621F839FA00D611D221F749F3327A00DCB
:104CC000611D231F849F600D211D822F762F6A2F67
:104CD00011249F5750409AF0F1F088234AF0EE0FCC
:104CE000FF1FBB1F661F771F881F91505040A9F7F9
:104CF0009E3F510580F00C9492260C94DD265F3F78
:104D0000E4F3983ED4F3869577956795B795F79534
:104D1000E7959F5FC1F7FE2B880F911D96958795AC
:104D200097F9089597F99F6780E870E060E008952B
:104D30009FEF80EC089500240A94161617061806B3
:104D40000906089500240A9412161306140605068F
:104D50000895092E0394000C11F4882352F0BB0F20
:104D600040F4BF2B11F460FF04C06F5F7F4F8F4F83
:104D70009F4F089557FD9058440F551F59F05F3FBE
:104D800071F04795880F97FB991F61F09F3F79F06D
:104D900087950895121613061406551FF2CF4695EF
:104DA000F1DF08C0161617061806991FF1CF869571
:104DB0007105610508940895E894BB276627772755
:104DC000CB0197F90895F999FECF92BD81BDF89A6C
:104DD000992780B508950E942D27A59F900DB49F17
:104DE000900DA49F800D911D112408952F923F9244
:104DF0004F925F926F927F928F929F92AF92BF92EB
:104E0000CF92DF92EF92FF920F931F93CF93DF9396
:104E1000CDB7DEB7CA1BDB0B0FB6F894DEBF0FBEF3
:104E2000CDBF09942A88398848885F846E847D8440
:104E30008C849B84AA84B984C884DF80EE80FD8042
:104E40000C811B81AA81B981CE0FD11D0FB6F894B8
:104E5000DEBF0FBECDBFED010895A29FB001B39F8D
:104E6000C001A39F700D811D1124911DB29F700D73
:104E7000811D1124911D08955058BB27AA270E9417
:104E800054270C94A9260E949B2638F00E94A22643
:104E900020F039F49F3F19F426F40C9498260EF470
:104EA000E095E7FB0C949226E92F0E94BA2658F36E
:104EB000BA17620773078407950720F079F4A6F5FF
:104EC0000C94DC260EF4E0950B2EBA2FA02D0B01CE
:104ED000B90190010C01CA01A0011124FF27591B3F
:104EE00099F0593F50F4503E68F11A16F040A22F45
:104EF000232F342F4427585FF3CF469537952795B6
:104F0000A795F0405395C9F77EF41F16BA0B620BB4
:104F1000730B840BBAF09150A1F0FF0FBB1F661FFB
:104F2000771F881FC2F70EC0BA0F621F731F841F3E
:104F300048F4879577956795B795F7959E3F08F064
:104F4000B0CF9395880F08F09927EE0F9795879526
:104F500008950E94B328E3950C94DC280E94C22790
:104F60000C94A9260E94A22658F00E949B2640F08D
:104F700029F45F3F29F00C94922651110C94DD2600
:104F80000C9498260E94BA2668F39923B1F355230E
:104F900091F3951B550BBB27AA276217730784074C
:104FA00038F09F5F5F4F220F331F441FAA1FA9F3E2
:104FB00035D00E2E3AF0E0E832D091505040E695D0
:104FC000001CCAF72BD0FE2F29D0660F771F881F31
:104FD000BB1F261737074807AB07B0E809F0BB0B24
:104FE000802DBF01FF2793585F4F3AF09E3F510538
:104FF00078F00C9492260C94DD265F3FE4F3983E03
:10500000D4F3869577956795B795F7959F5FC9F720
:10501000880F911D9695879597F90895E1E0660FA1
:10502000771F881FBB1F621773078407BA0720F01A
:10503000621B730B840BBA0BEE1F88F7E095089583
:105040000E94C22688F09F5798F0B92F9927B75130
:10505000B0F0E1F0660F771F881F991F1AF0BA951C
:10506000C9F714C0B13091F00E94DC26B1E0089578
:105070000C94DC26672F782F8827B85F39F0B93F6A
:10508000CCF3869577956795B395D9F73EF49095CF
:105090008095709561957F4F8F4F9F4F08950E9427
:1050A0009B2620F019F00E94A22650F40C9498261A
:1050B0000C94DD26E92F0E94BA2688F35523B1F31C
:1050C000E7FB6217730784079507A8F189F3E92FB7
:1050D000FF2788232AF03197660F771F881FDAF79A
:1050E000952F5527442332F091505040220F331F03
:1050F000441FD2F7BB27E91BF50B621B730B840B14
:10510000B109B1F222F4620F731F841FB11D3197F0
:105110002AF0660F771F881FBB1FEFCF91505040BA
:1051200062F041F0882332F0660F771F881F91509C
:105130005040C1F793950C94A32886957795679571
:105140009F5FD9F7F7CF9F3F31F0915020F48795BB
:1051500077956795B795880F911D9695879597F9DF
:1051600008950C9498260E94C226D8F3E894E0E0B3
:10517000BB279F57F0F02AED3FE049EC06C0EE0F49
:10518000BB0F661F771F881F28F0B23A62077307AC
:10519000840728F0B25A620B730B840BE3959A953F
:1051A00072F7803830F49A95BB0F661F771F881FFF
:1051B000D2F790480C94A528EF93E0FF07C0A2EA2D
:1051C0002AED3FE049EC5FEB0E9454270E94A9269C
:1051D0000F90039401FC9058E8E6F0E00C9402294B
:1051E0000E94012608F48FEF08959F930E94B32830
:1051F0000F9007FCEE5F0C94DC280E940126880BC0
:10520000990B08959F938F937F936F93FF93EF93E1
:105210009B01AC010E942526EF91FF910E94162967
:105220002F913F914F915F910C942526DF93CF935F
:105230001F930F93FF92EF92DF927B018C01689492
:1052400006C0DA2EEF010E943826FE01E894A591EF
:105250002591359145915591A6F3EF010E94542770
:10526000FE019701A801DA9469F7DF90EF90FF90B3
:105270000F911F91CF91DF910895DB018F939F9341
:105280000E94EB26BF91AF91A29F800D911DA39F1D
:10529000900DB29F900D1124089597FB072E16F4E0
:1052A000009407D077FD09D00E94982907FC05D00B
:1052B0003EF4909581959F4F0895709561957F4F2D
:1052C0000895A1E21A2EAA1BBB1BFD010DC0AA1F47
:1052D000BB1FEE1FFF1FA217B307E407F50720F05F
:1052E000A21BB30BE40BF50B661F771F881F991FDA
:1052F0001A9469F760957095809590959B01AC0123
:10530000BD01CF010895EE0FFF1F0590F491E02D30
:1053100009940E942D27332312F48A1B9B0B0C94B3
:1053200093290E942D27B7FF0895821B930B0895A0
:10533000AA1BBB1B51E107C0AA1FBB1FA617B707BB
:1053400010F0A61BB70B881F991F5A95A9F78095D7
:105350009095BC01CD0108950F931F93CF93DF93D8
:105360008230910510F482E090E0E0919703F09193
:10537000980330E020E0B0E0A0E0309799F42115E8
:10538000310509F44AC0281B390B24303105D8F502
:105390008A819B816115710589F1FB019383828369
:1053A000FE0111C0408151810281138148175907C4
:1053B000E0F04817590799F4109761F012960C9392
:1053C000129713961C933296CF01DF91CF911F91C4
:1053D0000F9108950093970310939803F4CF21152C
:1053E000310551F04217530738F0A901DB019A014A
:1053F000BD01DF01F801C1CFEF01F9CF9093980310
:1054000080939703CDCFFE01E20FF31F8193919319
:105410002250310939832883D7CF209195033091C9
:105420009603232B41F42091080130910901309318
:1054300096032093950320910601309107012115D1
:10544000310541F42DB73EB740910A0150910B014F
:10545000241B350BE0919503F0919603E217F307B7
:10546000A0F42E1B3F0B2817390778F0AC014E5FD4
:105470005F4F2417350748F04E0F5F1F5093960378
:1054800040939503819391939FCFF0E0E0E09CCF10
:10549000CF93DF930097E9F0FC01329713821282D9
:1054A000A0919703B0919803ED0130E020E01097B0
:1054B000A1F420813181820F931F209195033091B7
:1054C00096032817390709F061C0F0939603E0931B
:1054D0009503DF91CF910895EA01CE17DF07E8F534
:1054E0004A815B819E0141155105B1F7E901FB83BA
:1054F000EA8349915991C40FD51FEC17FD0761F458
:10550000808191810296840F951FE9019983888398
:10551000828193819B838A83F0E0E0E012968D91F3
:105520009C9113970097B9F52D913C911197CD015E
:105530000296820F931F20919503309196032817AE
:10554000390739F6309751F5109298031092970366
:10555000B0939603A0939503BCCFD383C2834081BD
:105560005181840F951FC817D90761F44E5F5F4FB3
:1055700088819981480F591F518340838A819B817B
:10558000938382832115310509F0B0CFF0939803FE
:10559000E09397039ECFFD01DC01C0CF13821282FE
:1055A000D7CFB0E0A0E0E7EDFAE20C94F8268C014A
:1055B000009751F4CB010E94AC298C01C801CDB7F2
:1055C000DEB7E0E10C941427FC01E60FF71F9C0105
:1055D00022503109E217F30708F49DC0D901CD919B
:1055E000DC911197C617D70798F0C530D10530F375
:1055F000CE0104978617970708F3C61BD70B22978F
:10560000C193D1936D937C93CF010E94482AD6CF4A
:105610005B01AC1ABD0A4C018C0E9D1EA091970334
:10562000B0919803512C412CF12CE12C109731F5BD
:1056300080919503909196038815990509F05CC0B7
:105640004616570608F058C0809106019091070150
:10565000009741F48DB79EB740910A0150910B011C
:10566000841B950BE817F90708F055C0F0939603D3
:10567000E0939503F90171836083A0CF8D919C9194
:10568000119712966C90129713967C901397A81509
:10569000B90559F56C0142E0C40ED11CCA14DB04F3
:1056A00020F1AC014A195B09DA011296159780F0D6
:1056B0006282738251834083D9016D937C93E1149C
:1056C000F10471F0D7011396FC93EE93129776CF05
:1056D00022968C0F9D1FF90191838083F301EFCFF8
:1056E000F0939803E093970369CF4816590608F49E
:1056F0002C017D01D3019ACFCB010E94AC297C0102
:10570000009749F0AE01B8010E94932BC8010E9496
:10571000482A870153CF10E000E050CF81E090E0AD
:10572000F8940C94372EFB01DC0102C001900D921D
:1057300041505040D8F70895FB01DC0101900D92D3
:105740000020E1F70895B0E0A0E0E9EAFBE20C9464
:105750000627AE014B5F5F4FFA0161917191AF0176
:1057600080919B0390919C030E94B92BE2E00C94E2
:105770002227ABE0B0E0EFEBFBE20C94F6267C01D5
:105780003B018A01FC0117821682838181FFC8C117
:10579000CE0101965C01F7019381F30193FD8591A0
:1057A00093FF81913F01882309F453C1853239F475
:1057B00093FD859193FF81913F01853229F4B701D3
:1057C00090E00E94A92DE7CF912C212C312CFFE1F4
:1057D000F31538F08B3211F190F4803209F18332F5
:1057E00029F137FC3CC020ED280F2A3050F536FE59
:1057F00020C08AE0989E200D1124922E06C08D3282
:1058000091F0803371F7689430F8F30193FD85913E
:1058100093FF81913F018111DACF21C0689431F863
:10582000689432F8F2CF689433F8EFCF689434F884
:10583000ECCFEAE02E9E200D1124222E689435F83C
:10584000E4CF8E3229F436FC04C1689436F8DDCFFB
:105850008C3619F4689437F8D8CF8836B1F2982F7F
:105860009F7D95549330E0F08336A1F18337C1F1E9
:10587000833509F063C02801F2E04F0E511CF80196
:10588000C080D180692D70E036FC02C06FEF7FEFE1
:10589000C6010E94932D4C01689437F882010AC01A
:1058A0000C5F1F4FFFE3F98388248394912C6501DB
:1058B000E89437F833FE2DC0522C8114910471F511
:1058C000552009F468CFB70180E290E00E94A92D2D
:1058D0005A94F6CFF801808189830E5F1F4FE4CF81
:1058E0002801F2E04F0E511CF801C080D180692DD3
:1058F00070E036FC02C06FEF7FEFC6010E949E2D64
:105900004C018201D5CFB70180E290E00E94A92D21
:105910002A942814190409F0B0F7CECFF60137FC09
:10592000859137FE81916F01B70190E00E94A92D0A
:1059300051105A94F1E08F1A9108BFCF843619F0B4
:10594000893609F077C0F80137FE6BC0608171813C
:10595000828193810C5F1F4FF32DFF763F2E97FFBF
:1059600009C090958095709561957F4F8F4F9F4F9F
:10597000689437F82AE030E0A5010E94D92DC82E9E
:10598000CA188C2C432C36FE0CC0E89440F8C9147D
:1059900040F434FE05C032FC03C0F32DFE7E4F2ED2
:1059A000892C44FE95C0FE01EC0DF11D80818033F1
:1059B00009F087C0242D297E422E842D8870582E10
:1059C00043FC95C040FE8FC09C2C821418F42C0C14
:1059D000922C981844FE91C0B70180E390E00E9499
:1059E000A92D42FE09C088E790E041FE02C088E58B
:1059F00090E0B7010E94A92DC91408F48AC0CA9486
:105A0000D12C9FEFC91AD90ACA0CDB1CF60182916E
:105A10006F01B70190E00E94A92DAC14BD04B1F74D
:105A20004FCF60817181072E000C880B990B0E5FA0
:105A30001F4F92CFD32CE894D4F82AE030E085377A
:105A400039F1232D297FD22E8F3601F148F4883584
:105A5000A9F0F701868197812B96E2E10C94122739
:105A6000803749F08837A9F7D4FE02C06894D2F88D
:105A700020E130E00DC06894D4F8F6CF34FE03C0C6
:105A8000822F8660D82E20E132E002C028E030E08C
:105A9000F801D7FE0FC060817181828193810C5F14
:105AA0001F4FA5010E94D92DC82ECA183D2CE8947D
:105AB00037F867CF6081718190E080E00E5F1F4F03
:105AC000F0CF42FC02C0839478CF8394839475CF47
:105AD000842D867809F471CFF6CFB70180E290E08B
