:100000000C94F2020C941A030C941A030C941A0325
:100010000C941A030C941A030C941A030C941A03EC
:100020000C941A030C941A030C941A030C941A03DC
:100030000C941A030C941A030C941A030C941A03CC
:100040000C945E200C941A030C942C200C94062023
:100050000C941A030C941A030C941A030C941A03AC
:100060000C94A8200C941A0305A84CCDB2D44EB918
:100070003836A9020C50B9918688083CA6AAAA2A4B
:10008000BE000000803F00000000003E5B4F5B3E72
:100090003E6B4F6B3E1C3E7C3E1C183C7E3C181C4D
:1000A000577D571C1C5E7F5E1C00183C1800FFE744
:1000B000C3E7FF0018241800FFE7DBE7FF30483AEA
:1000C000060E2629792926407F050507407F05254C
:1000D0003F5A3CE73C5A7F3E1C1C08081C1C3E7FD4
:1000E00014227F22145F5F005F5F06097F017F009B
:1000F0006689956A606060606094A2FFA2940804BB
:100100007E040810207E201008082A1C08081C2ADB
:1001100008081E101010100C1E0C1E0C30383E3833
:1001200030060E3E0E06000000000000005F0000DA
:100130000007000700147F147F14242A7F2A12234B
:100140001308646236495620500008070300001C5B
:100150002241000041221C002A1C7F1C2A08083E64
:100160000808008070300008080808080000606077
:100170000020100804023E5149453E00427F4000E5
:1001800072494949462141494D331814127F1027BD
:10019000454545393C4A494931412111090736490C
:1001A000494936464949291E0000140000004034E0
:1001B00000000008142241141414141400412214E5
:1001C0000802015909063E415D594E7C1211127C0C
:1001D0007F494949363E414141227F4141413E7F6D
:1001E000494949417F090909013E414151737F084D
:1001F00008087F00417F41002040413F017F0814F3
:1002000022417F404040407F021C027F7F04081053
:100210007F3E4141413E7F090909063E4151215E31
:100220007F09192946264949493203017F01033FC5
:100230004040403F1F2040201F3F4038403F631454
:1002400008146303047804036159494D43007F4156
:1002500041410204081020004141417F0402010293
:1002600004404040404000030708002054547840B8
:100270007F284444383844444428384444287F384C
:100280005454541800087E090218A4A49C787F08CE
:1002900004047800447D40002040403D007F102849
:1002A000440000417F40007C047804787C0804040A
:1002B000783844444438FC1824241818242418FCA2
:1002C0007C08040408485454542404043F44243C47
:1002D0004040207C1C2040201C3C4030403C4428B6
:1002E0001028444C9090907C4464544C4400083650
:1002F00041000000770000004136080002010204BE
:10030000023C2623263C1EA1A161123A4040207ADD
:100310003854545559215555794122545478422125
:100320005554784020545579400C1E52721239555C
:100330005555593954545459395554545800004559
:100340007C410002457D420001457C407D12111236
:100350007DF0282528F07C545545002054547C54C9
:100360007C0A097F4932494949323A4444443A3285
:100370004A4848303A4141217A3A42402078009D2B
:10038000A0A07D3D4242423D3D4040403D3C24FFD7
:100390002424487E4943662B2FFC2F2BFF0929F686
:1003A00020C0887E090320545479410000447D41D7
:1003B0003048484A32384040227A007A0A0A727D30
:1003C0000D19317D2629292F28262929292630484B
:1003D0004D4020380808080808080808382F10C8B9
:1003E000ACBA2F102834FA00007B000008142A143D
:1003F0002222142A14085500550055AA55AA55AAB8
:10040000FF55FF55FF000000FF00101010FF001403
:100410001414FF001010FF00FF1010F010F014145F
:1004200014FC001414F700FF0000FF00FF1414F484
:1004300004FC141417101F10101F101F1414141F85
:1004400000101010F0000000001F101010101F10FE
:10045000101010F010000000FF10101010101010FD
:100460001010FF10000000FF140000FF00FF00004C
:100470001F10170000FC04F414141710171414F4C0
:1004800004F40000FF00F714141414141414F700FB
:10049000F7141414171410101F101F141414F4144C
:1004A0001010F010F000001F101F0000001F1400BB
:1004B0000000FC140000F010F01010FF10FF1414E6
:1004C00014FF141010101F00000000F010FFFFFFB9
:1004D000FFFFF0F0F0F0F0FFFFFF0000000000FF72
:1004E000FF0F0F0F0F0F3844443844FC4A4A4A3478
:1004F0007E02020606027E027E026355494163388F
:1005000044443C04407E201E2006027E020299A53F
:10051000E7A5991C2A492A1C4C7201724C304A4D9D
:100520004D303048784830BC625A463D3E494949D2
:10053000007E0101017E2A2A2A2A2A44445F44447B
:1005400040514A444040444A51400000FF0103E00A
:1005500080FF000008086B6B083612362436000650
:10056000090906000018180000001010003040FFB4
:100570000101001F01011E00191D1712003C3C3C27
:100580003C000000000000000000240027002A00BA
:1005900000000000250028002B00000000080002D9
:1005A0000100000304070000000000000000010239
:1005B00004081020408001020408102001020408F1
:1005C0001020000000002300260029000404040479
:1005D00004040404020202020202030303030303ED
:1005E0000322F02D11241FBECFEFD8E0DEBFCDBF18
:1005F00025E0A6E8B3E001C01D92AA35B207E1F7F5
:1006000013E0A0E0B1E0EEE2FDE602C005900D923D
:10061000A638B107D9F712E0C1EFD2E004C02197A4
:10062000FE010E94CD31C03FD107C9F70E948B2344
:100630000C948A360C940000FC019081909528E07F
:1006400030E081E397FF03C0990F982701C0990F0D
:1006500021503109B9F78181892728E030E091E301
:1006600087FF03C0880F892701C0880F21503109F7
:10067000B9F7089508950895AF92BF92CF92DF928F
:10068000EF92FF920F931F93CF93DF93EC016B01D7
:100690005A01E881F9810484F585E02D0995E88106
:1006A000F9810488F589E02D80EEE82EFF24FA9484
:1006B0000DE910E095014DE950E0B601CE01099534
:1006C000E881F9810688F789E02DCE01DF91CF918D
:1006D0001F910F91FF90EF90DF90CF90BF90AF9060
:1006E0000994DC01ED91FC910190F081E02D0994D9
:1006F000AF92BF92CF92DF92EF92FF920F931F9330
:10070000CF93DF936C017B018B01040F151FEB016D
:100710005E01AE18BF08C017D10759F06991D60124
:10072000ED91FC910190F081E02DC6010995892B96
:1007300079F7C501DF91CF911F910F91FF90EF9055
:10074000DF90CF90BF90AF900895FC01538D448D02
:10075000252F30E0842F90E0821B930B541710F06C
:10076000CF96089501970895FC01918D828D981779
:1007700061F0A28DAE0FBF2FB11D5D968C91928D51
:100780009F5F9F73928F90E008958FEF9FEF089582
:10079000FC01918D828D981731F0828DE80FF11D4B
:1007A000858D90E008958FEF9FEF0895FC01918D66
:1007B000228D892F90E0805C9F4F821B91098F735F
:1007C000992708958BE694E00E94D60321E0892BB7
:1007D00009F420E0822F089580E090E0892B29F031
:1007E0000E94E20381110C9400000895FC01A48D85
:1007F000A80FB92FB11DA35ABF4F2C91848D90E043
:1008000001968F739927848FA689B7892C93A08925
:10081000B1898C91837080648C93938D848D9813AF
:1008200006C00288F389E02D80818F7D8083089542
:10083000EF92FF920F931F93CF93DF93EC0181E030
:10084000888F9B8D8C8D98131AC0E889F9898081D7
:1008500085FF15C09FB7F894EE89FF896083E8890A
:10086000F98980818370806480839FBF81E090E0FC
:10087000DF91CF911F910F91FF90EF900895F62E89
:100880000B8D10E00F5F1F4F0F731127E02E8C8D23
:100890008E110CC00FB607FCFACFE889F989808168
:1008A00085FFF5CFCE010E94F603F1CFEB8DEC0F63
:1008B000FD2FF11DE35AFF4FF0829FB7F8940B8F85
:1008C000EA89FB8980818062CFCFCF93DF93EC01EF
:1008D000888D8823B9F0AA89BB89E889F9898C9128
:1008E00085FD03C0808186FD0DC00FB607FCF7CFE4
:1008F0008C9185FFF2CF808185FFEDCFCE010E94E4
:10090000F603E9CFDF91CF91089590E0FC01E65620
:10091000FA4F2491FC01E255FA4F3491FC01E45363
:10092000FA4FE491EE23C9F0222339F0233001F18C
:10093000A8F4213019F1223029F1F0E0EE0FFF1F69
:10094000E057FA4FA591B4918FB7F894EC916111EB
:1009500026C030953E233C938FBF08952730A9F0E1
:100960002830C9F0243049F7809180008F7D03C082
:10097000809180008F7780938000DFCF84B58F7760
:1009800084BDDBCF84B58F7DFBCF8091B0008F77A6
:100990008093B000D2CF8091B0008F7DF9CF3E2BF5
:1009A000DACFCF93DF9390E0FC01E255FA4F249128
:1009B00084539A4FFC0184918823D1F090E0880FF2
:1009C000991FFC01EA57FA4FA591B491FC01E05739
:1009D000FA4FC591D491623071F49FB7F8943C916D
:1009E000822F809583238C93E8812E2B28839FBFB1
:1009F000DF91CF9108958FB7F894EC912E2B2C9323
:100A00008FBFF6CF3FB7F8948091D4039091D50370
:100A1000A091D603B091D70326B5A89B05C02F3F60
:100A200019F00196A11DB11D3FBFBA2FA92F982F14
:100A30008827BC01CD01620F711D811D911D42E00F
:100A4000660F771F881F991F4A95D1F708958F92D7
:100A50009F92AF92BF92CF92DF92EF92FF926B0183
:100A60007C010E9402054B015C01C114D104E10428
:100A7000F104B9F00E940205681979098A099B09F5
:100A8000683E73408105910580F321E0C21AD108C8
:100A9000E108F10888EE880E83E0981EA11CB11CC5
:100AA000E4CFFF90EF90DF90CF90BF90AF909F90FA
:100AB0008F9008952FB7F8946091D0037091D1036F
:100AC0008091D2039091D3032FBF0895CF92DF92EC
:100AD000EF92FF920F931F93CF93DF930E945A05DB
:100AE000AB01BC01E0911805F0902905E4FBFF275C
:100AF000F0F9E4FF79C000911D0510911E052091C9
:100B00001F0530912005E7FB882780F9F11010C000
:100B10008091310590913205DC019C9180913305E3
:100B2000982381E009F480E090911905917089275C
:100B300080932A05DB01CA01801B910BA20BB30B2A
:100B40008C019D01B0912A059091170591FB882792
:100B500080F9BB2309F424C181111AC001351105A4
:100B600021053105A8F040931D0550931E056093A3
:100B70001F0570932005997E9261906890931705E8
:100B80008091190580628093190500E010E09801BA
:100B9000809119059091170584FF12C00D32A1E0D4
:100BA0001A072105310560F092FD05C083FDAFC035
:100BB000826080931905809119058F7E80931905B5
:100BC00091FF12C00D3B12402105310568F092FDE6
:100BD0000BC0BB2309F49DC09160909317058091D1
:100BE00019058F7D80931905FF2009F49FC0E6FB4E
:100BF000992790F9C92FA0E0DA2FCC0FDD1FE5FB74
:100C0000882780F98C2B20911B05281709F472C0C6
:100C100010921C059091190596FFB8C0833009F019
:100C2000A1C09F7B90931905213009F497C091E0F2
:100C3000223009F494C0E3FD03C0833009F49DC061
:100C400020911C05222309F446C090911705986055
:100C500090931705233040F49091190597FF04C035
:100C600093E0921B90931C0590912A05911122C04C
:100C70000091210510912205209123053091240532
:100C80006A017B01C01AD10AE20AF30A00911A052F
:100C900010E030E020E0C016D106E206F30650F482
:100CA00020911C05213009F074C0209118052260A4
:100CB0002093180540932105509322056093230546
:100CC00070932405FF2339F0992329F090911C0596
:100CD0009E5F90931C0580931B058091170584608F
:100CE0008093170540931D0550931E0560931F05C3
:100CF00070932005DF91CF911F910F91FF90EF909E
:100D0000DF90CF9008958091190588603CCF846072
:100D100050CF9D7F9E7F9093170540931D05509364
:100D20001E0560931F05709320055ECFA0912B05D3
:100D3000B0912C059C9180912D05982321E009F418
:100D400020E0A0912E05B0912F059C918091300557
:100D5000982382E009F480E0822B55CF92E09093B3
:100D60001C0569CFE3FD4DC081116ACF9F7B909335
:100D70001905213041F0223031F09091190590642D
:100D8000909319055DCF20931C05F7CF8823A9F315
:100D900052CF223009F08ECF20911805216088CFE4
:100DA000882309F4F5CE013511052105310508F434
:100DB000EFCE92FD05C090FD03C0906290931705A1
:100DC0000D3B12402105310528F080911705806404
:100DD000809317058091170540931D0550931E05BC
:100DE00060931F05709320058D7F8E7F809317057C
:100DF0008091190585FF87CF84FD85CF8061877F2E
:100E0000C2CE882309F4B9CF66CF2091AC03260F58
:100E10003327331F21323105ECF420914104FC01CA
:100E200090E080E0243069F082E00895A091AC0366
:100E30002191AC0144575C4FA40FB52FB11D2C93E9
:100E40000196861798F38091AC03680F6093AC030A
:100E500080E0089581E008951092410481E080933C
:100E6000400410921B0461E082E10E94850461E06D
:100E700083E10E948504E9EBF0E080818E7F80832E
:100E800080818D7F808388E48093B80085E480939F
:100E9000BC0008951092FA031092F90310924804CE
:100EA00010926A040E942C078AE393E09093F8035F
:100EB0008093F7038BE393E09093F6038093F5031D
:100EC0000895CF93DF9391E090938B038823B9F03B
:100ED000C091B800D091BA008091BC008A7B809309
:100EE000BC0060E082E10E94850460E083E10E9432
:100EF00085040E942C07D093BA00C093B800DF91FC
:100F0000CF9108958F929F92AF92BF92CF92DF922E
:100F1000EF92FF920F931F93CF93DF93D0916A04C8
:100F2000D13208F0D7C0182FC09169040E94020581
:100F30006B017C018091410481116BC082E0809340
:100F40004104109340048FEF80933F0410923E04BD
:100F5000D0933D04A9E4B4E0EDE1F4E080E0D813DF
:100F600091C010921C0480911C04CC0FC82BC0931C
:100F70001C0480911B04813009F088C010921B046E
:100F80000E9402056B017C0180911C048093BB00D0
:100F90008091430490914404A0914504B09146048B
:100FA000892B8A2B8B2BA1F00E9402050091430410
:100FB0001091440420914504309146046C197D0938
:100FC0008E099F09061717072807390708F442C03A
:100FD0008091BC0083FDD8CF85EC8093BC000E943B
:100FE00002056B017C0180914104823009F450C0FC
:100FF00080913F048F3F09F46FC080913F0480329D
:1010000009F46CC080913F04803309F469C084E026
:1010100026C08091430490914404A0914504B0916E
:101020004604892B8A2B8B2B09F484CF0E9402055E
:101030008090430490904404A0904504B0904604EE
:101040006C197D098E099F0986169706A806B906B0
:1010500008F070CF809142040E94610785E01092F1
:10106000480410926A0410924704DF91CF911F91B7
:101070000F91FF90EF90DF90CF90BF90AF909F9037
:101080008F9008959D9191938F5F69CF85EEA5CF45
:101090008091430490914404A0914504B09146048A
:1010A000892B8A2B8B2B09F49ECF0E94020500917D
:1010B00043041091440420914504309146046C1976
:1010C0007D098E099F09061717072807390708F0B9
:1010D0008ACFC0CF81E0C3CF80E0C1CF82E0BFCF55
:1010E00083E0BDCF1F93CF93DF93EA01122FDC0182
:1010F00011968D919C91DC01ED91FC910280F38120
:10110000E02D0995C817D90729F4812F0E9482077D
:1011100091E0811190E0892FDF91CF911F91089587
:10112000CF93DF93EC018B818823A1F0888191E03C
:1011300090934704809369041092480410926A04C3
:1011400081E00E94820791E0811190E0892FDF9178
:10115000CF9108950E944A0781E08B83CE010E94BF
:101160009008982F8111E2CFF1CF0895E091FA0312
:101170008091F903E81730F4F0E0E550FC4F8081EE
:1011800090E008958FEF9FEF08959091FA0380917A
:10119000F9032FEF3FEF981748F4E92FF0E0E550FF
:1011A000FC4F208130E09F5F9093FA03C9010895BE
:1011B0008091F9039091FA03891B990B0895CF92BE
:1011C000DF92EF92FF920F931F93CF93DF937C01F7
:1011D000CB018A0120914704222389F0EB016B01A6
:1011E000C40ED51ECC15DD0569F06991D701ED91CE
:1011F000FC910190F081E02DC7010995F3CF642F98
:101200000E940507C801DF91CF911F910F91FF90B8
:10121000EF90DF90CF900895CF93DF931F92CDB7DB
:10122000DEB76983209147042223F9F020916A04F4
:10123000203258F021E030E0FC013383228390E03B
:1012400080E00F90DF91CF91089580914804E82FBE
:10125000F0E0E75BFB4F998190838F5F80934804B8
:1012600080936A0481E090E0ECCF61E0CE010196CA
:101270000E940507F7CFEF92FF920F931F93CF9332
:10128000DF93EC017A018EA99FA98617970729F4AD
:101290008AAD9BAD82179307B1F07FAB6EAB3BAFCE
:1012A0002AAF8CA59DA54CA9460F572F511D215043
:1012B0003109240F351FDC01ED91FC91008CF18D7B
:1012C000E02D6AE2099588AD99AD8E159F0529F448
:1012D0008CAD9DAD80179107B9F0F9AEE8AE1DAFAA
:1012E0000CAF8CA59DA54DA94E0D5F2D511D015034
:1012F00011099801240F351FDC01ED91FC91008C40
:10130000F18DE02D6BE209958CA59DA5DC01ED9199
:10131000FC910680F781E02D6CE2DF91CF911F9167
:101320000F91FF90EF900994FC0180858F3F31F081
:10133000A485B5859C918089892B8C930895FC01A7
:101340008385882331F090910805809109059CBD23
:101350008DBDA685B7858C919289892B8C938085CC
:101360008F3F31F0A485B5858C91918989238C9329
:1013700008958EBD00000DB407FEFDCF8EB5089513
:10138000CF92DF92EF92FF921F93CF93DF93690189
:101390007A01EB0181E0C81AD108E108F1088FEF6A
:1013A000C816D806E806F80669F0188189812296E1
:1013B00010938703809388030E94B909812F0E94AC
:1013C000B909E8CFDF91CF911F91FF90EF90DF90A7
:1013D000CF900895CF92DF92EF92FF92CF93DF9359
:1013E00069017A01EB0181E0C81AD108E108F1082E
:1013F0008FEFC816D806E806F80621F089910E94FA
:10140000B909F1CFDF91CF91FF90EF90DF90CF90AE
:101410000895CF92DF92EF92FF92CF93DF93EB018B
:1014200069017A0160938703D093880381E0C81A29
:10143000D108E108F1088FEFC816D806E806F806CB
:1014400039F08D2F0E94B9098C2F0E94B909EECF77
:10145000DF91CF91FF90EF90DF90CF900895CF93E1
:10146000C62F872F60938703709388030E94B90962
:101470008C2FCF910C94B909862F0C94B909CF9277
:10148000DF92EF92FF920F931F93CF93DF93EC01C4
:1014900069017A01EE85FF8580819B89892380839C
:1014A0008B0181E0C81AD108E108F108EFEFCE16F0
:1014B000DE06EE06FE0631F0F80181918F010E94F2
:1014C000B909EFCFEE85FF8580819A89892B8083CA
:1014D000DF91CF911F910F91FF90EF90DF90CF9010
:1014E00008951F93CF93DF93EC01162F872FEE857E
:1014F000FF8590812B89922390836093870370935B
:1015000088030E94B909812F0E94B909EE85FF85E1
:1015100080819A89892B8083DF91CF911F910895D3
:10152000CF93DF93EC01862FEE85FF8590812B8989
:10153000922390830E94B909EE85FF8580819A8964
:10154000892B8083DF91CF910895DC019C968D914A
:101550009C91DC01ED91FC910684F785E02D0994C6
:10156000DC019C968D919C91DC01ED91FC910480B5
:10157000F581E02D0994AF92BF92CF92DF92EF9266
:10158000FF920F931F93CF93DF93EC015901E881F2
:10159000F98102A0F3A1E02D09959501D8010E94DF
:1015A000D3319B01AC01E881F98104A0F5A1E02DC4
:1015B000B701CE01DF91CF911F910F91FF90EF9076
:1015C000DF90CF90BF90AF900994EF92FF920F936E
:1015D0001F93CF93DF9357FD38C0DC011A96ED912E
:1015E000FC91E417F5078CF12115310571F137FFF6
:1015F00007C0F90131966E0F7F1F31952195310992
:10160000DC011896ED91FC91E617F707F4F0EB0179
:10161000C20FD31FDE011197B7FD17C077FF03C0BC
:101620009E0170E060E0EA17FB072CF49F01261B87
:10163000370B2F5F3F4FDC01ED91FC910684F7855E
:10164000E02D780101E010E00995DF91CF911F9125
:101650000F91FF90EF900895EF92FF920F931F93D9
:10166000CF93DF9377FD39C0DC011896ED91FC91A3
:10167000E617F70794F12115310579F137FF07C017
:10168000F90131964E0F5F1F319521953109DC012B
:101690001A96ED91FC91E417F507FCF0EA01C20FF0
:1016A000D31FDE011197B7FD18C057FF03C09E017D
:1016B00050E040E0EA17FB072CF49F01241B350B98
:1016C0002F5F3F4FDC01ED91FC910684F785E02D03
:1016D0007801890121E030E00995DF91CF911F91D8
:1016E0000F91FF90EF900895DC019C968D919C9155
:1016F000DC01ED91FC91028CF38DE02D0994EF92C9
:10170000FF920F931F93CF93DF93EC017901E88150
:10171000F98102A0F3A1E02D01E010E021E030E02A
:1017200009958CA59DA5DC01ED91FC910684F785BA
:10173000E02DB701DF91CF911F910F91FF90EF90B6
:101740000994DC019C968D919C91DC01ED91FC91BA
:101750000280F381E02D0994EF92FF920F931F9383
:10176000CF93DF93EC014D3F8FEF58076807780761
:10177000A9F5E881F98100A4F1A5E02DCE01099534
:10178000E881F981008CF18DE02D6F8DCE010995F6
:101790000E811F81EC80FD80E881F9810484F5854C
:1017A000E02DCE010995E881F98102A0F3A1E02D99
:1017B000970150E040E070E060E0CE010995E881DB
:1017C000F9810688F789E02DCE01099581E0DF9146
:1017D000CF911F910F91FF90EF9008952EAD8CA5A2
:1017E0009DA5DC01ED91FC910190F081E02D2F3F52
:1017F00029F009958111BDCF80E0E9CF2FEFF9CF16
:10180000FC0116AE0C94AC0B0895FC016770678F59
:1018100085A196A123A134A1633019F0D0F46130E1
:10182000E1F4958384833783268324813581215095
:101830003109318720878681978101979387828735
:101840001586148617861686318B208B938B828B98
:101850000895653031F3673021F33583248397830E
:101860008683E3CFCF93DF93EC010E94050CEF8DCD
:10187000E150E73078F5F0E0E05CF34F0C94CD31C7
:10188000470C580C5C0C600C640C660C680C89A945
:101890008CAB8AA98DAB8FEF9FEF9FAB8EAB99AFCF
:1018A00088AF9BAF8AAF9DAF8CAFDF91CF9108958A
:1018B0008AA98CAB8BA9EECF8BA98CAB88A9EACF78
:1018C0008AA98CAB89A9E6CF8BA9E2CF88A9F1CFF1
:1018D00089A9F3CF88A9F5CF1F93CF93DF93EC01AC
:1018E0000E94320CEF8DE15018E4E33020F4F0E078
:1018F000E75FFE4F10818CA59DA5DC01ED91FC9169
:101900000280F381E02D09958CA59DA5DC01ED9168
:10191000FC910088F189E02D412F66E309958CA5A3
:101920009DA5DC01ED91FC910480F581E02DDF9116
:10193000CF911F91099408956F927F928F929F92F9
:10194000AF92BF92CF92DF92EF92FF920F931F93CD
:10195000CF93DF936C015B014901EA013A01600E0C
:10196000711EC615D70574F4D601ED91FC9102885D
:10197000F389E02D87019401AE01B501C6010995F7
:101980002196EFCFDF91CF911F910F91FF90EF90B4
:10199000DF90CF90BF90AF909F908F907F906F908F
:1019A00008956F927F928F929F92AF92BF92CF9243
:1019B000DF92EF92FF920F931F93CF93DF93570124
:1019C0002115310509F457C00115110509F453C05B
:1019D00037FF07C0F90131966E0F7F1F31952195B2
:1019E0003109EC01A885B985A617B7070CF443C0E7
:1019F00017FF07C0F80131964E0F5F1F1195019533
:101A00001109EC01EA85FB85E417F507A4F16B01E8
:101A1000C20ED31E3601D1E06D1A710877FC2BC0BF
:101A20007A01E00EF11E4701C1E08C1A910897FC83
:101A300022C077FF03C0960170E060E057FF03C04B
:101A4000870150E040E0A615B7052CF49D01261B48
:101A5000370B2F5F3F4FE815F9052CF48F01041B5E
:101A6000150B0F5F1F4FDC01ED91FC910684F7858C
:101A7000E02D75010995DF91CF911F910F91FF9096
:101A8000EF90DF90CF90BF90AF909F908F907F901E
:101A90006F900895CF92DF92EF92FF920F931F9372
:101AA000CF93DF93EC010E811F81CC80DD80E88134
:101AB000F9810484F585E02D0995F12CE12C96013E
:101AC00050E040E070E060E0CE010E94D10CE8817F
:101AD000F9810688F789E02DCE01DF91CF911F9122
:101AE0000F91FF90EF90DF90CF9009942F923F924B
:101AF0004F925F926F927F928F929F92AF92BF921E
:101B0000CF92DF92EF92FF920F931F93CF93DF93C9
:101B1000CDB7DEB72E970FB6F894DEBF0FBECDBFA0
:101B20009E878D877A876987DC01ED91FC9104841B
:101B3000F585E02D099569857A8560517109AD8536
:101B4000BE85ED91FC9111970288F389E02D05E5A2
:101B50001DEA21E230E043EB50E0CD01099520E0A1
:101B600033EE4FEF5FEF29833A834B835C831D8213
:101B70001E821F821886812C912C540180E1482EF0
:101B8000512C612C712C89819A81AB81BC81B7FF6A
:101B900022C09FEF891A990AA90AB90AD501C4017E
:101BA00012E0880F991FAA1FBB1F1A95D1F7029642
:101BB000A11DB11DBA2FA92F982F882729813A81FD
:101BC0004B815C81280F391F4A1F5B1F29833A8391
:101BD0004B835C83D8CF1201220C331C3FEF231AB6
:101BE000330A49855A85441955095C874B8751E06A
:101BF000451A51086108710864018D819E81C81AD7
:101C0000D90AE5E5EE2EEDEAFE2E8601910143EBC1
:101C100050E0481959096B857C858D859E850E9409
:101C2000D10C4D815E814C545F4F91016B857C8559
:101C30008D859E850E94D10CD301C201FAE0880FE8
:101C4000991FAA1FBB1FFA95D1F729813A814B81B1
:101C50005C81281B390B4A0B5B0B29833A834B832E
:101C60005C83481459046A047B042CF08D829E82A4
:101C7000AF82B88688CFC12C53EED52EEE24EA94DD
:101C8000FE2C60E1462E512C612C712C812C912C64
:101C90005401F7FE1AC03FEF831A930AA30AB30A4E
:101CA000D501C40132E0880F991FAA1FBB1F3A95C6
:101CB000D1F70296A11DB11DBA2FA92F982F882701
:101CC000C80ED91EEA1EFB1EE4CF5E824D8241E0A3
:101CD000441A5108610871081401220C331C5FEF8B
:101CE000251A350A43EB50E08D819E81481B590B24
:101CF000AD85BE85ED91FC9111970288F389E02DA9
:101D000005E51DEA910189859A85881999099A83C3
:101D10008983BC01CD0109954D815E814D545F4F92
:101D2000AD85BE85ED91FC9111970288F389E02D78
:101D3000910169817A81CD010995D301C2012AE01F
:101D4000880F991FAA1FBB1F2A95D1F7C81AD90A55
:101D5000EA0AFB0A481459046A047B040CF099CF80
:101D6000AD85BE85ED91FC9111970688F789E02D30
:101D7000CD012E960FB6F894DEBF0FBECDBFDF911A
:101D8000CF911F910F91FF90EF90DF90CF90BF9078
:101D9000AF909F908F907F906F905F904F903F900B
:101DA0002F900994CF93DF93DC0157FD38C01A962A
:101DB0008D919C911B97841795078CF197968C9128
:101DC0009797882319F1CA01880F991F9896CD918A
:101DD000DC919997C80FD91FE881F9816E177F07A9
:101DE000F4F09A96ED91FC919B97E80FF91F808192
:101DF0009181861797079CF0ED91FC9111970284D1
:101E0000F385E02DCD01DF91CF91099477FD07C0D7
:101E100018968D919C911997861797076CF7DF910B
:101E2000CF9108952F923F924F925F926F927F923F
:101E30008F929F92AF92BF92CF92DF92EF92FF92DA
:101E40000F931F93CF93DF93CDB7DEB72C970FB6C9
:101E5000F894DEBF0FBECDBF9C878B877A836983E2
:101E60001A01D22E1C830B833701DC0191960D9150
:101E70001C9192975C964C915C975D963C915D9716
:101E8000432E512C50968D919C910115110509F40A
:101E90006EC1F801349624913297A590B490D21A6D
:101EA000B7E0DB9EA00CB11C1124F8016591749180
:101EB0007A876987F501C590D490F50132967491BF
:101EC0007D833196A491AE8331962491085F1F4F94
:101ED000F8010491F50135965491588766E0A60EF5
:101EE000B11CF501A49069817A81861797070CF4DB
:101EF00016C3802F90E0880F991F63E070E00E9466
:101F00009731649DC001659D900D749D900D1124C5
:101F10002101481A590AAB85BC8552968D919C9136
:101F2000841595050CF4FBC28D80821608F4822E70
:101F3000849E4001112449815A81480D591DEB8529
:101F4000FC8584859585841795070CF0E8C2039F6E
:101F5000800111249101200F311F868597858217FA
:101F600093070CF0DCC20190F081E02D0484F5852C
:101F7000E02D8B859C8509952B813C81621673062B
:101F800071F1AB85BC8550962D913C9189819A81E8
:101F9000880D991D0197281739078CF0EB85FC8572
:101FA00022893389C801840D951D019728173907A7
:101FB0006CF4EB85FC85858D081B1109F3CFAB858F
:101FC000BC855C968C91881A9108E0CF73019401CE
:101FD000A20169817A818B859C850E94D10CF8854C
:101FE0008F2EFF0F9908EA2C0A2C000CFF08AB85F6
:101FF000BC855D962C915D975C968C91813009F043
:1020000045C0213009F042C0E20CF31C870180E09A
:10201000512C902F9E19BE819B1708F054C1EB855F
:10202000FC8522893389201731076CF1A980BA8099
:10203000A80CB91C3D80380E831529F14424439423
:10204000480E877041F4C6010196E985FA85EC0DCA
:10205000FD1D54906C01AB85BC8550968D919C9173
:1020600051978A159B054CF057FE07C02B813C8188
:10207000A801B501CD010E94D20EBFEFAB1ABB0A79
:10208000550C842DD9CF0F5F1F4FC3CF3A2D32038C
:1020900050011124A20CB31C80E0512C412C4E8124
:1020A000441609F410C1AB85BC855D962C915D97F3
:1020B0002A0D3B2D311D2150310952964D915C91D5
:1020C0005397421753070CF44AC05C962C913885FD
:1020D00032034001112449815A81840E951E2D80BE
:1020E000280E821509F43BC033243394380E8770D0
:1020F00041F4C6010196E985FA85EC0DFD1D549069
:102100006C01AB85BC855C962C915C9730E0C90175
:10211000880D991D019750964D915C9151974817E4
:102120005907ACF057FE13C05E968C915E9790E015
:102130005D960C915D9710E0081B190B281B390B5D
:10214000EB80FC80A501B401CD010E94D10CEB8590
:10215000FC85848D880E911C550C832DC2CF439431
:10216000AB85BC855D969C91A90EB11C98CFE98189
:10217000FA818E179F070CF4D2C1AB85BC855296AD
:102180008D919C91821593050CF4C9C19F01B6E015
:102190004B9F200D311D1124EB85FC858485958591
:1021A000821793070CF0BBC153E0440C551C5A95A1
:1021B000E1F7420C531C86859785841595050CF034
:1021C000AEC10190F081E02D0484F585E02D8B8572
:1021D0009C850995AB85BC855C962C91B5E0DB9E12
:1021E000C0011124213009F09EC0EB85FC85258DAE
:1021F000213009F098C0F12CE12C9C012A573F4F67
:102200004901510138E0A30EB11CC980DA80CE0C1F
:10221000DF1CF401EE0DFF1D5490AB85BC8550967C
:102220008D919C918C159D05ECF08101EB85FC85D1
:1022300082899389801791077CF00190F081E02DCD
:1022400050FE63C00284F385E02D2B813C81A80100
:10225000B6018B859C8509950F5F1F4F56940A1513
:102260001B0521F73FEFE31AF30A45E0E416F104FA
:1022700061F66B817C816616770629F169817A8126
:102280006B5F7F4FAB85BC8550968D919C9151972C
:1022900086179707C4F052962D913C91C10106967E
:1022A00082179307ECF1221933092F5F3F4FAB855B
:1022B000BC85ED91FC9111970088F189E02D830197
:1022C000A101CD010995AB85BC85ED91FC911197DC
:1022D0000688F789E02DCD012C960FB6F894DEBF65
:1022E0000FBECDBFDF91CF911F910F91FF90EF9067
:1022F000DF90CF90BF90AF909F908F907F906F9026
:102300005F904F903F902F9009942B813C816216F3
:10231000730609F4A1CF0284F385E02D930197CFD2
:1023200028E030E0C4CFC980DA80512C412CFC0178
:10233000EA57FF4FFF83EE83AB85BC855C968C919B
:102340005C978C0D9D2D911D019750962D913C9180
:10235000281739070CF487C0EE81FF81E40DF51DC5
:10236000B491BD835101912C812CEB85FC85858D29
:1023700090E09C012A0D3B1D21503109428953896F
:10238000421753070CF45EC0248D30E0FD81F0FF4E
:10239000B7C0AB85BC855E964C915E97442309F42B
:1023A000AAC050E08C01041B150B241B350B889D23
:1023B000A001899D500D989D500D1124420D531D73
:1023C000EB81FC816E167F0609F490C07F01B60197
:1023D000CD010E94D10CAB85BC855D960C915D97BB
:1023E00010E05E962C915E9730E0089DA001099D5B
:1023F000500D189D500D1124420D531D5C966C918B
:102400005C976C0D7D2D711D621B730B7301CD01EB
:102410000E94D10CEB85FC85068D10E0248D30E008
:10242000201B310B658DC4010196689FA001699F37
:10243000500D1124420D531D401B510BB601CF010D
:102440000E94D10C5D8156955D83AB85BC855D9600
:102450008C91A80EB11CBFEF8B1A9B0AE8E08E1678
:10246000910409F082CFAB85BC855C968C91282FB6
:1024700030E0C20ED31EBFEF4B1A5B0AE5E04E16EA
:10248000510409F059CF4B815C816416750609F43B
:102490001ACF69817A8155E0859F600D711D1124E5
:1024A000C901860F971F0197AB85BC8550964D914A
:1024B0005C915197481759070CF405CF5D968C91A4
:1024C0005D9790E08C0143E0000F111F4A95E1F702
:1024D00052964D915C91F1013197DF01A00FB11F30
:1024E0004A175B07ACF4081B190BF7CF7301B60151
:1024F0008B859C85A5CFEB80FC808C01A501F7CF57
:102500004B815C816416750609F49CCF7301F5CF8D
:102510007301A1018B859C850E94D10CD4CE2C9691
:102520000FB6F894DEBF0FBECDBFDF91CF911F91E4
:102530000F91FF90EF90DF90CF90BF90AF909F9062
:102540008F907F906F905F904F903F902F90089565
:10255000DF92EF92FF920F931F93CF93DF93EC01E3
:10256000262F89A19AA1009709F47DC06A30D1F481
:102570002C853D853D8B2C8BFC013896E4912D8D6F
:102580008E899F89E29F800D911D11249F8B8E8BD8
:1025900081E090E0DF91CF911F910F91FF90EF903C
:1025A000DF9008956D30A1F3FC013496459154916C
:1025B000FC013696A591B49170E06417750740F35D
:1025C000A617B70728F3FC013296A591B491362FD0
:1025D000341B47E0349FA00DB11D1124FD0132963C
:1025E00044913296D49038A1332341F115963C9111
:1025F00050E0430F511D37FD5A953C8D349FB0017B
:10260000359F700D11244C895D89460F571F41502D
:102610005109688979896417750784F44E895F893F
:102620006C857D857D8B6C8B0896FC0184919D8DDE
:10263000899F400D511D11245F8B4E8BEA8CFB8CC2
:10264000088D198D4E895F896C897D89CE010E9424
:10265000120F2C8D8C899D89D29E800D911D112485
:102660009D8B8C8B95CF6A3071F48C859D859D8B6D
:102670008C8B8D8DF8E08F9F900111248E899F891E
:10268000820F931F83CF6D3009F482CF88A18823F6
:10269000E9F03C8D8C899D8946E0349F800D911D29
:1026A0001124019748895989481759077CF44E89A4
:1026B0005F898C859D859D8B8C8B8D8DE8E08E9FB1
:1026C000C0011124840F951F9F8B8E8BEA8CFB8C8D
:1026D000088D198D4E895F896C897D89CE010E9494
:1026E000120F2C8D8C899D89F6E02F9F800D911DF6
:1026F0001124B6CFAF92BF92CF92DF92EF92FF92AA
:102700000F931F93CF93DF936C015A01EB017B0171
:10271000E20EF31ECE15DF0544F49801A501BE01BB
:10272000C6010E94D20E2196F5CFDF91CF911F9165
:102730000F91FF90EF90DF90CF90BF90AF900895F2
:10274000AF92BF92CF92DF92EF92FF920F931F93BF
:10275000CF93DF936C015B01EA017A01E20EF31E75
:10276000CE15DF0544F49801AE01B501C6010E9403
:10277000D20E2196F5CFDF91CF911F910F91FF904F
:10278000EF90DF90CF90BF90AF90089508952F9273
:102790003F924F925F926F927F928F929F92AF92F1
:1027A000BF92CF92DF92EF92FF920F931F93CF933E
:1027B000DF9300D000D000D0CDB7DEB74C016B0165
:1027C0005E834D83590162177307A9F50417150736
:1027D00034F49D818E811E830D83092F182F2D8146
:1027E0003E81021B130B98012F5F3F4FD401ED91E7
:1027F000FC910088F189E02D87014D815E81B60151
:10280000C401099526960FB6F894DEBF0FBECDBF62
:10281000DF91CF911F910F91FF90EF90DF90CF90BC
:10282000BF90AF909F908F907F906F905F904F90F0
:102830003F902F9008952D813E812017310799F404
:10284000A616B70624F48D2D6501A62EB82E950187
:102850002C193D092F5F3F4FD401ED91FC91028867
:10286000F389E02DC9CF2D813E811801221A330A48
:102870002017310724F02D803E80201A310A2501CF
:102880004C185D08CA14DB041CF026014A185B08CA
:10289000421453045CF49A2D8B2D5801092F182FE4
:1028A0009C2D8D2DCD80DE809D838E83AC14BD0448
:1028B0005CF49D818E811E830D83092F182F9C2D22
:1028C0008D2D6501A92EB82EC5018C199D099A83FD
:1028D0008983AD81BE81A017B107ACF598012A1B91
:1028E0003B0B3C832B8369807A8075946794AD8120
:1028F000BE81A017B10774F10FEF1FEFAC14BD0438
:102900000CF480CF9701A6016D817E81421453049F
:102910001CF04D815E81B601C4010E94D20E2B8154
:102920003C81621A730A77FE0AC089819A81680E17
:10293000791EAD81BE81A00FB11FBE83AD83BFEFF5
:10294000CB1ADB0ADBCF8D819E81801B910B9C8390
:102950008B83C9CF01E010E0D1CF089590E080E0F3
:1029600008951F93CF93DF93EC01162FE881F9812F
:102970000280F381E02D0995E881F9810680F781D5
:10298000E02D612FCE010995E881F9810480F58160
:10299000E02DCE01DF91CF911F91099460E1FC0100
:1029A00084A595A50E94B11466E970E080E090E0EE
:1029B0000C94270561E1FC0184A595A50E94B11442
:1029C00066E970E080E090E00C942705FC0184A5A6
:1029D00095A527A5261303C060E20C94B11461E20B
:1029E000FCCFEF92FF920F931F93CF93DF93EC01F5
:1029F0008A017901E881F9810680F781E02D099546
:102A00000093890310938A03E881F9810484F58592
:102A1000E02D612FCE01099509E813E0E881F981E5
:102A20000484F585E02DD8016C91CE010995E092E2
:102A30008903F0928A03E881F9810484F585E02D09
:102A40006F2DCE010995E881F9810484F585E02D8B
:102A5000D8016C91CE01DF91CF911F910F91FF9022
:102A6000EF900994EF92FF920F931F93CF93DF9310
:102A7000EC017A018901E881F9810680F781E02D76
:102A80000995E881F9810684F785E02DB701CE012B
:102A90000995E881F9810684F785E02DB801CE011A
:102AA000DF91CF911F910F91FF90EF9009940F93B9
:102AB0001F93CF93DF93EC018A01E881F9810084B1
:102AC000F185E02D0995E881F9810684F785E02DEF
:102AD000B801CE01DF91CF911F910F9109940F930F
:102AE0001F93CF93DF93EC018A01E881F98106807F
:102AF000F781E02D0995E881F9810684F785E02DBD
:102B0000B801CE01DF91CF911F910F9109941F93CE
:102B1000CF93DF93EC01142FE881F9810680F781D0
:102B2000E02D0995E881F9810484F585E02D612F78
:102B3000CE01DF91CF911F9109942F923F924F9236
:102B40005F926F927F928F929F92AF92BF92CF923D
:102B5000DF92EF92FF920F931F93CF93DF935C016D
:102B60001B016A01F12CE12CD50114968D919C91E9
:102B700086010E191F098017910708F48C01F501D1
:102B8000D0810E9402052B013C01809141048111FA
:102B900072C0C02F013208F0C0E2F1E0F0934104AE
:102BA00021E0C601801B910BE816F90608F420E02D
:102BB000209340048FEF80933F0410923E048C0FCB
:102BC00080933D04A1E0A0931C0480911C04DD0FC0
:102BD000D82BD0931C0480911B04813009F090C045
:102BE00010921B040E9402052B013C0180911C04E1
:102BF0008093BB008091430490914404A0914504CC
:102C0000B0914604892B8A2B8B2BA1F00E940205E0
:102C1000209143043091440440914504509146046E
:102C20006419750986099709261737074807590750
:102C300008F442C08091BC0083FDD8CFB5ECB093BE
:102C4000BC000E9402052B013C01809141048130AF
:102C500009F45AC080913E048C1710F4C0913E04D0
:102C6000ADE1B4E0EBEFF3E080E08C1751F19D9122
:102C700091938F5FFACF8091430490914404A09187
:102C80004504B0914604892B8A2B8B2B09F47DCF08
:102C90000E94020520914304309144044091450470
:102CA0005091460464197509860997092617370754
:102CB0004807590708F069CF809142040E946107D4
:102CC000C0E01092FA03C093F903C017110609F08F
:102CD00057C041018E0C9F1CE401CE01881999094F
:102CE0008017910798F5D50111968D919C91DC0183
:102CF000ED91FC910284F385E02D09958993EDCF48
:102D0000E5EEE093BC009DCF809143049091440494
:102D1000A0914504B0914604892B8A2B8B2B09F492
:102D200094CF0E94020520914304309144044091C5
:102D300045045091460464197509860997092617B8
:102D400037074807590708F080CFB6CFE00EF11ECD
:102D5000EC14FD0408F408CF81E0DF91CF911F91BE
:102D60000F91FF90EF90DF90CF90BF90AF909F902A
:102D70008F907F906F905F904F903F902F9008952D
:102D800080E0EBCFCF93DF9300D0CDB7DEB7998350
:102D90008A8380914A0590914B05FC0124813581FD
:102DA00022303105B8F0208131E030934704209380
:102DB00069041092480410926A0421E042E050E055
:102DC000BE016F5F7F4F0E9472080F900F90DF91DE
:102DD000CF91089580E0F9CF2F923F924F925F926A
:102DE0006F927F928F929F92AF92BF92CF92DF921B
:102DF000EF92FF920F931F93CF93DF93CDB7DEB780
:102E0000C254D1090FB6F894DEBF0FBECDBF9E8766
:102E10008D877EAF6DAF5A83498319012701380131
:102E200021969FAE8EAE21974217530724F0832D33
:102E30001A0129838A83A6019501C301B2010E9468
:102E4000862F9B01AC015F772D833E834F8358878C
:102E500020E030E044EB53E4C301B2010E94A4300F
:102E60002B013C0120E030E044EB53E4C601B50106
:102E70000E94A4306B017C0120E030E0A901C30175
:102E8000B2010E94092E87FF0AC020E030E044EB27
:102E900053E4C301B2010E94872F2B013C0120E0C3
:102EA00030E0A901C701B6010E94092E87FF0AC0C0
:102EB00020E030E044EB53E4C701B6010E94872FC5
:102EC0006B017C0120E030E040E054E36D817E81C5
:102ED0008F8198850E94092E87FD18C0A701960151
:102EE000C301B2010E94862F9F7727E137EB41EDA6
:102EF00058E30E94092E18164CF0C12CD12C84EBFB
:102F0000E82E83E4F82E412C512C3201AD85BE858C
:102F1000ED91FC9111970484F585E02DCD01099583
:102F200020E030E044EB52E4C301B2010E94092EDC
:102F30008823F1F020E030E044E353E4C301B20120
:102F40000E94092E8823A1F020E030E047E853E4F6
:102F5000C301B2010E94092E882351F020E030E025
:102F600044EB53E4C301B2010E94092E81110AC04F
:102F70002DEC3CEC4CEC5DE3C301B2010E94862FCA
:102F80002B013C0120E030E044EB52E4C701B601E4
:102F90000E94092E8823F1F020E030E044E353E45E
:102FA000C701B6010E94092E8823A1F020E030E07D
:102FB00047E853E4C701B6010E94092E882351F067
:102FC00020E030E044EB53E4C701B6010E94092E33
:102FD00081110AC02DEC3CEC4CEC5DE3C701B6015D
:102FE0000E94862F6B017C0125E33AEF4EE85CE3FB
:102FF000C301B2010E946F2E4B015C010E94F32FAE
:103000006D837E838F83988725E33AEF4EE85CE3F8
:10301000C701B6010E946F2E6F87788B898B9A8BC0
:103020000E94F32F69877A878B879C87C501B4013B
:103030000E943F319B01AC016D817E818F8198851B
:103040000E94F82F6CA37DA38EA39FA36F85788920
:1030500089899A890E943F319B01AC0169857A85F3
:103060008B859C850E94F82F68A779A78AA79BA7C4
:103070002D813E814F81588560E070E080E09FE3C4
:103080000E94F82F6CA77DA78EA79FA729853A8558
:103090004B855C8560E070E080E09FEB0E94F82F3C
:1030A00068AB79AB8AAB9BAB29813A81215031095E
:1030B00049815A81249FC001259F900D349F900D16
:1030C00011249C01990F440B550B2B8B3C8B4D8B82
:1030D0005E8B81010F5F1F4F029DC001039D900D0C
:1030E000129D900D11249C01990F440B550B2F87B5
:1030F000388B498B5A8B20E030E044E353E4C30122
:10310000B2010E94092E881F8827881F91E0892715
:103110008CAB20E030E044E353E4C701B6010E94E9
:10312000092E881F8827881F8BA38824992482183A
:103130009308092C000CAA08BB08C101330CAA0B88
:10314000BB0B8F8F98A3A9A3BAA39801110F440BAF
:10315000550B2D833E834F83588720E030E044E3B6
:1031600053E4C301B2010E94872F9B01AC01C70148
:10317000B6010E943A3118160CF4DFC0A70196017F
:10318000C301B2010E943A31181684F420E030E005
:1031900044E353E4C701B6010E94872F9B01AC01B1
:1031A000C301B2010E94092E87FDC7C020E030E0B4
:1031B00047E853E4C701B6010E943A3187FF0AC0CD
:1031C00020E030E044EB52E4C701B6010E94092E32
:1031D00087FF14C020E030E047E853E4C301B201A8
:1031E0000E943A3187FF96C020E030E044EB52E481
:1031F000C301B2010E94092E87FD8CC020E030E09F
:1032000047E853E4C701B6010E94092E87FF87C033
:1032100020E030E044EB52E4C701B6010E943A31AD
:1032200087FD7DC020E030E047E853E4C301B201F0
:103230000E94092E87FF73C020E030E044EB52E487
:10324000C301B2010E943A3189829A82AB82BC8268
:1032500087FF6AC020E030E044E353E4C701B601D1
:103260000E943A3187FD0AC020E030E044E353E495
:10327000C301B2010E943A3187FF66C020E030E00E
:1032800044E353E4C701B6010E94092E312C87FFA5
:103290000BC020E030E044E353E4C301B2010E94DC
:1032A000092E312C87FD56C0A5019401C501B4013A
:1032B0000E9487316F8B788F898F9A8F29813A810D
:1032C0004B815C81412C512C320121153105410586
:1032D000510509F457C029013A01A3019201C30124
:1032E000B2010E9487312F89388D498D5A8D620F26
:1032F000731F841F951F2F85388949895A89621742
:1033000073078407950754F13FEF431A530A630A82
:10331000730AE3CF19821A821B821C829BCF898297
:103320009A82AB82BC8296CF81E090E0A0E0B0E0D0
:103330008D839E83AF83B8878DCF89829A82AB823B
:10334000BC8233243394B0CF312C1F8E18A219A223
:103350001AA2AACF812C912C5401A6CF8D819E81D7
:10336000AF81B8850197A105B10561F021E030E09A
:1033700040E050E024193509460957092D833E8362
:103380004F835887C501B4010E94102E6B017C0148
:10339000AC019B016CA57DA58EA59FA50E94872FE2
:1033A0002CA13DA14EA15FA10E946F2E6DAB7EAB03
:1033B0008FAB98AFA701960168A979A98AA99BA9A3
:1033C0000E94872F28A539A54AA55BA50E946F2ECC
:1033D00069AF7AAF8BAF9CAFC12CD12C7601A40121
:1033E00043565F4F23965FAF4EAF2397A3019201E1
:1033F000C301B2010E9487312F89388D498D5A8DC2
:10340000260F371F481F591F29873A874B875C872C
:103410008B899C89AD89BE89281739074A075B07C4
:103420004CF1C301B2010E94102E6B8F7C8F8D8FE7
:103430009E8F11E09B01AC0169AD7AAD8BAD9CAD67
:103440000E943A3187FD10E001E02B8D3C8D4D8DBF
:103450005E8D6DA97EA98FA998AD0E943A3187FD36
:1034600000E09CA9901709F448C0ABA1A1134CC07F
:1034700031104AC0C114D104E104F104C9F06DADAA
:103480007EAD640D751D6C197D09AD85BE85ED9110
:10349000FC9111970288F389E02D21960EAD1FADA6
:1034A0002197960123964EAD5FAD2397CD010995E7
:1034B0002F85388949895A8989859A85AB85BC8544
:1034C00082179307A407B5070CF04AC077FE11C016
:1034D0002B893C894D895E8982179307A407B5071C
:1034E00044F47094609450944094411C511C611CAD
:1034F000711CC12CD12C760124C0332009F4BACF21
:10350000BBA1B11709F4B6CF2D813E814F815885FB
:10351000421653066406750609F4ACCF8F85988968
:10352000A989BA8929853A854B855C852817390789
:103530004A075B070CF046C03FEFC31AD30AE30A01
:10354000F30A3FEF431A530A630A730A8D819E817F
:10355000AF81B88584159505A605B7050CF046CF53
:103560009FEF891A990AA90AB90A2F8D38A149A192
:103570005AA1281539054A055B050CF095CEAD8595
:10358000BE85ED91FC9111970688F789E02DCD015C
:10359000CE5BDF4F0FB6F894DEBF0FBECDBFDF911D
:1035A000CF911F910F91FF90EF90DF90CF90BF9040
:1035B000AF909F908F907F906F905F904F903F90D3
:1035C0002F900994C114D104E104F10449F257CFBA
:1035D0000E94D833FB0101900020E9F73197AF0139
:1035E000461B570BDC01ED91FC910280F381E02D2D
:1035F00009948F929F92AF92BF92EF92FF920F9396
:103600001F93CF93DF93CDB7DEB7A1970FB6F89492
:10361000DEBF0FBECDBF7C01FA01CB0119A2223063
:1036200008F42AE08E010F5D1F4F822E912CB12CE1
:10363000A12CBF01A50194010E94AB31F901CA017F
:103640006A300CF5605DD8016E938D01232B242B1D
:10365000252B79F790E080E0109721F0BD01C7019C
:103660000E94EA1AA1960FB6F894DEBF0FBECDBF36
:10367000DF91CF911F910F91FF90EF90BF90AF908E
:103680009F908F900895695CDECF462F50E070E0E8
:1036900060E02AE00C94F91ACF92DF92EF92FF9249
:1036A0000F931F93CF93DF936B01770FEE08FF0803
:1036B000F7FE1BC0EC016DE20E9471038C014427F0
:1036C0005527BA014C195D096E097F092AE0CE0120
:1036D0000E94F91A800F911FDF91CF911F910F91D6
:1036E000FF90EF90DF90CF9008952AE0B701A601F8
:1036F000DF91CF911F910F91FF90EF90DF90CF90CE
:103700000C94F91A2F923F924F925F926F927F9290
:103710008F929F92AF92BF92CF92DF92EF92FF92E1
:103720001F93CF93DF93EC016A017B01722EAB01F3
:103730009601CB01B6010E9447316AEC71E081111C
:1037400026C046015701E894B7F82FEF3FEF4FE747
:103750005FE7C501B4010E94473181110CC02FEF12
:103760003FEF4FE75FE7C501B4010E94092E6EEC01
:1037700071E0181664F02FEF3FEF4FE75FE4C701E9
:10378000B6010E943A311816B4F462ED71E0CE0130
:10379000DF91CF911F91FF90EF90DF90CF90BF907E
:1037A000AF909F908F907F906F905F904F903F90E1
:1037B0002F900C94EA1A2FEF3FEF4FE75FECC70111
:1037C000B6010E94092E87FDE0CF20E030E0A9017C
:1037D000C701B6010E94092E312C212C87FF09C098
:1037E0006DE2CE010E9471031C01F7FAF094F7F824
:1037F000F09410E060E070E080E09FE3711641F02B
:1038000020E030E040E251E40E94F82F1F5FF6CF45
:10381000A70196010E94872F2B013C010E946A306C
:103820004B015C012AE0BC01A401CE010E94F91AFF
:103830007C01E20CF31C1123C1F1C501B4010E940B
:103840000E2E9B01AC01C301B2010E94862F4B01D9
:103850005C016EE2CE010E947103E80EF91E115068
:1038600020F120E030E040E251E4C501B4010E94C3
:103870006F2E2B013C010E946A304B01B12CA12C10
:103880002AE0B501A401CE010E94F91AE80EF91E42
:10389000C501B4010E940E2E9B01AC01C301B2010F
:1038A0000E94862F4B015C01DACFC701DF91CF91D7
:1038B0001F91FF90EF90DF90CF90BF90AF909F90BF
:1038C0008F907F906F905F904F903F902F900895D2
:1038D0000C94EA1ACF93DF9380914C0590914D059B
:1038E0000E944A0DE0914C05F0914D05168E82E044
:1038F000848F858F88E790E0958B848B8AE090E0B9
:10390000978B868BCFEFDFEFD38FC28FD18FC08F96
:1039100066ED71E0CF010E94681CE0914C05F091CA
:103920004D05168E81E0848F858F80910201813054
:1039300009F0CFC080EE9FEF938F828F918F808FA1
:1039400084E190E0958B848B88E290E0978B868B66
:103950006EED71E0CF010E94681C69E072E0809119
:103960004C0590914D050E94681C6FE372E08091B8
:103970004C0590914D050E94681C69E072E08091B1
:103980004C0590914D050E94681C80910201E091C8
:103990004C05F0914D05823009F0A0C080EE9FEFFC
:1039A000938F828F918F808F84E190E0958B848BB1
:1039B00087E390E0978B868B63EF71E0CF010E94E5
:1039C000681C68E072E080914C0590914D050E9462
:1039D000681C80910201E0914C05F0914D05833007
:1039E00009F07FC080EE9FEF938F828F918F808F41
:1039F00084E190E0958B848B86E490E0978B868BB6
:103A00006CE072E0CF010E94681C69E072E0809176
:103A10004C0590914D050E94681C80910201E09137
:103A20004C05F0914D05843009F05EC080EE9FEFAB
:103A3000938F828F918F808F84E190E0958B848B20
:103A400085E590E0978B868B61E272E0CF010E9462
:103A5000681C69E072E080914C0590914D050E94D0
:103A6000681C80910201E0914C05F0914D05853074
:103A7000F1F580EE9FEF938F828F918F808F84E19D
:103A800090E0958B848B84E690E0978B868B66E341
:103A900072E0CF010E94681C80910201E0914C0508
:103AA000F0914D05863031F580EE9FEF938F828F38
:103AB000918F808F84E190E0958B848B83E790E0F9
:103AC000978B868B61E472E0CF01DF91CF910C94EC
:103AD000681CD38FC28FD18FC08F32CF8FEF9FEFF3
:103AE0005FCF8FEF9FEF80CF8FEF9FEFA1CF8FEF53
:103AF0009FEFC1CF8FEF9FEFD9CF0F931F93CF933E
:103B0000DF93EC0188819981009759F02A813B81EC
:103B10002617370730F081E0DF91CF911F910F9189
:103B200008958B016F5F7F4F0E941B33009759F000
:103B3000998388831B830A832C813D81232B59F72A
:103B4000FC011082E8CF80E0E7CFEF92FF920F9365
:103B50001F93CF93DF93EC017B01FB0101900020C9
:103B6000E9F731978F01061B170BB8010E947D1DE5
:103B700028813981811113C02115310519F0C9013E
:103B80000E949232198218821D821C821B821A8224
:103B9000DF91CF911F910F91FF90EF9008951D83BA
:103BA0000C83B701C901DF91CF911F910F91FF9055
:103BB000EF900C94EF3385ED8093BC00809143042B
:103BC00090914404A0914504B09146040796A11D2C
:103BD000B11D23E0B695A795979587952A95D1F7BE
:103BE0002091BC0024FD03C010924104089540912F
:103BF0004304509144046091450470914604452B60
:103C0000462B472B69F30097A105B10541F02AE245
:103C10002A95F1F700C00197A109B109E1CF809180
:103C200042040C9461074F925F926F927F928F9241
:103C30009F92AF92BF92CF92DF92EF92FF920F933B
:103C40001F93CF93DF936C01DC019E968C9161E012
:103C50008F3F09F454C00E94D10461E0E6018EA5B3
:103C60000E94850464E670E080E090E00E942705F1
:103C700060E08EA50E94850466E970E080E090E037
:103C80000E94270561E08EA50E94850466E970E028
:103C900080E090E00E942705D6019C960D911C9132
:103CA000F601EF5BFF4F408051803297E080F1805A
:103CB000D0E0C0E026E4A22E22E0B22EC415D50545
:103CC00008F0D0C0F701EC0FFD1FE0814E01BFEFFF
:103CD0008B1A9B0AED3008F0A7C0F0E0EE58F14EC9
:103CE0000C94CD31C01ECB1EA51ED01E971E231FC7
:103CF000EA1E851EC91EEF1ECD1E021F091FF601FA
:103D000084A595A50E94B114C1CF80E07724739457
:103D1000780ED701A80DB91DE801E881F981068068
:103D2000F781E02D6C91C8010995E40102C0772468
:103D30007394219647018C0E9D1E672C6A94FFEFA9
:103D40006F1284C0C70DD11DB9CF712CF701E80DDA
:103D5000F91D808180938A032296F701EC0FFD1FE5
:103D60008081809389036091890370918A03D801CF
:103D7000ED91FC910084F185E02DC8010995D9CF22
:103D8000D801ED91FC910280F381E02DC8010995E5
:103D90001FC081E0BBCF712CBCCF92E0792ED6CF73
:103DA000F701E80DF91D7080272D30E050E040E06C
:103DB000BE016E5F7F4F6E0D7F1DE801E881F981C6
:103DC0000284F385E02DC8010995E401C70DD11DDA
:103DD000712CAFCFF701E80DF91D7080A6CFD70188
:103DE000A80DB91DF80180819181FC0126813781E0
:103DF0006C91C801F90109952296F701EC0FFD1F9E
:103E0000708097CFD801ED91FC910480F581E02D71
:103E1000BDCFF701E80DF91D608170E090E080E012
:103E20000E942705E401D4CF1F92EF93DF93CF9335
:103E3000BF92AF920E94F6330F900F900F900F90A9
:103E40000F900F90C5CF82E0782E73CFD4016D9183
:103E50004D01D801ED91FC910484F585E02DC80158
:103E600009956CCFE601E881F981028CF38DE02D94
:103E700060E0C601DF91CF911F910F91FF90EF900D
:103E8000DF90CF90BF90AF909F908F907F906F907A
:103E90005F904F9009940F931F93CF93DF93EC01A2
:103EA0004F3F8FEF58076807780721F440E052E151
:103EB0006AE770E04A835B836C837D832E8361E0D5
:103EC0008F810E94D10461E08F810E9485048885E2
:103ED0008F3F39F061E00E94D10461E088850E9443
:103EE00085048F81082E000C990BFC01E453FA4FD6
:103EF000E491F0E0EE0FFF1FE057FA4F2591349167
:103F00003F872E87FC01E255FA4FE491EA8BE0955A
:103F1000EB8B88858F3FA9F0082E000C990BFC01D4
:103F2000E453FA4FE491F0E0EE0FFF1FE057FA4F31
:103F3000259134913D872C87FC01E255FA4FE4919D
:103F4000E88B88898095898B1FB7F89480918603C8
:103F5000811127C0E6EDF5E08491E8EBF5E094915E
:103F6000E82FF0E0EE0FFF1FEA57FA4FA591B4914A
:103F7000EC91E92321F461E08AE00E94850461E08C
:103F80008AE00E94D1048CB580618CBD8CB58064C0
:103F90008CBD61E08DE00E94D10461E08BE00E9465
:103FA000D104809186038F5F809386031FBF8E812B
:103FB0008F3F11F488E08E839E810A811B812C81C2
:103FC0003D8140E052E16AE770E080E004171507A8
:103FD0002607370740F476956795579547958F5F85
:103FE0008630A1F787E09C709065282F2695922B4C
:103FF00090930805809581708093090581E0DF9199
:10400000CF911F910F9108950C942D2F1F920F9215
:104010000FB60F9211242F933F934F935F936F939B
:104020007F938F939F93AF93BF93EF93FF938BE611
:1040300094E00E94F603FF91EF91BF91AF919F91A1
:104040008F917F916F915F914F913F912F910F9041
:104050000FBE0F901F9018951F920F920FB60F92E0
:1040600011242F938F939F93EF93FF93E0917B0401
:10407000F0917C048081E0918104F091820482FDC2
:104080001BC09081809184048F5F8F732091850481
:10409000821741F0E0918404F0E0E559FB4F958FE1
:1040A00080938404FF91EF919F918F912F910F90B6
:1040B0000FBE0F901F9018958081F4CF1F920F9222
:1040C0000FB60F9211242F933F938F939F93AF932B
:1040D000BF938091D0039091D103A091D203B0916E
:1040E000D3033091CF0323E0230F2D3758F50196EA
:1040F000A11DB11D2093CF038093D0039093D103D2
:10410000A093D203B093D3038091D4039091D503AD
:10411000A091D603B091D7030196A11DB11D809344
:10412000D4039093D503A093D603B093D703BF9144
:10413000AF919F918F913F912F910F900FBE0F9054
:104140001F90189526E8230F0296A11DB11DD2CF0E
:104150001F920F920FB60F9211242F933F934F93FC
:104160005F936F937F938F939F93AF93BF93EF93DF
:10417000FF938091B900887F803609F44AC0F0F53A
:10418000883209F4A7C018F5803109F49BC0B8F44F
:10419000882309F4F9C0883009F494C0FF91EF91A5
:1041A000BF91AF919F918F917F916F915F914F914F
:1041B0003F912F910F900FBE0F901F90189588314F
:1041C00009F488C0803251F780933F0414C08034D2
:1041D00009F49DC040F48033B9F38833F9F6809335
:1041E0003F0485ECB0C0803509F485C0883509F4FA
:1041F00096C0883499F60E94DB1DD0CF883909F427
:104200008CC038F5883729F050F4883611F08037A3
:1042100029F683E0809341041092CE0357C088387A
:1042200009F47BC0803919F0803809F0B7CF80914C
:10423000CE03803208F071C0E091CE0381E08E0F92
:104240008093CE038091BB00F0E0E255FC4F808369
:104250003DC0803B39F0E0F4803A09F479C0883AF7
:1042600009F09CCF84E0809341041092AD0310923A
:10427000AC03E091F703F091F80309958091AC034A
:1042800081110FC081E08093AC0310928C0309C0B0
:10429000803C09F4A6CF883C09F4A3CF883B09F001
:1042A0007DCFE091AD0381E08E0F8093AD03F0E010
:1042B000E457FC4F80818093BB009091AD038091C7
:1042C000AC0329C080911C048093BB0085EC8093D3
:1042D000BC0064CF90913E0480913D04981758F53E
:1042E000E0913E0481E08E0F80933E04F0E0E35EB7
:1042F000FB4F8081E9CFE0913E0481E08E0F8093F7
:104300003E048091BB00F0E0E35EFB4F8083909120
:104310003E0480913D049817C8F285E8D8CFE0911B
:104320003E0481E08E0F80933E048091BB00F0E05C
:10433000E35EFB4F80838091400481115CCF81E07C
:1043400080931B0484EA8093BC001092410426CF22
:1043500085EC8093BC00109241048091CE038032A2
:1043600030F4E091CE03F0E0E255FC4F1082609112
:10437000CE0370E0E091F503F091F6038EEA93E04E
:1043800009951092CE030ACF10923F0434CFEF92DA
:10439000FF920F931F93CF93DF93EC017B01198260
:1043A00018821B821A821D821C82FB010190002050
:1043B000E9F731978F01061B170BB8010E947D1D8D
:1043C00028813981811113C02115310519F0C901E6
:1043D0000E949232198218821D821C821B821A82CC
:1043E000DF91CF911F910F91FF90EF9008951D8362
:1043F0000C83B701C901DF91CF911F910F91FF90FD
:10440000EF900C94EF331F93CF93DF9310926E04D1
:1044100010926D0488EE93E0A0E0B0E080936F040A
:1044200090937004A0937104B093720420E131E082
:1044300030936C0420936B0425EC30E030937804C7
:104440002093770424EC30E030937A0420937904AD
:1044500020EC30E030937C0420937B0421EC30E0AE
:1044600030937E0420937D0422EC30E0309380046E
:1044700020937F0426EC30E0309382042093810463
:10448000109284041092850410928604109287047E
:1044900010923705109236058093380590933905B0
:1044A000A0933A05B0933B0582E291E090933505E5
:1044B0008093340580E5809308051092090584E116
:1044C00090E00E94F631EC0182E691E099838883C6
:1044D00088E08F8389E088878AE095E09A878987DA
:1044E00011E01B87D0934F05C0934E0583E490E005
:1044F0000E94F631FC011382128220EF30E034A3D7
:1045000023A380E491E096A385A317A23583248397
:10451000978386832FEE30E0318720878FE391E009
:10452000938782871586148617861686318B208B93
:10453000938B828B158A148A178A168A8FEF9FEFC6
:10454000918F808F938F828F148F158F168E178E79
:1045500010A312A211A2D5A7C4A787E086A717A609
:1045600010AA11AA12AA13AA8FEF86AF84E391E0D2
:1045700091838083DF01DF9682E891E011969C931E
:104580008E93129688E490E08D939C93F0934D0562
:10459000E0934C0510924B0510924A0584E395E098
:1045A000909349058093480580E090E0A0ECBFE738
:1045B0008093400590934105A0934205B093430535
:1045C0008093440590934505A0934605B093470515
:1045D00082E380931A0510921B0510921C0510921D
:1045E0001D0510921E0510921F05109220051092B5
:1045F0002105109222051092230510922405109295
:1046000028051092290510922A0582E0809325053D
:1046100083E08093260584E0809327058091180528
:104620008061877F80931805EEECF5E0E491F0E07F
:10463000EE0FFF1FEE53FA4F8591949190932C0546
:1046400080932B05E0EBF5E0E491E0932D05EFEC92
:10465000F5E0E491F0E0EE0FFF1FEE53FA4F859185
:10466000949190932F0580932E05E1EBF5E0E49172
:10467000E0933005E0EDF5E0E491F0E0EE0FFF1F90
:10468000EE53FA4F859194919093320580933105C2
:10469000E2EBF5E0E491E093330562E082E00E9412
:1046A000D10462E0809126050E94D1048091180512
:1046B00084FF05C062E0809127050E94D1048091AB
:1046C0001905816080931905E0912B05F0912C0567
:1046D000908180912D05982381E009F480E0E0919C
:1046E0002E05F0912F05908120913005922309F03D
:1046F00092E0892B80931B0566E672E081E195E0EC
:104700000E94C7216BE672E08BE095E0DF91CF91CC
:104710001F910C94C721CF93DF93CDB7DEB72D97B0
:104720000FB6F894DEBF0FBECDBF789484B582601B
:1047300084BD84B5816084BD85B5826085BD85B545
:10474000816085BD80916E00816080936E001092C3
:10475000810080918100826080938100809181003E
:1047600081608093810080918000816080938000CF
:104770008091B10084608093B1008091B00081602D
:104780008093B00080917A00846080937A00809159
:104790007A00826080937A0080917A0081608093B1
:1047A0007A0080917A00806880937A001092C1002C
:1047B000E0917B04F0917C0482E08083E0917704B7
:1047C000F09178041082E0917904F0917A048FECF2
:1047D000808310928304E0917F04F091800486E04E
:1047E0008083E0917D04F0917E04808180618083EC
:1047F000E0917D04F0917E04808188608083E09167
:104800007D04F0917E04808180688083E0917D0446
:10481000F0917E0480818F7D808380914C05909102
:104820004D05DC01ED91FC910084F185E02D4FEF09
:104830005FEFBA01099580914C0590914D05DC011F
:10484000ED91FC91008CF18DE02D63E009950E94C3
:104850004A0780914A0590914B05009711F00E94FC
:10486000923286E090E00E94F6318C0180914805FA
:104870009091490524E4F801208392838183138277
:1048800080E290E09583848310934B0500934A0562
:104890000E944A0781E0D80113968C93C8010E94B8
:1048A00090088823C9F082EA90E30E94C2166AE069
:1048B00070E080E090E00E9427058DE293EF0E9477
:1048C000C21643E050E0BE016F5F7F4F80914A0502
:1048D00090914B050E949D1561E085E00E94D104F6
:1048E00061E085E00E9485048091180588608093CE
:1048F000180590E080E00E94042065E772E08F36A2
:1049000041F066E672E0813621F0863631F468E7E0
:1049100072E081E195E00E94A51D81E090E00E9497
:104920000420682F80ED860F8A3080F46053770B67
:10493000072E000C880B990B0E94102E6093DE034B
:104940007093DF038093E0039093E10382E090E0B3
:104950000E94042090ED980F9A3040F4082E000C2D
:10496000990BC097909301018093000183E090E040
:104970000E9404208093DD0384E090E00E940420E4
:104980008093DC0385E090E00E9404208093DB03A9
:1049900086E090E00E9404208093DA0380914C0529
:1049A00090914D050E944A0DE0914C05F0914D0506
:1049B000168E77247394748E758E80EE97E0938FA5
:1049C000828F918F808F0AE010E0158B048B84E139
:1049D00090E0978B868B6CE772E0CF010E94681C99
:1049E00068EE73E080E090E00E94270580914C051E
:1049F00090914D05FC01158B048B28E230E0378B3C
:104A0000268B6CE872E00E94681C19820091D80322
:104A10001091D903D80114968D919C911597892BEB
:104A2000E1F08C91709247048093690410924804DD
:104A300010926A0420E041E050E0BE016F5F7F4FBA
:104A4000C8010E947208882341F047E050E0BE018F
:104A50006F5F7F4FC8010E949D152A81822F90E0D1
:104A6000A4E095958795AA95E1F7982F990F990F4E
:104A7000782E791A770C720E2B81822F90E0B4E099
:104A800095958795BA95E1F7982F990F990F682F0B
:104A9000691B660F620F80914C0590914D050E9435
:104AA000451B6FE372E080914C0590914D050E948B
:104AB000681C672D80914C0590914D050E94451B07
:104AC00068EE73E080E090E00E94270580914C053D
:104AD00090914D052AE030E0FC01358B248B2CE3CE
:104AE00030E0378B268B63E972E00E94681C0091EE
:104AF0004C0510914D0580E094E20E94C216882377
:104B000009F485C164E170E080E090E00E9427052F
:104B100046E050E0BE016F5F7F4F80914A05909163
:104B20004B050E949D15882309F471C17B80CE013D
:104B300001960E941C0378126AC17E80CE01049601
:104B40000E941C03781263C129813A8132272327EE
:104B50003227A7E1B1E10E94772FEEE09595879586
:104B600077956795EA95D1F7645971418109910963
:104B70000E94102E20E030E048EC52E40E94F82F12
:104B80002B013C0140924405509245056092460538
:104B9000709247052C813D81322723273227A1E7D8
:104BA000B2E00E94772FFCE0969587957795679500
:104BB000FA95D1F70E940E2E20E030E048EC52E446
:104BC0000E94F82F60934005709341058093420541
:104BD0009093430522E0B301A201C8010E94821B09
:104BE00068EE73E080E090E00E94270580914C051C
:104BF00090914D050AE010E0DC0155961C930E9350
:104C0000549720E530E057963C932E93569761EAEF
:104C100072E00E94681C4091DE035091DF036091B6
:104C2000E0037091E10322E080914C0590914D05E5
:104C30000E94821B68EE73E080E090E00E942705EE
:104C400080914C0590914D05FC01158B048B24E659
:104C500030E0378B268B65EB72E00E94681C609118
:104C600000017091010180914C0590914D050E94C9
:104C70004C1B68EE73E080E090E00E942705809175
:104C80004C0590914D05DC0155961C930E9354975D
:104C900028E730E057963C932E9356976BEC72E0E2
:104CA0000E94681C80914C0590914D05FC01158B6C
:104CB000048B2CE830E0378B268B6DED72E00E9480
:104CC000681C6091DD0380914C0590914D050E9418
:104CD000451B80914C0590914D05DC0155961C9328
:104CE0000E93549720EA30E057963C932E935697B4
:104CF00060EE72E00E94681C6091DC0380914C05BC
:104D000090914D050E94451B80914C0590914D0559
:104D1000FC01158B048B24EB30E0378B268B63EE84
:104D200072E00E94681C6091DB0380914C059091B9
:104D30004D050E94451B80914C0590914D05DC016D
:104D400055961C930E93549728EC30E057963C935D
:104D50002E93569766EE72E00E94681C6091DA030B
:104D600080914C0590914D050E94451B68E873E1C8
:104D700080E090E00E94270580914C0590914D05C0
:104D80000E944A0D66246A94762C4FEA442E512CD8
:104D90000E94660580910F0590911005892B09F4FA
:104DA00038C300910B0510910C056BE672E0C80149
:104DB0000E94E633892B09F039C38091180582FDE2
:104DC0000E946605E0914C05F0914D058091170514
:104DD00080FF24C087FF22C08F7780931705CF0103
:104DE0000E944A0D69EE72E08BE095E00E94A51DDD
:104DF0001092F4031092F3030E945A056093EF039C
:104E00007093F0038093F1039093F20302C3412C5B
:104E1000512C60EC662E6FE7762EDCCE8091F40389
:104E200081110BC2738E628E718E608E168E22E09F
:104E3000322E348E358E86E390E0958B848B83E022
:104E400090E0978B868B62EF72E0CF010E94681C26
:104E500080914C0590914D052AE030E0FC01358BA6
:104E6000248B29E130E0378B268B65E073E00E94CC
:104E7000681C30E1832E34E8932EA12CB12C47E836
:104E8000C42E43E4D42EE12CF12C04E313E42CE4EF
:104E900030E048E550E064E670E080914C05909188
:104EA0004D050E94EC16812C68EF962EA12CB12C9A
:104EB0007AE4C72E73E4D72E21E430E04BE450E0CF
:104EC00064E670E080914C0590914D050E94EC16CF
:104ED000E0EE8E2E99249A94A12CB12CF0E6CF2EE0
:104EE000F3E4DF2EE12CF12C0CE413E421E430E0B8
:104EF0004BE450E064E670E080914C0590914D05E4
:104F00000E94EC16B0EE8B2EB7E09B2EA12CB12C9C
:104F100016E7C12E13E4D12EE12CF12C02E613E4A6
:104F200021E430E04BE450E064E670E080914C0511
:104F300090914D050E94EC169FE1892E912CA12C99
:104F4000B12C27E8C22E23E4D22EE12CF12C08E765
:104F500013E421E430E04BE450E064E670E080913B
:104F60004C0590914D050E94EC16E0914C05F09196
:104F70004D05738E628E718E608E168E2224239460
:104F8000248E258E82E190E0958B848B88E990E0D9
:104F9000978B868B70E060E0CF010E944C1B809164
:104FA0004C0590914D0524E230E0DC0155963C9390
:104FB0002E93549721E630E057963C932E935697C4
:104FC00062E370E00E944C1B80914C0590914D056E
:104FD00029E530E0FC01358B248B29E430E0378B68
:104FE000268B64E670E00E944C1BE0914C05F0912A
:104FF0004D0580E590E0958B848B2DEA30E0378B72
:10500000268B168E348E358E6CE073E0CF010E94B5
:10501000681C40E1842E44E8942EA12CB12C54EB62
:10502000C52E53E4D52EE12CF12C04E313E42AE53C
:1050300030E046E650E06DEC70E080914C059091D8
:105040004D050E94EC167FE1872E912CA12CB12CEE
:10505000E0E6CE2EE3E4DE2E2FE430E049E550E03A
:105060006DEC70E080914C0590914D050E94EC161E
:10507000F0EE8F2EF7E09F2EA12CA0E8BA2EA6E826
:10508000CA2EA3E4DA2EE12CF12C02E613E42FE47D
:1050900030E049E550E06DEC70E080914C05909176
:1050A0004D050E94EC1610EE812E99249A94A12CA5
:1050B000B12C0DE9C02E03E4D02EE12C10E8F12E26
:1050C00007E813E42FE430E049E550E06DEC70E0D0
:1050D00080914C0590914D050E94EC16812C98EF23
:1050E000992EA12CB12C24EBC22E23E4D22EE12C3C
:1050F000F12C0EE913E42FE430E049E550E06DECCB
:1051000070E080914C0590914D050E94EC16E09165
:105110004C05F0914D05738E628E718E608E168EE9
:10512000248E258E8CE690E0958B848B88E990E028
:10513000978B868B70E060E0CF010E944C1B8091C2
:105140004C0590914D05E2E8F0E0DC015596FC93AA
:10515000EE93549727E530E057963C932E9356975D
:105160006EE170E00E944C1B80914C0590914D05C2
:1051700027EC30E0DC0155963C932E9354972BE3BB
:1051800030E057963C932E9356976CE370E00E9464
:105190004C1B80914C0590914D052DE031E0FC01B8
:1051A000358B248B25E530E0378B268B6AE570E064
:1051B0000E944C1B80914C0590914D052FE131E0F0
:1051C000DC0155963C932E935497E8E9F0E057960E
:1051D000FC93EE93569768E770E00E944C1BE091B9
:1051E0004C05F0914D05738E628E718E608E168E19
:1051F000348E358E8DED90E0958B848B2DEA30E0EA
:10520000378B268B68EFCF010E94710380914C058C
:1052100090914D0529EE30E0DC0155963C932E939C
:105220005497EDEAF0E05796FC93EE9356976FE0B3
:1052300073E00E94681C2092F40380914C059091C9
:105240004D05EFE0F0E0DC015596FC93EE935497AA
:1052500022E330E057963C932E93569761E173E03A
:105260000E94681C40E850E06DEC70E080914C05B5
:1052700090914D050E943C0345E250E064E670E0E9
:1052800080914C0590914D050E943C03E0914C05A6
:10529000F0914D05738E628E718E608E168E12E0C7
:1052A000148F158F88E2282E312C358A248A9DEAA6
:1052B000E92EF12CF78AE68A68E072E0CF010E94BD
:1052C000681CE0914C05F0914D05738E628E718ED5
:1052D000608E168E148F158F89EB90E0958B848BE2
:1052E000F78AE68A68E072E0CF010E94681C60E9F4
:1052F00070E080914C0590914D050E94760DE091F3
:105300004C05F0914D05168E148F158F738E628E9D
:10531000718E608E8BE890E0958B848BF78AE68A9D
:1053200067E173E0CF010E94681C6EE071E080913C
:105330004C0590914D050E94760DE0914C05F09141
:105340004D05168E148F158F738E628E718E608E42
:105350008AE091E0958B848BF78AE68A6AE772E0AF
:10536000CF010E94681CE0914C05F0914D05738EB1
:10537000628E718E608E358A248A02ED10E0178B62
:10538000068B65E772E0CF010E94681CE0914C0536
:10539000F0914D05738E628E718E608E8CE890E078
:1053A000958B848B178B068B66E672E0CF010E948B
:1053B000681CE0914C05F0914D05738E628E718EE4
:1053C000608E80EF90E0958B848B178B068B68E75F
:1053D00072E0CF010E94681C0E945A050091EB0305
:1053E0001091EC032091ED033091EE03601B710BE3
:1053F000820B930B623371058105910550F00E9479
:105400005A056093EB037093EC038093ED03909344
:10541000EE0380E090E0892B09F4BACC0E94E2030D
:10542000882309F4B2CC0E940000AFCC69EE72E090
:10543000C8010E94E633892B09F0BEC00E945A05BC
:105440000091EF031091F0032091F1033091F203EA
:10545000601B710B820B930B6131774281059105C3
:1054600098F080914C0590914D050E944A0D6BE695
:1054700072E08BE095E00E94A51D1092F40310925B
:10548000F3031092EA03C5CF8091180582FD0E94B4
:10549000660580911C058230B1F410921C050E94B3
:1054A0005A056093EF037093F0038093F103909398
:1054B000F203809102018F5F873008F047C080932C
:1054C00002010E946A1C8091180582FD0E946605F7
:1054D00080911C058130A1F410921C050E945A0590
:1054E0006093EF037093F0038093F1039093F203C2
:1054F00080910201815061F1809302010E946A1C37
:105500008091180582FD0E9466058091170585FF30
:1055100021C08F7D8093170580910201863009F4A8
:10552000A0CF8530B9F480914C0590914D050E9433
:105530004A0D69E173E08BE095E00E94A51D109291
:10554000F4031092F3031092EA0356CC81E0B7CF34
:1055500086E0D2CF8091F30381110FC00E946A1CB4
:1055600081E08093F3030E945A056093EF037093E8
:10557000F0038093F1039093F2030E945A05009187
:10558000E6031091E7032091E8033091E903601BE3
:10559000710B820B930B623371058105910508F441
:1055A00038CF0E945A056093E6037093E703809317
:1055B000E8039093E9032DCF69E173E0C8010E94ED
:1055C000E633892B09F025CF0E945A050091EF039D
:1055D0001091F0032091F1033091F203601B710BE5
:1055E000820B930B613177428105910508F039CF29
:1055F0008091EA038111D5C280914C0590914D05AF
:105600000E944A0DE0914C05F0914D05738E628E1B
:10561000718E608E168E82E0848F858F85E590E096
:10562000958B848BAAE0B0E0B78BA68B63E273E026
:10563000CF010E94681CE0914C05F0914D05168E3B
:1056400011E0148F158F2EE130E0358B248B87E32A
:1056500090E0978B868B738E628E718E608E62E384
:1056600073E0CF010E94681CE0914C05F0914D055C
:10567000738E628E718E608EAFE0B0E0B58BA48BBE
:1056800026E430E0378B268B6AE373E0CF010E947B
:10569000681C80914C0590914D05DC015B967C92D5
:1056A0006E925A9759967C926E92589769E072E082
:1056B0000E94681C80914C0590914D05FC01738EF1
:1056C000628E718E608E6FE372E00E94681C809122
:1056D0004C0590914D05DC015B967C926E925A9739
:1056E00059967C926E92589769E072E00E94681C0D
:1056F00080914C0590914D052FE030E0FC01358BF9
:10570000248BA5E5B0E0B78BA68B6AE473E00E941A
:10571000681C80914C0590914D05FC01738E628E42
:10572000718E608E69E072E00E94681C80914C0569
:1057300090914D05DC015B967C926E925A9759963A
:105740007C926E9258976FE372E00E94681C809181
:105750004C0590914D05FC01738E628E718E608EAA
:1057600069E072E00E94681CE0914C05F0914D05E3
:105770002FE030E0358B248B84E690E0978B868B8E
:10578000738E628E718E608E6AE573E0CF010E9427
:10579000681CE0914C05F0914D05AEE1B0E0B58B91
:1057A000A48B22E830E0378B268B738E628E718E4D
:1057B000608E6DE673E0CF010E94681CE0914C059D
:1057C000F0914D058FE090E0958B848BA1E9B0E0DE
:1057D000B78BA68B738E628E718E608E6AE373E0D8
:1057E000CF010E94681C69E072E080914C059091A5
:1057F0004D050E94681C80914C0590914D05FC015F
:10580000738E628E718E608E6FE372E00E94681CF0
:1058100080914C0590914D05DC015B967C926E92D7
:105820005A9759967C926E92589769E072E00E945E
:10583000681C80914C0590914D052FE030E0FC01F3
:10584000358B248BA0EAB0E0B78BA68B6AE473E0BB
:105850000E94681C80914C0590914D05FC01738E4F
:10586000628E718E608E69E072E00E94681C809189
:105870004C0590914D05DC015B967C926E925A9797
:1058800059967C926E9258976FE372E00E94681C62
:1058900080914C0590914D05FC01738E628E718E46
:1058A000608E69E072E00E94681CE0914C05F09106
:1058B0004D052FE030E0358B248B578A468A738E56
:1058C000628E718E608E6AE573E0CF010E94681C63
:1058D000E0914C05F0914D05168E148F158F8EEBCF
:1058E00090E0958B848BA7E3B0E0B78BA68B738E8B
:1058F000628E718E608E65E773E0CF010E94681C36
:10590000E0914C05F0914D05738E628E718E608E24
:10591000558A448A26E430E0378B268B6AE373E0AD
:10592000CF010E94681C80914C0590914D05DC01CF
:105930005B967C926E925A9759967C926E9258978B
:1059400069E072E00E94681C80914C0590914D05C1
:10595000FC01738E628E718E608E6FE372E00E9426
:10596000681C80914C0590914D05DC015B967C9202
:105970006E925A9759967C926E92589769E072E0AF
:105980000E94681C80914C0590914D05FC01558A40
:10599000448A25E530E0378B268B6AE473E00E9469
:1059A000681C80914C0590914D05DC015B967C92C2
:1059B0006E925A9759967C926E92589769E072E06F
:1059C0000E94681C80914C0590914D05FC01738EDE
:1059D000628E718E608E6FE372E00E94681C80910F
:1059E0004C0590914D05DC015B967C926E925A9726
:1059F00059967C926E92589769E072E00E94681CFA
:105A0000E0914C05F0914D05558A448A24E630E03A
:105A1000378B268B738E628E718E608E6AE573E093
:105A2000CF010E94681CE0914C05F0914D058EEB72
:105A300090E0958B848BA2E8B0E0B78BA68B738E39
:105A4000628E718E608E6DE773E0CF010E94681CDC
:105A5000E0914C05F0914D05558A448A21E930E0EA
:105A6000378B268B738E628E718E608E6AE373E045
:105A7000CF010E94681C69E072E080914C05909112
:105A80004D050E94681C80914C0590914D05DC01EC
:105A90005B967C926E925A9759967C926E9258972A
:105AA0006FE372E00E94681C80914C0590914D0557
:105AB000FC01738E628E718E608E69E072E00E94CE
:105AC000681C80914C0590914D05DC0155965C92C7
:105AD0004E925497E0EAF0E05796FC93EE93569777
