:020000040000FA
:100000000C94E3020C945E170C9437170C940B03BA
:100010000C940B030C940B030C940B030C940B0328
:100020000C940B030C940B030C940B030C940B0318
:100030000C940B030C940B030C940B030C940B0308
:100040000C94ED160C940B030C940B030C940B0303
:100050000C940B030C940B030C940B030C940B03E8
:100060000C9485170C940B0300000000003E5B4FBE
:100070005B3E3E6B4F6B3E1C3E7C3E1C183C7E3C08
:10008000181C577D571C1C5E7F5E1C00183C180016
:10009000FFE7C3E7FF0018241800FFE7DBE7FF30A6
:1000A000483A060E2629792926407F050507407F14
:1000B00005253F5A3CE73C5A7F3E1C1C08081C1C87
:1000C0003E7F14227F22145F5F005F5F06097F017D
:1000D0007F006689956A606060606094A2FFA29468
:1000E00008047E040810207E201008082A1C080836
:1000F0001C2A08081E101010100C1E0C1E0C303884
:100100003E3830060E3E0E06000000000000005F84
:1001100000000007000700147F147F14242A7F2AA0
:100120001223130864623649562050000807030062
:10013000001C2241000041221C002A1C7F1C2A08AE
:10014000083E080800807030000808080808000011
:1001500060600020100804023E5149453E00427F85
:10016000400072494949462141494D331814127FD4
:100170001027454545393C4A494931412111090774
:100180003649494936464949291E000014000000F5
:1001900040340000000814224114141414140041C7
:1001A00022140802015909063E415D594E7C121184
:1001B000127C7F494949363E414141227F414141BC
:1001C0003E7F494949417F090909013E4141517337
:1001D0007F0808087F00417F41002040413F017FA8
:1001E000081422417F404040407F021C027F7F0470
:1001F00008107F3E4141413E7F090909063E4151B9
:10020000215E7F09192946264949493203017F01A8
:10021000033F4040403F1F2040201F3F4038403FA9
:10022000631408146303047804036159494D4300BF
:100230007F4141410204081020004141417F0402F6
:10024000010204404040404000030708002054548D
:1002500078407F284444383844444428384444286B
:100260007F385454541800087E090218A4A49C78BE
:100270007F0804047800447D40002040403D007F1A
:100280001028440000417F40007C047804787C08FA
:100290000404783844444438FC18242418182424CE
:1002A00018FC7C08040408485454542404043F44B3
:1002B000243C4040207C1C2040201C3C4030403CE2
:1002C00044281028444C9090907C4464544C440042
:1002D00008364100000077000000413608000201A6
:1002E0000204023C2623263C1EA1A161123A404092
:1002F000207A38545455592155557941225454780F
:1003000042215554784020545579400C1E527212A7
:100310003955555559395454545939555454580030
:1003200000457C410002457D420001457C407D1234
:1003300011127DF0282528F07C5455450020545496
:100340007C547C0A097F4932494949323A44444441
:100350003A324A4848303A4141217A3A424020787C
:10036000009DA0A07D3D4242423D3D4040403D3C7D
:1003700024FF2424487E4943662B2FFC2F2BFF09A2
:1003800029F620C0887E0903205454794100004496
:100390007D413048484A32384040227A007A0A0A81
:1003A000727D0D19317D2629292F282629292926F4
:1003B00030484D4020380808080808080808382F39
:1003C00010C8ACBA2F102834FA00007B00000814C3
:1003D0002A142222142A14085500550055AA55AA99
:1003E00055AAFF55FF55FF000000FF00101010FF39
:1003F00000141414FF001010FF00FF1010F010F094
:10040000141414FC001414F700FF0000FF00FF1484
:1004100014F404FC141417101F10101F101F1414D0
:10042000141F00101010F0000000001F101010101A
:100430001F10101010F010000000FF10101010100E
:1004400010101010FF10000000FF140000FF00FF4C
:1004500000001F10170000FC04F4141417101714E8
:1004600014F404F40000FF00F7141414141414140A
:10047000F700F7141414171410101F101F1414147D
:10048000F4141010F010F000001F101F0000001FE7
:1004900014000000FC140000F010F01010FF10FF1A
:1004A000141414FF141010101F00000000F010FFAF
:1004B000FFFFFFFFF0F0F0F0F0FFFFFF0000000093
:1004C00000FFFF0F0F0F0F0F3844443844FC4A4A17
:1004D0004A347E02020606027E027E0263554941CC
:1004E000633844443C04407E201E2006027E020203
:1004F00099A5E7A5991C2A492A1C4C7201724C3017
:100500004A4D4D303048784830BC625A463D3E49ED
:100510004949007E0101017E2A2A2A2A2A44445F91
:10052000444440514A444040444A51400000FF0185
:1005300003E080FF000008086B6B08361236243693
:10054000000609090600001818000000101000300D
:1005500040FF0101001F01011E00191D1712003C80
:100560003C3C3C000000000000000000240027008C
:100570002A0000000000250028002B0000000008D1
:10058000000201000003040700000000000000005A
:10059000010204081020408001020408102001021A
:1005A0000408102000000000230026002900040495
:1005B000040404040404020202020202030303030B
:1005C0000303A418211D11241FBECFEFD8E0DEBF06
:1005D000CDBF23E0A2E6B2E001C01D92A337B2076F
:1005E000E1F712E0A0E0B1E0E6E6F9E402C0059030
:1005F0000D92A236B107D9F712E0C2EED2E004C0E4
:100600002197FE010E94F21FC13ED107C9F70E9447
:10061000F6190C94A6240C940000FC01908190958E
:1006200028E030E081E397FF03C0990F982701C0CD
:10063000990F21503109B9F78181892728E030E0ED
:1006400091E387FF03C0880F892701C0880F2150DD
:100650003109B9F7089508950895DC01ED91FC91F1
:100660000190F081E02D0994AF92BF92CF92DF927A
:10067000EF92FF920F931F93CF93DF936C017B0157
:100680008B01040F151FEB015E01AE18BF08C017E8
:10069000D10759F06991D601ED91FC910190F0815B
:1006A000E02DC6010995892B79F7C501DF91CF911E
:1006B0001F910F91FF90EF90DF90CF90BF90AF9080
:1006C000089590E0FC01E458FA4F2491FC01E057B2
:1006D000FA4F3491FC01E255FA4FE491EE23C9F050
:1006E000222339F0233001F1A8F4213019F122300E
:1006F00029F1F0E0EE0FFF1FEE58FA4FA591B491EB
:100700008FB7F894EC91611126C030953E233C934D
:100710008FBF08952730A9F02830C9F0243049F759
:10072000809180008F7D03C0809180008F778093BF
:100730008000DFCF84B58F7784BDDBCF84B58F7D1C
:10074000FBCF8091B0008F778093B000D2CF8091A3
:10075000B0008F7DF9CF3E2BDACFCF93DF9390E0BF
:10076000FC01E057FA4F249182559A4FFC01849185
:100770008823D1F090E0880F991FFC01E859FA4FC7
:10078000A591B491FC01EE58FA4FC591D491623015
:1007900071F49FB7F8943C91822F809583238C93BA
:1007A000E8812E2B28839FBFDF91CF9108958FB7CB
:1007B000F894EC912E2B2C938FBFF6CF3FB7F89483
:1007C0008091B0029091B102A091B202B091B302B7
:1007D00026B5A89B05C02F3F19F00196A11DB11D9C
:1007E0003FBFBA2FA92F982F8827BC01CD01620FD8
:1007F000711D811D911D42E0660F771F881F991F93
:100800004A95D1F708958F929F92AF92BF92CF925F
:10081000DF92EF92FF926B017C010E94DE034B019D
:100820005C01C114D104E104F104B9F00E94DE03BB
:10083000681979098A099B09683E73408105910509
:1008400080F321E0C21AD108E108F10888EE880E91
:1008500083E0981EA11CB11CE4CFFF90EF90DF90C5
:10086000CF90BF90AF909F908F9008950895209162
:100870008802260F3327331F21323105ECF42091F3
:100880000A03FC0190E080E0243069F082E00895E2
:10089000A09188022191AC0148595D4FA40FB52F5A
:1008A000B11D2C930196861798F380918802680FEA
:1008B0006093880280E0089581E0089510920A0311
:1008C00081E0809309031092E40261E082E10E94DA
:1008D000610361E083E10E946103E9EBF0E0808164
:1008E0008E7F808380818D7F808388E48093B800B1
:1008F00085E48093BC0008951092C3021092C20256
:1009000010921103109233030E945E048BE293E075
:100910009093C1028093C0028CE293E09093BF0257
:100920008093BE020895CF93DF9391E09093670286
:100930008823B9F0C091B800D091BA008091BC0072
:100940008A7B8093BC0060E082E10E94610360E0EA
:1009500083E10E9461030E945E04D093BA00C093B9
:10096000B800DF91CF9108958F929F92AF92BF927E
:10097000CF92DF92EF92FF920F931F93CF93DF936B
:10098000D0913303D13208F0D7C0182FC091320371
:100990000E94DE036B017C0180910A0381116BC010
:1009A00082E080930A03109309038FEF809308037A
:1009B00010920703D0930603A2E1B3E0E6EEF2E063
:1009C00080E0D81391C01092E5028091E502CC0F2F
:1009D000C82BC093E5028091E402813009F088C001
:1009E0001092E4020E94DE036B017C018091E5021B
:1009F0008093BB0080910C0390910D03A0910E0396
:100A0000B0910F03892B8A2B8B2BA1F00E94DE0360
:100A100000910C0310910D0320910E0330910F03F0
:100A20006C197D098E099F090617170728073907D2
:100A300008F442C08091BC0083FDD8CF85EC809340
:100A4000BC000E94DE036B017C0180910A038230AE
:100A500009F450C0809108038F3F09F46FC0809162
:100A60000803803209F46CC080910803803309F4D4
:100A700069C084E026C080910C0390910D03A09181
:100A80000E03B0910F03892B8A2B8B2B09F484CF93
:100A90000E94DE0380900C0390900D03A0900E0343
:100AA000B0900F036C197D098E099F098616970671
:100AB000A806B90608F070CF80910B030E9493043A
:100AC00085E0109211031092330310921003DF910E
:100AD000CF911F910F91FF90EF90DF90CF90BF903B
:100AE000AF909F908F9008959D9191938F5F69CF64
:100AF00085EEA5CF80910C0390910D03A0910E037C
:100B0000B0910F03892B8A2B8B2B09F49ECF0E9467
:100B1000DE0300910C0310910D0320910E03309120
:100B20000F036C197D098E099F09061717072807FF
:100B3000390708F08ACFC0CF81E0C3CF80E0C1CFB2
:100B400082E0BFCF83E0BDCF1F93CF93DF93EA0155
:100B5000122FDC0111968D919C91DC01ED91FC919D
:100B60000280F381E02D0995C817D90729F4812F58
:100B70000E94B40491E0811190E0892FDF91CF9120
:100B80001F910895CF93DF93EC018B818823A1F00F
:100B9000888191E0909310038093320310921103A7
:100BA0001092330381E00E94B40491E0811190E03F
:100BB000892FDF91CF9108950E947C0481E08B837F
:100BC000CE010E94C205982F8111E2CFF1CF089586
:100BD000E091C3028091C202E81730F4F0E0EC53D8
:100BE000FD4F808190E008958FEF9FEF08959091E1
:100BF000C3028091C2022FEF3FEF981748F4E92F0C
:100C0000F0E0EC53FD4F208130E09F5F9093C302F2
:100C1000C90108958091C2029091C302891B990B6A
:100C20000895CF92DF92EF92FF920F931F93CF938D
:100C3000DF937C01CB018A0120911003222389F0EC
:100C4000EB016B01C40ED51ECC15DD0569F0699171
:100C5000D701ED91FC910190F081E02DC70109953C
:100C6000F3CF642F0E943704C801DF91CF911F9109
:100C70000F91FF90EF90DF90CF900895CF93DF9387
:100C80001F92CDB7DEB76983209110032223F9F0BC
:100C900020913303203258F021E030E0FC0133830F
:100CA000228390E080E00F90DF91CF9108958091B2
:100CB0001103E82FF0E0EE5EFC4F998190838F5F87
:100CC000809311038093330381E090E0ECCF61E0E7
:100CD000CE0101960E943704F7CFEF92FF920F9357
:100CE0001F93CF93DF93EC017A018EA99FA98617FA
:100CF000970729F48AAD9BAD82179307B1F07FABBC
:100D00006EAB3BAF2AAF8CA59DA54CA9460F572FC4
:100D1000511D21503109240F351FDC01ED91FC914B
:100D2000008CF18DE02D6AE2099588AD99AD8E15A4
:100D30009F0529F48CAD9DAD80179107B9F0F9AEF0
:100D4000E8AE1DAF0CAF8CA59DA54DA94E0D5F2D36
:100D5000511D015011099801240F351FDC01ED913F
:100D6000FC91008CF18DE02D6BE209958CA59DA581
:100D7000DC01ED91FC910680F781E02D6CE2DF91C2
:100D8000CF911F910F91FF90EF900994FC01808506
:100D90008F3F31F0A485B5859C918089892B8C93F8
:100DA0000895FC018385882331F09091340380916C
:100DB00035039CBD8DBDA685B7858C919289892B05
:100DC0008C9380858F3F31F0A485B5858C91918976
:100DD00089238C9308958EBD00000DB407FEFDCFCE
:100DE0008EB50895CF92DF92EF92FF921F93CF932B
:100DF000DF9369017A01EB0181E0C81AD108E108AB
:100E0000F1088FEFC816D806E806F80669F01881D1
:100E10008981229610936302809364020E94EB06FC
:100E2000812F0E94EB06E8CFDF91CF911F91FF90B9
:100E3000EF90DF90CF900895CF92DF92EF92FF92E4
:100E4000CF93DF9369017A01EB0181E0C81AD108E1
:100E5000E108F1088FEFC816D806E806F80621F079
:100E600089910E94EB06F1CFDF91CF91FF90EF9037
:100E7000DF90CF900895CF92DF92EF92FF92CF93C1
:100E8000DF93EB0169017A0160936302D0936402FE
:100E900081E0C81AD108E108F1088FEFC816D8061A
:100EA000E806F80639F08D2F0E94EB068C2F0E9481
:100EB000EB06EECFDF91CF91FF90EF90DF90CF90D8
:100EC0000895CF93C62F872F6093630270936402B7
:100ED0000E94EB068C2FCF910C94EB06862F0C947E
:100EE000EB06CF92DF92EF92FF920F931F93CF9377
:100EF000DF93EC0169017A01EE85FF8580819B8992
:100F0000892380838B0181E0C81AD108E108F108A8
:100F1000EFEFCE16DE06EE06FE0631F0F801819107
:100F20008F010E94EB06EFCFEE85FF8580819A89C5
:100F3000892B8083DF91CF911F910F91FF90EF90CC
:100F4000DF90CF9008951F93CF93DF93EC01162F7E
:100F5000872FEE85FF8590812B8992239083609364
:100F60006302709364020E94EB06812F0E94EB06DD
:100F7000EE85FF8580819A89892B8083DF91CF91CF
:100F80001F910895CF93DF93EC01862FEE85FF85A7
:100F900090812B89922390830E94EB06EE85FF853A
:100FA00080819A89892B8083DF91CF910895DC011C
:100FB0009C968D919C91DC01ED91FC910684F785C6
:100FC000E02D0994DC019C968D919C91DC01ED91C2
:100FD000FC910480F581E02D0994AF92BF92CF92ED
:100FE000DF92EF92FF920F931F93CF93DF93EC0169
:100FF0005901E881F98102A0F3A1E02D099595013D
:10100000D8010E94F81F9B01AC01E881F98104A07E
:10101000F5A1E02DB701CE01DF91CF911F910F9186
:10102000FF90EF90DF90CF90BF90AF900994EF9238
:10103000FF920F931F93CF93DF9357FD38C0DC01CE
:101040001A96ED91FC91E417F5078CF12115310505
:1010500071F137FF07C0F90131966E0F7F1F31958F
:1010600021953109DC011896ED91FC91E617F707FF
:10107000F4F0EB01C20FD31FDE011197B7FD17C0CB
:1010800077FF03C09E0170E060E0EA17FB072CF4D5
:101090009F01261B370B2F5F3F4FDC01ED91FC9129
:1010A0000684F785E02D780101E010E00995DF91D5
:1010B000CF911F910F91FF90EF900895EF92FF92C3
:1010C0000F931F93CF93DF9377FD39C0DC01189600
:1010D000ED91FC91E617F70794F12115310579F1AF
:1010E00037FF07C0F90131964E0F5F1F31952195EB
:1010F0003109DC011A96ED91FC91E417F507FCF03B
:10110000EA01C20FD31FDE011197B7FD18C057FFC8
:1011100003C09E0150E040E0EA17FB072CF49F015A
:10112000241B350B2F5F3F4FDC01ED91FC910684B2
:10113000F785E02D7801890121E030E00995DF9104
:10114000CF911F910F91FF90EF900895DC019C9635
:101150008D919C91DC01ED91FC91028CF38DE02D41
:101160000994EF92FF920F931F93CF93DF93EC01BB
:101170007901E881F98102A0F3A1E02D01E010E0FE
:1011800021E030E009958CA59DA5DC01ED91FC9155
:101190000684F785E02DB701DF91CF911F910F9164
:1011A000FF90EF900994DC019C968D919C91DC015D
:1011B000ED91FC910280F381E02D0994EF92FF9272
:1011C0000F931F93CF93DF93EC014D3F8FEF5807A1
:1011D00068077807A9F5E881F98100A4F1A5E02D59
:1011E000CE010995E881F981008CF18DE02D6F8D9C
:1011F000CE0109950E811F81EC80FD80E881F98187
:101200000484F585E02DCE010995E881F98102A0DD
:10121000F3A1E02D970150E040E070E060E0CE01E6
:101220000995E881F9810688F789E02DCE010995B5
:1012300081E0DF91CF911F910F91FF90EF90089582
:101240002EAD8CA59DA5DC01ED91FC910190F08166
:10125000E02D2F3F29F009958111BDCF80E0E9CF26
:101260002FEFF9CFFC0116AE0C94DE080895FC01B7
:101270006770678F85A196A123A134A1633019F00F
:10128000D0F46130E1F4958384833783268324810D
:1012900035812150310931872087868197810197D7
:1012A000938782871586148617861686318B208B46
:1012B000938B828B0895653031F3673021F335834A
:1012C000248397838683E3CFCF93DF93EC010E943F
:1012D0003709EF8DE150E73078F5F0E0EE58F64F42
:1012E0000C94F21F79098A098E09920996099809C6
:1012F0009A0989A98CAB8AA98DAB8FEF9FEF9FAB21
:101300008EAB99AF88AF9BAF8AAF9DAF8CAFDF91AB
:10131000CF9108958AA98CAB8BA9EECF8BA98CAB0A
:1013200088A9EACF8AA98CAB89A9E6CF8BA9E2CF9D
:1013300088A9F1CF89A9F3CF88A9F5CF1F93CF93BF
:10134000DF93EC010E946409EF8DE15018E4E33073
:1013500020F4F0E0E45FFE4F10818CA59DA5DC0138
:10136000ED91FC910280F381E02D09958CA59DA55E
:10137000DC01ED91FC910088F189E02D412F66E3BD
:1013800009958CA59DA5DC01ED91FC910480F5816A
:10139000E02DDF91CF911F91099408956F927F9274
:1013A0008F929F92AF92BF92CF92DF92EF92FF9275
:1013B0000F931F93CF93DF936C015B014901EA0107
:1013C0003A01600E711EC615D70574F4D601ED9171
:1013D000FC910288F389E02D87019401AE01B501EB
:1013E000C60109952196EFCFDF91CF911F910F9103
:1013F000FF90EF90DF90CF90BF90AF909F908F9035
:101400007F906F9008956F927F928F929F92AF928C
:10141000BF92CF92DF92EF92FF920F931F93CF93E1
:10142000DF9357012115310509F457C00115110546
:1014300009F453C037FF07C0F90131966E0F7F1FC3
:10144000319521953109EC01A885B985A617B70713
:101450000CF443C017FF07C0F80131964E0F5F1F11
:10146000119501951109EC01EA85FB85E417F50753
:10147000A4F16B01C20ED31E3601D1E06D1A7108C2
:1014800077FC2BC07A01E00EF11E4701C1E08C1AF7
:10149000910897FC22C077FF03C0960170E060E0DE
:1014A00057FF03C0870150E040E0A615B7052CF4B4
:1014B0009D01261B370B2F5F3F4FE815F9052CF4D4
:1014C0008F01041B150B0F5F1F4FDC01ED91FC9189
:1014D0000684F785E02D75010995DF91CF911F9165
:1014E0000F91FF90EF90DF90CF90BF90AF909F90C3
:1014F0008F907F906F900895CF92DF92EF92FF923E
:101500000F931F93CF93DF93EC010E811F81CC804B
:10151000DD80E881F9810484F585E02D0995F12CC1
:10152000E12C960150E040E070E060E0CE010E94C6
:10153000030AE881F9810688F789E02DCE01DF9161
:10154000CF911F910F91FF90EF90DF90CF90099472
:10155000CF93DF93DC0157FD38C01A968D919C9193
:101560001B97841795078CF197968C9197978823F2
:1015700019F1CA01880F991F9896CD91DC9199971E
:10158000C80FD91FE881F9816E177F07F4F09A968A
:10159000ED91FC919B97E80FF91F8081918186174F
:1015A00097079CF0ED91FC9111970284F385E02D53
:1015B000CD01DF91CF91099477FD07C018968D91E9
:1015C0009C911997861797076CF7DF91CF91089533
:1015D0002F923F924F925F926F927F928F929F9243
:1015E000AF92BF92CF92DF92EF92FF920F931F9331
:1015F000CF93DF93CDB7DEB72C970FB6F894DEBF4D
:101600000FBECDBF9C878B877A8369831A01D22E48
:101610001C830B833701DC0191960D911C919297ED
:101620005C964C915C975D963C915D97432E512C56
:1016300050968D919C910115110509F46EC1F80128
:10164000349624913297A590B490D21AB7E0DB9EDD
:10165000A00CB11C1124F801659174917A876987F7
:10166000F501C590D490F501329674917D83319641
:10167000A491AE8331962491085F1F4FF801049125
:10168000F50135965491588766E0A60EB11CF50118
:10169000A49069817A81861797070CF416C3802F6E
:1016A00090E0880F991F63E070E00E94BC1F649D6A
:1016B000C001659D900D749D900D11242101481A63
:1016C000590AAB85BC8552968D919C9184159505E0
:1016D0000CF4FBC28D80821608F4822E849E400199
:1016E000112449815A81480D591DEB85FC8584855B
:1016F0009585841795070CF0E8C2039F800111249B
:101700009101200F311F86859785821793070CF072
:10171000DCC20190F081E02D0484F585E02D8B85FD
:101720009C8509952B813C816216730671F1AB850E
:10173000BC8550962D913C9189819A81880D991D87
:101740000197281739078CF0EB85FC8522893389AE
:10175000C801840D951D0197281739076CF4EB8596
:10176000FC85858D081B1109F3CFAB85BC855C9684
:101770008C91881A9108E0CF73019401A2016981CC
:101780007A818B859C850E94030AF8858F2EFF0F36
:101790009908EA2C0A2C000CFF08AB85BC855D96E5
:1017A0002C915D975C968C91813009F045C0213079
:1017B00009F042C0E20CF31C870180E0512C902F0D
:1017C0009E19BE819B1708F054C1EB85FC852289C8
:1017D0003389201731076CF1A980BA80A80CB91C95
:1017E0003D80380E831529F144244394480E8770B8
:1017F00041F4C6010196E985FA85EC0DFD1D549072
:101800006C01AB85BC8550968D919C9151978A1542
:101810009B054CF057FE07C02B813C81A801B50108
:10182000CD010E94A80ABFEFAB1ABB0A550C842D4C
:10183000D9CF0F5F1F4FC3CF3A2D32035001112470
:10184000A20CB31C80E0512C412C4E81441609F4AB
:1018500010C1AB85BC855D962C915D972A0D3B2D03
:10186000311D2150310952964D915C915397421789
:1018700053070CF44AC05C962C9138853203400122
:10188000112449815A81840E951E2D80280E8215BF
:1018900009F43BC033243394380E877041F4C601F9
:1018A0000196E985FA85EC0DFD1D54906C01AB8520
:1018B000BC855C962C915C9730E0C901880D991D20
:1018C000019750964D915C91519748175907ACF08C
:1018D00057FE13C05E968C915E9790E05D960C91DA
:1018E0005D9710E0081B190B281B390BEB80FC805F
:1018F000A501B401CD010E94030AEB85FC85848D0E
:10190000880E911C550C832DC2CF4394AB85BC85AA
:101910005D969C91A90EB11C98CFE981FA818E1732
:101920009F070CF4D2C1AB85BC8552968D919C91DA
:10193000821593050CF4C9C19F01B6E04B9F200DA1
:10194000311D1124EB85FC858485958582179307CD
:101950000CF0BBC153E0440C551C5A95E1F7420C06
:10196000531C86859785841595050CF0AEC10190B2
:10197000F081E02D0484F585E02D8B859C8509950B
:10198000AB85BC855C962C91B5E0DB9EC001112433
:10199000213009F09EC0EB85FC85258D213009F0B2
:1019A00098C0F12CE12C9C0128593F4F490151016D
:1019B00038E0A30EB11CC980DA80CE0CDF1CF40124
:1019C000EE0DFF1D5490AB85BC8550968D919C917A
:1019D0008C159D05ECF08101EB85FC85828993894E
:1019E000801791077CF00190F081E02D50FE63C0DC
:1019F0000284F385E02D2B813C81A801B6018B8503
:101A00009C8509950F5F1F4F56940A151B0521F7FA
:101A10003FEFE31AF30A45E0E416F10461F66B8147
:101A20007C816616770629F169817A816B5F7F4F29
:101A3000AB85BC8550968D919C91519786179707E1
:101A4000C4F052962D913C91C101069682179307DE
:101A5000ECF1221933092F5F3F4FAB85BC85ED9127
:101A6000FC9111970088F189E02D8301A101CD013E
:101A70000995AB85BC85ED91FC9111970688F78996
:101A8000E02DCD012C960FB6F894DEBF0FBECDBF72
:101A9000DF91CF911F910F91FF90EF90DF90CF904A
:101AA000BF90AF909F908F907F906F905F904F907E
:101AB0003F902F9009942B813C816216730609F4A4
:101AC000A1CF0284F385E02D930197CF28E030E089
:101AD000C4CFC980DA80512C412CFC01E859FF4F5A
:101AE000FF83EE83AB85BC855C968C915C978C0DF7
:101AF0009D2D911D019750962D913C9128173907E6
:101B00000CF487C0EE81FF81E40DF51DB491BD8317
:101B10005101912C812CEB85FC85858D90E09C01F9
:101B20002A0D3B1D21503109428953894217530721
:101B30000CF45EC0248D30E0FD81F0FFB7C0AB85B2
:101B4000BC855E964C915E97442309F4AAC050E090
:101B50008C01041B150B241B350B889DA001899D4E
:101B6000500D989D500D1124420D531DEB81FC81A9
:101B70006E167F0609F490C07F01B601CD010E9468
:101B8000030AAB85BC855D960C915D9710E05E966F
:101B90002C915E9730E0089DA001099D500D189D85
:101BA000500D1124420D531D5C966C915C976C0D89
:101BB0007D2D711D621B730B7301CD010E94030A01
:101BC000EB85FC85068D10E0248D30E0201B310B69
:101BD000658DC4010196689FA001699F500D112475
:101BE000420D531D401B510BB601CF010E94030A49
:101BF0005D8156955D83AB85BC855D968C91A80E05
:101C0000B11CBFEF8B1A9B0AE8E08E16910409F015
:101C100082CFAB85BC855C968C91282F30E0C20EBC
:101C2000D31EBFEF4B1A5B0AE5E04E16510409F0D4
:101C300059CF4B815C816416750609F41ACF69810E
:101C40007A8155E0859F600D711D1124C901860FB1
:101C5000971F0197AB85BC8550964D915C9151972C
:101C6000481759070CF405CF5D968C915D9790E06D
:101C70008C0143E0000F111F4A95E1F752964D91F8
:101C80005C91F1013197DF01A00FB11F4A175B078B
:101C9000ACF4081B190BF7CF7301B6018B859C853B
:101CA000A5CFEB80FC808C01A501F7CF4B815C8137
:101CB0006416750609F49CCF7301F5CF7301A10179
:101CC0008B859C850E94030AD4CE2C960FB6F8947F
:101CD000DEBF0FBECDBFDF91CF911F910F91FF905F
:101CE000EF90DF90CF90BF90AF909F908F907F90BC
:101CF0006F905F904F903F902F900895DF92EF92FA
:101D0000FF920F931F93CF93DF93EC01262F89A1AE
:101D10009AA1009709F47DC06A30D1F42C853D85E5
:101D20003D8B2C8BFC013896E4912D8D8E899F89FB
:101D3000E29F800D911D11249F8B8E8B81E090E09E
:101D4000DF91CF911F910F91FF90EF90DF90089559
:101D50006D30A1F3FC01349645915491FC01369607
:101D6000A591B49170E06417750740F3A617B70703
:101D700028F3FC013296A591B491362F341B47E02D
:101D8000349FA00DB11D1124FD013296449132966D
:101D9000D49038A1332341F115963C9150E0430F84
:101DA000511D37FD5A953C8D349FB001359F700D04
:101DB00011244C895D89460F571F4150510968898C
:101DC00079896417750784F44E895F896C857D85F0
:101DD0007D8B6C8B0896FC0184919D8D899F400DB5
:101DE000511D11245F8B4E8BEA8CFB8C088D198D55
:101DF0004E895F896C897D89CE010E94E80A2C8D0D
:101E00008C899D89D29E800D911D11249D8B8C8B78
:101E100095CF6A3071F48C859D859D8B8C8B8D8DD3
:101E2000F8E08F9F900111248E899F89820F931F64
:101E300083CF6D3009F482CF88A18823E9F03C8DEF
:101E40008C899D8946E0349F800D911D1124019756
:101E500048895989481759077CF44E895F898C85D0
:101E60009D859D8B8C8B8D8DE8E08E9FC00111240C
:101E7000840F951F9F8B8E8BEA8CFB8C088D198DA0
:101E80004E895F896C897D89CE010E94E80A2C8D7C
:101E90008C899D89F6E02F9F800D911D1124B6CF6E
:101EA000AF92BF92CF92DF92EF92FF920F931F9368
:101EB000CF93DF936C015A01EB017B01E20EF31E1D
:101EC000CE15DF0544F49801A501BE01C6010E94AC
:101ED000A80A2196F5CFDF91CF911F910F91FF9026
:101EE000EF90DF90CF90BF90AF900895AF92BF92E8
:101EF000CF92DF92EF92FF920F931F93CF93DF93D6
:101F00006C015B01EA017A01E20EF31ECE15DF05DA
:101F100044F49801AE01B501C6010E94A80A2196B9
:101F2000F5CFDF91CF911F910F91FF90EF90DF9050
:101F3000CF90BF90AF90089508952F923F924F9207
:101F40005F926F927F928F929F92AF92BF92CF9249
:101F5000DF92EF92FF920F931F93CF93DF9300D006
:101F600000D000D0CDB7DEB74C016B015E834D834E
:101F7000590162177307A9F50417150734F49D81F9
:101F80008E811E830D83092F182F2D813E81021B08
:101F9000130B98012F5F3F4FD401ED91FC91008806
:101FA000F189E02D87014D815E81B601C40109955B
:101FB00026960FB6F894DEBF0FBECDBFDF91CF914E
:101FC0001F910F91FF90EF90DF90CF90BF90AF9057
:101FD0009F908F907F906F905F904F903F902F9049
:101FE00008952D813E812017310799F4A616B70672
:101FF00024F48D2D6501A62EB82E95012C193D09CE
:102000002F5F3F4FD401ED91FC910288F389E02DC1
:10201000C9CF2D813E811801221A330A20173107BA
:1020200024F02D803E80201A310A25014C185D08CD
:10203000CA14DB041CF026014A185B08421453043E
:102040005CF49A2D8B2D5801092F182F9C2D8D2D66
:10205000CD80DE809D838E83AC14BD045CF49D81B5
:102060008E811E830D83092F182F9C2D8D2D6501C8
:10207000A92EB82EC5018C199D099A838983AD813B
:10208000BE81A017B107ACF598012A1B3B0B3C831E
:102090002B8369807A8075946794AD81BE81A01787
:1020A000B10774F10FEF1FEFAC14BD040CF480CF37
:1020B0009701A6016D817E81421453041CF04D816D
:1020C0005E81B601C4010E94A80A2B813C81621A7C
:1020D000730A77FE0AC089819A81680E791EAD81E4
:1020E000BE81A00FB11FBE83AD83BFEFCB1ADB0A49
:1020F000DBCF8D819E81801B910B9C838B83C9CF0D
:1021000001E010E0D1CF089590E080E008951F93A2
:10211000CF93DF93EC01162FE881F9810280F381E0
:10212000E02D0995E881F9810680F781E02D612F86
:10213000CE010995E881F9810480F581E02DCE0179
:10214000DF91CF911F91099460E1FC0184A595A5D1
:102150000E94871066E970E080E090E00C94030430
:1021600061E1FC0184A595A50E94871066E970E0F5
:1021700080E090E00C940304FC0184A595A527A5BC
:10218000261303C060E20C94871061E2FCCFEF924B
:10219000FF920F931F93CF93DF93EC018A01790194
:1021A000E881F9810680F781E02D099500936502A9
:1021B00010936602E881F9810484F585E02D612F92
:1021C000CE01099505E612E0E881F9810484F585E0
:1021D000E02DD8016C91CE010995E0926502F09254
:1021E0006602E881F9810484F585E02D6F2DCE012A
:1021F0000995E881F9810484F585E02DD8016C9179
:10220000CE01DF91CF911F910F91FF90EF90099434
:10221000EF92FF920F931F93CF93DF93EC017A011C
:102220008901E881F9810680F781E02D0995E8812F
:10223000F9810684F785E02DB701CE010995E88183
:10224000F9810684F785E02DB801CE01DF91CF91A9
:102250001F910F91FF90EF9009940F931F93CF93CD
:10226000DF93EC018A01E881F9810084F185E02D9A
:102270000995E881F9810684F785E02DB801CE0142
:10228000DF91CF911F910F9109940F931F93CF93DB
:10229000DF93EC018A01E881F9810680F781E02D66
:1022A0000995E881F9810684F785E02DB801CE0112
:1022B000DF91CF911F910F9109941F93CF93DF93DB
:1022C000EC01142FE881F9810680F781E02D099552
:1022D000E881F9810484F585E02D612FCE01DF913D
:1022E000CF911F910994DC01ED91FD918081ED91D9
:1022F000FD919081ED91FD916C9163708E2309F0B9
:1023000064609F2309F06860E0E9F1E1E60FF11DE8
:10231000659565956D936D917D918D919D910994D4
:1023200023C01AC012C016C010C01EC009C014C0FD
:1023300013C006C019C009C00DC007C00DC014C02D
:1023400062507040804090400BC0615070408040AF
:10235000904006C06E5F01C06F5F7F4F8F4F9F4FF1
:102360009E938E937E936E93089580913603909101
:1023700037030C94731180913803909139030C94B6
:1023800073112F923F924F925F926F927F928F9232
:102390009F92AF92BF92CF92DF92EF92FF920F93F4
:1023A0001F93CF93DF935C011B016A01F12CE12C99
:1023B000D50114968D919C9186010E191F098017E5
:1023C000910708F48C01F501D0810E94DE032B01F6
:1023D0003C0180910A03811172C0C02F013208F0C4
:1023E000C0E2F1E0F0930A0321E0C601801B910BEB
:1023F000E816F90608F420E0209309038FEF809394
:102400000803109207038C0F80930603A1E0A093AA
:10241000E5028091E502DD0FD82BD093E502809193
:10242000E402813009F090C01092E4020E94DE03C1
:102430002B013C018091E5028093BB0080910C034D
:1024400090910D03A0910E03B0910F03892B8A2B5D
:102450008B2BA1F00E94DE0320910C0330910D0321
:1024600040910E0350910F0364197509860997096D
:10247000261737074807590708F442C08091BC0067
:1024800083FDD8CFB5ECB093BC000E94DE032B01D6
:102490003C0180910A03813009F45AC080910703FE
:1024A0008C1710F4C0910703A6EEB2E0E4ECF2E062
:1024B00080E08C1751F19D9191938F5FFACF8091BD
:1024C0000C0390910D03A0910E03B0910F03892B83
:1024D0008A2B8B2B09F47DCF0E94DE0320910C0305
:1024E00030910D0340910E0350910F03641975094B
:1024F00086099709261737074807590708F069CF53
:1025000080910B030E949304C0E01092C302C09319
:10251000C202C017110609F057C041018E0C9F1C62
:10252000E401CE01881999098017910798F5D50122
:1025300011968D919C91DC01ED91FC910284F385C3
:10254000E02D09958993EDCFE5EEE093BC009DCF9A
:1025500080910C0390910D03A0910E03B0910F0395
:10256000892B8A2B8B2B09F494CF0E94DE032091B8
:102570000C0330910D0340910E0350910F03641929
:10258000750986099709261737074807590708F07C
:1025900080CFB6CFE00EF11EEC14FD0408F408CF96
:1025A00081E0DF91CF911F910F91FF90EF90DF902D
:1025B000CF90BF90AF909F908F907F906F905F90E3
:1025C0004F903F902F90089580E0EBCFCF93DF9313
:1025D00000D0CDB7DEB799838A8380916303909151
:1025E0006403FC012481358122303105B8F020815B
:1025F00031E03093100320933203109211031092B4
:10260000330321E042E050E0BE016F5F7F4F0E9444
:10261000A4050F900F90DF91CF91089580E0F9CF3E
:10262000FB0101900020E9F73197AF01461B570BE2
:10263000DC01ED91FC910280F381E02D09948F92F1
:102640009F92AF92BF92EF92FF920F931F93CF93FF
:10265000DF93CDB7DEB7A1970FB6F894DEBF0FBEFC
:10266000CDBF7C01FA01CB0119A2223008F42AE087
:102670008E010F5D1F4F822E912CB12CA12CBF011A
:10268000A50194010E94D01FF901CA016A300CF51E
:10269000605DD8016E938D01232B242B252B79F7B8
:1026A00090E080E0109721F0BD01C7010E94101357
:1026B000A1960FB6F894DEBF0FBECDBFDF91CF91CC
:1026C0001F910F91FF90EF90BF90AF909F908F90D0
:1026D0000895695CDECF462F50E070E060E02AE0AC
:1026E0000C941F132F923F924F925F926F927F92A2
:1026F0008F929F92AF92BF92CF92DF92EF92FF9212
:102700001F93CF93DF93EC016A017B01722EAB0123
:102710009601CB01B6010E94B71F6BEB71E08111EE
:1027200026C046015701E894B7F82FEF3FEF4FE777
:102730005FE7C501B4010E94B71F81110CC02FEFE4
:102740003FEF4FE75FE7C501B4010E94321D6FEB19
:1027500071E0181664F02FEF3FEF4FE75FE4C70119
:10276000B6010E94B21F1816B4F463EC71E0CE01FA
:10277000DF91CF911F91FF90EF90DF90CF90BF90AE
:10278000AF909F908F907F906F905F904F903F9011
:102790002F900C9410132FEF3FEF4FE75FECC70122
:1027A000B6010E94321D87FDE0CF20E030E0A90194
:1027B000C701B6010E94321D312C212C87FF09C0B0
:1027C0006DE2CE010E942D031C01F7FAF094F7F898
:1027D000F09410E060E070E080E09FE3711641F05B
:1027E00020E030E040E251E40E94111F1F5FF6CF6D
:1027F000A70196010E94A51E2B013C010E94831F88
:102800004B015C012AE0BC01A401CE010E941F1310
:102810007C01E20CF31C1123C1F1C501B4010E943B
:10282000371D9B01AC01C301B2010E94A41E4B01E4
:102830005C016EE2CE010E942D03E80EF91E1150DC
:1028400020F120E030E040E251E4C501B4010E94F3
:10285000981D2B013C010E94831F4B01B12CA12C20
:102860002AE0B501A401CE010E941F13E80EF91E53
:10287000C501B4010E94371D9B01AC01C301B20127
:102880000E94A41E4B015C01DACFC701DF91CF91FA
:102890001F91FF90EF90DF90CF90BF90AF909F90EF
:1028A0008F907F906F905F904F903F902F90089502
:1028B0000C941013CF93DF93EC0180913B03909124
:1028C0003C03009759F020913D0330913E032C17B3
:1028D0003D0720F081E0DF91CF910895BE016F5F49
:1028E0007F4F0E944021009789F090933C03809392
:1028F0003B03D0933E03C0933D0320913F033091AF
:102900004003232B39F7FC011082E4CF80E0E3CFB2
:102910000F931F93CF93DF938C01EC01099000205C
:10292000E9F72197C81BD90BCE010E945A142091B8
:102930003B0330913C03811117C02115310519F07B
:10294000C9010E94B72010923C0310923B031092E1
:10295000400310923F0310923E0310923D03DF911B
:10296000CF911F910F910895D0934003C0933F03DF
:10297000B801C901DF91CF911F910F910C940B22E7
:102980000E94FD2185ED8093BC0080910C03909105
:102990000D03A0910E03B0910F030796A11DB11D69
:1029A00023E0B695A795979587952A95D1F720911D
:1029B000BC0024FD03C010920A03089540910C034B
:1029C00050910D0360910E0370910F03452B462B20
:1029D000472B69F30097A105B10541F025E32A953E
:1029E000F1F700000197A109B109E1CF80910B0334
:1029F0000C9493044F925F926F927F928F929F926A
:102A0000AF92BF92CF92DF92EF92FF920F931F93FC
:102A1000CF93DF936C01DC019E968C9161E08F3F38
:102A200009F454C00E94AD0361E0E6018EA50E9446
:102A3000610364E670E080E090E00E94030460E0DF
:102A40008EA50E94610366E970E080E090E00E943C
:102A5000030461E08EA50E94610366E970E080E0F6
:102A600090E00E940304D6019C960D911C91F60102
:102A7000EF5BFF4F408051803297E080F180D0E0E3
:102A8000C0E027ECA22E21E0B22EC415D50508F037
:102A9000D0C0F701EC0FFD1FE0814E01BFEF8B1A94
:102AA0009B0AED3008F0A7C0F0E0E75AFA4E0C940C
:102AB000F21FA715B2158C15B7157E150A16D1157C
:102AC0006C15B015D615B415E915F015F60184A5E9
:102AD00095A50E948710C1CF80E077247394780E6B
:102AE000D701A80DB91DE801E881F9810680F781B9
:102AF000E02D6C91C8010995E40102C0772473941C
:102B0000219647018C0E9D1E672C6A94FFEF6F1271
:102B100084C0C70DD11DB9CF712CF701E80DF91D87
:102B20008081809366022296F701EC0FFD1F808161
:102B3000809365026091650270916602D801ED9103
:102B4000FC910084F185E02DC8010995D9CFD80109
:102B5000ED91FC910280F381E02DC80109951FC021
:102B600081E0BBCF712CBCCF92E0792ED6CFF7019C
:102B7000E80DF91D7080272D30E050E040E0BE01E7
:102B80006E5F7F4F6E0D7F1DE801E881F981028441
:102B9000F385E02DC8010995E401C70DD11D712C05
:102BA000AFCFF701E80DF91D7080A6CFD701A80DB2
:102BB000B91DF80180819181FC01268137816C91DA
:102BC000C801F90109952296F701EC0FFD1F7080ED
:102BD00097CFD801ED91FC910480F581E02DBDCF18
:102BE000F701E80DF91D608170E090E080E00E943F
:102BF0000304E401D4CF1F92EF93DF93CF93BF92EE
:102C0000AF920E9412220F900F900F900F900F9092
:102C10000F90C5CF82E0782E73CFD4016D914D0116
:102C2000D801ED91FC910484F585E02DC80109954A
:102C30006CCFE601E881F981028CF38DE02D60E034
:102C4000C601DF91CF911F910F91FF90EF90DF9020
:102C5000CF90BF90AF909F908F907F906F905F903C
:102C60004F9009940F931F93CF93DF93EC014F3F45
:102C70008FEF58076807780721F440E052E16AE7D0
:102C800070E04A835B836C837D832E8361E08F8158
:102C90000E94AD0361E08F810E94610388858F3FB0
:102CA00039F061E00E94AD0361E088850E94610314
:102CB0008F81082E000C990BFC01E255FA4FE4912C
:102CC000F0E0EE0FFF1FEE58FA4F259134913F8749
:102CD0002E87FC01E057FA4FE491EA8BE095EB8BED
:102CE00088858F3FA9F0082E000C990BFC01E25556
:102CF000FA4FE491F0E0EE0FFF1FEE58FA4F2591E6
:102D000034913D872C87FC01E057FA4FE491E88B22
:102D100088898095898B1FB7F89480916202811110
:102D200027C0E8EBF5E08491EAE9F5E09491E82F1B
:102D3000F0E0EE0FFF1FE859FA4FA591B491EC9126
:102D4000E92321F461E08AE00E94610361E08AE006
:102D50000E94AD038CB580618CBD8CB580648CBD48
:102D600061E08DE00E94AD0361E08BE00E94AD0365
:102D7000809162028F5F809362021FBF8E818F3FBE
:102D800011F488E08E839E810A811B812C813D8114
:102D900040E052E16AE770E080E00417150726077B
:102DA000370740F476956795579547958F5F86303E
:102DB000A1F787E09C709065282F2695922B909321
:102DC0003403809581708093350381E0DF91CF914A
:102DD0001F910F9108950C94561E1F920F920FB6DB
:102DE0000F9211242F933F938F939F93AF93BF9391
:102DF0008091AC029091AD02A091AE02B091AF0271
:102E00003091AB0223E0230F2D3758F50196A11D19
:102E1000B11D2093AB028093AC029093AD02A093BE
:102E2000AE02B093AF028091B0029091B102A09136
:102E3000B202B091B3020196A11DB11D8093B00200
:102E40009093B102A093B202B093B302BF91AF913D
:102E50009F918F913F912F910F900FBE0F901F90D8
:102E6000189526E8230F0296A11DB11DD2CF1F92FF
:102E70000F920FB60F9211242F933F934F935F93AE
:102E80006F937F938F939F93AF93BF93EF93FF9332
:102E9000E0910401F09105010995FF91EF91BF9137
:102EA000AF919F918F917F916F915F914F913F91E2
:102EB0002F910F900FBE0F901F9018951F920F9299
:102EC0000FB60F9211242F933F934F935F936F93FD
:102ED0007F938F939F93AF93BF93EF93FF93E09173
:102EE0000201F09103010995FF91EF91BF91AF911C
:102EF0009F918F917F916F915F914F913F912F9112
:102F00000F900FBE0F901F9018951F920F920FB643
:102F10000F9211242F933F934F935F936F937F935F
:102F20008F939F93AF93BF93EF93FF938091B900DB
:102F3000887F803609F44AC0F0F5883209F4A7C0CA
:102F400018F5803109F49BC0B8F4882309F4F9C05E
:102F5000883009F494C0FF91EF91BF91AF919F9198
:102F60008F917F916F915F914F913F912F910F9032
:102F70000FBE0F901F901895883109F488C08032D9
:102F800051F78093080314C0803409F49DC040F4C5
:102F90008033B9F38833F9F68093080385ECB0C029
:102FA000803509F485C0883509F496C0883499F6CF
:102FB0000E94C214D0CF883909F48CC038F5883704
:102FC00029F050F4883611F0803729F683E0809399
:102FD0000A031092AA0257C0883809F47BC08039CE
:102FE00019F0803809F0B7CF8091AA02803208F03A
:102FF00071C0E091AA0281E08E0F8093AA028091B5
:10300000BB00F0E0E657FD4F80833DC0803B39F0C8
:10301000E0F4803A09F479C0883A09F09CCF84E062
:1030200080930A031092890210928802E091C002F4
:10303000F091C10209958091880281110FC081E051
:10304000809388021092680209C0803C09F4A6CFE0
:10305000883C09F4A3CF883B09F07DCFE091890239
:1030600081E08E0F80938902F0E0E859FD4F808166
:103070008093BB00909189028091880229C0809141
:10308000E5028093BB0085EC8093BC0064CF9091F7
:10309000070380910603981758F5E091070381E034
:1030A0008E0F80930703F0E0EA51FD4F8081E9CF56
:1030B000E091070381E08E0F809307038091BB00AE
:1030C000F0E0EA51FD4F8083909107038091060361
:1030D0009817C8F285E8D8CFE091070381E08E0FFA
:1030E000809307038091BB00F0E0EA51FD4F80839D
:1030F0008091090381115CCF81E08093E40284EA2E
:103100008093BC0010920A0326CF85EC8093BC000C
:1031100010920A038091AA02803230F4E091AA0250
:10312000F0E0E657FD4F10826091AA0270E0E09156
:10313000BE02F091BF028AE892E009951092AA02BD
:103140000ACF1092080334CF1F93CF93DF931092CE
:10315000500310924F0388EE93E0A0E0B0E080931C
:10316000510390935203A0935303B093540383E10C
:1031700091E090934E0380934D0380E58093340358
:103180001092350384E190E00E941B20EC0183E55E
:1031900091E09983888388E08F8389E088878AE338
:1031A00093E09A87898711E01B87D0936803C093C7
:1031B000670383E490E00E941B20FC0113821282CB
:1031C00020EF30E034A323A380E491E096A385A30D
:1031D00017A235832483978386832FEE30E03187CF
:1031E00020878FE391E09387828715861486178660
:1031F0001686318B208B938B828B158A148A178AC3
:10320000168A8FEF9FEF918F808F938F828F148F0D
:10321000158F168E178E10A312A211A2D5A7C4A7C0
:1032200087E086A717A610AA11AA12AA13AA8FEFE1
:1032300086AF85E291E091838083DF01DF9683E7AB
:1032400091E011969C938E93129688E490E08D9372
:103250009C93F0936603E0936503109264031092CD
:1032600063038DE493E0909362038093610380E0B5
:1032700090E0A0ECBFE78093590390935A03A0938A
:103280005B03B0935C0380935D0390935E03A09314
:103290005F03B093600362E082E00E94AD0362E0EE
:1032A00083E00E94AD03E0EBF5E0E491F0E0EE0F87
:1032B000FF1FEC55FA4FA591B491B0934203A09330
:1032C0004103E2E9F5E0449140934503E1EBF5E089
:1032D000E491F0E0EE0FFF1FEC55FA4FC591D49149
:1032E000D0934403C0934303E3E9F5E0E491E09312
:1032F0004603109248031092490310924A03109219
:103300004B032BE33FE1C9010197F1F79C91842F17
:10331000892391E009F490E08881E82309F0926024
:1033200021E433E09093470330933703209336032F
:1033300085EB91E1909303018093020180916900F4
:103340008C7F816080936900E89A81E080934C03D0
:1033500030933903209338038BEB91E1909305016F
:103360008093040180916900837F84608093690069
:10337000E99A82E080934C0310923C0310923B0345
:1033800010923E0310923D031092400310923F03AF
:1033900084E090E00E945A1420913B0330913C035A
:1033A000811116C02115310519F0C9010E94B720FD
:1033B00010923C0310923B031092400310923F0383
:1033C00010923E0310923D03DF91CF911F9108951B
:1033D00084E090E09093400380933F0367EE71E0B8
:1033E000C901DF91CF911F910C940B22CF93DF93F2
:1033F00000D000D000D01F92CDB7DEB7789484B54E
:10340000826084BD84B5816084BD85B5826085BDE0
:1034100085B5816085BD80916E00816080936E006E
:103420001092810080918100826080938100809160
:103430008100816080938100809180008160809311
:1034400080008091B10084608093B1008091B000D1
:1034500081608093B00080917A00846080937A00CC
:1034600080917A00826080937A0080917A008160F6
:1034700080937A0080917A00806880937A0010921D
:10348000C1008091650390916603DC01ED91FC9190
:103490000084F185E02D4FEF5FEFBA01099580912F
:1034A000650390916603DC01ED91FC91008CF18D38
:1034B000E02D61E009950E947C0480916303909166
:1034C0006403009711F00E94B72086E090E00E940C
:1034D0001B208C01809161039091620324E4F80128
:1034E000208392838183138280E290E0958384839A
:1034F00010936403009363030E947C0481E0D8016D
:1035000013968C93C8010E94C2058823C9F082EAF1
:1035100090E30E94E6126AE070E080E090E00E9492
:1035200003048DE293EF0E94E61243E050E0BE01F7
:103530006F5F7F4F80916303909164030E94C1117C
:1035400061E085E00E94AD0360E085E00E946103D8
:1035500062E084E00E94AD0390E080E00E94EB1600
:103560008F3609F05CC28CEE91E00E94881481E0F5
:1035700090E00E94EB16682F80ED860F8A3098F459
:10358000062E000C770B60537109072E000C880B78
:10359000990B0E94391D6093BA027093BB0280930D
:1035A000BC029093BD0282E090E00E94EB1690ED89
:1035B000980F9A3040F4082E000C990BC097909306
:1035C00001018093000183E090E00E94EB1680935C
:1035D000B90284E090E00E94EB168093B80285E087
:1035E00090E00E94EB168093B70286E090E00E9484
:1035F000EB168093B60280916503909166030E945A
:103600007C0AE0916503F0916603168EFF24F39423
:10361000F48EF58E80EE97E0938F828F918F808F5E
:103620000AE010E0158B048B84E190E0978B868B89
:1036300063EF71E0CF010E94581468EE73E080E000
:1036400090E00E9403048091650390916603FC0161
:10365000158B048B28E230E0378B268B63E072E019
:103660000E94581419820091B4021091B502D80139
:1036700014968D919C911597892BE1F08C91F09285
:10368000100380933203109211031092330320E051
:1036900041E050E0BE016F5F7F4FC8010E94A4056A
:1036A000882341F047E050E0BE016F5F7F4FC801C3
:1036B0000E94C1112A81822F90E044E09595879560
:1036C0004A95E1F7982F990F990F182F191B110F91
:1036D000120F2B81822F90E054E0959587955A9593
:1036E000E1F7982F990F990F682F691B660F620FEA
:1036F00080916503909166030E946B136AE072E00B
:1037000080916503909166030E945814612F809107
:103710006503909166030E946B1368EE73E080E08E
:1037200090E00E94030480916503909166032AE073
:1037300030E0FC01358B248B2CE330E0378B268B7B
:103740006CE072E00E9458140091650310916603CA
:1037500080E094E20E94E612882309F46BC164E1E0
:1037600070E080E090E00E94030446E050E0BE017B
:103770006F5F7F4F80916303909164030E94C1113A
:10378000882309F457C1FB80CE0101960E940D03E6
:10379000F81250C1FE80CE0104960E940D03F8126B
:1037A00049C129813A81322723273227A7E1B1E194
:1037B0000E94951E2EE095958795779567952A9599
:1037C000D1F764597141810991090E94391D20E0A6
:1037D00030E048EC52E40E94111F6B017C01C09262
:1037E0005D03D0925E03E0925F03F09260032C8150
:1037F0003D81322723273227A1E7B2E00E94951EA0
:103800003CE096958795779567953A95D1F70E9414
:10381000371D20E030E048EC52E40E94111F609315
:10382000590370935A0380935B0390935C0322E0E7
:10383000B701A601C8010E94721368EE73E080E030
:1038400090E00E94030480916503909166030AE072
:1038500010E0DC0155961C930E93549720E530E060
:1038600057963C932E9356976AE172E00E94581443
:103870004091BA025091BB026091BC027091BD02AE
:1038800022E080916503909166030E94721368EEB6
:1038900073E080E090E00E940304809165039091C2
:1038A0006603FC01158B048B24E630E0378B268BF6
:1038B0006EE272E00E945814009165031091660355
:1038C000C0900001D09001010D2C000CEE08FF0803
:1038D0002AE0B701A601F7FE0CC06DE2C8010E9404
:1038E0002D0344275527BA014C195D096E097F093C
:1038F0002AE0C8010E941F1368EE73E080E090E0A8
:103900000E94030480916503909166030AE010E031
:10391000DC0155961C930E93549728E730E0579698
:103920003C932E93569764E472E00E945814809161
:10393000650390916603FC01158B048B2CE830E045
:10394000378B268B66E572E00E9458146091B902AD
:1039500080916503909166030E946B1380916503CB
:1039600090916603DC0155961C930E93549720EAC0
:1039700030E057963C932E93569769E572E00E948B
:1039800058146091B80280916503909166030E947B
:103990006B138091650390916603FC01158B048B7A
:1039A00024EB30E0378B268B6CE572E00E945814D4
:1039B0006091B70280916503909166030E946B133A
:1039C0008091650390916603DC0155961C930E93DC
:1039D000549728EC30E057963C932E9356976FE51A
:1039E00072E00E9458146091B60280916503909134
:1039F00066030E946B1368E873E180E090E00E9428
:103A0000030480916503909166030E947C0A00E0A4
:103A100010E001151105E9F30E940000FACF81368C
:103A200019F487EE91E0A1CD863609F0A0CD8FEE96
:103A300091E09BCDC12CD12C80ECE82E8FE7F82EA5
:103A4000F6CE80913B0390913C03009711F00E94C9
:103A5000B7208091630390916403009711F00C9458
:103A6000B72008950E94741D08F481E00895E89439
:103A700009C097FB3EF490958095709561957F4FB6
:103A80008F4F9F4F9923A9F0F92F96E9BB27939564
:103A9000F695879577956795B795F111F8CFFAF474
:103AA000BB0F11F460FF1BC06F5F7F4F8F4F9F4FA5
:103AB00016C0882311F096E911C0772321F09EE803
:103AC000872F762F05C0662371F096E8862F70E069
:103AD00060E02AF09A95660F771F881FDAF7880F43
:103AE0009695879597F90895990F0008550FAA0B99
:103AF000E0E8FEEF16161706E807F907C0F0121601
:103B00001306E407F50798F0621B730B840B950B03
:103B100039F40A2661F0232B242B252B21F4089558
:103B20000A2609F4A140A6958FEF811D811D0895F5
:103B30000E94AB1D0C941C1E0E940E1E38F00E94A9
:103B4000151E20F0952311F00C94051E0C940B1EED
:103B500011240C94501E0E942D1E70F3959FC1F3EA
:103B6000950F50E0551F629FF001729FBB27F00D2B
:103B7000B11D639FAA27F00DB11DAA1F649F662780
:103B8000B00DA11D661F829F2227B00DA11D621FCF
:103B9000739FB00DA11D621F839FA00D611D221F89
:103BA000749F3327A00D611D231F849F600D211D6D
:103BB000822F762F6A2F11249F5750409AF0F1F0F0
:103BC00088234AF0EE0FFF1FBB1F661F771F881F59
:103BD00091505040A9F79E3F510580F00C94051E6E
:103BE0000C94501E5F3FE4F3983ED4F3869577958E
:103BF0006795B795F795E7959F5FC1F7FE2B880FFF
:103C0000911D9695879597F9089597F99F6780E894
:103C100070E060E008959FEF80EC089500240A941E
:103C20001616170618060906089500240A94121697
:103C30001306140605060895092E0394000C11F4CA
:103C4000882352F0BB0F40F4BF2B11F460FF04C077
:103C50006F5F7F4F8F4F9F4F089557FD9058440FD0
:103C6000551F59F05F3F71F04795880F97FB991FDB
:103C700061F09F3F79F08795089512161306140698
:103C8000551FF2CF4695F1DF08C016161706180625
:103C9000991FF1CF86957105610508940895E89400
:103CA000BB2766277727CB0197F90895F999FECFAF
:103CB00092BD81BDF89A992780B508952F923F92C1
:103CC0004F925F926F927F928F929F92AF92BF922C
:103CD000CF92DF92EF92FF920F931F93CF93DF93D8
:103CE000CDB7DEB7CA1BDB0B0FB6F894DEBF0FBE35
:103CF000CDBF09942A88398848885F846E847D8482
:103D00008C849B84AA84B984C884DF80EE80FD8083
:103D10000C811B81AA81B981CE0FD11D0FB6F894F9
:103D2000DEBF0FBECDBFED010895A29FB001B39FCE
:103D3000C001A39F700D811D1124911DB29F700DB4
:103D4000811D1124911D08955058BB27AA270E9458
:103D5000BC1E0C941C1E0E940E1E38F00E94151EE4
:103D600020F039F49F3F19F426F40C940B1E0EF446
:103D7000E095E7FB0C94051EE92F0E942D1E58F3D9
:103D8000BA17620773078407950720F079F4A6F540
:103D90000C944F1E0EF4E0950B2EBA2FA02D0B01A4
:103DA000B90190010C01CA01A0011124FF27591B80
:103DB00099F0593F50F4503E68F11A16F040A22F86
:103DC000232F342F4427585FF3CF469537952795F7
:103DD000A795F0405395C9F77EF41F16BA0B620BF6
:103DE000730B840BBAF09150A1F0FF0FBB1F661F3D
:103DF000771F881FC2F70EC0BA0F621F731F841F80
:103E000048F4879577956795B795F7959E3F08F0A5
:103E1000B0CF9395880F08F09927EE0F9795879567
:103E200008950E94251F0C941C1E0E94151E58F018
:103E30000E940E1E40F029F45F3F29F00C94051EED
:103E400051110C94501E0C940B1E0E942D1E68F3F1
:103E50009923B1F3552391F3951B550BBB27AA2743
:103E600062177307840738F09F5F5F4F220F331F7D
:103E7000441FAA1FA9F335D00E2E3AF0E0E832D045
:103E800091505040E695001CCAF72BD0FE2F29D048
:103E9000660F771F881FBB1F261737074807AB071A
:103EA000B0E809F0BB0B802DBF01FF2793585F4F8F
:103EB0003AF09E3F510578F00C94051E0C94501E6C
:103EC0005F3FE4F3983ED4F3869577956795B79571
:103ED000F7959F5FC9F7880F911D9695879597F97C
:103EE0000895E1E0660F771F881FBB1F62177307F5
:103EF0008407BA0720F0621B730B840BBA0BEE1F0A
:103F000088F7E09508950E94351E88F09F5798F035
:103F1000B92F9927B751B0F0E1F0660F771F881FCE
:103F2000991F1AF0BA95C9F714C0B13091F00E94E8
:103F30004F1EB1E008950C944F1E672F782F8827ED
:103F4000B85F39F0B93FCCF3869577956795B3950F
:103F5000D9F73EF490958095709561957F4F8F4F7E
:103F60009F4F08950E94741D08F48FEF08950E94DA
:103F7000741D880B990B089597FB072E16F4009477
:103F800007D077FD09D00E94072007FC05D03EF43A
:103F9000909581959F4F0895709561957F4F0895F5
:103FA000A1E21A2EAA1BBB1BFD010DC0AA1FBB1F3D
:103FB000EE1FFF1FA217B307E407F50720F0A21BAF
:103FC000B30BE40BF50B661F771F881F991F1A941C
:103FD00069F760957095809590959B01AC01BD0146
:103FE000CF010895EE0FFF1F0590F491E02D099485
:103FF0000E94951E332312F48A1B9B0B0C94022003
:104000000E94951EB7FF0895821B930B0895AA1B6B
:10401000BB1B51E107C0AA1FBB1FA617B70710F0B3
:10402000A61BB70B881F991F5A95A9F780959095E5
:10403000BC01CD0108950F931F93CF93DF9382307E
:10404000910510F482E090E0E0916B03F0916C0335
:1040500030E020E0B0E0A0E0309799F42115310580
:1040600009F44AC0281B390B24303105D8F58A8160
:104070009B816115710589F1FB0193838283FE01A8
:1040800011C0408151810281138148175907E0F026
:104090004817590799F4109761F012960C931297EC
:1040A00013961C933296CF01DF91CF911F910F9100
:1040B000089500936B0310936C03F4CF2115310521
:1040C00051F04217530738F0A901DB019A01BD01F5
:1040D000DF01F801C1CFEF01F9CF90936C0380931A
:1040E0006B03CDCFFE01E20FF31F8193919322501A
:1040F000310939832883D7CF2091690330916A032E
:10410000232B41F4209108013091090130936A0377
:104110002093690320910601309107012115310593
:1041200041F42DB73EB740910A0150910B01241B79
:10413000350BE0916903F0916A03E217F307A0F4ED
:104140002E1B3F0B2817390778F0AC014E5F5F4FED
:104150002417350748F04E0F5F1F50936A034093B2
:104160006903819391939FCFF0E0E0E09CCFCF93E0
:10417000DF930097E9F0FC01329713821282A0913D
:104180006B03B0916C03ED0130E020E01097A1F4D7
:1041900020813181820F931F2091690330916A033E
:1041A0002817390709F061C0F0936A03E0936903A7
:1041B000DF91CF910895EA01CE17DF07E8F54A8134
:1041C0005B819E0141155105B1F7E901FB83EA834B
:1041D00049915991C40FD51FEC17FD0761F48081F7
:1041E00091810296840F951FE901998388838281CA
:1041F00093819B838A83F0E0E0E012968D919C91FD
:1042000013970097B9F52D913C911197CD01029626
:10421000820F931F2091690330916A032817390791
:1042200039F6309751F510926C0310926B03B093EE
:104230006A03A0936903BCCFD383C28340815181B9
:10424000840F951FC817D90761F44E5F5F4F8881AF
:104250009981480F591F518340838A819B819383A1
:1042600082832115310509F0B0CFF0936C03E09300
:104270006B039ECFFD01DC01C0CF13821282D7CF2A
:10428000B0E0A0E0E6E4F1E20C94601E8C0100973F
:1042900051F4CB010E941B208C01C801CDB7DEB7C1
:1042A000E0E10C947C1EFC01E60FF71F9C012250FC
:1042B0003109E217F30708F49DC0D901CD91DC91D3
:1042C0001197C617D70798F0C530D10530F3CE0146
:1042D00004978617970708F3C61BD70B2297C1933D
:1042E000D1936D937C93CF010E94B720D6CF5B0111
:1042F000AC1ABD0A4C018C0E9D1EA0916B03B091AF
:104300006C03512C412CF12CE12C109731F580914C
:10431000690390916A038815990509F05CC04616F7
:10432000570608F058C08091060190910701009748
:1043300041F48DB79EB740910A0150910B01841B47
:10434000950BE817F90708F055C0F0936A03E0935E
:104350006903F90171836083A0CF8D919C911197BE
:1043600012966C90129713967C901397A815B90526
:1043700059F56C0142E0C40ED11CCA14DB0420F1D3
:10438000AC014A195B09DA011296159780F0628236
:10439000738251834083D9016D937C93E114F104BE
:1043A00071F0D7011396FC93EE93129776CF229675
:1043B0008C0F9D1FF90191838083F301EFCFF09360
:1043C0006C03E0936B0369CF4816590608F42C017F
:1043D0007D01D3019ACFCB010E941B207C01009765
:1043E00049F0AE01B8010E940222C8010E94B72024
:1043F000870153CF10E000E050CF81E090E0F894C7
:104400000C94A624FB01DC0102C001900D924150E6
:104410005040D8F70895FB01DC0101900D92002077
:10442000E1F70895B0E0A0E0E8E1F2E20C946E1E3E
:10443000AE014B5F5F4FFA0161917191AF018091C5
:104440006F03909170030E942822E2E00C948A1E70
:10445000ABE0B0E0EEE2F2E20C945E1E7C013B01C8
:104460008A01FC0117821682838181FFC8C1CE01B7
:1044700001965C01F7019381F30193FD859193FF10
:1044800081913F01882309F453C1853239F493FDAA
:10449000859193FF81913F01853229F4B70190E026
:1044A0000E941824E7CF912C212C312CFFE1F31529
:1044B00038F08B3211F190F4803209F1833229F116
:1044C00037FC3CC020ED280F2A3050F536FE20C0C6
:1044D0008AE0989E200D1124922E06C08D3291F014
:1044E000803371F7689430F8F30193FD859193FF61
:1044F00081913F018111DACF21C0689431F868942D
:1045000032F8F2CF689433F8EFCF689434F8ECCFF8
:10451000EAE02E9E200D1124222E689435F8E4CF77
:104520008E3229F436FC04C1689436F8DDCF8C361F
:1045300019F4689437F8D8CF8836B1F2982F9F7D58
:1045400095549330E0F08336A1F18337C1F1833580
:1045500009F063C02801F2E04F0E511CF801C08041
:10456000D180692D70E036FC02C06FEF7FEFC6018D
:104570000E9402244C01689437F882010AC00C5F43
:104580001F4FFFE3F98388248394912C6501E894FD
:1045900037F833FE2DC0522C8114910471F555204B
:1045A00009F468CFB70180E290E00E9418245A9481
:1045B000F6CFF801808189830E5F1F4FE4CF280179
:1045C000F2E04F0E511CF801C080D180692D70E0DF
:1045D00036FC02C06FEF7FEFC6010E940D244C0134
:1045E0008201D5CFB70180E290E00E9418242A947E
:1045F0002814190409F0B0F7CECFF60137FC8591E5
:1046000037FE81916F01B70190E00E94182451108C
:104610005A94F1E08F1A9108BFCF843619F0893689
:1046200009F077C0F80137FE6BC06081718182812B
:1046300093810C5F1F4FF32DFF763F2E97FF09C02C
:1046400090958095709561957F4F8F4F9F4F68949F
:1046500037F82AE030E0A5010E944824C82ECA1885
:104660008C2C432C36FE0CC0E89440F8C91440F45E
:1046700034FE05C032FC03C0F32DFE7E4F2E892C84
:1046800044FE95C0FE01EC0DF11D8081803309F0E0
:1046900087C0242D297E422E842D8870582E43FCFD
:1046A00095C040FE8FC09C2C821418F42C0C922CC8
:1046B000981844FE91C0B70180E390E00E9418244E
:1046C00042FE09C088E790E041FE02C088E590E024
:1046D000B7010E941824C91408F48AC0CA94D12CC6
:1046E0009FEFC91AD90ACA0CDB1CF60182916F012F
:1046F000B70190E00E941824AC14BD04B1F74FCF6D
:1047000060817181072E000C880B990B0E5F1F4F83
:1047100092CFD32CE894D4F82AE030E0853739F1F1
:10472000232D297FD22E8F3601F148F48835A9F048
:10473000F701868197812B96E2E10C947A1E8037EF
:1047400049F08837A9F7D4FE02C06894D2F820E176
:1047500030E00DC06894D4F8F6CF34FE03C0822F49
:104760008660D82E20E132E002C028E030E0F80177
:10477000D7FE0FC060817181828193810C5F1F4FD2
:10478000A5010E944824C82ECA183D2CE89437F889
:1047900067CF6081718190E080E00E5F1F4FF0CFA6
:1047A00042FC02C0839478CF8394839475CF842D88
:1047B000867809F471CFF6CFB70180E290E00E94CD
:1047C000182483948214C0F3512C73CF522C5818A0
:1047D000821408F46ECFF8CF842D867809F47BCF4D
:1047E0008BE241FE80E247FC8DE2B70190E071CFA1
:1047F000B70180E390E00E9418249A946CCF8FEF69
:104800009FEF99CFFC010590615070400110D8F7DF
:10481000809590958E0F9F1F0895FC016150704008
:1048200001900110D8F7809590958E0F9F1F0895E5
:104830000F931F93CF93DF93182F092FEB018B81D9
:1048400081FD09C01FEF0FEF812F902FDF91CF91D6
:104850001F910F91089582FF14C02E813F818C819A
:104860009D81281739073CF4E881F981CF01019631
:104870009983888310838E819F8101969F838E8385
:10488000E3CFE885F985812F0995892BA1F3DACF4C
:10489000FA01AA27283051F1203181F1E8946F9371
:1048A0006E7F6E5F7F4F8F4F9F4FAF4FB1E03ED017
:1048B000B4E03CD0670F781F891F9A1FA11D680FB5
:1048C000791F8A1F911DA11D6A0F711D811D911DE8
:1048D000A11D20D009F468943F912AE0269F11245D
:1048E0003019305D3193DEF6CF010895462F4770C1
:1048F000405D4193B3E00FD0C9F7F6CF462F4F701C
:10490000405D4A3318F0495D31FD4052419302D079
:10491000A9F7EACFB4E0A69597958795779567951F
:10492000BA95C9F700976105710508959B01AC011F
:104930000A2E06945795479537952795BA95C9F746
:10494000620F731F841F951FA01D089512E0C2EE11
:10495000D2E004C0FE010E94F21F2196C33ED1079F
:10496000C9F7F894FFCF0200360436040000730341
:1049700080002888E8000000003E0611068410E749
:10498000050A06F705E805000000007E0E340384E2
:104990001083103209B108D308ED075E0817089D8F
:1049A0000FE2079E09BC10B010A41036096D06A6D0
:1049B00008D707FA14000000003216D106C606C256
:1049C00007A30771076E0761075D112D11451108D7
:1049D00011C7103B071C07F2060009CF0300C130C6
:1049E00009ED046403128109E80385007809CB0509
:1049F000392C00340207F72008EA000007C010072E
:104A0000C10008C5303007C7B7073A5508B1001ACA
:104A100009B60308822707F20007260101110129C0
:104A20000B6E616E00696E66006F766600556E6B88
:104A30006E6F776E206F7065726174696F6E20693A
:104A4000642061742025643A2025640A004155548D
:104A50004F004F4E004F46460053797374656D20EA
:104A600053746172742E2E2E0054696D653A2000C5
:104A70003A0054656D702053656E736F723A200072
:104A80005365742054656D702028454550524F4D34
:104A9000293A200048797374657265736973202818
:104AA000454550524F4D293A200054696D65727347
:104AB0002028454550524F4D293A2000313D0032C3
:084AC0003D00333D00343D00D0
:107E0000112484B714BE81FFF0D085E080938100F7
:107E100082E08093C00088E18093C10086E0809377
:107E2000C20080E18093C4008EE0C9D0259A86E02C
:107E300020E33CEF91E0309385002093840096BBD3
:107E4000B09BFECF1D9AA8958150A9F7CC24DD24C4
:107E500088248394B5E0AB2EA1E19A2EF3E0BF2EE7
:107E6000A2D0813461F49FD0082FAFD0023811F036
:107E7000013811F484E001C083E08DD089C08234E0
:107E800011F484E103C0853419F485E0A6D080C0E4
:107E9000853579F488D0E82EFF2485D0082F10E0AE
:107EA000102F00270E291F29000F111F8ED06801E7
:107EB0006FC0863521F484E090D080E0DECF843638
:107EC00009F040C070D06FD0082F6DD080E0C81688
:107ED00080E7D80618F4F601B7BEE895C0E0D1E017
:107EE00062D089930C17E1F7F0E0CF16F0E7DF06D8
:107EF00018F0F601B7BEE89568D007B600FCFDCFD4
:107F0000A601A0E0B1E02C9130E011968C91119780
:107F100090E0982F8827822B932B1296FA010C0160
:107F200087BEE89511244E5F5F4FF1E0A038BF0790
:107F300051F7F601A7BEE89507B600FCFDCF97BE46
:107F4000E89526C08437B1F42ED02DD0F82E2BD052
:107F50003CD0F601EF2C8F010F5F1F4F84911BD097
:107F6000EA94F801C1F70894C11CD11CFA94CF0C13
:107F7000D11C0EC0853739F428D08EE10CD085E9AC
:107F80000AD08FE07ACF813511F488E018D01DD067
:107F900080E101D065CF982F8091C00085FFFCCF94
:107FA0009093C60008958091C00087FFFCCF809118
:107FB000C00084FD01C0A8958091C6000895E0E648
:107FC000F0E098E1908380830895EDDF803219F02E
:107FD00088E0F5DFFFCF84E1DECF1F93182FE3DFCA
:107FE0001150E9F7F2DF1F91089580E0E8DFEE27F6
:047FF000FF270994CA
:027FFE00040479
:00000001FF
